{"contracts/facets/VoteContentFacet.sol":{"VoteContentFacet":{"abi":[{"anonymous":false,"inputs":[{"indexed":true,"internalType":"address","name":"previousOwner","type":"address"},{"indexed":true,"internalType":"address","name":"newOwner","type":"address"}],"name":"OwnershipTransferred","type":"event"},{"anonymous":false,"inputs":[{"indexed":true,"internalType":"address","name":"voter","type":"address"},{"indexed":false,"internalType":"bool","name":"vote","type":"bool"}],"name":"VoteCast","type":"event"},{"inputs":[{"internalType":"address","name":"voterAddress","type":"address"}],"name":"addVoters","outputs":[],"stateMutability":"nonpayable","type":"function"},{"inputs":[],"name":"checkNFTAdress","outputs":[{"internalType":"address","name":"","type":"address"}],"stateMutability":"view","type":"function"},{"inputs":[],"name":"checkTokenAdress","outputs":[{"internalType":"address","name":"","type":"address"}],"stateMutability":"view","type":"function"},{"inputs":[{"internalType":"uint256","name":"contentID","type":"uint256"}],"name":"getContent","outputs":[{"components":[{"internalType":"string","name":"contentName","type":"string"},{"internalType":"address","name":"contentCreator","type":"address"},{"internalType":"uint256","name":"contentID","type":"uint256"},{"internalType":"bool","name":"flagged","type":"bool"},{"internalType":"uint256","name":"flaggedTimestamp","type":"uint256"},{"internalType":"address","name":"flaggedBy","type":"address"},{"internalType":"string","name":"reasonForFlagging","type":"string"},{"internalType":"string","name":"contentDescription","type":"string"},{"internalType":"bool","name":"isVotedOn","type":"bool"},{"internalType":"address[]","name":"voters","type":"address[]"},{"internalType":"uint256","name":"totalVoteCount","type":"uint256"},{"internalType":"uint256","name":"flaggedVotes","type":"uint256"},{"internalType":"uint256","name":"yesVotes","type":"uint256"},{"internalType":"uint256","name":"noVotes","type":"uint256"}],"internalType":"struct Content","name":"","type":"tuple"}],"stateMutability":"view","type":"function"},{"inputs":[],"name":"getRandomVoters","outputs":[],"stateMutability":"nonpayable","type":"function"},{"inputs":[],"name":"isVotingOn","outputs":[{"internalType":"bool","name":"","type":"bool"}],"stateMutability":"view","type":"function"},{"inputs":[],"name":"owner","outputs":[{"internalType":"address","name":"","type":"address"}],"stateMutability":"view","type":"function"},{"inputs":[],"name":"renounceOwnership","outputs":[],"stateMutability":"nonpayable","type":"function"},{"inputs":[{"internalType":"address","name":"NFTaddress","type":"address"}],"name":"setNFTAdress","outputs":[],"stateMutability":"nonpayable","type":"function"},{"inputs":[{"internalType":"address","name":"tokenAddress","type":"address"}],"name":"setTokenAdress","outputs":[],"stateMutability":"nonpayable","type":"function"},{"inputs":[],"name":"startVoting","outputs":[{"internalType":"bool","name":"","type":"bool"}],"stateMutability":"nonpayable","type":"function"},{"inputs":[],"name":"stopVoting","outputs":[{"internalType":"bool","name":"","type":"bool"}],"stateMutability":"nonpayable","type":"function"},{"inputs":[],"name":"totalFlaggedContent","outputs":[{"internalType":"uint256","name":"","type":"uint256"}],"stateMutability":"view","type":"function"},{"inputs":[],"name":"totalVoters","outputs":[{"internalType":"uint256","name":"","type":"uint256"}],"stateMutability":"view","type":"function"},{"inputs":[{"internalType":"address","name":"newOwner","type":"address"}],"name":"transferOwnership","outputs":[],"stateMutability":"nonpayable","type":"function"},{"inputs":[{"internalType":"bool","name":"voteValue","type":"bool"},{"internalType":"uint256","name":"contentID","type":"uint256"}],"name":"vote","outputs":[],"stateMutability":"nonpayable","type":"function"}],"evm":{"bytecode":{"linkReferences":{},"object":"608060405234801561001057600080fd5b5061002d61002261003260201b60201c565b61003a60201b60201c565b6100fe565b600033905090565b60008060009054906101000a900473ffffffffffffffffffffffffffffffffffffffff169050816000806101000a81548173ffffffffffffffffffffffffffffffffffffffff021916908373ffffffffffffffffffffffffffffffffffffffff1602179055508173ffffffffffffffffffffffffffffffffffffffff168173ffffffffffffffffffffffffffffffffffffffff167f8be0079c531659141344cd1fd0a4f28419497f9722a3daafe3b4186f6b6457e060405160405180910390a35050565b6123bc806200010e6000396000f3fe608060405234801561001057600080fd5b50600436106101005760003560e01c8063715018a611610097578063e7a595ca11610066578063e7a595ca14610251578063f06459ee1461026f578063f2fde38b1461028b578063fab2f86b146102a757610100565b8063715018a6146101ef5780638bb0d810146101f95780638da5cb5b14610215578063d1817c2c1461023357610100565b8063219ea8d3116100d3578063219ea8d31461018d5780634c105d1b146101ab5780635f5300ff146101c757806360777e1d146101e557610100565b80630b7ad54c146101055780631019b6c21461013557806310e6e06c146101535780631ec6b60a1461016f575b600080fd5b61011f600480360381019061011a9190611797565b6102c5565b60405161012c9190611ab1565b60405180910390f35b61013d610658565b60405161014a9190611ae2565b60405180910390f35b61016d60048036038101906101689190611b29565b610665565b005b6101776109c8565b6040516101849190611b78565b60405180910390f35b6101956109f3565b6040516101a29190611ba2565b60405180910390f35b6101c560048036038101906101c09190611be9565b610a20565b005b6101cf610d79565b6040516101dc9190611ae2565b60405180910390f35b6101ed610d86565b005b6101f7610edf565b005b610213600480360381019061020e9190611be9565b610ef3565b005b61021d610f42565b60405161022a9190611ba2565b60405180910390f35b61023b610f6b565b6040516102489190611b78565b60405180910390f35b610259610f85565b6040516102669190611ba2565b60405180910390f35b61028960048036038101906102849190611be9565b610fb1565b005b6102a560048036038101906102a09190611be9565b610fff565b005b6102af611082565b6040516102bc9190611b78565b60405180910390f35b6102cd6116bd565b60016007016000838152602001908152602001600020604051806101c00160405290816000820180546102ff90611c45565b80601f016020809104026020016040519081016040528092919081815260200182805461032b90611c45565b80156103785780601f1061034d57610100808354040283529160200191610378565b820191906000526020600020905b81548152906001019060200180831161035b57829003601f168201915b505050505081526020016001820160009054906101000a900473ffffffffffffffffffffffffffffffffffffffff1673ffffffffffffffffffffffffffffffffffffffff1673ffffffffffffffffffffffffffffffffffffffff168152602001600282015481526020016003820160009054906101000a900460ff16151515158152602001600482015481526020016005820160009054906101000a900473ffffffffffffffffffffffffffffffffffffffff1673ffffffffffffffffffffffffffffffffffffffff1673ffffffffffffffffffffffffffffffffffffffff16815260200160068201805461046c90611c45565b80601f016020809104026020016040519081016040528092919081815260200182805461049890611c45565b80156104e55780601f106104ba576101008083540402835291602001916104e5565b820191906000526020600020905b8154815290600101906020018083116104c857829003601f168201915b505050505081526020016007820180546104fe90611c45565b80601f016020809104026020016040519081016040528092919081815260200182805461052a90611c45565b80156105775780601f1061054c57610100808354040283529160200191610577565b820191906000526020600020905b81548152906001019060200180831161055a57829003601f168201915b505050505081526020016008820160009054906101000a900460ff161515151581526020016009820180548060200260200160405190810160405280929190818152602001828054801561062057602002820191906000526020600020905b8160009054906101000a900473ffffffffffffffffffffffffffffffffffffffff1673ffffffffffffffffffffffffffffffffffffffff16815260200190600101908083116105d6575b50505050508152602001600a8201548152602001600b8201548152602001600c8201548152602001600d820154815250509050919050565b6000600160020154905090565b600160060160009054906101000a900460ff16156106b8576040517f08c379a00000000000000000000000000000000000000000000000000000000081526004016106af90611cd3565b60405180910390fd5b6106c1336110ae565b610700576040517f08c379a00000000000000000000000000000000000000000000000000000000081526004016106f790611d3f565b60405180910390fd5b61070933611162565b610748576040517f08c379a000000000000000000000000000000000000000000000000000000000815260040161073f90611dd1565b60405180910390fd5b6000600160090160003373ffffffffffffffffffffffffffffffffffffffff1673ffffffffffffffffffffffffffffffffffffffff1681526020019081526020016000206040518060800160405290816000820160009054906101000a900473ffffffffffffffffffffffffffffffffffffffff1673ffffffffffffffffffffffffffffffffffffffff1673ffffffffffffffffffffffffffffffffffffffff1681526020016000820160149054906101000a900460ff161515151581526020016000820160159054906101000a900460ff161515151581526020016000820160169054906101000a900460ff161515151581525050905060001515816020015115151461088b576040517f08c379a000000000000000000000000000000000000000000000000000000000815260040161088290611e3d565b60405180910390fd5b600181602001901515908115158152505082816040019015159081151581525050600060016007016000848152602001908152602001600020905083156108eb5780600c0160008154809291906108e190611e8c565b9190505550610906565b80600d01600081548092919061090090611e8c565b91905055505b60018160080160006101000a81548160ff02191690831515021790555080600a01600081548092919061093890611e8c565b91905055506109456112c1565b15610974576000600160060160006101000a81548160ff02191690831515021790555060006001600401819055505b3373ffffffffffffffffffffffffffffffffffffffff167fa32151c21b193dcf3d43d553597e960d429ef6cafad3492ee4790e41be1ce520856040516109ba9190611b78565b60405180910390a250505050565b60006109d261139e565b60018060060160006101000a81548160ff0219169083151502179055905090565b6000600160000160009054906101000a900473ffffffffffffffffffffffffffffffffffffffff16905090565b610a2861139e565b600073ffffffffffffffffffffffffffffffffffffffff168173ffffffffffffffffffffffffffffffffffffffff1603610a97576040517f08c379a0000000000000000000000000000000000000000000000000000000008152600401610a8e90611f20565b60405180910390fd5b610aa081611162565b610adf576040517f08c379a0000000000000000000000000000000000000000000000000000000008152600401610ad690611dd1565b60405180910390fd5b60001515600160090160008373ffffffffffffffffffffffffffffffffffffffff1673ffffffffffffffffffffffffffffffffffffffff16815260200190815260200160002060000160169054906101000a900460ff16151503610c1f576000600160090160008373ffffffffffffffffffffffffffffffffffffffff1673ffffffffffffffffffffffffffffffffffffffff1681526020019081526020016000209050818160000160006101000a81548173ffffffffffffffffffffffffffffffffffffffff021916908373ffffffffffffffffffffffffffffffffffffffff16021790555060008160000160146101000a81548160ff02191690831515021790555060008160000160156101000a81548160ff02191690831515021790555060018160000160166101000a81548160ff021916908315150217905550505b60005b600160080180549050811015610cf4578173ffffffffffffffffffffffffffffffffffffffff1660016008018281548110610c6057610c5f611f40565b5b9060005260206000200160009054906101000a900473ffffffffffffffffffffffffffffffffffffffff1673ffffffffffffffffffffffffffffffffffffffff1603610ce1576040517f08c379a0000000000000000000000000000000000000000000000000000000008152600401610cd890611fbb565b60405180910390fd5b8080610cec90611e8c565b915050610c22565b506001600801819080600181540180825580915050600190039060005260206000200160009091909190916101000a81548173ffffffffffffffffffffffffffffffffffffffff021916908373ffffffffffffffffffffffffffffffffffffffff16021790555060016005016000815480929190610d7190611e8c565b919050555050565b6000600160050154905090565b610d8e61139e565b60036001600501541015610dd7576040517f08c379a0000000000000000000000000000000000000000000000000000000008152600401610dce90612027565b60405180910390fd5b6000610de9600360016005015461141c565b905060005b8151811015610edb576000600160090160003373ffffffffffffffffffffffffffffffffffffffff1673ffffffffffffffffffffffffffffffffffffffff16815260200190815260200160002060000160009054906101000a900473ffffffffffffffffffffffffffffffffffffffff1690506001600801819080600181540180825580915050600190039060005260206000200160009091909190916101000a81548173ffffffffffffffffffffffffffffffffffffffff021916908373ffffffffffffffffffffffffffffffffffffffff160217905550508080610ed390611e8c565b915050610dee565b5050565b610ee761139e565b610ef16000611572565b565b610efb61139e565b80600160000160006101000a81548173ffffffffffffffffffffffffffffffffffffffff021916908373ffffffffffffffffffffffffffffffffffffffff16021790555050565b60008060009054906101000a900473ffffffffffffffffffffffffffffffffffffffff16905090565b6000600160060160009054906101000a900460ff16905090565b60006001800160009054906101000a900473ffffffffffffffffffffffffffffffffffffffff16905090565b610fb961139e565b806001800160006101000a81548173ffffffffffffffffffffffffffffffffffffffff021916908373ffffffffffffffffffffffffffffffffffffffff16021790555050565b61100761139e565b600073ffffffffffffffffffffffffffffffffffffffff168173ffffffffffffffffffffffffffffffffffffffff1603611076576040517f08c379a000000000000000000000000000000000000000000000000000000000815260040161106d906120b9565b60405180910390fd5b61107f81611572565b50565b600061108c61139e565b6000600160060160006101000a81548160ff0219169083151502179055905090565b600080600090505b600160080180549050811015611157578273ffffffffffffffffffffffffffffffffffffffff16600160080182815481106110f4576110f3611f40565b5b9060005260206000200160009054906101000a900473ffffffffffffffffffffffffffffffffffffffff1673ffffffffffffffffffffffffffffffffffffffff160361114457600191505061115d565b808061114f90611e8c565b9150506110b6565b50600090505b919050565b60008060006001800160009054906101000a900473ffffffffffffffffffffffffffffffffffffffff1673ffffffffffffffffffffffffffffffffffffffff166370a08231856040518263ffffffff1660e01b81526004016111c49190611ba2565b602060405180830381865afa1580156111e1573d6000803e3d6000fd5b505050506040513d601f19601f8201168201806040525081019061120591906120ee565b1190506000600160000160009054906101000a900473ffffffffffffffffffffffffffffffffffffffff1673ffffffffffffffffffffffffffffffffffffffff166370a08231856040518263ffffffff1660e01b81526004016112689190611ba2565b602060405180830381865afa158015611285573d6000803e3d6000fd5b505050506040513d601f19601f820116820180604052508101906112a991906120ee565b90508180156112b85750600081115b92505050919050565b600080600090505b600160080180549050811015611395576000600160080182815481106112f2576112f1611f40565b5b9060005260206000200160009054906101000a900473ffffffffffffffffffffffffffffffffffffffff169050600160090160008273ffffffffffffffffffffffffffffffffffffffff1673ffffffffffffffffffffffffffffffffffffffff16815260200190815260200160002060000160149054906101000a900460ff166113815760009250505061139b565b50808061138d90611e8c565b9150506112c9565b50600190505b90565b6113a6611636565b73ffffffffffffffffffffffffffffffffffffffff166113c4610f42565b73ffffffffffffffffffffffffffffffffffffffff161461141a576040517f08c379a000000000000000000000000000000000000000000000000000000000815260040161141190612167565b60405180910390fd5b565b606081831115611461576040517f08c379a0000000000000000000000000000000000000000000000000000000008152600401611458906121f9565b60405180910390fd5b60008367ffffffffffffffff81111561147d5761147c612219565b5b6040519080825280602002602001820160405280156114ab5781602001602082028036833780820191505090505b50905060006001846114bd9190612248565b905060005b858110156115665760006001836114d9919061227c565b42836040516020016114ec9291906122d1565b6040516020818303038152906040528051906020012060001c61150f919061232c565b90508084838151811061152557611524611f40565b5b602002602001018181525050828061153c9061235d565b9350508281146115525761155184828561163e565b5b50808061155e90611e8c565b9150506114c2565b50819250505092915050565b60008060009054906101000a900473ffffffffffffffffffffffffffffffffffffffff169050816000806101000a81548173ffffffffffffffffffffffffffffffffffffffff021916908373ffffffffffffffffffffffffffffffffffffffff1602179055508173ffffffffffffffffffffffffffffffffffffffff168173ffffffffffffffffffffffffffffffffffffffff167f8be0079c531659141344cd1fd0a4f28419497f9722a3daafe3b4186f6b6457e060405160405180910390a35050565b600033905090565b600083838151811061165357611652611f40565b5b602002602001015190508382815181106116705761166f611f40565b5b602002602001015184848151811061168b5761168a611f40565b5b602002602001018181525050808483815181106116ab576116aa611f40565b5b60200260200101818152505050505050565b604051806101c0016040528060608152602001600073ffffffffffffffffffffffffffffffffffffffff1681526020016000815260200160001515815260200160008152602001600073ffffffffffffffffffffffffffffffffffffffff168152602001606081526020016060815260200160001515815260200160608152602001600081526020016000815260200160008152602001600081525090565b600080fd5b6000819050919050565b61177481611761565b811461177f57600080fd5b50565b6000813590506117918161176b565b92915050565b6000602082840312156117ad576117ac61175c565b5b60006117bb84828501611782565b91505092915050565b600081519050919050565b600082825260208201905092915050565b60005b838110156117fe5780820151818401526020810190506117e3565b60008484015250505050565b6000601f19601f8301169050919050565b6000611826826117c4565b61183081856117cf565b93506118408185602086016117e0565b6118498161180a565b840191505092915050565b600073ffffffffffffffffffffffffffffffffffffffff82169050919050565b600061187f82611854565b9050919050565b61188f81611874565b82525050565b61189e81611761565b82525050565b60008115159050919050565b6118b9816118a4565b82525050565b600081519050919050565b600082825260208201905092915050565b6000819050602082019050919050565b60006118f78383611886565b60208301905092915050565b6000602082019050919050565b600061191b826118bf565b61192581856118ca565b9350611930836118db565b8060005b8381101561196157815161194888826118eb565b975061195383611903565b925050600181019050611934565b5085935050505092915050565b60006101c083016000830151848203600086015261198c828261181b565b91505060208301516119a16020860182611886565b5060408301516119b46040860182611895565b5060608301516119c760608601826118b0565b5060808301516119da6080860182611895565b5060a08301516119ed60a0860182611886565b5060c083015184820360c0860152611a05828261181b565b91505060e083015184820360e0860152611a1f828261181b565b915050610100830151611a366101008601826118b0565b50610120830151848203610120860152611a508282611910565b915050610140830151611a67610140860182611895565b50610160830151611a7c610160860182611895565b50610180830151611a91610180860182611895565b506101a0830151611aa66101a0860182611895565b508091505092915050565b60006020820190508181036000830152611acb818461196e565b905092915050565b611adc81611761565b82525050565b6000602082019050611af76000830184611ad3565b92915050565b611b06816118a4565b8114611b1157600080fd5b50565b600081359050611b2381611afd565b92915050565b60008060408385031215611b4057611b3f61175c565b5b6000611b4e85828601611b14565b9250506020611b5f85828601611782565b9150509250929050565b611b72816118a4565b82525050565b6000602082019050611b8d6000830184611b69565b92915050565b611b9c81611874565b82525050565b6000602082019050611bb76000830184611b93565b92915050565b611bc681611874565b8114611bd157600080fd5b50565b600081359050611be381611bbd565b92915050565b600060208284031215611bff57611bfe61175c565b5b6000611c0d84828501611bd4565b91505092915050565b7f4e487b7100000000000000000000000000000000000000000000000000000000600052602260045260246000fd5b60006002820490506001821680611c5d57607f821691505b602082108103611c7057611c6f611c16565b5b50919050565b600082825260208201905092915050565b7f5761697420666f7220766f74696e672074696d6520706c656173652100000000600082015250565b6000611cbd601c83611c76565b9150611cc882611c87565b602082019050919050565b60006020820190508181036000830152611cec81611cb0565b9050919050565b7f596f7520617265206e6f7420656c696769626c6520746f20766f746500000000600082015250565b6000611d29601c83611c76565b9150611d3482611cf3565b602082019050919050565b60006020820190508181036000830152611d5881611d1c565b9050919050565b7f596f75206d757374206861766520746865207265717569726564204e4654206160008201527f6e6420455243323020746f6b656e20746f20766f746500000000000000000000602082015250565b6000611dbb603683611c76565b9150611dc682611d5f565b604082019050919050565b60006020820190508181036000830152611dea81611dae565b9050919050565b7f596f75206861766520616c726561647920766f74656400000000000000000000600082015250565b6000611e27601683611c76565b9150611e3282611df1565b602082019050919050565b60006020820190508181036000830152611e5681611e1a565b9050919050565b7f4e487b7100000000000000000000000000000000000000000000000000000000600052601160045260246000fd5b6000611e9782611761565b91507fffffffffffffffffffffffffffffffffffffffffffffffffffffffffffffffff8203611ec957611ec8611e5d565b5b600182019050919050565b7f496e76616c696420616464726573730000000000000000000000000000000000600082015250565b6000611f0a600f83611c76565b9150611f1582611ed4565b602082019050919050565b60006020820190508181036000830152611f3981611efd565b9050919050565b7f4e487b7100000000000000000000000000000000000000000000000000000000600052603260045260246000fd5b7f566f74657220697320616c726561647920656c696769626c6500000000000000600082015250565b6000611fa5601983611c76565b9150611fb082611f6f565b602082019050919050565b60006020820190508181036000830152611fd481611f98565b9050919050565b7f4e6f7420656e6f75676820766f7465727320746f2073656c6563742066726f6d600082015250565b6000612011602083611c76565b915061201c82611fdb565b602082019050919050565b6000602082019050818103600083015261204081612004565b9050919050565b7f4f776e61626c653a206e6577206f776e657220697320746865207a65726f206160008201527f6464726573730000000000000000000000000000000000000000000000000000602082015250565b60006120a3602683611c76565b91506120ae82612047565b604082019050919050565b600060208201905081810360008301526120d281612096565b9050919050565b6000815190506120e88161176b565b92915050565b6000602082840312156121045761210361175c565b5b6000612112848285016120d9565b91505092915050565b7f4f776e61626c653a2063616c6c6572206973206e6f7420746865206f776e6572600082015250565b6000612151602083611c76565b915061215c8261211b565b602082019050919050565b6000602082019050818103600083015261218081612144565b9050919050565b7f436f756e74206d757374206265206c657373207468616e206f7220657175616c60008201527f20746f20746865206d6178696d756d0000000000000000000000000000000000602082015250565b60006121e3602f83611c76565b91506121ee82612187565b604082019050919050565b60006020820190508181036000830152612212816121d6565b9050919050565b7f4e487b7100000000000000000000000000000000000000000000000000000000600052604160045260246000fd5b600061225382611761565b915061225e83611761565b925082820390508181111561227657612275611e5d565b5b92915050565b600061228782611761565b915061229283611761565b92508282019050808211156122aa576122a9611e5d565b5b92915050565b6000819050919050565b6122cb6122c682611761565b6122b0565b82525050565b60006122dd82856122ba565b6020820191506122ed82846122ba565b6020820191508190509392505050565b7f4e487b7100000000000000000000000000000000000000000000000000000000600052601260045260246000fd5b600061233782611761565b915061234283611761565b925082612352576123516122fd565b5b828206905092915050565b600061236882611761565b91506000820361237b5761237a611e5d565b5b60018203905091905056fea2646970667358221220ac6d16643559864236d64fb0b8fa3497ea35ae9d3a91c419e9093c6c503bbc2064736f6c63430008110033","opcodes":"PUSH1 0x80 PUSH1 0x40 MSTORE CALLVALUE DUP1 ISZERO PUSH2 0x10 JUMPI PUSH1 0x0 DUP1 REVERT JUMPDEST POP PUSH2 0x2D PUSH2 0x22 PUSH2 0x32 PUSH1 0x20 SHL PUSH1 0x20 SHR JUMP JUMPDEST PUSH2 0x3A PUSH1 0x20 SHL PUSH1 0x20 SHR JUMP JUMPDEST PUSH2 0xFE JUMP JUMPDEST PUSH1 0x0 CALLER SWAP1 POP SWAP1 JUMP JUMPDEST PUSH1 0x0 DUP1 PUSH1 0x0 SWAP1 SLOAD SWAP1 PUSH2 0x100 EXP SWAP1 DIV PUSH20 0xFFFFFFFFFFFFFFFFFFFFFFFFFFFFFFFFFFFFFFFF AND SWAP1 POP DUP2 PUSH1 0x0 DUP1 PUSH2 0x100 EXP DUP2 SLOAD DUP2 PUSH20 0xFFFFFFFFFFFFFFFFFFFFFFFFFFFFFFFFFFFFFFFF MUL NOT AND SWAP1 DUP4 PUSH20 0xFFFFFFFFFFFFFFFFFFFFFFFFFFFFFFFFFFFFFFFF AND MUL OR SWAP1 SSTORE POP DUP2 PUSH20 0xFFFFFFFFFFFFFFFFFFFFFFFFFFFFFFFFFFFFFFFF AND DUP2 PUSH20 0xFFFFFFFFFFFFFFFFFFFFFFFFFFFFFFFFFFFFFFFF AND PUSH32 0x8BE0079C531659141344CD1FD0A4F28419497F9722A3DAAFE3B4186F6B6457E0 PUSH1 0x40 MLOAD PUSH1 0x40 MLOAD DUP1 SWAP2 SUB SWAP1 LOG3 POP POP JUMP JUMPDEST PUSH2 0x23BC DUP1 PUSH3 0x10E PUSH1 0x0 CODECOPY PUSH1 0x0 RETURN INVALID PUSH1 0x80 PUSH1 0x40 MSTORE CALLVALUE DUP1 ISZERO PUSH2 0x10 JUMPI PUSH1 0x0 DUP1 REVERT JUMPDEST POP PUSH1 0x4 CALLDATASIZE LT PUSH2 0x100 JUMPI PUSH1 0x0 CALLDATALOAD PUSH1 0xE0 SHR DUP1 PUSH4 0x715018A6 GT PUSH2 0x97 JUMPI DUP1 PUSH4 0xE7A595CA GT PUSH2 0x66 JUMPI DUP1 PUSH4 0xE7A595CA EQ PUSH2 0x251 JUMPI DUP1 PUSH4 0xF06459EE EQ PUSH2 0x26F JUMPI DUP1 PUSH4 0xF2FDE38B EQ PUSH2 0x28B JUMPI DUP1 PUSH4 0xFAB2F86B EQ PUSH2 0x2A7 JUMPI PUSH2 0x100 JUMP JUMPDEST DUP1 PUSH4 0x715018A6 EQ PUSH2 0x1EF JUMPI DUP1 PUSH4 0x8BB0D810 EQ PUSH2 0x1F9 JUMPI DUP1 PUSH4 0x8DA5CB5B EQ PUSH2 0x215 JUMPI DUP1 PUSH4 0xD1817C2C EQ PUSH2 0x233 JUMPI PUSH2 0x100 JUMP JUMPDEST DUP1 PUSH4 0x219EA8D3 GT PUSH2 0xD3 JUMPI DUP1 PUSH4 0x219EA8D3 EQ PUSH2 0x18D JUMPI DUP1 PUSH4 0x4C105D1B EQ PUSH2 0x1AB JUMPI DUP1 PUSH4 0x5F5300FF EQ PUSH2 0x1C7 JUMPI DUP1 PUSH4 0x60777E1D EQ PUSH2 0x1E5 JUMPI PUSH2 0x100 JUMP JUMPDEST DUP1 PUSH4 0xB7AD54C EQ PUSH2 0x105 JUMPI DUP1 PUSH4 0x1019B6C2 EQ PUSH2 0x135 JUMPI DUP1 PUSH4 0x10E6E06C EQ PUSH2 0x153 JUMPI DUP1 PUSH4 0x1EC6B60A EQ PUSH2 0x16F JUMPI JUMPDEST PUSH1 0x0 DUP1 REVERT JUMPDEST PUSH2 0x11F PUSH1 0x4 DUP1 CALLDATASIZE SUB DUP2 ADD SWAP1 PUSH2 0x11A SWAP2 SWAP1 PUSH2 0x1797 JUMP JUMPDEST PUSH2 0x2C5 JUMP JUMPDEST PUSH1 0x40 MLOAD PUSH2 0x12C SWAP2 SWAP1 PUSH2 0x1AB1 JUMP JUMPDEST PUSH1 0x40 MLOAD DUP1 SWAP2 SUB SWAP1 RETURN JUMPDEST PUSH2 0x13D PUSH2 0x658 JUMP JUMPDEST PUSH1 0x40 MLOAD PUSH2 0x14A SWAP2 SWAP1 PUSH2 0x1AE2 JUMP JUMPDEST PUSH1 0x40 MLOAD DUP1 SWAP2 SUB SWAP1 RETURN JUMPDEST PUSH2 0x16D PUSH1 0x4 DUP1 CALLDATASIZE SUB DUP2 ADD SWAP1 PUSH2 0x168 SWAP2 SWAP1 PUSH2 0x1B29 JUMP JUMPDEST PUSH2 0x665 JUMP JUMPDEST STOP JUMPDEST PUSH2 0x177 PUSH2 0x9C8 JUMP JUMPDEST PUSH1 0x40 MLOAD PUSH2 0x184 SWAP2 SWAP1 PUSH2 0x1B78 JUMP JUMPDEST PUSH1 0x40 MLOAD DUP1 SWAP2 SUB SWAP1 RETURN JUMPDEST PUSH2 0x195 PUSH2 0x9F3 JUMP JUMPDEST PUSH1 0x40 MLOAD PUSH2 0x1A2 SWAP2 SWAP1 PUSH2 0x1BA2 JUMP JUMPDEST PUSH1 0x40 MLOAD DUP1 SWAP2 SUB SWAP1 RETURN JUMPDEST PUSH2 0x1C5 PUSH1 0x4 DUP1 CALLDATASIZE SUB DUP2 ADD SWAP1 PUSH2 0x1C0 SWAP2 SWAP1 PUSH2 0x1BE9 JUMP JUMPDEST PUSH2 0xA20 JUMP JUMPDEST STOP JUMPDEST PUSH2 0x1CF PUSH2 0xD79 JUMP JUMPDEST PUSH1 0x40 MLOAD PUSH2 0x1DC SWAP2 SWAP1 PUSH2 0x1AE2 JUMP JUMPDEST PUSH1 0x40 MLOAD DUP1 SWAP2 SUB SWAP1 RETURN JUMPDEST PUSH2 0x1ED PUSH2 0xD86 JUMP JUMPDEST STOP JUMPDEST PUSH2 0x1F7 PUSH2 0xEDF JUMP JUMPDEST STOP JUMPDEST PUSH2 0x213 PUSH1 0x4 DUP1 CALLDATASIZE SUB DUP2 ADD SWAP1 PUSH2 0x20E SWAP2 SWAP1 PUSH2 0x1BE9 JUMP JUMPDEST PUSH2 0xEF3 JUMP JUMPDEST STOP JUMPDEST PUSH2 0x21D PUSH2 0xF42 JUMP JUMPDEST PUSH1 0x40 MLOAD PUSH2 0x22A SWAP2 SWAP1 PUSH2 0x1BA2 JUMP JUMPDEST PUSH1 0x40 MLOAD DUP1 SWAP2 SUB SWAP1 RETURN JUMPDEST PUSH2 0x23B PUSH2 0xF6B JUMP JUMPDEST PUSH1 0x40 MLOAD PUSH2 0x248 SWAP2 SWAP1 PUSH2 0x1B78 JUMP JUMPDEST PUSH1 0x40 MLOAD DUP1 SWAP2 SUB SWAP1 RETURN JUMPDEST PUSH2 0x259 PUSH2 0xF85 JUMP JUMPDEST PUSH1 0x40 MLOAD PUSH2 0x266 SWAP2 SWAP1 PUSH2 0x1BA2 JUMP JUMPDEST PUSH1 0x40 MLOAD DUP1 SWAP2 SUB SWAP1 RETURN JUMPDEST PUSH2 0x289 PUSH1 0x4 DUP1 CALLDATASIZE SUB DUP2 ADD SWAP1 PUSH2 0x284 SWAP2 SWAP1 PUSH2 0x1BE9 JUMP JUMPDEST PUSH2 0xFB1 JUMP JUMPDEST STOP JUMPDEST PUSH2 0x2A5 PUSH1 0x4 DUP1 CALLDATASIZE SUB DUP2 ADD SWAP1 PUSH2 0x2A0 SWAP2 SWAP1 PUSH2 0x1BE9 JUMP JUMPDEST PUSH2 0xFFF JUMP JUMPDEST STOP JUMPDEST PUSH2 0x2AF PUSH2 0x1082 JUMP JUMPDEST PUSH1 0x40 MLOAD PUSH2 0x2BC SWAP2 SWAP1 PUSH2 0x1B78 JUMP JUMPDEST PUSH1 0x40 MLOAD DUP1 SWAP2 SUB SWAP1 RETURN JUMPDEST PUSH2 0x2CD PUSH2 0x16BD JUMP JUMPDEST PUSH1 0x1 PUSH1 0x7 ADD PUSH1 0x0 DUP4 DUP2 MSTORE PUSH1 0x20 ADD SWAP1 DUP2 MSTORE PUSH1 0x20 ADD PUSH1 0x0 KECCAK256 PUSH1 0x40 MLOAD DUP1 PUSH2 0x1C0 ADD PUSH1 0x40 MSTORE SWAP1 DUP2 PUSH1 0x0 DUP3 ADD DUP1 SLOAD PUSH2 0x2FF SWAP1 PUSH2 0x1C45 JUMP JUMPDEST DUP1 PUSH1 0x1F ADD PUSH1 0x20 DUP1 SWAP2 DIV MUL PUSH1 0x20 ADD PUSH1 0x40 MLOAD SWAP1 DUP2 ADD PUSH1 0x40 MSTORE DUP1 SWAP3 SWAP2 SWAP1 DUP2 DUP2 MSTORE PUSH1 0x20 ADD DUP3 DUP1 SLOAD PUSH2 0x32B SWAP1 PUSH2 0x1C45 JUMP JUMPDEST DUP1 ISZERO PUSH2 0x378 JUMPI DUP1 PUSH1 0x1F LT PUSH2 0x34D JUMPI PUSH2 0x100 DUP1 DUP4 SLOAD DIV MUL DUP4 MSTORE SWAP2 PUSH1 0x20 ADD SWAP2 PUSH2 0x378 JUMP JUMPDEST DUP3 ADD SWAP2 SWAP1 PUSH1 0x0 MSTORE PUSH1 0x20 PUSH1 0x0 KECCAK256 SWAP1 JUMPDEST DUP2 SLOAD DUP2 MSTORE SWAP1 PUSH1 0x1 ADD SWAP1 PUSH1 0x20 ADD DUP1 DUP4 GT PUSH2 0x35B JUMPI DUP3 SWAP1 SUB PUSH1 0x1F AND DUP3 ADD SWAP2 JUMPDEST POP POP POP POP POP DUP2 MSTORE PUSH1 0x20 ADD PUSH1 0x1 DUP3 ADD PUSH1 0x0 SWAP1 SLOAD SWAP1 PUSH2 0x100 EXP SWAP1 DIV PUSH20 0xFFFFFFFFFFFFFFFFFFFFFFFFFFFFFFFFFFFFFFFF AND PUSH20 0xFFFFFFFFFFFFFFFFFFFFFFFFFFFFFFFFFFFFFFFF AND PUSH20 0xFFFFFFFFFFFFFFFFFFFFFFFFFFFFFFFFFFFFFFFF AND DUP2 MSTORE PUSH1 0x20 ADD PUSH1 0x2 DUP3 ADD SLOAD DUP2 MSTORE PUSH1 0x20 ADD PUSH1 0x3 DUP3 ADD PUSH1 0x0 SWAP1 SLOAD SWAP1 PUSH2 0x100 EXP SWAP1 DIV PUSH1 0xFF AND ISZERO ISZERO ISZERO ISZERO DUP2 MSTORE PUSH1 0x20 ADD PUSH1 0x4 DUP3 ADD SLOAD DUP2 MSTORE PUSH1 0x20 ADD PUSH1 0x5 DUP3 ADD PUSH1 0x0 SWAP1 SLOAD SWAP1 PUSH2 0x100 EXP SWAP1 DIV PUSH20 0xFFFFFFFFFFFFFFFFFFFFFFFFFFFFFFFFFFFFFFFF AND PUSH20 0xFFFFFFFFFFFFFFFFFFFFFFFFFFFFFFFFFFFFFFFF AND PUSH20 0xFFFFFFFFFFFFFFFFFFFFFFFFFFFFFFFFFFFFFFFF AND DUP2 MSTORE PUSH1 0x20 ADD PUSH1 0x6 DUP3 ADD DUP1 SLOAD PUSH2 0x46C SWAP1 PUSH2 0x1C45 JUMP JUMPDEST DUP1 PUSH1 0x1F ADD PUSH1 0x20 DUP1 SWAP2 DIV MUL PUSH1 0x20 ADD PUSH1 0x40 MLOAD SWAP1 DUP2 ADD PUSH1 0x40 MSTORE DUP1 SWAP3 SWAP2 SWAP1 DUP2 DUP2 MSTORE PUSH1 0x20 ADD DUP3 DUP1 SLOAD PUSH2 0x498 SWAP1 PUSH2 0x1C45 JUMP JUMPDEST DUP1 ISZERO PUSH2 0x4E5 JUMPI DUP1 PUSH1 0x1F LT PUSH2 0x4BA JUMPI PUSH2 0x100 DUP1 DUP4 SLOAD DIV MUL DUP4 MSTORE SWAP2 PUSH1 0x20 ADD SWAP2 PUSH2 0x4E5 JUMP JUMPDEST DUP3 ADD SWAP2 SWAP1 PUSH1 0x0 MSTORE PUSH1 0x20 PUSH1 0x0 KECCAK256 SWAP1 JUMPDEST DUP2 SLOAD DUP2 MSTORE SWAP1 PUSH1 0x1 ADD SWAP1 PUSH1 0x20 ADD DUP1 DUP4 GT PUSH2 0x4C8 JUMPI DUP3 SWAP1 SUB PUSH1 0x1F AND DUP3 ADD SWAP2 JUMPDEST POP POP POP POP POP DUP2 MSTORE PUSH1 0x20 ADD PUSH1 0x7 DUP3 ADD DUP1 SLOAD PUSH2 0x4FE SWAP1 PUSH2 0x1C45 JUMP JUMPDEST DUP1 PUSH1 0x1F ADD PUSH1 0x20 DUP1 SWAP2 DIV MUL PUSH1 0x20 ADD PUSH1 0x40 MLOAD SWAP1 DUP2 ADD PUSH1 0x40 MSTORE DUP1 SWAP3 SWAP2 SWAP1 DUP2 DUP2 MSTORE PUSH1 0x20 ADD DUP3 DUP1 SLOAD PUSH2 0x52A SWAP1 PUSH2 0x1C45 JUMP JUMPDEST DUP1 ISZERO PUSH2 0x577 JUMPI DUP1 PUSH1 0x1F LT PUSH2 0x54C JUMPI PUSH2 0x100 DUP1 DUP4 SLOAD DIV MUL DUP4 MSTORE SWAP2 PUSH1 0x20 ADD SWAP2 PUSH2 0x577 JUMP JUMPDEST DUP3 ADD SWAP2 SWAP1 PUSH1 0x0 MSTORE PUSH1 0x20 PUSH1 0x0 KECCAK256 SWAP1 JUMPDEST DUP2 SLOAD DUP2 MSTORE SWAP1 PUSH1 0x1 ADD SWAP1 PUSH1 0x20 ADD DUP1 DUP4 GT PUSH2 0x55A JUMPI DUP3 SWAP1 SUB PUSH1 0x1F AND DUP3 ADD SWAP2 JUMPDEST POP POP POP POP POP DUP2 MSTORE PUSH1 0x20 ADD PUSH1 0x8 DUP3 ADD PUSH1 0x0 SWAP1 SLOAD SWAP1 PUSH2 0x100 EXP SWAP1 DIV PUSH1 0xFF AND ISZERO ISZERO ISZERO ISZERO DUP2 MSTORE PUSH1 0x20 ADD PUSH1 0x9 DUP3 ADD DUP1 SLOAD DUP1 PUSH1 0x20 MUL PUSH1 0x20 ADD PUSH1 0x40 MLOAD SWAP1 DUP2 ADD PUSH1 0x40 MSTORE DUP1 SWAP3 SWAP2 SWAP1 DUP2 DUP2 MSTORE PUSH1 0x20 ADD DUP3 DUP1 SLOAD DUP1 ISZERO PUSH2 0x620 JUMPI PUSH1 0x20 MUL DUP3 ADD SWAP2 SWAP1 PUSH1 0x0 MSTORE PUSH1 0x20 PUSH1 0x0 KECCAK256 SWAP1 JUMPDEST DUP2 PUSH1 0x0 SWAP1 SLOAD SWAP1 PUSH2 0x100 EXP SWAP1 DIV PUSH20 0xFFFFFFFFFFFFFFFFFFFFFFFFFFFFFFFFFFFFFFFF AND PUSH20 0xFFFFFFFFFFFFFFFFFFFFFFFFFFFFFFFFFFFFFFFF AND DUP2 MSTORE PUSH1 0x20 ADD SWAP1 PUSH1 0x1 ADD SWAP1 DUP1 DUP4 GT PUSH2 0x5D6 JUMPI JUMPDEST POP POP POP POP POP DUP2 MSTORE PUSH1 0x20 ADD PUSH1 0xA DUP3 ADD SLOAD DUP2 MSTORE PUSH1 0x20 ADD PUSH1 0xB DUP3 ADD SLOAD DUP2 MSTORE PUSH1 0x20 ADD PUSH1 0xC DUP3 ADD SLOAD DUP2 MSTORE PUSH1 0x20 ADD PUSH1 0xD DUP3 ADD SLOAD DUP2 MSTORE POP POP SWAP1 POP SWAP2 SWAP1 POP JUMP JUMPDEST PUSH1 0x0 PUSH1 0x1 PUSH1 0x2 ADD SLOAD SWAP1 POP SWAP1 JUMP JUMPDEST PUSH1 0x1 PUSH1 0x6 ADD PUSH1 0x0 SWAP1 SLOAD SWAP1 PUSH2 0x100 EXP SWAP1 DIV PUSH1 0xFF AND ISZERO PUSH2 0x6B8 JUMPI PUSH1 0x40 MLOAD PUSH32 0x8C379A000000000000000000000000000000000000000000000000000000000 DUP2 MSTORE PUSH1 0x4 ADD PUSH2 0x6AF SWAP1 PUSH2 0x1CD3 JUMP JUMPDEST PUSH1 0x40 MLOAD DUP1 SWAP2 SUB SWAP1 REVERT JUMPDEST PUSH2 0x6C1 CALLER PUSH2 0x10AE JUMP JUMPDEST PUSH2 0x700 JUMPI PUSH1 0x40 MLOAD PUSH32 0x8C379A000000000000000000000000000000000000000000000000000000000 DUP2 MSTORE PUSH1 0x4 ADD PUSH2 0x6F7 SWAP1 PUSH2 0x1D3F JUMP JUMPDEST PUSH1 0x40 MLOAD DUP1 SWAP2 SUB SWAP1 REVERT JUMPDEST PUSH2 0x709 CALLER PUSH2 0x1162 JUMP JUMPDEST PUSH2 0x748 JUMPI PUSH1 0x40 MLOAD PUSH32 0x8C379A000000000000000000000000000000000000000000000000000000000 DUP2 MSTORE PUSH1 0x4 ADD PUSH2 0x73F SWAP1 PUSH2 0x1DD1 JUMP JUMPDEST PUSH1 0x40 MLOAD DUP1 SWAP2 SUB SWAP1 REVERT JUMPDEST PUSH1 0x0 PUSH1 0x1 PUSH1 0x9 ADD PUSH1 0x0 CALLER PUSH20 0xFFFFFFFFFFFFFFFFFFFFFFFFFFFFFFFFFFFFFFFF AND PUSH20 0xFFFFFFFFFFFFFFFFFFFFFFFFFFFFFFFFFFFFFFFF AND DUP2 MSTORE PUSH1 0x20 ADD SWAP1 DUP2 MSTORE PUSH1 0x20 ADD PUSH1 0x0 KECCAK256 PUSH1 0x40 MLOAD DUP1 PUSH1 0x80 ADD PUSH1 0x40 MSTORE SWAP1 DUP2 PUSH1 0x0 DUP3 ADD PUSH1 0x0 SWAP1 SLOAD SWAP1 PUSH2 0x100 EXP SWAP1 DIV PUSH20 0xFFFFFFFFFFFFFFFFFFFFFFFFFFFFFFFFFFFFFFFF AND PUSH20 0xFFFFFFFFFFFFFFFFFFFFFFFFFFFFFFFFFFFFFFFF AND PUSH20 0xFFFFFFFFFFFFFFFFFFFFFFFFFFFFFFFFFFFFFFFF AND DUP2 MSTORE PUSH1 0x20 ADD PUSH1 0x0 DUP3 ADD PUSH1 0x14 SWAP1 SLOAD SWAP1 PUSH2 0x100 EXP SWAP1 DIV PUSH1 0xFF AND ISZERO ISZERO ISZERO ISZERO DUP2 MSTORE PUSH1 0x20 ADD PUSH1 0x0 DUP3 ADD PUSH1 0x15 SWAP1 SLOAD SWAP1 PUSH2 0x100 EXP SWAP1 DIV PUSH1 0xFF AND ISZERO ISZERO ISZERO ISZERO DUP2 MSTORE PUSH1 0x20 ADD PUSH1 0x0 DUP3 ADD PUSH1 0x16 SWAP1 SLOAD SWAP1 PUSH2 0x100 EXP SWAP1 DIV PUSH1 0xFF AND ISZERO ISZERO ISZERO ISZERO DUP2 MSTORE POP POP SWAP1 POP PUSH1 0x0 ISZERO ISZERO DUP2 PUSH1 0x20 ADD MLOAD ISZERO ISZERO EQ PUSH2 0x88B JUMPI PUSH1 0x40 MLOAD PUSH32 0x8C379A000000000000000000000000000000000000000000000000000000000 DUP2 MSTORE PUSH1 0x4 ADD PUSH2 0x882 SWAP1 PUSH2 0x1E3D JUMP JUMPDEST PUSH1 0x40 MLOAD DUP1 SWAP2 SUB SWAP1 REVERT JUMPDEST PUSH1 0x1 DUP2 PUSH1 0x20 ADD SWAP1 ISZERO ISZERO SWAP1 DUP2 ISZERO ISZERO DUP2 MSTORE POP POP DUP3 DUP2 PUSH1 0x40 ADD SWAP1 ISZERO ISZERO SWAP1 DUP2 ISZERO ISZERO DUP2 MSTORE POP POP PUSH1 0x0 PUSH1 0x1 PUSH1 0x7 ADD PUSH1 0x0 DUP5 DUP2 MSTORE PUSH1 0x20 ADD SWAP1 DUP2 MSTORE PUSH1 0x20 ADD PUSH1 0x0 KECCAK256 SWAP1 POP DUP4 ISZERO PUSH2 0x8EB JUMPI DUP1 PUSH1 0xC ADD PUSH1 0x0 DUP2 SLOAD DUP1 SWAP3 SWAP2 SWAP1 PUSH2 0x8E1 SWAP1 PUSH2 0x1E8C JUMP JUMPDEST SWAP2 SWAP1 POP SSTORE POP PUSH2 0x906 JUMP JUMPDEST DUP1 PUSH1 0xD ADD PUSH1 0x0 DUP2 SLOAD DUP1 SWAP3 SWAP2 SWAP1 PUSH2 0x900 SWAP1 PUSH2 0x1E8C JUMP JUMPDEST SWAP2 SWAP1 POP SSTORE POP JUMPDEST PUSH1 0x1 DUP2 PUSH1 0x8 ADD PUSH1 0x0 PUSH2 0x100 EXP DUP2 SLOAD DUP2 PUSH1 0xFF MUL NOT AND SWAP1 DUP4 ISZERO ISZERO MUL OR SWAP1 SSTORE POP DUP1 PUSH1 0xA ADD PUSH1 0x0 DUP2 SLOAD DUP1 SWAP3 SWAP2 SWAP1 PUSH2 0x938 SWAP1 PUSH2 0x1E8C JUMP JUMPDEST SWAP2 SWAP1 POP SSTORE POP PUSH2 0x945 PUSH2 0x12C1 JUMP JUMPDEST ISZERO PUSH2 0x974 JUMPI PUSH1 0x0 PUSH1 0x1 PUSH1 0x6 ADD PUSH1 0x0 PUSH2 0x100 EXP DUP2 SLOAD DUP2 PUSH1 0xFF MUL NOT AND SWAP1 DUP4 ISZERO ISZERO MUL OR SWAP1 SSTORE POP PUSH1 0x0 PUSH1 0x1 PUSH1 0x4 ADD DUP2 SWAP1 SSTORE POP JUMPDEST CALLER PUSH20 0xFFFFFFFFFFFFFFFFFFFFFFFFFFFFFFFFFFFFFFFF AND PUSH32 0xA32151C21B193DCF3D43D553597E960D429EF6CAFAD3492EE4790E41BE1CE520 DUP6 PUSH1 0x40 MLOAD PUSH2 0x9BA SWAP2 SWAP1 PUSH2 0x1B78 JUMP JUMPDEST PUSH1 0x40 MLOAD DUP1 SWAP2 SUB SWAP1 LOG2 POP POP POP POP JUMP JUMPDEST PUSH1 0x0 PUSH2 0x9D2 PUSH2 0x139E JUMP JUMPDEST PUSH1 0x1 DUP1 PUSH1 0x6 ADD PUSH1 0x0 PUSH2 0x100 EXP DUP2 SLOAD DUP2 PUSH1 0xFF MUL NOT AND SWAP1 DUP4 ISZERO ISZERO MUL OR SWAP1 SSTORE SWAP1 POP SWAP1 JUMP JUMPDEST PUSH1 0x0 PUSH1 0x1 PUSH1 0x0 ADD PUSH1 0x0 SWAP1 SLOAD SWAP1 PUSH2 0x100 EXP SWAP1 DIV PUSH20 0xFFFFFFFFFFFFFFFFFFFFFFFFFFFFFFFFFFFFFFFF AND SWAP1 POP SWAP1 JUMP JUMPDEST PUSH2 0xA28 PUSH2 0x139E JUMP JUMPDEST PUSH1 0x0 PUSH20 0xFFFFFFFFFFFFFFFFFFFFFFFFFFFFFFFFFFFFFFFF AND DUP2 PUSH20 0xFFFFFFFFFFFFFFFFFFFFFFFFFFFFFFFFFFFFFFFF AND SUB PUSH2 0xA97 JUMPI PUSH1 0x40 MLOAD PUSH32 0x8C379A000000000000000000000000000000000000000000000000000000000 DUP2 MSTORE PUSH1 0x4 ADD PUSH2 0xA8E SWAP1 PUSH2 0x1F20 JUMP JUMPDEST PUSH1 0x40 MLOAD DUP1 SWAP2 SUB SWAP1 REVERT JUMPDEST PUSH2 0xAA0 DUP2 PUSH2 0x1162 JUMP JUMPDEST PUSH2 0xADF JUMPI PUSH1 0x40 MLOAD PUSH32 0x8C379A000000000000000000000000000000000000000000000000000000000 DUP2 MSTORE PUSH1 0x4 ADD PUSH2 0xAD6 SWAP1 PUSH2 0x1DD1 JUMP JUMPDEST PUSH1 0x40 MLOAD DUP1 SWAP2 SUB SWAP1 REVERT JUMPDEST PUSH1 0x0 ISZERO ISZERO PUSH1 0x1 PUSH1 0x9 ADD PUSH1 0x0 DUP4 PUSH20 0xFFFFFFFFFFFFFFFFFFFFFFFFFFFFFFFFFFFFFFFF AND PUSH20 0xFFFFFFFFFFFFFFFFFFFFFFFFFFFFFFFFFFFFFFFF AND DUP2 MSTORE PUSH1 0x20 ADD SWAP1 DUP2 MSTORE PUSH1 0x20 ADD PUSH1 0x0 KECCAK256 PUSH1 0x0 ADD PUSH1 0x16 SWAP1 SLOAD SWAP1 PUSH2 0x100 EXP SWAP1 DIV PUSH1 0xFF AND ISZERO ISZERO SUB PUSH2 0xC1F JUMPI PUSH1 0x0 PUSH1 0x1 PUSH1 0x9 ADD PUSH1 0x0 DUP4 PUSH20 0xFFFFFFFFFFFFFFFFFFFFFFFFFFFFFFFFFFFFFFFF AND PUSH20 0xFFFFFFFFFFFFFFFFFFFFFFFFFFFFFFFFFFFFFFFF AND DUP2 MSTORE PUSH1 0x20 ADD SWAP1 DUP2 MSTORE PUSH1 0x20 ADD PUSH1 0x0 KECCAK256 SWAP1 POP DUP2 DUP2 PUSH1 0x0 ADD PUSH1 0x0 PUSH2 0x100 EXP DUP2 SLOAD DUP2 PUSH20 0xFFFFFFFFFFFFFFFFFFFFFFFFFFFFFFFFFFFFFFFF MUL NOT AND SWAP1 DUP4 PUSH20 0xFFFFFFFFFFFFFFFFFFFFFFFFFFFFFFFFFFFFFFFF AND MUL OR SWAP1 SSTORE POP PUSH1 0x0 DUP2 PUSH1 0x0 ADD PUSH1 0x14 PUSH2 0x100 EXP DUP2 SLOAD DUP2 PUSH1 0xFF MUL NOT AND SWAP1 DUP4 ISZERO ISZERO MUL OR SWAP1 SSTORE POP PUSH1 0x0 DUP2 PUSH1 0x0 ADD PUSH1 0x15 PUSH2 0x100 EXP DUP2 SLOAD DUP2 PUSH1 0xFF MUL NOT AND SWAP1 DUP4 ISZERO ISZERO MUL OR SWAP1 SSTORE POP PUSH1 0x1 DUP2 PUSH1 0x0 ADD PUSH1 0x16 PUSH2 0x100 EXP DUP2 SLOAD DUP2 PUSH1 0xFF MUL NOT AND SWAP1 DUP4 ISZERO ISZERO MUL OR SWAP1 SSTORE POP POP JUMPDEST PUSH1 0x0 JUMPDEST PUSH1 0x1 PUSH1 0x8 ADD DUP1 SLOAD SWAP1 POP DUP2 LT ISZERO PUSH2 0xCF4 JUMPI DUP2 PUSH20 0xFFFFFFFFFFFFFFFFFFFFFFFFFFFFFFFFFFFFFFFF AND PUSH1 0x1 PUSH1 0x8 ADD DUP3 DUP2 SLOAD DUP2 LT PUSH2 0xC60 JUMPI PUSH2 0xC5F PUSH2 0x1F40 JUMP JUMPDEST JUMPDEST SWAP1 PUSH1 0x0 MSTORE PUSH1 0x20 PUSH1 0x0 KECCAK256 ADD PUSH1 0x0 SWAP1 SLOAD SWAP1 PUSH2 0x100 EXP SWAP1 DIV PUSH20 0xFFFFFFFFFFFFFFFFFFFFFFFFFFFFFFFFFFFFFFFF AND PUSH20 0xFFFFFFFFFFFFFFFFFFFFFFFFFFFFFFFFFFFFFFFF AND SUB PUSH2 0xCE1 JUMPI PUSH1 0x40 MLOAD PUSH32 0x8C379A000000000000000000000000000000000000000000000000000000000 DUP2 MSTORE PUSH1 0x4 ADD PUSH2 0xCD8 SWAP1 PUSH2 0x1FBB JUMP JUMPDEST PUSH1 0x40 MLOAD DUP1 SWAP2 SUB SWAP1 REVERT JUMPDEST DUP1 DUP1 PUSH2 0xCEC SWAP1 PUSH2 0x1E8C JUMP JUMPDEST SWAP2 POP POP PUSH2 0xC22 JUMP JUMPDEST POP PUSH1 0x1 PUSH1 0x8 ADD DUP2 SWAP1 DUP1 PUSH1 0x1 DUP2 SLOAD ADD DUP1 DUP3 SSTORE DUP1 SWAP2 POP POP PUSH1 0x1 SWAP1 SUB SWAP1 PUSH1 0x0 MSTORE PUSH1 0x20 PUSH1 0x0 KECCAK256 ADD PUSH1 0x0 SWAP1 SWAP2 SWAP1 SWAP2 SWAP1 SWAP2 PUSH2 0x100 EXP DUP2 SLOAD DUP2 PUSH20 0xFFFFFFFFFFFFFFFFFFFFFFFFFFFFFFFFFFFFFFFF MUL NOT AND SWAP1 DUP4 PUSH20 0xFFFFFFFFFFFFFFFFFFFFFFFFFFFFFFFFFFFFFFFF AND MUL OR SWAP1 SSTORE POP PUSH1 0x1 PUSH1 0x5 ADD PUSH1 0x0 DUP2 SLOAD DUP1 SWAP3 SWAP2 SWAP1 PUSH2 0xD71 SWAP1 PUSH2 0x1E8C JUMP JUMPDEST SWAP2 SWAP1 POP SSTORE POP POP JUMP JUMPDEST PUSH1 0x0 PUSH1 0x1 PUSH1 0x5 ADD SLOAD SWAP1 POP SWAP1 JUMP JUMPDEST PUSH2 0xD8E PUSH2 0x139E JUMP JUMPDEST PUSH1 0x3 PUSH1 0x1 PUSH1 0x5 ADD SLOAD LT ISZERO PUSH2 0xDD7 JUMPI PUSH1 0x40 MLOAD PUSH32 0x8C379A000000000000000000000000000000000000000000000000000000000 DUP2 MSTORE PUSH1 0x4 ADD PUSH2 0xDCE SWAP1 PUSH2 0x2027 JUMP JUMPDEST PUSH1 0x40 MLOAD DUP1 SWAP2 SUB SWAP1 REVERT JUMPDEST PUSH1 0x0 PUSH2 0xDE9 PUSH1 0x3 PUSH1 0x1 PUSH1 0x5 ADD SLOAD PUSH2 0x141C JUMP JUMPDEST SWAP1 POP PUSH1 0x0 JUMPDEST DUP2 MLOAD DUP2 LT ISZERO PUSH2 0xEDB JUMPI PUSH1 0x0 PUSH1 0x1 PUSH1 0x9 ADD PUSH1 0x0 CALLER PUSH20 0xFFFFFFFFFFFFFFFFFFFFFFFFFFFFFFFFFFFFFFFF AND PUSH20 0xFFFFFFFFFFFFFFFFFFFFFFFFFFFFFFFFFFFFFFFF AND DUP2 MSTORE PUSH1 0x20 ADD SWAP1 DUP2 MSTORE PUSH1 0x20 ADD PUSH1 0x0 KECCAK256 PUSH1 0x0 ADD PUSH1 0x0 SWAP1 SLOAD SWAP1 PUSH2 0x100 EXP SWAP1 DIV PUSH20 0xFFFFFFFFFFFFFFFFFFFFFFFFFFFFFFFFFFFFFFFF AND SWAP1 POP PUSH1 0x1 PUSH1 0x8 ADD DUP2 SWAP1 DUP1 PUSH1 0x1 DUP2 SLOAD ADD DUP1 DUP3 SSTORE DUP1 SWAP2 POP POP PUSH1 0x1 SWAP1 SUB SWAP1 PUSH1 0x0 MSTORE PUSH1 0x20 PUSH1 0x0 KECCAK256 ADD PUSH1 0x0 SWAP1 SWAP2 SWAP1 SWAP2 SWAP1 SWAP2 PUSH2 0x100 EXP DUP2 SLOAD DUP2 PUSH20 0xFFFFFFFFFFFFFFFFFFFFFFFFFFFFFFFFFFFFFFFF MUL NOT AND SWAP1 DUP4 PUSH20 0xFFFFFFFFFFFFFFFFFFFFFFFFFFFFFFFFFFFFFFFF AND MUL OR SWAP1 SSTORE POP POP DUP1 DUP1 PUSH2 0xED3 SWAP1 PUSH2 0x1E8C JUMP JUMPDEST SWAP2 POP POP PUSH2 0xDEE JUMP JUMPDEST POP POP JUMP JUMPDEST PUSH2 0xEE7 PUSH2 0x139E JUMP JUMPDEST PUSH2 0xEF1 PUSH1 0x0 PUSH2 0x1572 JUMP JUMPDEST JUMP JUMPDEST PUSH2 0xEFB PUSH2 0x139E JUMP JUMPDEST DUP1 PUSH1 0x1 PUSH1 0x0 ADD PUSH1 0x0 PUSH2 0x100 EXP DUP2 SLOAD DUP2 PUSH20 0xFFFFFFFFFFFFFFFFFFFFFFFFFFFFFFFFFFFFFFFF MUL NOT AND SWAP1 DUP4 PUSH20 0xFFFFFFFFFFFFFFFFFFFFFFFFFFFFFFFFFFFFFFFF AND MUL OR SWAP1 SSTORE POP POP JUMP JUMPDEST PUSH1 0x0 DUP1 PUSH1 0x0 SWAP1 SLOAD SWAP1 PUSH2 0x100 EXP SWAP1 DIV PUSH20 0xFFFFFFFFFFFFFFFFFFFFFFFFFFFFFFFFFFFFFFFF AND SWAP1 POP SWAP1 JUMP JUMPDEST PUSH1 0x0 PUSH1 0x1 PUSH1 0x6 ADD PUSH1 0x0 SWAP1 SLOAD SWAP1 PUSH2 0x100 EXP SWAP1 DIV PUSH1 0xFF AND SWAP1 POP SWAP1 JUMP JUMPDEST PUSH1 0x0 PUSH1 0x1 DUP1 ADD PUSH1 0x0 SWAP1 SLOAD SWAP1 PUSH2 0x100 EXP SWAP1 DIV PUSH20 0xFFFFFFFFFFFFFFFFFFFFFFFFFFFFFFFFFFFFFFFF AND SWAP1 POP SWAP1 JUMP JUMPDEST PUSH2 0xFB9 PUSH2 0x139E JUMP JUMPDEST DUP1 PUSH1 0x1 DUP1 ADD PUSH1 0x0 PUSH2 0x100 EXP DUP2 SLOAD DUP2 PUSH20 0xFFFFFFFFFFFFFFFFFFFFFFFFFFFFFFFFFFFFFFFF MUL NOT AND SWAP1 DUP4 PUSH20 0xFFFFFFFFFFFFFFFFFFFFFFFFFFFFFFFFFFFFFFFF AND MUL OR SWAP1 SSTORE POP POP JUMP JUMPDEST PUSH2 0x1007 PUSH2 0x139E JUMP JUMPDEST PUSH1 0x0 PUSH20 0xFFFFFFFFFFFFFFFFFFFFFFFFFFFFFFFFFFFFFFFF AND DUP2 PUSH20 0xFFFFFFFFFFFFFFFFFFFFFFFFFFFFFFFFFFFFFFFF AND SUB PUSH2 0x1076 JUMPI PUSH1 0x40 MLOAD PUSH32 0x8C379A000000000000000000000000000000000000000000000000000000000 DUP2 MSTORE PUSH1 0x4 ADD PUSH2 0x106D SWAP1 PUSH2 0x20B9 JUMP JUMPDEST PUSH1 0x40 MLOAD DUP1 SWAP2 SUB SWAP1 REVERT JUMPDEST PUSH2 0x107F DUP2 PUSH2 0x1572 JUMP JUMPDEST POP JUMP JUMPDEST PUSH1 0x0 PUSH2 0x108C PUSH2 0x139E JUMP JUMPDEST PUSH1 0x0 PUSH1 0x1 PUSH1 0x6 ADD PUSH1 0x0 PUSH2 0x100 EXP DUP2 SLOAD DUP2 PUSH1 0xFF MUL NOT AND SWAP1 DUP4 ISZERO ISZERO MUL OR SWAP1 SSTORE SWAP1 POP SWAP1 JUMP JUMPDEST PUSH1 0x0 DUP1 PUSH1 0x0 SWAP1 POP JUMPDEST PUSH1 0x1 PUSH1 0x8 ADD DUP1 SLOAD SWAP1 POP DUP2 LT ISZERO PUSH2 0x1157 JUMPI DUP3 PUSH20 0xFFFFFFFFFFFFFFFFFFFFFFFFFFFFFFFFFFFFFFFF AND PUSH1 0x1 PUSH1 0x8 ADD DUP3 DUP2 SLOAD DUP2 LT PUSH2 0x10F4 JUMPI PUSH2 0x10F3 PUSH2 0x1F40 JUMP JUMPDEST JUMPDEST SWAP1 PUSH1 0x0 MSTORE PUSH1 0x20 PUSH1 0x0 KECCAK256 ADD PUSH1 0x0 SWAP1 SLOAD SWAP1 PUSH2 0x100 EXP SWAP1 DIV PUSH20 0xFFFFFFFFFFFFFFFFFFFFFFFFFFFFFFFFFFFFFFFF AND PUSH20 0xFFFFFFFFFFFFFFFFFFFFFFFFFFFFFFFFFFFFFFFF AND SUB PUSH2 0x1144 JUMPI PUSH1 0x1 SWAP2 POP POP PUSH2 0x115D JUMP JUMPDEST DUP1 DUP1 PUSH2 0x114F SWAP1 PUSH2 0x1E8C JUMP JUMPDEST SWAP2 POP POP PUSH2 0x10B6 JUMP JUMPDEST POP PUSH1 0x0 SWAP1 POP JUMPDEST SWAP2 SWAP1 POP JUMP JUMPDEST PUSH1 0x0 DUP1 PUSH1 0x0 PUSH1 0x1 DUP1 ADD PUSH1 0x0 SWAP1 SLOAD SWAP1 PUSH2 0x100 EXP SWAP1 DIV PUSH20 0xFFFFFFFFFFFFFFFFFFFFFFFFFFFFFFFFFFFFFFFF AND PUSH20 0xFFFFFFFFFFFFFFFFFFFFFFFFFFFFFFFFFFFFFFFF AND PUSH4 0x70A08231 DUP6 PUSH1 0x40 MLOAD DUP3 PUSH4 0xFFFFFFFF AND PUSH1 0xE0 SHL DUP2 MSTORE PUSH1 0x4 ADD PUSH2 0x11C4 SWAP2 SWAP1 PUSH2 0x1BA2 JUMP JUMPDEST PUSH1 0x20 PUSH1 0x40 MLOAD DUP1 DUP4 SUB DUP2 DUP7 GAS STATICCALL ISZERO DUP1 ISZERO PUSH2 0x11E1 JUMPI RETURNDATASIZE PUSH1 0x0 DUP1 RETURNDATACOPY RETURNDATASIZE PUSH1 0x0 REVERT JUMPDEST POP POP POP POP PUSH1 0x40 MLOAD RETURNDATASIZE PUSH1 0x1F NOT PUSH1 0x1F DUP3 ADD AND DUP3 ADD DUP1 PUSH1 0x40 MSTORE POP DUP2 ADD SWAP1 PUSH2 0x1205 SWAP2 SWAP1 PUSH2 0x20EE JUMP JUMPDEST GT SWAP1 POP PUSH1 0x0 PUSH1 0x1 PUSH1 0x0 ADD PUSH1 0x0 SWAP1 SLOAD SWAP1 PUSH2 0x100 EXP SWAP1 DIV PUSH20 0xFFFFFFFFFFFFFFFFFFFFFFFFFFFFFFFFFFFFFFFF AND PUSH20 0xFFFFFFFFFFFFFFFFFFFFFFFFFFFFFFFFFFFFFFFF AND PUSH4 0x70A08231 DUP6 PUSH1 0x40 MLOAD DUP3 PUSH4 0xFFFFFFFF AND PUSH1 0xE0 SHL DUP2 MSTORE PUSH1 0x4 ADD PUSH2 0x1268 SWAP2 SWAP1 PUSH2 0x1BA2 JUMP JUMPDEST PUSH1 0x20 PUSH1 0x40 MLOAD DUP1 DUP4 SUB DUP2 DUP7 GAS STATICCALL ISZERO DUP1 ISZERO PUSH2 0x1285 JUMPI RETURNDATASIZE PUSH1 0x0 DUP1 RETURNDATACOPY RETURNDATASIZE PUSH1 0x0 REVERT JUMPDEST POP POP POP POP PUSH1 0x40 MLOAD RETURNDATASIZE PUSH1 0x1F NOT PUSH1 0x1F DUP3 ADD AND DUP3 ADD DUP1 PUSH1 0x40 MSTORE POP DUP2 ADD SWAP1 PUSH2 0x12A9 SWAP2 SWAP1 PUSH2 0x20EE JUMP JUMPDEST SWAP1 POP DUP2 DUP1 ISZERO PUSH2 0x12B8 JUMPI POP PUSH1 0x0 DUP2 GT JUMPDEST SWAP3 POP POP POP SWAP2 SWAP1 POP JUMP JUMPDEST PUSH1 0x0 DUP1 PUSH1 0x0 SWAP1 POP JUMPDEST PUSH1 0x1 PUSH1 0x8 ADD DUP1 SLOAD SWAP1 POP DUP2 LT ISZERO PUSH2 0x1395 JUMPI PUSH1 0x0 PUSH1 0x1 PUSH1 0x8 ADD DUP3 DUP2 SLOAD DUP2 LT PUSH2 0x12F2 JUMPI PUSH2 0x12F1 PUSH2 0x1F40 JUMP JUMPDEST JUMPDEST SWAP1 PUSH1 0x0 MSTORE PUSH1 0x20 PUSH1 0x0 KECCAK256 ADD PUSH1 0x0 SWAP1 SLOAD SWAP1 PUSH2 0x100 EXP SWAP1 DIV PUSH20 0xFFFFFFFFFFFFFFFFFFFFFFFFFFFFFFFFFFFFFFFF AND SWAP1 POP PUSH1 0x1 PUSH1 0x9 ADD PUSH1 0x0 DUP3 PUSH20 0xFFFFFFFFFFFFFFFFFFFFFFFFFFFFFFFFFFFFFFFF AND PUSH20 0xFFFFFFFFFFFFFFFFFFFFFFFFFFFFFFFFFFFFFFFF AND DUP2 MSTORE PUSH1 0x20 ADD SWAP1 DUP2 MSTORE PUSH1 0x20 ADD PUSH1 0x0 KECCAK256 PUSH1 0x0 ADD PUSH1 0x14 SWAP1 SLOAD SWAP1 PUSH2 0x100 EXP SWAP1 DIV PUSH1 0xFF AND PUSH2 0x1381 JUMPI PUSH1 0x0 SWAP3 POP POP POP PUSH2 0x139B JUMP JUMPDEST POP DUP1 DUP1 PUSH2 0x138D SWAP1 PUSH2 0x1E8C JUMP JUMPDEST SWAP2 POP POP PUSH2 0x12C9 JUMP JUMPDEST POP PUSH1 0x1 SWAP1 POP JUMPDEST SWAP1 JUMP JUMPDEST PUSH2 0x13A6 PUSH2 0x1636 JUMP JUMPDEST PUSH20 0xFFFFFFFFFFFFFFFFFFFFFFFFFFFFFFFFFFFFFFFF AND PUSH2 0x13C4 PUSH2 0xF42 JUMP JUMPDEST PUSH20 0xFFFFFFFFFFFFFFFFFFFFFFFFFFFFFFFFFFFFFFFF AND EQ PUSH2 0x141A JUMPI PUSH1 0x40 MLOAD PUSH32 0x8C379A000000000000000000000000000000000000000000000000000000000 DUP2 MSTORE PUSH1 0x4 ADD PUSH2 0x1411 SWAP1 PUSH2 0x2167 JUMP JUMPDEST PUSH1 0x40 MLOAD DUP1 SWAP2 SUB SWAP1 REVERT JUMPDEST JUMP JUMPDEST PUSH1 0x60 DUP2 DUP4 GT ISZERO PUSH2 0x1461 JUMPI PUSH1 0x40 MLOAD PUSH32 0x8C379A000000000000000000000000000000000000000000000000000000000 DUP2 MSTORE PUSH1 0x4 ADD PUSH2 0x1458 SWAP1 PUSH2 0x21F9 JUMP JUMPDEST PUSH1 0x40 MLOAD DUP1 SWAP2 SUB SWAP1 REVERT JUMPDEST PUSH1 0x0 DUP4 PUSH8 0xFFFFFFFFFFFFFFFF DUP2 GT ISZERO PUSH2 0x147D JUMPI PUSH2 0x147C PUSH2 0x2219 JUMP JUMPDEST JUMPDEST PUSH1 0x40 MLOAD SWAP1 DUP1 DUP3 MSTORE DUP1 PUSH1 0x20 MUL PUSH1 0x20 ADD DUP3 ADD PUSH1 0x40 MSTORE DUP1 ISZERO PUSH2 0x14AB JUMPI DUP2 PUSH1 0x20 ADD PUSH1 0x20 DUP3 MUL DUP1 CALLDATASIZE DUP4 CALLDATACOPY DUP1 DUP3 ADD SWAP2 POP POP SWAP1 POP JUMPDEST POP SWAP1 POP PUSH1 0x0 PUSH1 0x1 DUP5 PUSH2 0x14BD SWAP2 SWAP1 PUSH2 0x2248 JUMP JUMPDEST SWAP1 POP PUSH1 0x0 JUMPDEST DUP6 DUP2 LT ISZERO PUSH2 0x1566 JUMPI PUSH1 0x0 PUSH1 0x1 DUP4 PUSH2 0x14D9 SWAP2 SWAP1 PUSH2 0x227C JUMP JUMPDEST TIMESTAMP DUP4 PUSH1 0x40 MLOAD PUSH1 0x20 ADD PUSH2 0x14EC SWAP3 SWAP2 SWAP1 PUSH2 0x22D1 JUMP JUMPDEST PUSH1 0x40 MLOAD PUSH1 0x20 DUP2 DUP4 SUB SUB DUP2 MSTORE SWAP1 PUSH1 0x40 MSTORE DUP1 MLOAD SWAP1 PUSH1 0x20 ADD KECCAK256 PUSH1 0x0 SHR PUSH2 0x150F SWAP2 SWAP1 PUSH2 0x232C JUMP JUMPDEST SWAP1 POP DUP1 DUP5 DUP4 DUP2 MLOAD DUP2 LT PUSH2 0x1525 JUMPI PUSH2 0x1524 PUSH2 0x1F40 JUMP JUMPDEST JUMPDEST PUSH1 0x20 MUL PUSH1 0x20 ADD ADD DUP2 DUP2 MSTORE POP POP DUP3 DUP1 PUSH2 0x153C SWAP1 PUSH2 0x235D JUMP JUMPDEST SWAP4 POP POP DUP3 DUP2 EQ PUSH2 0x1552 JUMPI PUSH2 0x1551 DUP5 DUP3 DUP6 PUSH2 0x163E JUMP JUMPDEST JUMPDEST POP DUP1 DUP1 PUSH2 0x155E SWAP1 PUSH2 0x1E8C JUMP JUMPDEST SWAP2 POP POP PUSH2 0x14C2 JUMP JUMPDEST POP DUP2 SWAP3 POP POP POP SWAP3 SWAP2 POP POP JUMP JUMPDEST PUSH1 0x0 DUP1 PUSH1 0x0 SWAP1 SLOAD SWAP1 PUSH2 0x100 EXP SWAP1 DIV PUSH20 0xFFFFFFFFFFFFFFFFFFFFFFFFFFFFFFFFFFFFFFFF AND SWAP1 POP DUP2 PUSH1 0x0 DUP1 PUSH2 0x100 EXP DUP2 SLOAD DUP2 PUSH20 0xFFFFFFFFFFFFFFFFFFFFFFFFFFFFFFFFFFFFFFFF MUL NOT AND SWAP1 DUP4 PUSH20 0xFFFFFFFFFFFFFFFFFFFFFFFFFFFFFFFFFFFFFFFF AND MUL OR SWAP1 SSTORE POP DUP2 PUSH20 0xFFFFFFFFFFFFFFFFFFFFFFFFFFFFFFFFFFFFFFFF AND DUP2 PUSH20 0xFFFFFFFFFFFFFFFFFFFFFFFFFFFFFFFFFFFFFFFF AND PUSH32 0x8BE0079C531659141344CD1FD0A4F28419497F9722A3DAAFE3B4186F6B6457E0 PUSH1 0x40 MLOAD PUSH1 0x40 MLOAD DUP1 SWAP2 SUB SWAP1 LOG3 POP POP JUMP JUMPDEST PUSH1 0x0 CALLER SWAP1 POP SWAP1 JUMP JUMPDEST PUSH1 0x0 DUP4 DUP4 DUP2 MLOAD DUP2 LT PUSH2 0x1653 JUMPI PUSH2 0x1652 PUSH2 0x1F40 JUMP JUMPDEST JUMPDEST PUSH1 0x20 MUL PUSH1 0x20 ADD ADD MLOAD SWAP1 POP DUP4 DUP3 DUP2 MLOAD DUP2 LT PUSH2 0x1670 JUMPI PUSH2 0x166F PUSH2 0x1F40 JUMP JUMPDEST JUMPDEST PUSH1 0x20 MUL PUSH1 0x20 ADD ADD MLOAD DUP5 DUP5 DUP2 MLOAD DUP2 LT PUSH2 0x168B JUMPI PUSH2 0x168A PUSH2 0x1F40 JUMP JUMPDEST JUMPDEST PUSH1 0x20 MUL PUSH1 0x20 ADD ADD DUP2 DUP2 MSTORE POP POP DUP1 DUP5 DUP4 DUP2 MLOAD DUP2 LT PUSH2 0x16AB JUMPI PUSH2 0x16AA PUSH2 0x1F40 JUMP JUMPDEST JUMPDEST PUSH1 0x20 MUL PUSH1 0x20 ADD ADD DUP2 DUP2 MSTORE POP POP POP POP POP POP JUMP JUMPDEST PUSH1 0x40 MLOAD DUP1 PUSH2 0x1C0 ADD PUSH1 0x40 MSTORE DUP1 PUSH1 0x60 DUP2 MSTORE PUSH1 0x20 ADD PUSH1 0x0 PUSH20 0xFFFFFFFFFFFFFFFFFFFFFFFFFFFFFFFFFFFFFFFF AND DUP2 MSTORE PUSH1 0x20 ADD PUSH1 0x0 DUP2 MSTORE PUSH1 0x20 ADD PUSH1 0x0 ISZERO ISZERO DUP2 MSTORE PUSH1 0x20 ADD PUSH1 0x0 DUP2 MSTORE PUSH1 0x20 ADD PUSH1 0x0 PUSH20 0xFFFFFFFFFFFFFFFFFFFFFFFFFFFFFFFFFFFFFFFF AND DUP2 MSTORE PUSH1 0x20 ADD PUSH1 0x60 DUP2 MSTORE PUSH1 0x20 ADD PUSH1 0x60 DUP2 MSTORE PUSH1 0x20 ADD PUSH1 0x0 ISZERO ISZERO DUP2 MSTORE PUSH1 0x20 ADD PUSH1 0x60 DUP2 MSTORE PUSH1 0x20 ADD PUSH1 0x0 DUP2 MSTORE PUSH1 0x20 ADD PUSH1 0x0 DUP2 MSTORE PUSH1 0x20 ADD PUSH1 0x0 DUP2 MSTORE PUSH1 0x20 ADD PUSH1 0x0 DUP2 MSTORE POP SWAP1 JUMP JUMPDEST PUSH1 0x0 DUP1 REVERT JUMPDEST PUSH1 0x0 DUP2 SWAP1 POP SWAP2 SWAP1 POP JUMP JUMPDEST PUSH2 0x1774 DUP2 PUSH2 0x1761 JUMP JUMPDEST DUP2 EQ PUSH2 0x177F JUMPI PUSH1 0x0 DUP1 REVERT JUMPDEST POP JUMP JUMPDEST PUSH1 0x0 DUP2 CALLDATALOAD SWAP1 POP PUSH2 0x1791 DUP2 PUSH2 0x176B JUMP JUMPDEST SWAP3 SWAP2 POP POP JUMP JUMPDEST PUSH1 0x0 PUSH1 0x20 DUP3 DUP5 SUB SLT ISZERO PUSH2 0x17AD JUMPI PUSH2 0x17AC PUSH2 0x175C JUMP JUMPDEST JUMPDEST PUSH1 0x0 PUSH2 0x17BB DUP5 DUP3 DUP6 ADD PUSH2 0x1782 JUMP JUMPDEST SWAP2 POP POP SWAP3 SWAP2 POP POP JUMP JUMPDEST PUSH1 0x0 DUP2 MLOAD SWAP1 POP SWAP2 SWAP1 POP JUMP JUMPDEST PUSH1 0x0 DUP3 DUP3 MSTORE PUSH1 0x20 DUP3 ADD SWAP1 POP SWAP3 SWAP2 POP POP JUMP JUMPDEST PUSH1 0x0 JUMPDEST DUP4 DUP2 LT ISZERO PUSH2 0x17FE JUMPI DUP1 DUP3 ADD MLOAD DUP2 DUP5 ADD MSTORE PUSH1 0x20 DUP2 ADD SWAP1 POP PUSH2 0x17E3 JUMP JUMPDEST PUSH1 0x0 DUP5 DUP5 ADD MSTORE POP POP POP POP JUMP JUMPDEST PUSH1 0x0 PUSH1 0x1F NOT PUSH1 0x1F DUP4 ADD AND SWAP1 POP SWAP2 SWAP1 POP JUMP JUMPDEST PUSH1 0x0 PUSH2 0x1826 DUP3 PUSH2 0x17C4 JUMP JUMPDEST PUSH2 0x1830 DUP2 DUP6 PUSH2 0x17CF JUMP JUMPDEST SWAP4 POP PUSH2 0x1840 DUP2 DUP6 PUSH1 0x20 DUP7 ADD PUSH2 0x17E0 JUMP JUMPDEST PUSH2 0x1849 DUP2 PUSH2 0x180A JUMP JUMPDEST DUP5 ADD SWAP2 POP POP SWAP3 SWAP2 POP POP JUMP JUMPDEST PUSH1 0x0 PUSH20 0xFFFFFFFFFFFFFFFFFFFFFFFFFFFFFFFFFFFFFFFF DUP3 AND SWAP1 POP SWAP2 SWAP1 POP JUMP JUMPDEST PUSH1 0x0 PUSH2 0x187F DUP3 PUSH2 0x1854 JUMP JUMPDEST SWAP1 POP SWAP2 SWAP1 POP JUMP JUMPDEST PUSH2 0x188F DUP2 PUSH2 0x1874 JUMP JUMPDEST DUP3 MSTORE POP POP JUMP JUMPDEST PUSH2 0x189E DUP2 PUSH2 0x1761 JUMP JUMPDEST DUP3 MSTORE POP POP JUMP JUMPDEST PUSH1 0x0 DUP2 ISZERO ISZERO SWAP1 POP SWAP2 SWAP1 POP JUMP JUMPDEST PUSH2 0x18B9 DUP2 PUSH2 0x18A4 JUMP JUMPDEST DUP3 MSTORE POP POP JUMP JUMPDEST PUSH1 0x0 DUP2 MLOAD SWAP1 POP SWAP2 SWAP1 POP JUMP JUMPDEST PUSH1 0x0 DUP3 DUP3 MSTORE PUSH1 0x20 DUP3 ADD SWAP1 POP SWAP3 SWAP2 POP POP JUMP JUMPDEST PUSH1 0x0 DUP2 SWAP1 POP PUSH1 0x20 DUP3 ADD SWAP1 POP SWAP2 SWAP1 POP JUMP JUMPDEST PUSH1 0x0 PUSH2 0x18F7 DUP4 DUP4 PUSH2 0x1886 JUMP JUMPDEST PUSH1 0x20 DUP4 ADD SWAP1 POP SWAP3 SWAP2 POP POP JUMP JUMPDEST PUSH1 0x0 PUSH1 0x20 DUP3 ADD SWAP1 POP SWAP2 SWAP1 POP JUMP JUMPDEST PUSH1 0x0 PUSH2 0x191B DUP3 PUSH2 0x18BF JUMP JUMPDEST PUSH2 0x1925 DUP2 DUP6 PUSH2 0x18CA JUMP JUMPDEST SWAP4 POP PUSH2 0x1930 DUP4 PUSH2 0x18DB JUMP JUMPDEST DUP1 PUSH1 0x0 JUMPDEST DUP4 DUP2 LT ISZERO PUSH2 0x1961 JUMPI DUP2 MLOAD PUSH2 0x1948 DUP9 DUP3 PUSH2 0x18EB JUMP JUMPDEST SWAP8 POP PUSH2 0x1953 DUP4 PUSH2 0x1903 JUMP JUMPDEST SWAP3 POP POP PUSH1 0x1 DUP2 ADD SWAP1 POP PUSH2 0x1934 JUMP JUMPDEST POP DUP6 SWAP4 POP POP POP POP SWAP3 SWAP2 POP POP JUMP JUMPDEST PUSH1 0x0 PUSH2 0x1C0 DUP4 ADD PUSH1 0x0 DUP4 ADD MLOAD DUP5 DUP3 SUB PUSH1 0x0 DUP7 ADD MSTORE PUSH2 0x198C DUP3 DUP3 PUSH2 0x181B JUMP JUMPDEST SWAP2 POP POP PUSH1 0x20 DUP4 ADD MLOAD PUSH2 0x19A1 PUSH1 0x20 DUP7 ADD DUP3 PUSH2 0x1886 JUMP JUMPDEST POP PUSH1 0x40 DUP4 ADD MLOAD PUSH2 0x19B4 PUSH1 0x40 DUP7 ADD DUP3 PUSH2 0x1895 JUMP JUMPDEST POP PUSH1 0x60 DUP4 ADD MLOAD PUSH2 0x19C7 PUSH1 0x60 DUP7 ADD DUP3 PUSH2 0x18B0 JUMP JUMPDEST POP PUSH1 0x80 DUP4 ADD MLOAD PUSH2 0x19DA PUSH1 0x80 DUP7 ADD DUP3 PUSH2 0x1895 JUMP JUMPDEST POP PUSH1 0xA0 DUP4 ADD MLOAD PUSH2 0x19ED PUSH1 0xA0 DUP7 ADD DUP3 PUSH2 0x1886 JUMP JUMPDEST POP PUSH1 0xC0 DUP4 ADD MLOAD DUP5 DUP3 SUB PUSH1 0xC0 DUP7 ADD MSTORE PUSH2 0x1A05 DUP3 DUP3 PUSH2 0x181B JUMP JUMPDEST SWAP2 POP POP PUSH1 0xE0 DUP4 ADD MLOAD DUP5 DUP3 SUB PUSH1 0xE0 DUP7 ADD MSTORE PUSH2 0x1A1F DUP3 DUP3 PUSH2 0x181B JUMP JUMPDEST SWAP2 POP POP PUSH2 0x100 DUP4 ADD MLOAD PUSH2 0x1A36 PUSH2 0x100 DUP7 ADD DUP3 PUSH2 0x18B0 JUMP JUMPDEST POP PUSH2 0x120 DUP4 ADD MLOAD DUP5 DUP3 SUB PUSH2 0x120 DUP7 ADD MSTORE PUSH2 0x1A50 DUP3 DUP3 PUSH2 0x1910 JUMP JUMPDEST SWAP2 POP POP PUSH2 0x140 DUP4 ADD MLOAD PUSH2 0x1A67 PUSH2 0x140 DUP7 ADD DUP3 PUSH2 0x1895 JUMP JUMPDEST POP PUSH2 0x160 DUP4 ADD MLOAD PUSH2 0x1A7C PUSH2 0x160 DUP7 ADD DUP3 PUSH2 0x1895 JUMP JUMPDEST POP PUSH2 0x180 DUP4 ADD MLOAD PUSH2 0x1A91 PUSH2 0x180 DUP7 ADD DUP3 PUSH2 0x1895 JUMP JUMPDEST POP PUSH2 0x1A0 DUP4 ADD MLOAD PUSH2 0x1AA6 PUSH2 0x1A0 DUP7 ADD DUP3 PUSH2 0x1895 JUMP JUMPDEST POP DUP1 SWAP2 POP POP SWAP3 SWAP2 POP POP JUMP JUMPDEST PUSH1 0x0 PUSH1 0x20 DUP3 ADD SWAP1 POP DUP2 DUP2 SUB PUSH1 0x0 DUP4 ADD MSTORE PUSH2 0x1ACB DUP2 DUP5 PUSH2 0x196E JUMP JUMPDEST SWAP1 POP SWAP3 SWAP2 POP POP JUMP JUMPDEST PUSH2 0x1ADC DUP2 PUSH2 0x1761 JUMP JUMPDEST DUP3 MSTORE POP POP JUMP JUMPDEST PUSH1 0x0 PUSH1 0x20 DUP3 ADD SWAP1 POP PUSH2 0x1AF7 PUSH1 0x0 DUP4 ADD DUP5 PUSH2 0x1AD3 JUMP JUMPDEST SWAP3 SWAP2 POP POP JUMP JUMPDEST PUSH2 0x1B06 DUP2 PUSH2 0x18A4 JUMP JUMPDEST DUP2 EQ PUSH2 0x1B11 JUMPI PUSH1 0x0 DUP1 REVERT JUMPDEST POP JUMP JUMPDEST PUSH1 0x0 DUP2 CALLDATALOAD SWAP1 POP PUSH2 0x1B23 DUP2 PUSH2 0x1AFD JUMP JUMPDEST SWAP3 SWAP2 POP POP JUMP JUMPDEST PUSH1 0x0 DUP1 PUSH1 0x40 DUP4 DUP6 SUB SLT ISZERO PUSH2 0x1B40 JUMPI PUSH2 0x1B3F PUSH2 0x175C JUMP JUMPDEST JUMPDEST PUSH1 0x0 PUSH2 0x1B4E DUP6 DUP3 DUP7 ADD PUSH2 0x1B14 JUMP JUMPDEST SWAP3 POP POP PUSH1 0x20 PUSH2 0x1B5F DUP6 DUP3 DUP7 ADD PUSH2 0x1782 JUMP JUMPDEST SWAP2 POP POP SWAP3 POP SWAP3 SWAP1 POP JUMP JUMPDEST PUSH2 0x1B72 DUP2 PUSH2 0x18A4 JUMP JUMPDEST DUP3 MSTORE POP POP JUMP JUMPDEST PUSH1 0x0 PUSH1 0x20 DUP3 ADD SWAP1 POP PUSH2 0x1B8D PUSH1 0x0 DUP4 ADD DUP5 PUSH2 0x1B69 JUMP JUMPDEST SWAP3 SWAP2 POP POP JUMP JUMPDEST PUSH2 0x1B9C DUP2 PUSH2 0x1874 JUMP JUMPDEST DUP3 MSTORE POP POP JUMP JUMPDEST PUSH1 0x0 PUSH1 0x20 DUP3 ADD SWAP1 POP PUSH2 0x1BB7 PUSH1 0x0 DUP4 ADD DUP5 PUSH2 0x1B93 JUMP JUMPDEST SWAP3 SWAP2 POP POP JUMP JUMPDEST PUSH2 0x1BC6 DUP2 PUSH2 0x1874 JUMP JUMPDEST DUP2 EQ PUSH2 0x1BD1 JUMPI PUSH1 0x0 DUP1 REVERT JUMPDEST POP JUMP JUMPDEST PUSH1 0x0 DUP2 CALLDATALOAD SWAP1 POP PUSH2 0x1BE3 DUP2 PUSH2 0x1BBD JUMP JUMPDEST SWAP3 SWAP2 POP POP JUMP JUMPDEST PUSH1 0x0 PUSH1 0x20 DUP3 DUP5 SUB SLT ISZERO PUSH2 0x1BFF JUMPI PUSH2 0x1BFE PUSH2 0x175C JUMP JUMPDEST JUMPDEST PUSH1 0x0 PUSH2 0x1C0D DUP5 DUP3 DUP6 ADD PUSH2 0x1BD4 JUMP JUMPDEST SWAP2 POP POP SWAP3 SWAP2 POP POP JUMP JUMPDEST PUSH32 0x4E487B7100000000000000000000000000000000000000000000000000000000 PUSH1 0x0 MSTORE PUSH1 0x22 PUSH1 0x4 MSTORE PUSH1 0x24 PUSH1 0x0 REVERT JUMPDEST PUSH1 0x0 PUSH1 0x2 DUP3 DIV SWAP1 POP PUSH1 0x1 DUP3 AND DUP1 PUSH2 0x1C5D JUMPI PUSH1 0x7F DUP3 AND SWAP2 POP JUMPDEST PUSH1 0x20 DUP3 LT DUP2 SUB PUSH2 0x1C70 JUMPI PUSH2 0x1C6F PUSH2 0x1C16 JUMP JUMPDEST JUMPDEST POP SWAP2 SWAP1 POP JUMP JUMPDEST PUSH1 0x0 DUP3 DUP3 MSTORE PUSH1 0x20 DUP3 ADD SWAP1 POP SWAP3 SWAP2 POP POP JUMP JUMPDEST PUSH32 0x5761697420666F7220766F74696E672074696D6520706C656173652100000000 PUSH1 0x0 DUP3 ADD MSTORE POP JUMP JUMPDEST PUSH1 0x0 PUSH2 0x1CBD PUSH1 0x1C DUP4 PUSH2 0x1C76 JUMP JUMPDEST SWAP2 POP PUSH2 0x1CC8 DUP3 PUSH2 0x1C87 JUMP JUMPDEST PUSH1 0x20 DUP3 ADD SWAP1 POP SWAP2 SWAP1 POP JUMP JUMPDEST PUSH1 0x0 PUSH1 0x20 DUP3 ADD SWAP1 POP DUP2 DUP2 SUB PUSH1 0x0 DUP4 ADD MSTORE PUSH2 0x1CEC DUP2 PUSH2 0x1CB0 JUMP JUMPDEST SWAP1 POP SWAP2 SWAP1 POP JUMP JUMPDEST PUSH32 0x596F7520617265206E6F7420656C696769626C6520746F20766F746500000000 PUSH1 0x0 DUP3 ADD MSTORE POP JUMP JUMPDEST PUSH1 0x0 PUSH2 0x1D29 PUSH1 0x1C DUP4 PUSH2 0x1C76 JUMP JUMPDEST SWAP2 POP PUSH2 0x1D34 DUP3 PUSH2 0x1CF3 JUMP JUMPDEST PUSH1 0x20 DUP3 ADD SWAP1 POP SWAP2 SWAP1 POP JUMP JUMPDEST PUSH1 0x0 PUSH1 0x20 DUP3 ADD SWAP1 POP DUP2 DUP2 SUB PUSH1 0x0 DUP4 ADD MSTORE PUSH2 0x1D58 DUP2 PUSH2 0x1D1C JUMP JUMPDEST SWAP1 POP SWAP2 SWAP1 POP JUMP JUMPDEST PUSH32 0x596F75206D757374206861766520746865207265717569726564204E46542061 PUSH1 0x0 DUP3 ADD MSTORE PUSH32 0x6E6420455243323020746F6B656E20746F20766F746500000000000000000000 PUSH1 0x20 DUP3 ADD MSTORE POP JUMP JUMPDEST PUSH1 0x0 PUSH2 0x1DBB PUSH1 0x36 DUP4 PUSH2 0x1C76 JUMP JUMPDEST SWAP2 POP PUSH2 0x1DC6 DUP3 PUSH2 0x1D5F JUMP JUMPDEST PUSH1 0x40 DUP3 ADD SWAP1 POP SWAP2 SWAP1 POP JUMP JUMPDEST PUSH1 0x0 PUSH1 0x20 DUP3 ADD SWAP1 POP DUP2 DUP2 SUB PUSH1 0x0 DUP4 ADD MSTORE PUSH2 0x1DEA DUP2 PUSH2 0x1DAE JUMP JUMPDEST SWAP1 POP SWAP2 SWAP1 POP JUMP JUMPDEST PUSH32 0x596F75206861766520616C726561647920766F74656400000000000000000000 PUSH1 0x0 DUP3 ADD MSTORE POP JUMP JUMPDEST PUSH1 0x0 PUSH2 0x1E27 PUSH1 0x16 DUP4 PUSH2 0x1C76 JUMP JUMPDEST SWAP2 POP PUSH2 0x1E32 DUP3 PUSH2 0x1DF1 JUMP JUMPDEST PUSH1 0x20 DUP3 ADD SWAP1 POP SWAP2 SWAP1 POP JUMP JUMPDEST PUSH1 0x0 PUSH1 0x20 DUP3 ADD SWAP1 POP DUP2 DUP2 SUB PUSH1 0x0 DUP4 ADD MSTORE PUSH2 0x1E56 DUP2 PUSH2 0x1E1A JUMP JUMPDEST SWAP1 POP SWAP2 SWAP1 POP JUMP JUMPDEST PUSH32 0x4E487B7100000000000000000000000000000000000000000000000000000000 PUSH1 0x0 MSTORE PUSH1 0x11 PUSH1 0x4 MSTORE PUSH1 0x24 PUSH1 0x0 REVERT JUMPDEST PUSH1 0x0 PUSH2 0x1E97 DUP3 PUSH2 0x1761 JUMP JUMPDEST SWAP2 POP PUSH32 0xFFFFFFFFFFFFFFFFFFFFFFFFFFFFFFFFFFFFFFFFFFFFFFFFFFFFFFFFFFFFFFFF DUP3 SUB PUSH2 0x1EC9 JUMPI PUSH2 0x1EC8 PUSH2 0x1E5D JUMP JUMPDEST JUMPDEST PUSH1 0x1 DUP3 ADD SWAP1 POP SWAP2 SWAP1 POP JUMP JUMPDEST PUSH32 0x496E76616C696420616464726573730000000000000000000000000000000000 PUSH1 0x0 DUP3 ADD MSTORE POP JUMP JUMPDEST PUSH1 0x0 PUSH2 0x1F0A PUSH1 0xF DUP4 PUSH2 0x1C76 JUMP JUMPDEST SWAP2 POP PUSH2 0x1F15 DUP3 PUSH2 0x1ED4 JUMP JUMPDEST PUSH1 0x20 DUP3 ADD SWAP1 POP SWAP2 SWAP1 POP JUMP JUMPDEST PUSH1 0x0 PUSH1 0x20 DUP3 ADD SWAP1 POP DUP2 DUP2 SUB PUSH1 0x0 DUP4 ADD MSTORE PUSH2 0x1F39 DUP2 PUSH2 0x1EFD JUMP JUMPDEST SWAP1 POP SWAP2 SWAP1 POP JUMP JUMPDEST PUSH32 0x4E487B7100000000000000000000000000000000000000000000000000000000 PUSH1 0x0 MSTORE PUSH1 0x32 PUSH1 0x4 MSTORE PUSH1 0x24 PUSH1 0x0 REVERT JUMPDEST PUSH32 0x566F74657220697320616C726561647920656C696769626C6500000000000000 PUSH1 0x0 DUP3 ADD MSTORE POP JUMP JUMPDEST PUSH1 0x0 PUSH2 0x1FA5 PUSH1 0x19 DUP4 PUSH2 0x1C76 JUMP JUMPDEST SWAP2 POP PUSH2 0x1FB0 DUP3 PUSH2 0x1F6F JUMP JUMPDEST PUSH1 0x20 DUP3 ADD SWAP1 POP SWAP2 SWAP1 POP JUMP JUMPDEST PUSH1 0x0 PUSH1 0x20 DUP3 ADD SWAP1 POP DUP2 DUP2 SUB PUSH1 0x0 DUP4 ADD MSTORE PUSH2 0x1FD4 DUP2 PUSH2 0x1F98 JUMP JUMPDEST SWAP1 POP SWAP2 SWAP1 POP JUMP JUMPDEST PUSH32 0x4E6F7420656E6F75676820766F7465727320746F2073656C6563742066726F6D PUSH1 0x0 DUP3 ADD MSTORE POP JUMP JUMPDEST PUSH1 0x0 PUSH2 0x2011 PUSH1 0x20 DUP4 PUSH2 0x1C76 JUMP JUMPDEST SWAP2 POP PUSH2 0x201C DUP3 PUSH2 0x1FDB JUMP JUMPDEST PUSH1 0x20 DUP3 ADD SWAP1 POP SWAP2 SWAP1 POP JUMP JUMPDEST PUSH1 0x0 PUSH1 0x20 DUP3 ADD SWAP1 POP DUP2 DUP2 SUB PUSH1 0x0 DUP4 ADD MSTORE PUSH2 0x2040 DUP2 PUSH2 0x2004 JUMP JUMPDEST SWAP1 POP SWAP2 SWAP1 POP JUMP JUMPDEST PUSH32 0x4F776E61626C653A206E6577206F776E657220697320746865207A65726F2061 PUSH1 0x0 DUP3 ADD MSTORE PUSH32 0x6464726573730000000000000000000000000000000000000000000000000000 PUSH1 0x20 DUP3 ADD MSTORE POP JUMP JUMPDEST PUSH1 0x0 PUSH2 0x20A3 PUSH1 0x26 DUP4 PUSH2 0x1C76 JUMP JUMPDEST SWAP2 POP PUSH2 0x20AE DUP3 PUSH2 0x2047 JUMP JUMPDEST PUSH1 0x40 DUP3 ADD SWAP1 POP SWAP2 SWAP1 POP JUMP JUMPDEST PUSH1 0x0 PUSH1 0x20 DUP3 ADD SWAP1 POP DUP2 DUP2 SUB PUSH1 0x0 DUP4 ADD MSTORE PUSH2 0x20D2 DUP2 PUSH2 0x2096 JUMP JUMPDEST SWAP1 POP SWAP2 SWAP1 POP JUMP JUMPDEST PUSH1 0x0 DUP2 MLOAD SWAP1 POP PUSH2 0x20E8 DUP2 PUSH2 0x176B JUMP JUMPDEST SWAP3 SWAP2 POP POP JUMP JUMPDEST PUSH1 0x0 PUSH1 0x20 DUP3 DUP5 SUB SLT ISZERO PUSH2 0x2104 JUMPI PUSH2 0x2103 PUSH2 0x175C JUMP JUMPDEST JUMPDEST PUSH1 0x0 PUSH2 0x2112 DUP5 DUP3 DUP6 ADD PUSH2 0x20D9 JUMP JUMPDEST SWAP2 POP POP SWAP3 SWAP2 POP POP JUMP JUMPDEST PUSH32 0x4F776E61626C653A2063616C6C6572206973206E6F7420746865206F776E6572 PUSH1 0x0 DUP3 ADD MSTORE POP JUMP JUMPDEST PUSH1 0x0 PUSH2 0x2151 PUSH1 0x20 DUP4 PUSH2 0x1C76 JUMP JUMPDEST SWAP2 POP PUSH2 0x215C DUP3 PUSH2 0x211B JUMP JUMPDEST PUSH1 0x20 DUP3 ADD SWAP1 POP SWAP2 SWAP1 POP JUMP JUMPDEST PUSH1 0x0 PUSH1 0x20 DUP3 ADD SWAP1 POP DUP2 DUP2 SUB PUSH1 0x0 DUP4 ADD MSTORE PUSH2 0x2180 DUP2 PUSH2 0x2144 JUMP JUMPDEST SWAP1 POP SWAP2 SWAP1 POP JUMP JUMPDEST PUSH32 0x436F756E74206D757374206265206C657373207468616E206F7220657175616C PUSH1 0x0 DUP3 ADD MSTORE PUSH32 0x20746F20746865206D6178696D756D0000000000000000000000000000000000 PUSH1 0x20 DUP3 ADD MSTORE POP JUMP JUMPDEST PUSH1 0x0 PUSH2 0x21E3 PUSH1 0x2F DUP4 PUSH2 0x1C76 JUMP JUMPDEST SWAP2 POP PUSH2 0x21EE DUP3 PUSH2 0x2187 JUMP JUMPDEST PUSH1 0x40 DUP3 ADD SWAP1 POP SWAP2 SWAP1 POP JUMP JUMPDEST PUSH1 0x0 PUSH1 0x20 DUP3 ADD SWAP1 POP DUP2 DUP2 SUB PUSH1 0x0 DUP4 ADD MSTORE PUSH2 0x2212 DUP2 PUSH2 0x21D6 JUMP JUMPDEST SWAP1 POP SWAP2 SWAP1 POP JUMP JUMPDEST PUSH32 0x4E487B7100000000000000000000000000000000000000000000000000000000 PUSH1 0x0 MSTORE PUSH1 0x41 PUSH1 0x4 MSTORE PUSH1 0x24 PUSH1 0x0 REVERT JUMPDEST PUSH1 0x0 PUSH2 0x2253 DUP3 PUSH2 0x1761 JUMP JUMPDEST SWAP2 POP PUSH2 0x225E DUP4 PUSH2 0x1761 JUMP JUMPDEST SWAP3 POP DUP3 DUP3 SUB SWAP1 POP DUP2 DUP2 GT ISZERO PUSH2 0x2276 JUMPI PUSH2 0x2275 PUSH2 0x1E5D JUMP JUMPDEST JUMPDEST SWAP3 SWAP2 POP POP JUMP JUMPDEST PUSH1 0x0 PUSH2 0x2287 DUP3 PUSH2 0x1761 JUMP JUMPDEST SWAP2 POP PUSH2 0x2292 DUP4 PUSH2 0x1761 JUMP JUMPDEST SWAP3 POP DUP3 DUP3 ADD SWAP1 POP DUP1 DUP3 GT ISZERO PUSH2 0x22AA JUMPI PUSH2 0x22A9 PUSH2 0x1E5D JUMP JUMPDEST JUMPDEST SWAP3 SWAP2 POP POP JUMP JUMPDEST PUSH1 0x0 DUP2 SWAP1 POP SWAP2 SWAP1 POP JUMP JUMPDEST PUSH2 0x22CB PUSH2 0x22C6 DUP3 PUSH2 0x1761 JUMP JUMPDEST PUSH2 0x22B0 JUMP JUMPDEST DUP3 MSTORE POP POP JUMP JUMPDEST PUSH1 0x0 PUSH2 0x22DD DUP3 DUP6 PUSH2 0x22BA JUMP JUMPDEST PUSH1 0x20 DUP3 ADD SWAP2 POP PUSH2 0x22ED DUP3 DUP5 PUSH2 0x22BA JUMP JUMPDEST PUSH1 0x20 DUP3 ADD SWAP2 POP DUP2 SWAP1 POP SWAP4 SWAP3 POP POP POP JUMP JUMPDEST PUSH32 0x4E487B7100000000000000000000000000000000000000000000000000000000 PUSH1 0x0 MSTORE PUSH1 0x12 PUSH1 0x4 MSTORE PUSH1 0x24 PUSH1 0x0 REVERT JUMPDEST PUSH1 0x0 PUSH2 0x2337 DUP3 PUSH2 0x1761 JUMP JUMPDEST SWAP2 POP PUSH2 0x2342 DUP4 PUSH2 0x1761 JUMP JUMPDEST SWAP3 POP DUP3 PUSH2 0x2352 JUMPI PUSH2 0x2351 PUSH2 0x22FD JUMP JUMPDEST JUMPDEST DUP3 DUP3 MOD SWAP1 POP SWAP3 SWAP2 POP POP JUMP JUMPDEST PUSH1 0x0 PUSH2 0x2368 DUP3 PUSH2 0x1761 JUMP JUMPDEST SWAP2 POP PUSH1 0x0 DUP3 SUB PUSH2 0x237B JUMPI PUSH2 0x237A PUSH2 0x1E5D JUMP JUMPDEST JUMPDEST PUSH1 0x1 DUP3 SUB SWAP1 POP SWAP2 SWAP1 POP JUMP INVALID LOG2 PUSH5 0x6970667358 0x22 SLT KECCAK256 0xAC PUSH14 0x16643559864236D64FB0B8FA3497 0xEA CALLDATALOAD 0xAE SWAP14 GASPRICE SWAP2 0xC4 NOT 0xE9 MULMOD EXTCODECOPY PUSH13 0x503BBC2064736F6C6343000811 STOP CALLER "},"methodIdentifiers":{"addVoters(address)":"4c105d1b","checkNFTAdress()":"e7a595ca","checkTokenAdress()":"219ea8d3","getContent(uint256)":"0b7ad54c","getRandomVoters()":"60777e1d","isVotingOn()":"d1817c2c","owner()":"8da5cb5b","renounceOwnership()":"715018a6","setNFTAdress(address)":"f06459ee","setTokenAdress(address)":"8bb0d810","startVoting()":"1ec6b60a","stopVoting()":"fab2f86b","totalFlaggedContent()":"1019b6c2","totalVoters()":"5f5300ff","transferOwnership(address)":"f2fde38b","vote(bool,uint256)":"10e6e06c"}}}}}