{"contracts/facets/VoteContentFacet.sol":{"VoteContentFacet":{"abi":[{"anonymous":false,"inputs":[{"indexed":true,"internalType":"address","name":"voter","type":"address"},{"indexed":false,"internalType":"bool","name":"vote","type":"bool"}],"name":"VoteCast","type":"event"},{"inputs":[{"internalType":"address","name":"voterAddress","type":"address"}],"name":"addVoters","outputs":[],"stateMutability":"nonpayable","type":"function"},{"inputs":[],"name":"checkNFTAdress","outputs":[{"internalType":"address","name":"","type":"address"}],"stateMutability":"view","type":"function"},{"inputs":[],"name":"checkTokenAdress","outputs":[{"internalType":"address","name":"","type":"address"}],"stateMutability":"view","type":"function"},{"inputs":[{"internalType":"uint256","name":"contentID","type":"uint256"}],"name":"getContent","outputs":[{"components":[{"internalType":"string","name":"contentName","type":"string"},{"internalType":"address","name":"contentCreator","type":"address"},{"internalType":"uint256","name":"contentID","type":"uint256"},{"internalType":"bool","name":"flagged","type":"bool"},{"internalType":"uint256","name":"flaggedTimestamp","type":"uint256"},{"internalType":"address","name":"flaggedBy","type":"address"},{"internalType":"string","name":"reasonForFlagging","type":"string"},{"internalType":"string","name":"contentDescription","type":"string"},{"internalType":"bool","name":"isVotedOn","type":"bool"},{"internalType":"address[]","name":"voters","type":"address[]"},{"internalType":"uint256","name":"totalVoteCount","type":"uint256"},{"internalType":"uint256","name":"flaggedVotes","type":"uint256"},{"internalType":"uint256","name":"yesVotes","type":"uint256"},{"internalType":"uint256","name":"noVotes","type":"uint256"}],"internalType":"struct Content","name":"","type":"tuple"}],"stateMutability":"view","type":"function"},{"inputs":[],"name":"getRandomVoters","outputs":[],"stateMutability":"nonpayable","type":"function"},{"inputs":[],"name":"isVotingOn","outputs":[{"internalType":"bool","name":"","type":"bool"}],"stateMutability":"view","type":"function"},{"inputs":[{"internalType":"address","name":"NFTaddress","type":"address"}],"name":"setNFTAdress","outputs":[],"stateMutability":"nonpayable","type":"function"},{"inputs":[{"internalType":"address","name":"tokenAddress","type":"address"}],"name":"setTokenAdress","outputs":[],"stateMutability":"nonpayable","type":"function"},{"inputs":[],"name":"startVoting","outputs":[{"internalType":"bool","name":"","type":"bool"}],"stateMutability":"nonpayable","type":"function"},{"inputs":[],"name":"stopVoting","outputs":[{"internalType":"bool","name":"","type":"bool"}],"stateMutability":"nonpayable","type":"function"},{"inputs":[],"name":"totalFlaggedContent","outputs":[{"internalType":"uint256","name":"","type":"uint256"}],"stateMutability":"view","type":"function"},{"inputs":[],"name":"totalVoters","outputs":[{"internalType":"uint256","name":"","type":"uint256"}],"stateMutability":"view","type":"function"},{"inputs":[{"internalType":"bool","name":"voteValue","type":"bool"},{"internalType":"uint256","name":"contentID","type":"uint256"}],"name":"vote","outputs":[],"stateMutability":"nonpayable","type":"function"}],"evm":{"bytecode":{"linkReferences":{},"object":"608060405234801561001057600080fd5b50612038806100206000396000f3fe608060405234801561001057600080fd5b50600436106100cf5760003560e01c80635f5300ff1161008c578063d1817c2c11610066578063d1817c2c146101da578063e7a595ca146101f8578063f06459ee14610216578063fab2f86b14610232576100cf565b80635f5300ff1461019657806360777e1d146101b45780638bb0d810146101be576100cf565b80630b7ad54c146100d45780631019b6c21461010457806310e6e06c146101225780631ec6b60a1461013e578063219ea8d31461015c5780634c105d1b1461017a575b600080fd5b6100ee60048036038101906100e99190611511565b610250565b6040516100fb919061182b565b60405180910390f35b61010c6105e3565b604051610119919061185c565b60405180910390f35b61013c600480360381019061013791906118a3565b6105ef565b005b610146610983565b60405161015391906118f2565b60405180910390f35b6101646109a7565b604051610171919061191c565b60405180910390f35b610194600480360381019061018f9190611963565b6109d3565b005b61019e610d23565b6040516101ab919061185c565b60405180910390f35b6101bc610d2f565b005b6101d860048036038101906101d39190611963565b610e7f565b005b6101e2610ec5565b6040516101ef91906118f2565b60405180910390f35b610200610ede565b60405161020d919061191c565b60405180910390f35b610230600480360381019061022b9190611963565b610f0a565b005b61023a610f51565b60405161024791906118f2565b60405180910390f35b610258611437565b60006007016000838152602001908152602001600020604051806101c001604052908160008201805461028a906119bf565b80601f01602080910402602001604051908101604052809291908181526020018280546102b6906119bf565b80156103035780601f106102d857610100808354040283529160200191610303565b820191906000526020600020905b8154815290600101906020018083116102e657829003601f168201915b505050505081526020016001820160009054906101000a900473ffffffffffffffffffffffffffffffffffffffff1673ffffffffffffffffffffffffffffffffffffffff1673ffffffffffffffffffffffffffffffffffffffff168152602001600282015481526020016003820160009054906101000a900460ff16151515158152602001600482015481526020016005820160009054906101000a900473ffffffffffffffffffffffffffffffffffffffff1673ffffffffffffffffffffffffffffffffffffffff1673ffffffffffffffffffffffffffffffffffffffff1681526020016006820180546103f7906119bf565b80601f0160208091040260200160405190810160405280929190818152602001828054610423906119bf565b80156104705780601f1061044557610100808354040283529160200191610470565b820191906000526020600020905b81548152906001019060200180831161045357829003601f168201915b50505050508152602001600782018054610489906119bf565b80601f01602080910402602001604051908101604052809291908181526020018280546104b5906119bf565b80156105025780601f106104d757610100808354040283529160200191610502565b820191906000526020600020905b8154815290600101906020018083116104e557829003601f168201915b505050505081526020016008820160009054906101000a900460ff16151515158152602001600982018054806020026020016040519081016040528092919081815260200182805480156105ab57602002820191906000526020600020905b8160009054906101000a900473ffffffffffffffffffffffffffffffffffffffff1673ffffffffffffffffffffffffffffffffffffffff1681526020019060010190808311610561575b50505050508152602001600a8201548152602001600b8201548152602001600c8201548152602001600d820154815250509050919050565b60008060020154905090565b600060060160009054906101000a900460ff16610641576040517f08c379a000000000000000000000000000000000000000000000000000000000815260040161063890611a4d565b60405180910390fd5b426000600401541115610677576001600060060160006101000a81548160ff021916908315150217905550426000600401819055505b61068033610f74565b6106bf576040517f08c379a00000000000000000000000000000000000000000000000000000000081526004016106b690611ab9565b60405180910390fd5b6106c833611028565b610707576040517f08c379a00000000000000000000000000000000000000000000000000000000081526004016106fe90611b4b565b60405180910390fd5b60008060090160003373ffffffffffffffffffffffffffffffffffffffff1673ffffffffffffffffffffffffffffffffffffffff1681526020019081526020016000206040518060800160405290816000820160009054906101000a900473ffffffffffffffffffffffffffffffffffffffff1673ffffffffffffffffffffffffffffffffffffffff1673ffffffffffffffffffffffffffffffffffffffff1681526020016000820160149054906101000a900460ff161515151581526020016000820160159054906101000a900460ff161515151581526020016000820160169054906101000a900460ff1615151515815250509050600015158160200151151514610849576040517f08c379a000000000000000000000000000000000000000000000000000000000815260040161084090611bb7565b60405180910390fd5b6001816020019015159081151581525050828160400190151590811515815250506000806007016000848152602001908152602001600020905083156108a85780600c01600081548092919061089e90611c06565b91905055506108c3565b80600d0160008154809291906108bd90611c06565b91905055505b60018160080160006101000a81548160ff02191690831515021790555080600a0160008154809291906108f590611c06565b9190505550610902611186565b1561092f5760008060060160006101000a81548160ff021916908315150217905550600080600401819055505b3373ffffffffffffffffffffffffffffffffffffffff167fa32151c21b193dcf3d43d553597e960d429ef6cafad3492ee4790e41be1ce5208560405161097591906118f2565b60405180910390a250505050565b60006001600060060160006101000a81548160ff0219169083151502179055905090565b60008060000160009054906101000a900473ffffffffffffffffffffffffffffffffffffffff16905090565b600073ffffffffffffffffffffffffffffffffffffffff168173ffffffffffffffffffffffffffffffffffffffff1603610a42576040517f08c379a0000000000000000000000000000000000000000000000000000000008152600401610a3990611c9a565b60405180910390fd5b610a4b81611028565b610a8a576040517f08c379a0000000000000000000000000000000000000000000000000000000008152600401610a8190611b4b565b60405180910390fd5b60001515600060090160008373ffffffffffffffffffffffffffffffffffffffff1673ffffffffffffffffffffffffffffffffffffffff16815260200190815260200160002060000160169054906101000a900460ff16151503610bc95760008060090160008373ffffffffffffffffffffffffffffffffffffffff1673ffffffffffffffffffffffffffffffffffffffff1681526020019081526020016000209050818160000160006101000a81548173ffffffffffffffffffffffffffffffffffffffff021916908373ffffffffffffffffffffffffffffffffffffffff16021790555060008160000160146101000a81548160ff02191690831515021790555060008160000160156101000a81548160ff02191690831515021790555060018160000160166101000a81548160ff021916908315150217905550505b60005b600060080180549050811015610c9e578173ffffffffffffffffffffffffffffffffffffffff1660006008018281548110610c0a57610c09611cba565b5b9060005260206000200160009054906101000a900473ffffffffffffffffffffffffffffffffffffffff1673ffffffffffffffffffffffffffffffffffffffff1603610c8b576040517f08c379a0000000000000000000000000000000000000000000000000000000008152600401610c8290611d35565b60405180910390fd5b8080610c9690611c06565b915050610bcc565b506000600801819080600181540180825580915050600190039060005260206000200160009091909190916101000a81548173ffffffffffffffffffffffffffffffffffffffff021916908373ffffffffffffffffffffffffffffffffffffffff16021790555060006005016000815480929190610d1b90611c06565b919050555050565b60008060050154905090565b60036000600501541015610d78576040517f08c379a0000000000000000000000000000000000000000000000000000000008152600401610d6f90611da1565b60405180910390fd5b6000610d8a6003600060050154611262565b905060005b8151811015610e7b5760008060090160003373ffffffffffffffffffffffffffffffffffffffff1673ffffffffffffffffffffffffffffffffffffffff16815260200190815260200160002060000160009054906101000a900473ffffffffffffffffffffffffffffffffffffffff1690506000600801819080600181540180825580915050600190039060005260206000200160009091909190916101000a81548173ffffffffffffffffffffffffffffffffffffffff021916908373ffffffffffffffffffffffffffffffffffffffff160217905550508080610e7390611c06565b915050610d8f565b5050565b806000800160006101000a81548173ffffffffffffffffffffffffffffffffffffffff021916908373ffffffffffffffffffffffffffffffffffffffff16021790555050565b60008060060160009054906101000a900460ff16905090565b60008060010160009054906101000a900473ffffffffffffffffffffffffffffffffffffffff16905090565b80600060010160006101000a81548173ffffffffffffffffffffffffffffffffffffffff021916908373ffffffffffffffffffffffffffffffffffffffff16021790555050565b600080600060060160006101000a81548160ff0219169083151502179055905090565b600080600090505b60006008018054905081101561101d578273ffffffffffffffffffffffffffffffffffffffff1660006008018281548110610fba57610fb9611cba565b5b9060005260206000200160009054906101000a900473ffffffffffffffffffffffffffffffffffffffff1673ffffffffffffffffffffffffffffffffffffffff160361100a576001915050611023565b808061101590611c06565b915050610f7c565b50600090505b919050565b60008060008060010160009054906101000a900473ffffffffffffffffffffffffffffffffffffffff1673ffffffffffffffffffffffffffffffffffffffff166370a08231856040518263ffffffff1660e01b815260040161108a919061191c565b602060405180830381865afa1580156110a7573d6000803e3d6000fd5b505050506040513d601f19601f820116820180604052508101906110cb9190611dd6565b11905060008060000160009054906101000a900473ffffffffffffffffffffffffffffffffffffffff1673ffffffffffffffffffffffffffffffffffffffff166370a08231856040518263ffffffff1660e01b815260040161112d919061191c565b602060405180830381865afa15801561114a573d6000803e3d6000fd5b505050506040513d601f19601f8201168201806040525081019061116e9190611dd6565b905081801561117d5750600081115b92505050919050565b600080600090505b6000600801805490508110156112595760008060080182815481106111b6576111b5611cba565b5b9060005260206000200160009054906101000a900473ffffffffffffffffffffffffffffffffffffffff169050600060090160008273ffffffffffffffffffffffffffffffffffffffff1673ffffffffffffffffffffffffffffffffffffffff16815260200190815260200160002060000160149054906101000a900460ff166112455760009250505061125f565b50808061125190611c06565b91505061118e565b50600190505b90565b6060818311156112a7576040517f08c379a000000000000000000000000000000000000000000000000000000000815260040161129e90611e75565b60405180910390fd5b60008367ffffffffffffffff8111156112c3576112c2611e95565b5b6040519080825280602002602001820160405280156112f15781602001602082028036833780820191505090505b50905060006001846113039190611ec4565b905060005b858110156113ac57600060018361131f9190611ef8565b4283604051602001611332929190611f4d565b6040516020818303038152906040528051906020012060001c6113559190611fa8565b90508084838151811061136b5761136a611cba565b5b602002602001018181525050828061138290611fd9565b935050828114611398576113978482856113b8565b5b5080806113a490611c06565b915050611308565b50819250505092915050565b60008383815181106113cd576113cc611cba565b5b602002602001015190508382815181106113ea576113e9611cba565b5b602002602001015184848151811061140557611404611cba565b5b6020026020010181815250508084838151811061142557611424611cba565b5b60200260200101818152505050505050565b604051806101c0016040528060608152602001600073ffffffffffffffffffffffffffffffffffffffff1681526020016000815260200160001515815260200160008152602001600073ffffffffffffffffffffffffffffffffffffffff168152602001606081526020016060815260200160001515815260200160608152602001600081526020016000815260200160008152602001600081525090565b600080fd5b6000819050919050565b6114ee816114db565b81146114f957600080fd5b50565b60008135905061150b816114e5565b92915050565b600060208284031215611527576115266114d6565b5b6000611535848285016114fc565b91505092915050565b600081519050919050565b600082825260208201905092915050565b60005b8381101561157857808201518184015260208101905061155d565b60008484015250505050565b6000601f19601f8301169050919050565b60006115a08261153e565b6115aa8185611549565b93506115ba81856020860161155a565b6115c381611584565b840191505092915050565b600073ffffffffffffffffffffffffffffffffffffffff82169050919050565b60006115f9826115ce565b9050919050565b611609816115ee565b82525050565b611618816114db565b82525050565b60008115159050919050565b6116338161161e565b82525050565b600081519050919050565b600082825260208201905092915050565b6000819050602082019050919050565b60006116718383611600565b60208301905092915050565b6000602082019050919050565b600061169582611639565b61169f8185611644565b93506116aa83611655565b8060005b838110156116db5781516116c28882611665565b97506116cd8361167d565b9250506001810190506116ae565b5085935050505092915050565b60006101c08301600083015184820360008601526117068282611595565b915050602083015161171b6020860182611600565b50604083015161172e604086018261160f565b506060830151611741606086018261162a565b506080830151611754608086018261160f565b5060a083015161176760a0860182611600565b5060c083015184820360c086015261177f8282611595565b91505060e083015184820360e08601526117998282611595565b9150506101008301516117b061010086018261162a565b506101208301518482036101208601526117ca828261168a565b9150506101408301516117e161014086018261160f565b506101608301516117f661016086018261160f565b5061018083015161180b61018086018261160f565b506101a08301516118206101a086018261160f565b508091505092915050565b6000602082019050818103600083015261184581846116e8565b905092915050565b611856816114db565b82525050565b6000602082019050611871600083018461184d565b92915050565b6118808161161e565b811461188b57600080fd5b50565b60008135905061189d81611877565b92915050565b600080604083850312156118ba576118b96114d6565b5b60006118c88582860161188e565b92505060206118d9858286016114fc565b9150509250929050565b6118ec8161161e565b82525050565b600060208201905061190760008301846118e3565b92915050565b611916816115ee565b82525050565b6000602082019050611931600083018461190d565b92915050565b611940816115ee565b811461194b57600080fd5b50565b60008135905061195d81611937565b92915050565b600060208284031215611979576119786114d6565b5b60006119878482850161194e565b91505092915050565b7f4e487b7100000000000000000000000000000000000000000000000000000000600052602260045260246000fd5b600060028204905060018216806119d757607f821691505b6020821081036119ea576119e9611990565b5b50919050565b600082825260208201905092915050565b7f5761697420666f7220766f74696e672074696d6520706c656173652100000000600082015250565b6000611a37601c836119f0565b9150611a4282611a01565b602082019050919050565b60006020820190508181036000830152611a6681611a2a565b9050919050565b7f596f7520617265206e6f7420656c696769626c6520746f20766f746500000000600082015250565b6000611aa3601c836119f0565b9150611aae82611a6d565b602082019050919050565b60006020820190508181036000830152611ad281611a96565b9050919050565b7f596f75206d757374206861766520746865207265717569726564204e4654206160008201527f6e6420455243323020746f6b656e20746f20766f746500000000000000000000602082015250565b6000611b356036836119f0565b9150611b4082611ad9565b604082019050919050565b60006020820190508181036000830152611b6481611b28565b9050919050565b7f596f75206861766520616c726561647920766f74656400000000000000000000600082015250565b6000611ba16016836119f0565b9150611bac82611b6b565b602082019050919050565b60006020820190508181036000830152611bd081611b94565b9050919050565b7f4e487b7100000000000000000000000000000000000000000000000000000000600052601160045260246000fd5b6000611c11826114db565b91507fffffffffffffffffffffffffffffffffffffffffffffffffffffffffffffffff8203611c4357611c42611bd7565b5b600182019050919050565b7f496e76616c696420616464726573730000000000000000000000000000000000600082015250565b6000611c84600f836119f0565b9150611c8f82611c4e565b602082019050919050565b60006020820190508181036000830152611cb381611c77565b9050919050565b7f4e487b7100000000000000000000000000000000000000000000000000000000600052603260045260246000fd5b7f566f74657220697320616c726561647920656c696769626c6500000000000000600082015250565b6000611d1f6019836119f0565b9150611d2a82611ce9565b602082019050919050565b60006020820190508181036000830152611d4e81611d12565b9050919050565b7f4e6f7420656e6f75676820766f7465727320746f2073656c6563742066726f6d600082015250565b6000611d8b6020836119f0565b9150611d9682611d55565b602082019050919050565b60006020820190508181036000830152611dba81611d7e565b9050919050565b600081519050611dd0816114e5565b92915050565b600060208284031215611dec57611deb6114d6565b5b6000611dfa84828501611dc1565b91505092915050565b7f436f756e74206d757374206265206c657373207468616e206f7220657175616c60008201527f20746f20746865206d6178696d756d0000000000000000000000000000000000602082015250565b6000611e5f602f836119f0565b9150611e6a82611e03565b604082019050919050565b60006020820190508181036000830152611e8e81611e52565b9050919050565b7f4e487b7100000000000000000000000000000000000000000000000000000000600052604160045260246000fd5b6000611ecf826114db565b9150611eda836114db565b9250828203905081811115611ef257611ef1611bd7565b5b92915050565b6000611f03826114db565b9150611f0e836114db565b9250828201905080821115611f2657611f25611bd7565b5b92915050565b6000819050919050565b611f47611f42826114db565b611f2c565b82525050565b6000611f598285611f36565b602082019150611f698284611f36565b6020820191508190509392505050565b7f4e487b7100000000000000000000000000000000000000000000000000000000600052601260045260246000fd5b6000611fb3826114db565b9150611fbe836114db565b925082611fce57611fcd611f79565b5b828206905092915050565b6000611fe4826114db565b915060008203611ff757611ff6611bd7565b5b60018203905091905056fea2646970667358221220d87a71991c51badc4b0e77e2d462dcc929479ddc0e48242dc0effb812fc9f4ec64736f6c63430008110033","opcodes":"PUSH1 0x80 PUSH1 0x40 MSTORE CALLVALUE DUP1 ISZERO PUSH2 0x10 JUMPI PUSH1 0x0 DUP1 REVERT JUMPDEST POP PUSH2 0x2038 DUP1 PUSH2 0x20 PUSH1 0x0 CODECOPY PUSH1 0x0 RETURN INVALID PUSH1 0x80 PUSH1 0x40 MSTORE CALLVALUE DUP1 ISZERO PUSH2 0x10 JUMPI PUSH1 0x0 DUP1 REVERT JUMPDEST POP PUSH1 0x4 CALLDATASIZE LT PUSH2 0xCF JUMPI PUSH1 0x0 CALLDATALOAD PUSH1 0xE0 SHR DUP1 PUSH4 0x5F5300FF GT PUSH2 0x8C JUMPI DUP1 PUSH4 0xD1817C2C GT PUSH2 0x66 JUMPI DUP1 PUSH4 0xD1817C2C EQ PUSH2 0x1DA JUMPI DUP1 PUSH4 0xE7A595CA EQ PUSH2 0x1F8 JUMPI DUP1 PUSH4 0xF06459EE EQ PUSH2 0x216 JUMPI DUP1 PUSH4 0xFAB2F86B EQ PUSH2 0x232 JUMPI PUSH2 0xCF JUMP JUMPDEST DUP1 PUSH4 0x5F5300FF EQ PUSH2 0x196 JUMPI DUP1 PUSH4 0x60777E1D EQ PUSH2 0x1B4 JUMPI DUP1 PUSH4 0x8BB0D810 EQ PUSH2 0x1BE JUMPI PUSH2 0xCF JUMP JUMPDEST DUP1 PUSH4 0xB7AD54C EQ PUSH2 0xD4 JUMPI DUP1 PUSH4 0x1019B6C2 EQ PUSH2 0x104 JUMPI DUP1 PUSH4 0x10E6E06C EQ PUSH2 0x122 JUMPI DUP1 PUSH4 0x1EC6B60A EQ PUSH2 0x13E JUMPI DUP1 PUSH4 0x219EA8D3 EQ PUSH2 0x15C JUMPI DUP1 PUSH4 0x4C105D1B EQ PUSH2 0x17A JUMPI JUMPDEST PUSH1 0x0 DUP1 REVERT JUMPDEST PUSH2 0xEE PUSH1 0x4 DUP1 CALLDATASIZE SUB DUP2 ADD SWAP1 PUSH2 0xE9 SWAP2 SWAP1 PUSH2 0x1511 JUMP JUMPDEST PUSH2 0x250 JUMP JUMPDEST PUSH1 0x40 MLOAD PUSH2 0xFB SWAP2 SWAP1 PUSH2 0x182B JUMP JUMPDEST PUSH1 0x40 MLOAD DUP1 SWAP2 SUB SWAP1 RETURN JUMPDEST PUSH2 0x10C PUSH2 0x5E3 JUMP JUMPDEST PUSH1 0x40 MLOAD PUSH2 0x119 SWAP2 SWAP1 PUSH2 0x185C JUMP JUMPDEST PUSH1 0x40 MLOAD DUP1 SWAP2 SUB SWAP1 RETURN JUMPDEST PUSH2 0x13C PUSH1 0x4 DUP1 CALLDATASIZE SUB DUP2 ADD SWAP1 PUSH2 0x137 SWAP2 SWAP1 PUSH2 0x18A3 JUMP JUMPDEST PUSH2 0x5EF JUMP JUMPDEST STOP JUMPDEST PUSH2 0x146 PUSH2 0x983 JUMP JUMPDEST PUSH1 0x40 MLOAD PUSH2 0x153 SWAP2 SWAP1 PUSH2 0x18F2 JUMP JUMPDEST PUSH1 0x40 MLOAD DUP1 SWAP2 SUB SWAP1 RETURN JUMPDEST PUSH2 0x164 PUSH2 0x9A7 JUMP JUMPDEST PUSH1 0x40 MLOAD PUSH2 0x171 SWAP2 SWAP1 PUSH2 0x191C JUMP JUMPDEST PUSH1 0x40 MLOAD DUP1 SWAP2 SUB SWAP1 RETURN JUMPDEST PUSH2 0x194 PUSH1 0x4 DUP1 CALLDATASIZE SUB DUP2 ADD SWAP1 PUSH2 0x18F SWAP2 SWAP1 PUSH2 0x1963 JUMP JUMPDEST PUSH2 0x9D3 JUMP JUMPDEST STOP JUMPDEST PUSH2 0x19E PUSH2 0xD23 JUMP JUMPDEST PUSH1 0x40 MLOAD PUSH2 0x1AB SWAP2 SWAP1 PUSH2 0x185C JUMP JUMPDEST PUSH1 0x40 MLOAD DUP1 SWAP2 SUB SWAP1 RETURN JUMPDEST PUSH2 0x1BC PUSH2 0xD2F JUMP JUMPDEST STOP JUMPDEST PUSH2 0x1D8 PUSH1 0x4 DUP1 CALLDATASIZE SUB DUP2 ADD SWAP1 PUSH2 0x1D3 SWAP2 SWAP1 PUSH2 0x1963 JUMP JUMPDEST PUSH2 0xE7F JUMP JUMPDEST STOP JUMPDEST PUSH2 0x1E2 PUSH2 0xEC5 JUMP JUMPDEST PUSH1 0x40 MLOAD PUSH2 0x1EF SWAP2 SWAP1 PUSH2 0x18F2 JUMP JUMPDEST PUSH1 0x40 MLOAD DUP1 SWAP2 SUB SWAP1 RETURN JUMPDEST PUSH2 0x200 PUSH2 0xEDE JUMP JUMPDEST PUSH1 0x40 MLOAD PUSH2 0x20D SWAP2 SWAP1 PUSH2 0x191C JUMP JUMPDEST PUSH1 0x40 MLOAD DUP1 SWAP2 SUB SWAP1 RETURN JUMPDEST PUSH2 0x230 PUSH1 0x4 DUP1 CALLDATASIZE SUB DUP2 ADD SWAP1 PUSH2 0x22B SWAP2 SWAP1 PUSH2 0x1963 JUMP JUMPDEST PUSH2 0xF0A JUMP JUMPDEST STOP JUMPDEST PUSH2 0x23A PUSH2 0xF51 JUMP JUMPDEST PUSH1 0x40 MLOAD PUSH2 0x247 SWAP2 SWAP1 PUSH2 0x18F2 JUMP JUMPDEST PUSH1 0x40 MLOAD DUP1 SWAP2 SUB SWAP1 RETURN JUMPDEST PUSH2 0x258 PUSH2 0x1437 JUMP JUMPDEST PUSH1 0x0 PUSH1 0x7 ADD PUSH1 0x0 DUP4 DUP2 MSTORE PUSH1 0x20 ADD SWAP1 DUP2 MSTORE PUSH1 0x20 ADD PUSH1 0x0 KECCAK256 PUSH1 0x40 MLOAD DUP1 PUSH2 0x1C0 ADD PUSH1 0x40 MSTORE SWAP1 DUP2 PUSH1 0x0 DUP3 ADD DUP1 SLOAD PUSH2 0x28A SWAP1 PUSH2 0x19BF JUMP JUMPDEST DUP1 PUSH1 0x1F ADD PUSH1 0x20 DUP1 SWAP2 DIV MUL PUSH1 0x20 ADD PUSH1 0x40 MLOAD SWAP1 DUP2 ADD PUSH1 0x40 MSTORE DUP1 SWAP3 SWAP2 SWAP1 DUP2 DUP2 MSTORE PUSH1 0x20 ADD DUP3 DUP1 SLOAD PUSH2 0x2B6 SWAP1 PUSH2 0x19BF JUMP JUMPDEST DUP1 ISZERO PUSH2 0x303 JUMPI DUP1 PUSH1 0x1F LT PUSH2 0x2D8 JUMPI PUSH2 0x100 DUP1 DUP4 SLOAD DIV MUL DUP4 MSTORE SWAP2 PUSH1 0x20 ADD SWAP2 PUSH2 0x303 JUMP JUMPDEST DUP3 ADD SWAP2 SWAP1 PUSH1 0x0 MSTORE PUSH1 0x20 PUSH1 0x0 KECCAK256 SWAP1 JUMPDEST DUP2 SLOAD DUP2 MSTORE SWAP1 PUSH1 0x1 ADD SWAP1 PUSH1 0x20 ADD DUP1 DUP4 GT PUSH2 0x2E6 JUMPI DUP3 SWAP1 SUB PUSH1 0x1F AND DUP3 ADD SWAP2 JUMPDEST POP POP POP POP POP DUP2 MSTORE PUSH1 0x20 ADD PUSH1 0x1 DUP3 ADD PUSH1 0x0 SWAP1 SLOAD SWAP1 PUSH2 0x100 EXP SWAP1 DIV PUSH20 0xFFFFFFFFFFFFFFFFFFFFFFFFFFFFFFFFFFFFFFFF AND PUSH20 0xFFFFFFFFFFFFFFFFFFFFFFFFFFFFFFFFFFFFFFFF AND PUSH20 0xFFFFFFFFFFFFFFFFFFFFFFFFFFFFFFFFFFFFFFFF AND DUP2 MSTORE PUSH1 0x20 ADD PUSH1 0x2 DUP3 ADD SLOAD DUP2 MSTORE PUSH1 0x20 ADD PUSH1 0x3 DUP3 ADD PUSH1 0x0 SWAP1 SLOAD SWAP1 PUSH2 0x100 EXP SWAP1 DIV PUSH1 0xFF AND ISZERO ISZERO ISZERO ISZERO DUP2 MSTORE PUSH1 0x20 ADD PUSH1 0x4 DUP3 ADD SLOAD DUP2 MSTORE PUSH1 0x20 ADD PUSH1 0x5 DUP3 ADD PUSH1 0x0 SWAP1 SLOAD SWAP1 PUSH2 0x100 EXP SWAP1 DIV PUSH20 0xFFFFFFFFFFFFFFFFFFFFFFFFFFFFFFFFFFFFFFFF AND PUSH20 0xFFFFFFFFFFFFFFFFFFFFFFFFFFFFFFFFFFFFFFFF AND PUSH20 0xFFFFFFFFFFFFFFFFFFFFFFFFFFFFFFFFFFFFFFFF AND DUP2 MSTORE PUSH1 0x20 ADD PUSH1 0x6 DUP3 ADD DUP1 SLOAD PUSH2 0x3F7 SWAP1 PUSH2 0x19BF JUMP JUMPDEST DUP1 PUSH1 0x1F ADD PUSH1 0x20 DUP1 SWAP2 DIV MUL PUSH1 0x20 ADD PUSH1 0x40 MLOAD SWAP1 DUP2 ADD PUSH1 0x40 MSTORE DUP1 SWAP3 SWAP2 SWAP1 DUP2 DUP2 MSTORE PUSH1 0x20 ADD DUP3 DUP1 SLOAD PUSH2 0x423 SWAP1 PUSH2 0x19BF JUMP JUMPDEST DUP1 ISZERO PUSH2 0x470 JUMPI DUP1 PUSH1 0x1F LT PUSH2 0x445 JUMPI PUSH2 0x100 DUP1 DUP4 SLOAD DIV MUL DUP4 MSTORE SWAP2 PUSH1 0x20 ADD SWAP2 PUSH2 0x470 JUMP JUMPDEST DUP3 ADD SWAP2 SWAP1 PUSH1 0x0 MSTORE PUSH1 0x20 PUSH1 0x0 KECCAK256 SWAP1 JUMPDEST DUP2 SLOAD DUP2 MSTORE SWAP1 PUSH1 0x1 ADD SWAP1 PUSH1 0x20 ADD DUP1 DUP4 GT PUSH2 0x453 JUMPI DUP3 SWAP1 SUB PUSH1 0x1F AND DUP3 ADD SWAP2 JUMPDEST POP POP POP POP POP DUP2 MSTORE PUSH1 0x20 ADD PUSH1 0x7 DUP3 ADD DUP1 SLOAD PUSH2 0x489 SWAP1 PUSH2 0x19BF JUMP JUMPDEST DUP1 PUSH1 0x1F ADD PUSH1 0x20 DUP1 SWAP2 DIV MUL PUSH1 0x20 ADD PUSH1 0x40 MLOAD SWAP1 DUP2 ADD PUSH1 0x40 MSTORE DUP1 SWAP3 SWAP2 SWAP1 DUP2 DUP2 MSTORE PUSH1 0x20 ADD DUP3 DUP1 SLOAD PUSH2 0x4B5 SWAP1 PUSH2 0x19BF JUMP JUMPDEST DUP1 ISZERO PUSH2 0x502 JUMPI DUP1 PUSH1 0x1F LT PUSH2 0x4D7 JUMPI PUSH2 0x100 DUP1 DUP4 SLOAD DIV MUL DUP4 MSTORE SWAP2 PUSH1 0x20 ADD SWAP2 PUSH2 0x502 JUMP JUMPDEST DUP3 ADD SWAP2 SWAP1 PUSH1 0x0 MSTORE PUSH1 0x20 PUSH1 0x0 KECCAK256 SWAP1 JUMPDEST DUP2 SLOAD DUP2 MSTORE SWAP1 PUSH1 0x1 ADD SWAP1 PUSH1 0x20 ADD DUP1 DUP4 GT PUSH2 0x4E5 JUMPI DUP3 SWAP1 SUB PUSH1 0x1F AND DUP3 ADD SWAP2 JUMPDEST POP POP POP POP POP DUP2 MSTORE PUSH1 0x20 ADD PUSH1 0x8 DUP3 ADD PUSH1 0x0 SWAP1 SLOAD SWAP1 PUSH2 0x100 EXP SWAP1 DIV PUSH1 0xFF AND ISZERO ISZERO ISZERO ISZERO DUP2 MSTORE PUSH1 0x20 ADD PUSH1 0x9 DUP3 ADD DUP1 SLOAD DUP1 PUSH1 0x20 MUL PUSH1 0x20 ADD PUSH1 0x40 MLOAD SWAP1 DUP2 ADD PUSH1 0x40 MSTORE DUP1 SWAP3 SWAP2 SWAP1 DUP2 DUP2 MSTORE PUSH1 0x20 ADD DUP3 DUP1 SLOAD DUP1 ISZERO PUSH2 0x5AB JUMPI PUSH1 0x20 MUL DUP3 ADD SWAP2 SWAP1 PUSH1 0x0 MSTORE PUSH1 0x20 PUSH1 0x0 KECCAK256 SWAP1 JUMPDEST DUP2 PUSH1 0x0 SWAP1 SLOAD SWAP1 PUSH2 0x100 EXP SWAP1 DIV PUSH20 0xFFFFFFFFFFFFFFFFFFFFFFFFFFFFFFFFFFFFFFFF AND PUSH20 0xFFFFFFFFFFFFFFFFFFFFFFFFFFFFFFFFFFFFFFFF AND DUP2 MSTORE PUSH1 0x20 ADD SWAP1 PUSH1 0x1 ADD SWAP1 DUP1 DUP4 GT PUSH2 0x561 JUMPI JUMPDEST POP POP POP POP POP DUP2 MSTORE PUSH1 0x20 ADD PUSH1 0xA DUP3 ADD SLOAD DUP2 MSTORE PUSH1 0x20 ADD PUSH1 0xB DUP3 ADD SLOAD DUP2 MSTORE PUSH1 0x20 ADD PUSH1 0xC DUP3 ADD SLOAD DUP2 MSTORE PUSH1 0x20 ADD PUSH1 0xD DUP3 ADD SLOAD DUP2 MSTORE POP POP SWAP1 POP SWAP2 SWAP1 POP JUMP JUMPDEST PUSH1 0x0 DUP1 PUSH1 0x2 ADD SLOAD SWAP1 POP SWAP1 JUMP JUMPDEST PUSH1 0x0 PUSH1 0x6 ADD PUSH1 0x0 SWAP1 SLOAD SWAP1 PUSH2 0x100 EXP SWAP1 DIV PUSH1 0xFF AND PUSH2 0x641 JUMPI PUSH1 0x40 MLOAD PUSH32 0x8C379A000000000000000000000000000000000000000000000000000000000 DUP2 MSTORE PUSH1 0x4 ADD PUSH2 0x638 SWAP1 PUSH2 0x1A4D JUMP JUMPDEST PUSH1 0x40 MLOAD DUP1 SWAP2 SUB SWAP1 REVERT JUMPDEST TIMESTAMP PUSH1 0x0 PUSH1 0x4 ADD SLOAD GT ISZERO PUSH2 0x677 JUMPI PUSH1 0x1 PUSH1 0x0 PUSH1 0x6 ADD PUSH1 0x0 PUSH2 0x100 EXP DUP2 SLOAD DUP2 PUSH1 0xFF MUL NOT AND SWAP1 DUP4 ISZERO ISZERO MUL OR SWAP1 SSTORE POP TIMESTAMP PUSH1 0x0 PUSH1 0x4 ADD DUP2 SWAP1 SSTORE POP JUMPDEST PUSH2 0x680 CALLER PUSH2 0xF74 JUMP JUMPDEST PUSH2 0x6BF JUMPI PUSH1 0x40 MLOAD PUSH32 0x8C379A000000000000000000000000000000000000000000000000000000000 DUP2 MSTORE PUSH1 0x4 ADD PUSH2 0x6B6 SWAP1 PUSH2 0x1AB9 JUMP JUMPDEST PUSH1 0x40 MLOAD DUP1 SWAP2 SUB SWAP1 REVERT JUMPDEST PUSH2 0x6C8 CALLER PUSH2 0x1028 JUMP JUMPDEST PUSH2 0x707 JUMPI PUSH1 0x40 MLOAD PUSH32 0x8C379A000000000000000000000000000000000000000000000000000000000 DUP2 MSTORE PUSH1 0x4 ADD PUSH2 0x6FE SWAP1 PUSH2 0x1B4B JUMP JUMPDEST PUSH1 0x40 MLOAD DUP1 SWAP2 SUB SWAP1 REVERT JUMPDEST PUSH1 0x0 DUP1 PUSH1 0x9 ADD PUSH1 0x0 CALLER PUSH20 0xFFFFFFFFFFFFFFFFFFFFFFFFFFFFFFFFFFFFFFFF AND PUSH20 0xFFFFFFFFFFFFFFFFFFFFFFFFFFFFFFFFFFFFFFFF AND DUP2 MSTORE PUSH1 0x20 ADD SWAP1 DUP2 MSTORE PUSH1 0x20 ADD PUSH1 0x0 KECCAK256 PUSH1 0x40 MLOAD DUP1 PUSH1 0x80 ADD PUSH1 0x40 MSTORE SWAP1 DUP2 PUSH1 0x0 DUP3 ADD PUSH1 0x0 SWAP1 SLOAD SWAP1 PUSH2 0x100 EXP SWAP1 DIV PUSH20 0xFFFFFFFFFFFFFFFFFFFFFFFFFFFFFFFFFFFFFFFF AND PUSH20 0xFFFFFFFFFFFFFFFFFFFFFFFFFFFFFFFFFFFFFFFF AND PUSH20 0xFFFFFFFFFFFFFFFFFFFFFFFFFFFFFFFFFFFFFFFF AND DUP2 MSTORE PUSH1 0x20 ADD PUSH1 0x0 DUP3 ADD PUSH1 0x14 SWAP1 SLOAD SWAP1 PUSH2 0x100 EXP SWAP1 DIV PUSH1 0xFF AND ISZERO ISZERO ISZERO ISZERO DUP2 MSTORE PUSH1 0x20 ADD PUSH1 0x0 DUP3 ADD PUSH1 0x15 SWAP1 SLOAD SWAP1 PUSH2 0x100 EXP SWAP1 DIV PUSH1 0xFF AND ISZERO ISZERO ISZERO ISZERO DUP2 MSTORE PUSH1 0x20 ADD PUSH1 0x0 DUP3 ADD PUSH1 0x16 SWAP1 SLOAD SWAP1 PUSH2 0x100 EXP SWAP1 DIV PUSH1 0xFF AND ISZERO ISZERO ISZERO ISZERO DUP2 MSTORE POP POP SWAP1 POP PUSH1 0x0 ISZERO ISZERO DUP2 PUSH1 0x20 ADD MLOAD ISZERO ISZERO EQ PUSH2 0x849 JUMPI PUSH1 0x40 MLOAD PUSH32 0x8C379A000000000000000000000000000000000000000000000000000000000 DUP2 MSTORE PUSH1 0x4 ADD PUSH2 0x840 SWAP1 PUSH2 0x1BB7 JUMP JUMPDEST PUSH1 0x40 MLOAD DUP1 SWAP2 SUB SWAP1 REVERT JUMPDEST PUSH1 0x1 DUP2 PUSH1 0x20 ADD SWAP1 ISZERO ISZERO SWAP1 DUP2 ISZERO ISZERO DUP2 MSTORE POP POP DUP3 DUP2 PUSH1 0x40 ADD SWAP1 ISZERO ISZERO SWAP1 DUP2 ISZERO ISZERO DUP2 MSTORE POP POP PUSH1 0x0 DUP1 PUSH1 0x7 ADD PUSH1 0x0 DUP5 DUP2 MSTORE PUSH1 0x20 ADD SWAP1 DUP2 MSTORE PUSH1 0x20 ADD PUSH1 0x0 KECCAK256 SWAP1 POP DUP4 ISZERO PUSH2 0x8A8 JUMPI DUP1 PUSH1 0xC ADD PUSH1 0x0 DUP2 SLOAD DUP1 SWAP3 SWAP2 SWAP1 PUSH2 0x89E SWAP1 PUSH2 0x1C06 JUMP JUMPDEST SWAP2 SWAP1 POP SSTORE POP PUSH2 0x8C3 JUMP JUMPDEST DUP1 PUSH1 0xD ADD PUSH1 0x0 DUP2 SLOAD DUP1 SWAP3 SWAP2 SWAP1 PUSH2 0x8BD SWAP1 PUSH2 0x1C06 JUMP JUMPDEST SWAP2 SWAP1 POP SSTORE POP JUMPDEST PUSH1 0x1 DUP2 PUSH1 0x8 ADD PUSH1 0x0 PUSH2 0x100 EXP DUP2 SLOAD DUP2 PUSH1 0xFF MUL NOT AND SWAP1 DUP4 ISZERO ISZERO MUL OR SWAP1 SSTORE POP DUP1 PUSH1 0xA ADD PUSH1 0x0 DUP2 SLOAD DUP1 SWAP3 SWAP2 SWAP1 PUSH2 0x8F5 SWAP1 PUSH2 0x1C06 JUMP JUMPDEST SWAP2 SWAP1 POP SSTORE POP PUSH2 0x902 PUSH2 0x1186 JUMP JUMPDEST ISZERO PUSH2 0x92F JUMPI PUSH1 0x0 DUP1 PUSH1 0x6 ADD PUSH1 0x0 PUSH2 0x100 EXP DUP2 SLOAD DUP2 PUSH1 0xFF MUL NOT AND SWAP1 DUP4 ISZERO ISZERO MUL OR SWAP1 SSTORE POP PUSH1 0x0 DUP1 PUSH1 0x4 ADD DUP2 SWAP1 SSTORE POP JUMPDEST CALLER PUSH20 0xFFFFFFFFFFFFFFFFFFFFFFFFFFFFFFFFFFFFFFFF AND PUSH32 0xA32151C21B193DCF3D43D553597E960D429EF6CAFAD3492EE4790E41BE1CE520 DUP6 PUSH1 0x40 MLOAD PUSH2 0x975 SWAP2 SWAP1 PUSH2 0x18F2 JUMP JUMPDEST PUSH1 0x40 MLOAD DUP1 SWAP2 SUB SWAP1 LOG2 POP POP POP POP JUMP JUMPDEST PUSH1 0x0 PUSH1 0x1 PUSH1 0x0 PUSH1 0x6 ADD PUSH1 0x0 PUSH2 0x100 EXP DUP2 SLOAD DUP2 PUSH1 0xFF MUL NOT AND SWAP1 DUP4 ISZERO ISZERO MUL OR SWAP1 SSTORE SWAP1 POP SWAP1 JUMP JUMPDEST PUSH1 0x0 DUP1 PUSH1 0x0 ADD PUSH1 0x0 SWAP1 SLOAD SWAP1 PUSH2 0x100 EXP SWAP1 DIV PUSH20 0xFFFFFFFFFFFFFFFFFFFFFFFFFFFFFFFFFFFFFFFF AND SWAP1 POP SWAP1 JUMP JUMPDEST PUSH1 0x0 PUSH20 0xFFFFFFFFFFFFFFFFFFFFFFFFFFFFFFFFFFFFFFFF AND DUP2 PUSH20 0xFFFFFFFFFFFFFFFFFFFFFFFFFFFFFFFFFFFFFFFF AND SUB PUSH2 0xA42 JUMPI PUSH1 0x40 MLOAD PUSH32 0x8C379A000000000000000000000000000000000000000000000000000000000 DUP2 MSTORE PUSH1 0x4 ADD PUSH2 0xA39 SWAP1 PUSH2 0x1C9A JUMP JUMPDEST PUSH1 0x40 MLOAD DUP1 SWAP2 SUB SWAP1 REVERT JUMPDEST PUSH2 0xA4B DUP2 PUSH2 0x1028 JUMP JUMPDEST PUSH2 0xA8A JUMPI PUSH1 0x40 MLOAD PUSH32 0x8C379A000000000000000000000000000000000000000000000000000000000 DUP2 MSTORE PUSH1 0x4 ADD PUSH2 0xA81 SWAP1 PUSH2 0x1B4B JUMP JUMPDEST PUSH1 0x40 MLOAD DUP1 SWAP2 SUB SWAP1 REVERT JUMPDEST PUSH1 0x0 ISZERO ISZERO PUSH1 0x0 PUSH1 0x9 ADD PUSH1 0x0 DUP4 PUSH20 0xFFFFFFFFFFFFFFFFFFFFFFFFFFFFFFFFFFFFFFFF AND PUSH20 0xFFFFFFFFFFFFFFFFFFFFFFFFFFFFFFFFFFFFFFFF AND DUP2 MSTORE PUSH1 0x20 ADD SWAP1 DUP2 MSTORE PUSH1 0x20 ADD PUSH1 0x0 KECCAK256 PUSH1 0x0 ADD PUSH1 0x16 SWAP1 SLOAD SWAP1 PUSH2 0x100 EXP SWAP1 DIV PUSH1 0xFF AND ISZERO ISZERO SUB PUSH2 0xBC9 JUMPI PUSH1 0x0 DUP1 PUSH1 0x9 ADD PUSH1 0x0 DUP4 PUSH20 0xFFFFFFFFFFFFFFFFFFFFFFFFFFFFFFFFFFFFFFFF AND PUSH20 0xFFFFFFFFFFFFFFFFFFFFFFFFFFFFFFFFFFFFFFFF AND DUP2 MSTORE PUSH1 0x20 ADD SWAP1 DUP2 MSTORE PUSH1 0x20 ADD PUSH1 0x0 KECCAK256 SWAP1 POP DUP2 DUP2 PUSH1 0x0 ADD PUSH1 0x0 PUSH2 0x100 EXP DUP2 SLOAD DUP2 PUSH20 0xFFFFFFFFFFFFFFFFFFFFFFFFFFFFFFFFFFFFFFFF MUL NOT AND SWAP1 DUP4 PUSH20 0xFFFFFFFFFFFFFFFFFFFFFFFFFFFFFFFFFFFFFFFF AND MUL OR SWAP1 SSTORE POP PUSH1 0x0 DUP2 PUSH1 0x0 ADD PUSH1 0x14 PUSH2 0x100 EXP DUP2 SLOAD DUP2 PUSH1 0xFF MUL NOT AND SWAP1 DUP4 ISZERO ISZERO MUL OR SWAP1 SSTORE POP PUSH1 0x0 DUP2 PUSH1 0x0 ADD PUSH1 0x15 PUSH2 0x100 EXP DUP2 SLOAD DUP2 PUSH1 0xFF MUL NOT AND SWAP1 DUP4 ISZERO ISZERO MUL OR SWAP1 SSTORE POP PUSH1 0x1 DUP2 PUSH1 0x0 ADD PUSH1 0x16 PUSH2 0x100 EXP DUP2 SLOAD DUP2 PUSH1 0xFF MUL NOT AND SWAP1 DUP4 ISZERO ISZERO MUL OR SWAP1 SSTORE POP POP JUMPDEST PUSH1 0x0 JUMPDEST PUSH1 0x0 PUSH1 0x8 ADD DUP1 SLOAD SWAP1 POP DUP2 LT ISZERO PUSH2 0xC9E JUMPI DUP2 PUSH20 0xFFFFFFFFFFFFFFFFFFFFFFFFFFFFFFFFFFFFFFFF AND PUSH1 0x0 PUSH1 0x8 ADD DUP3 DUP2 SLOAD DUP2 LT PUSH2 0xC0A JUMPI PUSH2 0xC09 PUSH2 0x1CBA JUMP JUMPDEST JUMPDEST SWAP1 PUSH1 0x0 MSTORE PUSH1 0x20 PUSH1 0x0 KECCAK256 ADD PUSH1 0x0 SWAP1 SLOAD SWAP1 PUSH2 0x100 EXP SWAP1 DIV PUSH20 0xFFFFFFFFFFFFFFFFFFFFFFFFFFFFFFFFFFFFFFFF AND PUSH20 0xFFFFFFFFFFFFFFFFFFFFFFFFFFFFFFFFFFFFFFFF AND SUB PUSH2 0xC8B JUMPI PUSH1 0x40 MLOAD PUSH32 0x8C379A000000000000000000000000000000000000000000000000000000000 DUP2 MSTORE PUSH1 0x4 ADD PUSH2 0xC82 SWAP1 PUSH2 0x1D35 JUMP JUMPDEST PUSH1 0x40 MLOAD DUP1 SWAP2 SUB SWAP1 REVERT JUMPDEST DUP1 DUP1 PUSH2 0xC96 SWAP1 PUSH2 0x1C06 JUMP JUMPDEST SWAP2 POP POP PUSH2 0xBCC JUMP JUMPDEST POP PUSH1 0x0 PUSH1 0x8 ADD DUP2 SWAP1 DUP1 PUSH1 0x1 DUP2 SLOAD ADD DUP1 DUP3 SSTORE DUP1 SWAP2 POP POP PUSH1 0x1 SWAP1 SUB SWAP1 PUSH1 0x0 MSTORE PUSH1 0x20 PUSH1 0x0 KECCAK256 ADD PUSH1 0x0 SWAP1 SWAP2 SWAP1 SWAP2 SWAP1 SWAP2 PUSH2 0x100 EXP DUP2 SLOAD DUP2 PUSH20 0xFFFFFFFFFFFFFFFFFFFFFFFFFFFFFFFFFFFFFFFF MUL NOT AND SWAP1 DUP4 PUSH20 0xFFFFFFFFFFFFFFFFFFFFFFFFFFFFFFFFFFFFFFFF AND MUL OR SWAP1 SSTORE POP PUSH1 0x0 PUSH1 0x5 ADD PUSH1 0x0 DUP2 SLOAD DUP1 SWAP3 SWAP2 SWAP1 PUSH2 0xD1B SWAP1 PUSH2 0x1C06 JUMP JUMPDEST SWAP2 SWAP1 POP SSTORE POP POP JUMP JUMPDEST PUSH1 0x0 DUP1 PUSH1 0x5 ADD SLOAD SWAP1 POP SWAP1 JUMP JUMPDEST PUSH1 0x3 PUSH1 0x0 PUSH1 0x5 ADD SLOAD LT ISZERO PUSH2 0xD78 JUMPI PUSH1 0x40 MLOAD PUSH32 0x8C379A000000000000000000000000000000000000000000000000000000000 DUP2 MSTORE PUSH1 0x4 ADD PUSH2 0xD6F SWAP1 PUSH2 0x1DA1 JUMP JUMPDEST PUSH1 0x40 MLOAD DUP1 SWAP2 SUB SWAP1 REVERT JUMPDEST PUSH1 0x0 PUSH2 0xD8A PUSH1 0x3 PUSH1 0x0 PUSH1 0x5 ADD SLOAD PUSH2 0x1262 JUMP JUMPDEST SWAP1 POP PUSH1 0x0 JUMPDEST DUP2 MLOAD DUP2 LT ISZERO PUSH2 0xE7B JUMPI PUSH1 0x0 DUP1 PUSH1 0x9 ADD PUSH1 0x0 CALLER PUSH20 0xFFFFFFFFFFFFFFFFFFFFFFFFFFFFFFFFFFFFFFFF AND PUSH20 0xFFFFFFFFFFFFFFFFFFFFFFFFFFFFFFFFFFFFFFFF AND DUP2 MSTORE PUSH1 0x20 ADD SWAP1 DUP2 MSTORE PUSH1 0x20 ADD PUSH1 0x0 KECCAK256 PUSH1 0x0 ADD PUSH1 0x0 SWAP1 SLOAD SWAP1 PUSH2 0x100 EXP SWAP1 DIV PUSH20 0xFFFFFFFFFFFFFFFFFFFFFFFFFFFFFFFFFFFFFFFF AND SWAP1 POP PUSH1 0x0 PUSH1 0x8 ADD DUP2 SWAP1 DUP1 PUSH1 0x1 DUP2 SLOAD ADD DUP1 DUP3 SSTORE DUP1 SWAP2 POP POP PUSH1 0x1 SWAP1 SUB SWAP1 PUSH1 0x0 MSTORE PUSH1 0x20 PUSH1 0x0 KECCAK256 ADD PUSH1 0x0 SWAP1 SWAP2 SWAP1 SWAP2 SWAP1 SWAP2 PUSH2 0x100 EXP DUP2 SLOAD DUP2 PUSH20 0xFFFFFFFFFFFFFFFFFFFFFFFFFFFFFFFFFFFFFFFF MUL NOT AND SWAP1 DUP4 PUSH20 0xFFFFFFFFFFFFFFFFFFFFFFFFFFFFFFFFFFFFFFFF AND MUL OR SWAP1 SSTORE POP POP DUP1 DUP1 PUSH2 0xE73 SWAP1 PUSH2 0x1C06 JUMP JUMPDEST SWAP2 POP POP PUSH2 0xD8F JUMP JUMPDEST POP POP JUMP JUMPDEST DUP1 PUSH1 0x0 DUP1 ADD PUSH1 0x0 PUSH2 0x100 EXP DUP2 SLOAD DUP2 PUSH20 0xFFFFFFFFFFFFFFFFFFFFFFFFFFFFFFFFFFFFFFFF MUL NOT AND SWAP1 DUP4 PUSH20 0xFFFFFFFFFFFFFFFFFFFFFFFFFFFFFFFFFFFFFFFF AND MUL OR SWAP1 SSTORE POP POP JUMP JUMPDEST PUSH1 0x0 DUP1 PUSH1 0x6 ADD PUSH1 0x0 SWAP1 SLOAD SWAP1 PUSH2 0x100 EXP SWAP1 DIV PUSH1 0xFF AND SWAP1 POP SWAP1 JUMP JUMPDEST PUSH1 0x0 DUP1 PUSH1 0x1 ADD PUSH1 0x0 SWAP1 SLOAD SWAP1 PUSH2 0x100 EXP SWAP1 DIV PUSH20 0xFFFFFFFFFFFFFFFFFFFFFFFFFFFFFFFFFFFFFFFF AND SWAP1 POP SWAP1 JUMP JUMPDEST DUP1 PUSH1 0x0 PUSH1 0x1 ADD PUSH1 0x0 PUSH2 0x100 EXP DUP2 SLOAD DUP2 PUSH20 0xFFFFFFFFFFFFFFFFFFFFFFFFFFFFFFFFFFFFFFFF MUL NOT AND SWAP1 DUP4 PUSH20 0xFFFFFFFFFFFFFFFFFFFFFFFFFFFFFFFFFFFFFFFF AND MUL OR SWAP1 SSTORE POP POP JUMP JUMPDEST PUSH1 0x0 DUP1 PUSH1 0x0 PUSH1 0x6 ADD PUSH1 0x0 PUSH2 0x100 EXP DUP2 SLOAD DUP2 PUSH1 0xFF MUL NOT AND SWAP1 DUP4 ISZERO ISZERO MUL OR SWAP1 SSTORE SWAP1 POP SWAP1 JUMP JUMPDEST PUSH1 0x0 DUP1 PUSH1 0x0 SWAP1 POP JUMPDEST PUSH1 0x0 PUSH1 0x8 ADD DUP1 SLOAD SWAP1 POP DUP2 LT ISZERO PUSH2 0x101D JUMPI DUP3 PUSH20 0xFFFFFFFFFFFFFFFFFFFFFFFFFFFFFFFFFFFFFFFF AND PUSH1 0x0 PUSH1 0x8 ADD DUP3 DUP2 SLOAD DUP2 LT PUSH2 0xFBA JUMPI PUSH2 0xFB9 PUSH2 0x1CBA JUMP JUMPDEST JUMPDEST SWAP1 PUSH1 0x0 MSTORE PUSH1 0x20 PUSH1 0x0 KECCAK256 ADD PUSH1 0x0 SWAP1 SLOAD SWAP1 PUSH2 0x100 EXP SWAP1 DIV PUSH20 0xFFFFFFFFFFFFFFFFFFFFFFFFFFFFFFFFFFFFFFFF AND PUSH20 0xFFFFFFFFFFFFFFFFFFFFFFFFFFFFFFFFFFFFFFFF AND SUB PUSH2 0x100A JUMPI PUSH1 0x1 SWAP2 POP POP PUSH2 0x1023 JUMP JUMPDEST DUP1 DUP1 PUSH2 0x1015 SWAP1 PUSH2 0x1C06 JUMP JUMPDEST SWAP2 POP POP PUSH2 0xF7C JUMP JUMPDEST POP PUSH1 0x0 SWAP1 POP JUMPDEST SWAP2 SWAP1 POP JUMP JUMPDEST PUSH1 0x0 DUP1 PUSH1 0x0 DUP1 PUSH1 0x1 ADD PUSH1 0x0 SWAP1 SLOAD SWAP1 PUSH2 0x100 EXP SWAP1 DIV PUSH20 0xFFFFFFFFFFFFFFFFFFFFFFFFFFFFFFFFFFFFFFFF AND PUSH20 0xFFFFFFFFFFFFFFFFFFFFFFFFFFFFFFFFFFFFFFFF AND PUSH4 0x70A08231 DUP6 PUSH1 0x40 MLOAD DUP3 PUSH4 0xFFFFFFFF AND PUSH1 0xE0 SHL DUP2 MSTORE PUSH1 0x4 ADD PUSH2 0x108A SWAP2 SWAP1 PUSH2 0x191C JUMP JUMPDEST PUSH1 0x20 PUSH1 0x40 MLOAD DUP1 DUP4 SUB DUP2 DUP7 GAS STATICCALL ISZERO DUP1 ISZERO PUSH2 0x10A7 JUMPI RETURNDATASIZE PUSH1 0x0 DUP1 RETURNDATACOPY RETURNDATASIZE PUSH1 0x0 REVERT JUMPDEST POP POP POP POP PUSH1 0x40 MLOAD RETURNDATASIZE PUSH1 0x1F NOT PUSH1 0x1F DUP3 ADD AND DUP3 ADD DUP1 PUSH1 0x40 MSTORE POP DUP2 ADD SWAP1 PUSH2 0x10CB SWAP2 SWAP1 PUSH2 0x1DD6 JUMP JUMPDEST GT SWAP1 POP PUSH1 0x0 DUP1 PUSH1 0x0 ADD PUSH1 0x0 SWAP1 SLOAD SWAP1 PUSH2 0x100 EXP SWAP1 DIV PUSH20 0xFFFFFFFFFFFFFFFFFFFFFFFFFFFFFFFFFFFFFFFF AND PUSH20 0xFFFFFFFFFFFFFFFFFFFFFFFFFFFFFFFFFFFFFFFF AND PUSH4 0x70A08231 DUP6 PUSH1 0x40 MLOAD DUP3 PUSH4 0xFFFFFFFF AND PUSH1 0xE0 SHL DUP2 MSTORE PUSH1 0x4 ADD PUSH2 0x112D SWAP2 SWAP1 PUSH2 0x191C JUMP JUMPDEST PUSH1 0x20 PUSH1 0x40 MLOAD DUP1 DUP4 SUB DUP2 DUP7 GAS STATICCALL ISZERO DUP1 ISZERO PUSH2 0x114A JUMPI RETURNDATASIZE PUSH1 0x0 DUP1 RETURNDATACOPY RETURNDATASIZE PUSH1 0x0 REVERT JUMPDEST POP POP POP POP PUSH1 0x40 MLOAD RETURNDATASIZE PUSH1 0x1F NOT PUSH1 0x1F DUP3 ADD AND DUP3 ADD DUP1 PUSH1 0x40 MSTORE POP DUP2 ADD SWAP1 PUSH2 0x116E SWAP2 SWAP1 PUSH2 0x1DD6 JUMP JUMPDEST SWAP1 POP DUP2 DUP1 ISZERO PUSH2 0x117D JUMPI POP PUSH1 0x0 DUP2 GT JUMPDEST SWAP3 POP POP POP SWAP2 SWAP1 POP JUMP JUMPDEST PUSH1 0x0 DUP1 PUSH1 0x0 SWAP1 POP JUMPDEST PUSH1 0x0 PUSH1 0x8 ADD DUP1 SLOAD SWAP1 POP DUP2 LT ISZERO PUSH2 0x1259 JUMPI PUSH1 0x0 DUP1 PUSH1 0x8 ADD DUP3 DUP2 SLOAD DUP2 LT PUSH2 0x11B6 JUMPI PUSH2 0x11B5 PUSH2 0x1CBA JUMP JUMPDEST JUMPDEST SWAP1 PUSH1 0x0 MSTORE PUSH1 0x20 PUSH1 0x0 KECCAK256 ADD PUSH1 0x0 SWAP1 SLOAD SWAP1 PUSH2 0x100 EXP SWAP1 DIV PUSH20 0xFFFFFFFFFFFFFFFFFFFFFFFFFFFFFFFFFFFFFFFF AND SWAP1 POP PUSH1 0x0 PUSH1 0x9 ADD PUSH1 0x0 DUP3 PUSH20 0xFFFFFFFFFFFFFFFFFFFFFFFFFFFFFFFFFFFFFFFF AND PUSH20 0xFFFFFFFFFFFFFFFFFFFFFFFFFFFFFFFFFFFFFFFF AND DUP2 MSTORE PUSH1 0x20 ADD SWAP1 DUP2 MSTORE PUSH1 0x20 ADD PUSH1 0x0 KECCAK256 PUSH1 0x0 ADD PUSH1 0x14 SWAP1 SLOAD SWAP1 PUSH2 0x100 EXP SWAP1 DIV PUSH1 0xFF AND PUSH2 0x1245 JUMPI PUSH1 0x0 SWAP3 POP POP POP PUSH2 0x125F JUMP JUMPDEST POP DUP1 DUP1 PUSH2 0x1251 SWAP1 PUSH2 0x1C06 JUMP JUMPDEST SWAP2 POP POP PUSH2 0x118E JUMP JUMPDEST POP PUSH1 0x1 SWAP1 POP JUMPDEST SWAP1 JUMP JUMPDEST PUSH1 0x60 DUP2 DUP4 GT ISZERO PUSH2 0x12A7 JUMPI PUSH1 0x40 MLOAD PUSH32 0x8C379A000000000000000000000000000000000000000000000000000000000 DUP2 MSTORE PUSH1 0x4 ADD PUSH2 0x129E SWAP1 PUSH2 0x1E75 JUMP JUMPDEST PUSH1 0x40 MLOAD DUP1 SWAP2 SUB SWAP1 REVERT JUMPDEST PUSH1 0x0 DUP4 PUSH8 0xFFFFFFFFFFFFFFFF DUP2 GT ISZERO PUSH2 0x12C3 JUMPI PUSH2 0x12C2 PUSH2 0x1E95 JUMP JUMPDEST JUMPDEST PUSH1 0x40 MLOAD SWAP1 DUP1 DUP3 MSTORE DUP1 PUSH1 0x20 MUL PUSH1 0x20 ADD DUP3 ADD PUSH1 0x40 MSTORE DUP1 ISZERO PUSH2 0x12F1 JUMPI DUP2 PUSH1 0x20 ADD PUSH1 0x20 DUP3 MUL DUP1 CALLDATASIZE DUP4 CALLDATACOPY DUP1 DUP3 ADD SWAP2 POP POP SWAP1 POP JUMPDEST POP SWAP1 POP PUSH1 0x0 PUSH1 0x1 DUP5 PUSH2 0x1303 SWAP2 SWAP1 PUSH2 0x1EC4 JUMP JUMPDEST SWAP1 POP PUSH1 0x0 JUMPDEST DUP6 DUP2 LT ISZERO PUSH2 0x13AC JUMPI PUSH1 0x0 PUSH1 0x1 DUP4 PUSH2 0x131F SWAP2 SWAP1 PUSH2 0x1EF8 JUMP JUMPDEST TIMESTAMP DUP4 PUSH1 0x40 MLOAD PUSH1 0x20 ADD PUSH2 0x1332 SWAP3 SWAP2 SWAP1 PUSH2 0x1F4D JUMP JUMPDEST PUSH1 0x40 MLOAD PUSH1 0x20 DUP2 DUP4 SUB SUB DUP2 MSTORE SWAP1 PUSH1 0x40 MSTORE DUP1 MLOAD SWAP1 PUSH1 0x20 ADD KECCAK256 PUSH1 0x0 SHR PUSH2 0x1355 SWAP2 SWAP1 PUSH2 0x1FA8 JUMP JUMPDEST SWAP1 POP DUP1 DUP5 DUP4 DUP2 MLOAD DUP2 LT PUSH2 0x136B JUMPI PUSH2 0x136A PUSH2 0x1CBA JUMP JUMPDEST JUMPDEST PUSH1 0x20 MUL PUSH1 0x20 ADD ADD DUP2 DUP2 MSTORE POP POP DUP3 DUP1 PUSH2 0x1382 SWAP1 PUSH2 0x1FD9 JUMP JUMPDEST SWAP4 POP POP DUP3 DUP2 EQ PUSH2 0x1398 JUMPI PUSH2 0x1397 DUP5 DUP3 DUP6 PUSH2 0x13B8 JUMP JUMPDEST JUMPDEST POP DUP1 DUP1 PUSH2 0x13A4 SWAP1 PUSH2 0x1C06 JUMP JUMPDEST SWAP2 POP POP PUSH2 0x1308 JUMP JUMPDEST POP DUP2 SWAP3 POP POP POP SWAP3 SWAP2 POP POP JUMP JUMPDEST PUSH1 0x0 DUP4 DUP4 DUP2 MLOAD DUP2 LT PUSH2 0x13CD JUMPI PUSH2 0x13CC PUSH2 0x1CBA JUMP JUMPDEST JUMPDEST PUSH1 0x20 MUL PUSH1 0x20 ADD ADD MLOAD SWAP1 POP DUP4 DUP3 DUP2 MLOAD DUP2 LT PUSH2 0x13EA JUMPI PUSH2 0x13E9 PUSH2 0x1CBA JUMP JUMPDEST JUMPDEST PUSH1 0x20 MUL PUSH1 0x20 ADD ADD MLOAD DUP5 DUP5 DUP2 MLOAD DUP2 LT PUSH2 0x1405 JUMPI PUSH2 0x1404 PUSH2 0x1CBA JUMP JUMPDEST JUMPDEST PUSH1 0x20 MUL PUSH1 0x20 ADD ADD DUP2 DUP2 MSTORE POP POP DUP1 DUP5 DUP4 DUP2 MLOAD DUP2 LT PUSH2 0x1425 JUMPI PUSH2 0x1424 PUSH2 0x1CBA JUMP JUMPDEST JUMPDEST PUSH1 0x20 MUL PUSH1 0x20 ADD ADD DUP2 DUP2 MSTORE POP POP POP POP POP POP JUMP JUMPDEST PUSH1 0x40 MLOAD DUP1 PUSH2 0x1C0 ADD PUSH1 0x40 MSTORE DUP1 PUSH1 0x60 DUP2 MSTORE PUSH1 0x20 ADD PUSH1 0x0 PUSH20 0xFFFFFFFFFFFFFFFFFFFFFFFFFFFFFFFFFFFFFFFF AND DUP2 MSTORE PUSH1 0x20 ADD PUSH1 0x0 DUP2 MSTORE PUSH1 0x20 ADD PUSH1 0x0 ISZERO ISZERO DUP2 MSTORE PUSH1 0x20 ADD PUSH1 0x0 DUP2 MSTORE PUSH1 0x20 ADD PUSH1 0x0 PUSH20 0xFFFFFFFFFFFFFFFFFFFFFFFFFFFFFFFFFFFFFFFF AND DUP2 MSTORE PUSH1 0x20 ADD PUSH1 0x60 DUP2 MSTORE PUSH1 0x20 ADD PUSH1 0x60 DUP2 MSTORE PUSH1 0x20 ADD PUSH1 0x0 ISZERO ISZERO DUP2 MSTORE PUSH1 0x20 ADD PUSH1 0x60 DUP2 MSTORE PUSH1 0x20 ADD PUSH1 0x0 DUP2 MSTORE PUSH1 0x20 ADD PUSH1 0x0 DUP2 MSTORE PUSH1 0x20 ADD PUSH1 0x0 DUP2 MSTORE PUSH1 0x20 ADD PUSH1 0x0 DUP2 MSTORE POP SWAP1 JUMP JUMPDEST PUSH1 0x0 DUP1 REVERT JUMPDEST PUSH1 0x0 DUP2 SWAP1 POP SWAP2 SWAP1 POP JUMP JUMPDEST PUSH2 0x14EE DUP2 PUSH2 0x14DB JUMP JUMPDEST DUP2 EQ PUSH2 0x14F9 JUMPI PUSH1 0x0 DUP1 REVERT JUMPDEST POP JUMP JUMPDEST PUSH1 0x0 DUP2 CALLDATALOAD SWAP1 POP PUSH2 0x150B DUP2 PUSH2 0x14E5 JUMP JUMPDEST SWAP3 SWAP2 POP POP JUMP JUMPDEST PUSH1 0x0 PUSH1 0x20 DUP3 DUP5 SUB SLT ISZERO PUSH2 0x1527 JUMPI PUSH2 0x1526 PUSH2 0x14D6 JUMP JUMPDEST JUMPDEST PUSH1 0x0 PUSH2 0x1535 DUP5 DUP3 DUP6 ADD PUSH2 0x14FC JUMP JUMPDEST SWAP2 POP POP SWAP3 SWAP2 POP POP JUMP JUMPDEST PUSH1 0x0 DUP2 MLOAD SWAP1 POP SWAP2 SWAP1 POP JUMP JUMPDEST PUSH1 0x0 DUP3 DUP3 MSTORE PUSH1 0x20 DUP3 ADD SWAP1 POP SWAP3 SWAP2 POP POP JUMP JUMPDEST PUSH1 0x0 JUMPDEST DUP4 DUP2 LT ISZERO PUSH2 0x1578 JUMPI DUP1 DUP3 ADD MLOAD DUP2 DUP5 ADD MSTORE PUSH1 0x20 DUP2 ADD SWAP1 POP PUSH2 0x155D JUMP JUMPDEST PUSH1 0x0 DUP5 DUP5 ADD MSTORE POP POP POP POP JUMP JUMPDEST PUSH1 0x0 PUSH1 0x1F NOT PUSH1 0x1F DUP4 ADD AND SWAP1 POP SWAP2 SWAP1 POP JUMP JUMPDEST PUSH1 0x0 PUSH2 0x15A0 DUP3 PUSH2 0x153E JUMP JUMPDEST PUSH2 0x15AA DUP2 DUP6 PUSH2 0x1549 JUMP JUMPDEST SWAP4 POP PUSH2 0x15BA DUP2 DUP6 PUSH1 0x20 DUP7 ADD PUSH2 0x155A JUMP JUMPDEST PUSH2 0x15C3 DUP2 PUSH2 0x1584 JUMP JUMPDEST DUP5 ADD SWAP2 POP POP SWAP3 SWAP2 POP POP JUMP JUMPDEST PUSH1 0x0 PUSH20 0xFFFFFFFFFFFFFFFFFFFFFFFFFFFFFFFFFFFFFFFF DUP3 AND SWAP1 POP SWAP2 SWAP1 POP JUMP JUMPDEST PUSH1 0x0 PUSH2 0x15F9 DUP3 PUSH2 0x15CE JUMP JUMPDEST SWAP1 POP SWAP2 SWAP1 POP JUMP JUMPDEST PUSH2 0x1609 DUP2 PUSH2 0x15EE JUMP JUMPDEST DUP3 MSTORE POP POP JUMP JUMPDEST PUSH2 0x1618 DUP2 PUSH2 0x14DB JUMP JUMPDEST DUP3 MSTORE POP POP JUMP JUMPDEST PUSH1 0x0 DUP2 ISZERO ISZERO SWAP1 POP SWAP2 SWAP1 POP JUMP JUMPDEST PUSH2 0x1633 DUP2 PUSH2 0x161E JUMP JUMPDEST DUP3 MSTORE POP POP JUMP JUMPDEST PUSH1 0x0 DUP2 MLOAD SWAP1 POP SWAP2 SWAP1 POP JUMP JUMPDEST PUSH1 0x0 DUP3 DUP3 MSTORE PUSH1 0x20 DUP3 ADD SWAP1 POP SWAP3 SWAP2 POP POP JUMP JUMPDEST PUSH1 0x0 DUP2 SWAP1 POP PUSH1 0x20 DUP3 ADD SWAP1 POP SWAP2 SWAP1 POP JUMP JUMPDEST PUSH1 0x0 PUSH2 0x1671 DUP4 DUP4 PUSH2 0x1600 JUMP JUMPDEST PUSH1 0x20 DUP4 ADD SWAP1 POP SWAP3 SWAP2 POP POP JUMP JUMPDEST PUSH1 0x0 PUSH1 0x20 DUP3 ADD SWAP1 POP SWAP2 SWAP1 POP JUMP JUMPDEST PUSH1 0x0 PUSH2 0x1695 DUP3 PUSH2 0x1639 JUMP JUMPDEST PUSH2 0x169F DUP2 DUP6 PUSH2 0x1644 JUMP JUMPDEST SWAP4 POP PUSH2 0x16AA DUP4 PUSH2 0x1655 JUMP JUMPDEST DUP1 PUSH1 0x0 JUMPDEST DUP4 DUP2 LT ISZERO PUSH2 0x16DB JUMPI DUP2 MLOAD PUSH2 0x16C2 DUP9 DUP3 PUSH2 0x1665 JUMP JUMPDEST SWAP8 POP PUSH2 0x16CD DUP4 PUSH2 0x167D JUMP JUMPDEST SWAP3 POP POP PUSH1 0x1 DUP2 ADD SWAP1 POP PUSH2 0x16AE JUMP JUMPDEST POP DUP6 SWAP4 POP POP POP POP SWAP3 SWAP2 POP POP JUMP JUMPDEST PUSH1 0x0 PUSH2 0x1C0 DUP4 ADD PUSH1 0x0 DUP4 ADD MLOAD DUP5 DUP3 SUB PUSH1 0x0 DUP7 ADD MSTORE PUSH2 0x1706 DUP3 DUP3 PUSH2 0x1595 JUMP JUMPDEST SWAP2 POP POP PUSH1 0x20 DUP4 ADD MLOAD PUSH2 0x171B PUSH1 0x20 DUP7 ADD DUP3 PUSH2 0x1600 JUMP JUMPDEST POP PUSH1 0x40 DUP4 ADD MLOAD PUSH2 0x172E PUSH1 0x40 DUP7 ADD DUP3 PUSH2 0x160F JUMP JUMPDEST POP PUSH1 0x60 DUP4 ADD MLOAD PUSH2 0x1741 PUSH1 0x60 DUP7 ADD DUP3 PUSH2 0x162A JUMP JUMPDEST POP PUSH1 0x80 DUP4 ADD MLOAD PUSH2 0x1754 PUSH1 0x80 DUP7 ADD DUP3 PUSH2 0x160F JUMP JUMPDEST POP PUSH1 0xA0 DUP4 ADD MLOAD PUSH2 0x1767 PUSH1 0xA0 DUP7 ADD DUP3 PUSH2 0x1600 JUMP JUMPDEST POP PUSH1 0xC0 DUP4 ADD MLOAD DUP5 DUP3 SUB PUSH1 0xC0 DUP7 ADD MSTORE PUSH2 0x177F DUP3 DUP3 PUSH2 0x1595 JUMP JUMPDEST SWAP2 POP POP PUSH1 0xE0 DUP4 ADD MLOAD DUP5 DUP3 SUB PUSH1 0xE0 DUP7 ADD MSTORE PUSH2 0x1799 DUP3 DUP3 PUSH2 0x1595 JUMP JUMPDEST SWAP2 POP POP PUSH2 0x100 DUP4 ADD MLOAD PUSH2 0x17B0 PUSH2 0x100 DUP7 ADD DUP3 PUSH2 0x162A JUMP JUMPDEST POP PUSH2 0x120 DUP4 ADD MLOAD DUP5 DUP3 SUB PUSH2 0x120 DUP7 ADD MSTORE PUSH2 0x17CA DUP3 DUP3 PUSH2 0x168A JUMP JUMPDEST SWAP2 POP POP PUSH2 0x140 DUP4 ADD MLOAD PUSH2 0x17E1 PUSH2 0x140 DUP7 ADD DUP3 PUSH2 0x160F JUMP JUMPDEST POP PUSH2 0x160 DUP4 ADD MLOAD PUSH2 0x17F6 PUSH2 0x160 DUP7 ADD DUP3 PUSH2 0x160F JUMP JUMPDEST POP PUSH2 0x180 DUP4 ADD MLOAD PUSH2 0x180B PUSH2 0x180 DUP7 ADD DUP3 PUSH2 0x160F JUMP JUMPDEST POP PUSH2 0x1A0 DUP4 ADD MLOAD PUSH2 0x1820 PUSH2 0x1A0 DUP7 ADD DUP3 PUSH2 0x160F JUMP JUMPDEST POP DUP1 SWAP2 POP POP SWAP3 SWAP2 POP POP JUMP JUMPDEST PUSH1 0x0 PUSH1 0x20 DUP3 ADD SWAP1 POP DUP2 DUP2 SUB PUSH1 0x0 DUP4 ADD MSTORE PUSH2 0x1845 DUP2 DUP5 PUSH2 0x16E8 JUMP JUMPDEST SWAP1 POP SWAP3 SWAP2 POP POP JUMP JUMPDEST PUSH2 0x1856 DUP2 PUSH2 0x14DB JUMP JUMPDEST DUP3 MSTORE POP POP JUMP JUMPDEST PUSH1 0x0 PUSH1 0x20 DUP3 ADD SWAP1 POP PUSH2 0x1871 PUSH1 0x0 DUP4 ADD DUP5 PUSH2 0x184D JUMP JUMPDEST SWAP3 SWAP2 POP POP JUMP JUMPDEST PUSH2 0x1880 DUP2 PUSH2 0x161E JUMP JUMPDEST DUP2 EQ PUSH2 0x188B JUMPI PUSH1 0x0 DUP1 REVERT JUMPDEST POP JUMP JUMPDEST PUSH1 0x0 DUP2 CALLDATALOAD SWAP1 POP PUSH2 0x189D DUP2 PUSH2 0x1877 JUMP JUMPDEST SWAP3 SWAP2 POP POP JUMP JUMPDEST PUSH1 0x0 DUP1 PUSH1 0x40 DUP4 DUP6 SUB SLT ISZERO PUSH2 0x18BA JUMPI PUSH2 0x18B9 PUSH2 0x14D6 JUMP JUMPDEST JUMPDEST PUSH1 0x0 PUSH2 0x18C8 DUP6 DUP3 DUP7 ADD PUSH2 0x188E JUMP JUMPDEST SWAP3 POP POP PUSH1 0x20 PUSH2 0x18D9 DUP6 DUP3 DUP7 ADD PUSH2 0x14FC JUMP JUMPDEST SWAP2 POP POP SWAP3 POP SWAP3 SWAP1 POP JUMP JUMPDEST PUSH2 0x18EC DUP2 PUSH2 0x161E JUMP JUMPDEST DUP3 MSTORE POP POP JUMP JUMPDEST PUSH1 0x0 PUSH1 0x20 DUP3 ADD SWAP1 POP PUSH2 0x1907 PUSH1 0x0 DUP4 ADD DUP5 PUSH2 0x18E3 JUMP JUMPDEST SWAP3 SWAP2 POP POP JUMP JUMPDEST PUSH2 0x1916 DUP2 PUSH2 0x15EE JUMP JUMPDEST DUP3 MSTORE POP POP JUMP JUMPDEST PUSH1 0x0 PUSH1 0x20 DUP3 ADD SWAP1 POP PUSH2 0x1931 PUSH1 0x0 DUP4 ADD DUP5 PUSH2 0x190D JUMP JUMPDEST SWAP3 SWAP2 POP POP JUMP JUMPDEST PUSH2 0x1940 DUP2 PUSH2 0x15EE JUMP JUMPDEST DUP2 EQ PUSH2 0x194B JUMPI PUSH1 0x0 DUP1 REVERT JUMPDEST POP JUMP JUMPDEST PUSH1 0x0 DUP2 CALLDATALOAD SWAP1 POP PUSH2 0x195D DUP2 PUSH2 0x1937 JUMP JUMPDEST SWAP3 SWAP2 POP POP JUMP JUMPDEST PUSH1 0x0 PUSH1 0x20 DUP3 DUP5 SUB SLT ISZERO PUSH2 0x1979 JUMPI PUSH2 0x1978 PUSH2 0x14D6 JUMP JUMPDEST JUMPDEST PUSH1 0x0 PUSH2 0x1987 DUP5 DUP3 DUP6 ADD PUSH2 0x194E JUMP JUMPDEST SWAP2 POP POP SWAP3 SWAP2 POP POP JUMP JUMPDEST PUSH32 0x4E487B7100000000000000000000000000000000000000000000000000000000 PUSH1 0x0 MSTORE PUSH1 0x22 PUSH1 0x4 MSTORE PUSH1 0x24 PUSH1 0x0 REVERT JUMPDEST PUSH1 0x0 PUSH1 0x2 DUP3 DIV SWAP1 POP PUSH1 0x1 DUP3 AND DUP1 PUSH2 0x19D7 JUMPI PUSH1 0x7F DUP3 AND SWAP2 POP JUMPDEST PUSH1 0x20 DUP3 LT DUP2 SUB PUSH2 0x19EA JUMPI PUSH2 0x19E9 PUSH2 0x1990 JUMP JUMPDEST JUMPDEST POP SWAP2 SWAP1 POP JUMP JUMPDEST PUSH1 0x0 DUP3 DUP3 MSTORE PUSH1 0x20 DUP3 ADD SWAP1 POP SWAP3 SWAP2 POP POP JUMP JUMPDEST PUSH32 0x5761697420666F7220766F74696E672074696D6520706C656173652100000000 PUSH1 0x0 DUP3 ADD MSTORE POP JUMP JUMPDEST PUSH1 0x0 PUSH2 0x1A37 PUSH1 0x1C DUP4 PUSH2 0x19F0 JUMP JUMPDEST SWAP2 POP PUSH2 0x1A42 DUP3 PUSH2 0x1A01 JUMP JUMPDEST PUSH1 0x20 DUP3 ADD SWAP1 POP SWAP2 SWAP1 POP JUMP JUMPDEST PUSH1 0x0 PUSH1 0x20 DUP3 ADD SWAP1 POP DUP2 DUP2 SUB PUSH1 0x0 DUP4 ADD MSTORE PUSH2 0x1A66 DUP2 PUSH2 0x1A2A JUMP JUMPDEST SWAP1 POP SWAP2 SWAP1 POP JUMP JUMPDEST PUSH32 0x596F7520617265206E6F7420656C696769626C6520746F20766F746500000000 PUSH1 0x0 DUP3 ADD MSTORE POP JUMP JUMPDEST PUSH1 0x0 PUSH2 0x1AA3 PUSH1 0x1C DUP4 PUSH2 0x19F0 JUMP JUMPDEST SWAP2 POP PUSH2 0x1AAE DUP3 PUSH2 0x1A6D JUMP JUMPDEST PUSH1 0x20 DUP3 ADD SWAP1 POP SWAP2 SWAP1 POP JUMP JUMPDEST PUSH1 0x0 PUSH1 0x20 DUP3 ADD SWAP1 POP DUP2 DUP2 SUB PUSH1 0x0 DUP4 ADD MSTORE PUSH2 0x1AD2 DUP2 PUSH2 0x1A96 JUMP JUMPDEST SWAP1 POP SWAP2 SWAP1 POP JUMP JUMPDEST PUSH32 0x596F75206D757374206861766520746865207265717569726564204E46542061 PUSH1 0x0 DUP3 ADD MSTORE PUSH32 0x6E6420455243323020746F6B656E20746F20766F746500000000000000000000 PUSH1 0x20 DUP3 ADD MSTORE POP JUMP JUMPDEST PUSH1 0x0 PUSH2 0x1B35 PUSH1 0x36 DUP4 PUSH2 0x19F0 JUMP JUMPDEST SWAP2 POP PUSH2 0x1B40 DUP3 PUSH2 0x1AD9 JUMP JUMPDEST PUSH1 0x40 DUP3 ADD SWAP1 POP SWAP2 SWAP1 POP JUMP JUMPDEST PUSH1 0x0 PUSH1 0x20 DUP3 ADD SWAP1 POP DUP2 DUP2 SUB PUSH1 0x0 DUP4 ADD MSTORE PUSH2 0x1B64 DUP2 PUSH2 0x1B28 JUMP JUMPDEST SWAP1 POP SWAP2 SWAP1 POP JUMP JUMPDEST PUSH32 0x596F75206861766520616C726561647920766F74656400000000000000000000 PUSH1 0x0 DUP3 ADD MSTORE POP JUMP JUMPDEST PUSH1 0x0 PUSH2 0x1BA1 PUSH1 0x16 DUP4 PUSH2 0x19F0 JUMP JUMPDEST SWAP2 POP PUSH2 0x1BAC DUP3 PUSH2 0x1B6B JUMP JUMPDEST PUSH1 0x20 DUP3 ADD SWAP1 POP SWAP2 SWAP1 POP JUMP JUMPDEST PUSH1 0x0 PUSH1 0x20 DUP3 ADD SWAP1 POP DUP2 DUP2 SUB PUSH1 0x0 DUP4 ADD MSTORE PUSH2 0x1BD0 DUP2 PUSH2 0x1B94 JUMP JUMPDEST SWAP1 POP SWAP2 SWAP1 POP JUMP JUMPDEST PUSH32 0x4E487B7100000000000000000000000000000000000000000000000000000000 PUSH1 0x0 MSTORE PUSH1 0x11 PUSH1 0x4 MSTORE PUSH1 0x24 PUSH1 0x0 REVERT JUMPDEST PUSH1 0x0 PUSH2 0x1C11 DUP3 PUSH2 0x14DB JUMP JUMPDEST SWAP2 POP PUSH32 0xFFFFFFFFFFFFFFFFFFFFFFFFFFFFFFFFFFFFFFFFFFFFFFFFFFFFFFFFFFFFFFFF DUP3 SUB PUSH2 0x1C43 JUMPI PUSH2 0x1C42 PUSH2 0x1BD7 JUMP JUMPDEST JUMPDEST PUSH1 0x1 DUP3 ADD SWAP1 POP SWAP2 SWAP1 POP JUMP JUMPDEST PUSH32 0x496E76616C696420616464726573730000000000000000000000000000000000 PUSH1 0x0 DUP3 ADD MSTORE POP JUMP JUMPDEST PUSH1 0x0 PUSH2 0x1C84 PUSH1 0xF DUP4 PUSH2 0x19F0 JUMP JUMPDEST SWAP2 POP PUSH2 0x1C8F DUP3 PUSH2 0x1C4E JUMP JUMPDEST PUSH1 0x20 DUP3 ADD SWAP1 POP SWAP2 SWAP1 POP JUMP JUMPDEST PUSH1 0x0 PUSH1 0x20 DUP3 ADD SWAP1 POP DUP2 DUP2 SUB PUSH1 0x0 DUP4 ADD MSTORE PUSH2 0x1CB3 DUP2 PUSH2 0x1C77 JUMP JUMPDEST SWAP1 POP SWAP2 SWAP1 POP JUMP JUMPDEST PUSH32 0x4E487B7100000000000000000000000000000000000000000000000000000000 PUSH1 0x0 MSTORE PUSH1 0x32 PUSH1 0x4 MSTORE PUSH1 0x24 PUSH1 0x0 REVERT JUMPDEST PUSH32 0x566F74657220697320616C726561647920656C696769626C6500000000000000 PUSH1 0x0 DUP3 ADD MSTORE POP JUMP JUMPDEST PUSH1 0x0 PUSH2 0x1D1F PUSH1 0x19 DUP4 PUSH2 0x19F0 JUMP JUMPDEST SWAP2 POP PUSH2 0x1D2A DUP3 PUSH2 0x1CE9 JUMP JUMPDEST PUSH1 0x20 DUP3 ADD SWAP1 POP SWAP2 SWAP1 POP JUMP JUMPDEST PUSH1 0x0 PUSH1 0x20 DUP3 ADD SWAP1 POP DUP2 DUP2 SUB PUSH1 0x0 DUP4 ADD MSTORE PUSH2 0x1D4E DUP2 PUSH2 0x1D12 JUMP JUMPDEST SWAP1 POP SWAP2 SWAP1 POP JUMP JUMPDEST PUSH32 0x4E6F7420656E6F75676820766F7465727320746F2073656C6563742066726F6D PUSH1 0x0 DUP3 ADD MSTORE POP JUMP JUMPDEST PUSH1 0x0 PUSH2 0x1D8B PUSH1 0x20 DUP4 PUSH2 0x19F0 JUMP JUMPDEST SWAP2 POP PUSH2 0x1D96 DUP3 PUSH2 0x1D55 JUMP JUMPDEST PUSH1 0x20 DUP3 ADD SWAP1 POP SWAP2 SWAP1 POP JUMP JUMPDEST PUSH1 0x0 PUSH1 0x20 DUP3 ADD SWAP1 POP DUP2 DUP2 SUB PUSH1 0x0 DUP4 ADD MSTORE PUSH2 0x1DBA DUP2 PUSH2 0x1D7E JUMP JUMPDEST SWAP1 POP SWAP2 SWAP1 POP JUMP JUMPDEST PUSH1 0x0 DUP2 MLOAD SWAP1 POP PUSH2 0x1DD0 DUP2 PUSH2 0x14E5 JUMP JUMPDEST SWAP3 SWAP2 POP POP JUMP JUMPDEST PUSH1 0x0 PUSH1 0x20 DUP3 DUP5 SUB SLT ISZERO PUSH2 0x1DEC JUMPI PUSH2 0x1DEB PUSH2 0x14D6 JUMP JUMPDEST JUMPDEST PUSH1 0x0 PUSH2 0x1DFA DUP5 DUP3 DUP6 ADD PUSH2 0x1DC1 JUMP JUMPDEST SWAP2 POP POP SWAP3 SWAP2 POP POP JUMP JUMPDEST PUSH32 0x436F756E74206D757374206265206C657373207468616E206F7220657175616C PUSH1 0x0 DUP3 ADD MSTORE PUSH32 0x20746F20746865206D6178696D756D0000000000000000000000000000000000 PUSH1 0x20 DUP3 ADD MSTORE POP JUMP JUMPDEST PUSH1 0x0 PUSH2 0x1E5F PUSH1 0x2F DUP4 PUSH2 0x19F0 JUMP JUMPDEST SWAP2 POP PUSH2 0x1E6A DUP3 PUSH2 0x1E03 JUMP JUMPDEST PUSH1 0x40 DUP3 ADD SWAP1 POP SWAP2 SWAP1 POP JUMP JUMPDEST PUSH1 0x0 PUSH1 0x20 DUP3 ADD SWAP1 POP DUP2 DUP2 SUB PUSH1 0x0 DUP4 ADD MSTORE PUSH2 0x1E8E DUP2 PUSH2 0x1E52 JUMP JUMPDEST SWAP1 POP SWAP2 SWAP1 POP JUMP JUMPDEST PUSH32 0x4E487B7100000000000000000000000000000000000000000000000000000000 PUSH1 0x0 MSTORE PUSH1 0x41 PUSH1 0x4 MSTORE PUSH1 0x24 PUSH1 0x0 REVERT JUMPDEST PUSH1 0x0 PUSH2 0x1ECF DUP3 PUSH2 0x14DB JUMP JUMPDEST SWAP2 POP PUSH2 0x1EDA DUP4 PUSH2 0x14DB JUMP JUMPDEST SWAP3 POP DUP3 DUP3 SUB SWAP1 POP DUP2 DUP2 GT ISZERO PUSH2 0x1EF2 JUMPI PUSH2 0x1EF1 PUSH2 0x1BD7 JUMP JUMPDEST JUMPDEST SWAP3 SWAP2 POP POP JUMP JUMPDEST PUSH1 0x0 PUSH2 0x1F03 DUP3 PUSH2 0x14DB JUMP JUMPDEST SWAP2 POP PUSH2 0x1F0E DUP4 PUSH2 0x14DB JUMP JUMPDEST SWAP3 POP DUP3 DUP3 ADD SWAP1 POP DUP1 DUP3 GT ISZERO PUSH2 0x1F26 JUMPI PUSH2 0x1F25 PUSH2 0x1BD7 JUMP JUMPDEST JUMPDEST SWAP3 SWAP2 POP POP JUMP JUMPDEST PUSH1 0x0 DUP2 SWAP1 POP SWAP2 SWAP1 POP JUMP JUMPDEST PUSH2 0x1F47 PUSH2 0x1F42 DUP3 PUSH2 0x14DB JUMP JUMPDEST PUSH2 0x1F2C JUMP JUMPDEST DUP3 MSTORE POP POP JUMP JUMPDEST PUSH1 0x0 PUSH2 0x1F59 DUP3 DUP6 PUSH2 0x1F36 JUMP JUMPDEST PUSH1 0x20 DUP3 ADD SWAP2 POP PUSH2 0x1F69 DUP3 DUP5 PUSH2 0x1F36 JUMP JUMPDEST PUSH1 0x20 DUP3 ADD SWAP2 POP DUP2 SWAP1 POP SWAP4 SWAP3 POP POP POP JUMP JUMPDEST PUSH32 0x4E487B7100000000000000000000000000000000000000000000000000000000 PUSH1 0x0 MSTORE PUSH1 0x12 PUSH1 0x4 MSTORE PUSH1 0x24 PUSH1 0x0 REVERT JUMPDEST PUSH1 0x0 PUSH2 0x1FB3 DUP3 PUSH2 0x14DB JUMP JUMPDEST SWAP2 POP PUSH2 0x1FBE DUP4 PUSH2 0x14DB JUMP JUMPDEST SWAP3 POP DUP3 PUSH2 0x1FCE JUMPI PUSH2 0x1FCD PUSH2 0x1F79 JUMP JUMPDEST JUMPDEST DUP3 DUP3 MOD SWAP1 POP SWAP3 SWAP2 POP POP JUMP JUMPDEST PUSH1 0x0 PUSH2 0x1FE4 DUP3 PUSH2 0x14DB JUMP JUMPDEST SWAP2 POP PUSH1 0x0 DUP3 SUB PUSH2 0x1FF7 JUMPI PUSH2 0x1FF6 PUSH2 0x1BD7 JUMP JUMPDEST JUMPDEST PUSH1 0x1 DUP3 SUB SWAP1 POP SWAP2 SWAP1 POP JUMP INVALID LOG2 PUSH5 0x6970667358 0x22 SLT KECCAK256 0xD8 PUSH27 0x71991C51BADC4B0E77E2D462DCC929479DDC0E48242DC0EFFB812F 0xC9 DELEGATECALL 0xEC PUSH5 0x736F6C6343 STOP ADDMOD GT STOP CALLER "},"methodIdentifiers":{"addVoters(address)":"4c105d1b","checkNFTAdress()":"e7a595ca","checkTokenAdress()":"219ea8d3","getContent(uint256)":"0b7ad54c","getRandomVoters()":"60777e1d","isVotingOn()":"d1817c2c","setNFTAdress(address)":"f06459ee","setTokenAdress(address)":"8bb0d810","startVoting()":"1ec6b60a","stopVoting()":"fab2f86b","totalFlaggedContent()":"1019b6c2","totalVoters()":"5f5300ff","vote(bool,uint256)":"10e6e06c"}}}}}