{"contracts/facets/VoteContent.sol":{"VoteContent":{"abi":[{"anonymous":false,"inputs":[{"indexed":true,"internalType":"address","name":"voter","type":"address"},{"indexed":false,"internalType":"bool","name":"vote","type":"bool"}],"name":"VoteCast","type":"event"},{"inputs":[],"name":"getRandomVoters","outputs":[],"stateMutability":"nonpayable","type":"function"},{"inputs":[{"internalType":"bool","name":"voteValue","type":"bool"},{"internalType":"uint256","name":"contentID","type":"uint256"}],"name":"vote","outputs":[],"stateMutability":"nonpayable","type":"function"}],"evm":{"bytecode":{"linkReferences":{},"object":"608060405234801561001057600080fd5b5061118f806100206000396000f3fe608060405234801561001057600080fd5b50600436106100365760003560e01c806310e6e06c1461003b57806360777e1d14610057575b600080fd5b61005560048036038101906100509190610ab2565b610061565b005b61005f6103ba565b005b600060060160009054906101000a900460ff166100b3576040517f08c379a00000000000000000000000000000000000000000000000000000000081526004016100aa90610b4f565b60405180910390fd5b4260006004015411156100e9576001600060060160006101000a81548160ff021916908315150217905550426000600401819055505b6100f23361052a565b610131576040517f08c379a000000000000000000000000000000000000000000000000000000000815260040161012890610bbb565b60405180910390fd5b61013a336105df565b610179576040517f08c379a000000000000000000000000000000000000000000000000000000000815260040161017090610c4d565b60405180910390fd5b60008060090160003373ffffffffffffffffffffffffffffffffffffffff1673ffffffffffffffffffffffffffffffffffffffff1681526020019081526020016000206040518060600160405290816000820160009054906101000a900473ffffffffffffffffffffffffffffffffffffffff1673ffffffffffffffffffffffffffffffffffffffff1673ffffffffffffffffffffffffffffffffffffffff1681526020016000820160149054906101000a900460ff161515151581526020016000820160159054906101000a900460ff161515151581525050905080602001511561029a576040517f08c379a000000000000000000000000000000000000000000000000000000000815260040161029190610cb9565b60405180910390fd5b6001816020019015159081151581525050828160400190151590811515815250506000806007016000848152602001908152602001600020905083156102f95780600c0160008154809291906102ef90610d08565b9190505550610314565b80600d01600081548092919061030e90610d08565b91905055505b60018160080160006101000a81548160ff02191690831515021790555061033961078e565b156103665760008060060160006101000a81548160ff021916908315150217905550600080600401819055505b3373ffffffffffffffffffffffffffffffffffffffff167fa32151c21b193dcf3d43d553597e960d429ef6cafad3492ee4790e41be1ce520856040516103ac9190610d60565b60405180910390a250505050565b60036000600501541015610403576040517f08c379a00000000000000000000000000000000000000000000000000000000081526004016103fa90610dc7565b60405180910390fd5b6000610415600360006005015461086a565b905060005b815181101561052657600082828151811061043857610437610de7565b5b6020026020010151905060008060090160003373ffffffffffffffffffffffffffffffffffffffff1673ffffffffffffffffffffffffffffffffffffffff16815260200190815260200160002060000160009054906101000a900473ffffffffffffffffffffffffffffffffffffffff1690506000600801819080600181540180825580915050600190039060005260206000200160009091909190916101000a81548173ffffffffffffffffffffffffffffffffffffffff021916908373ffffffffffffffffffffffffffffffffffffffff1602179055505050808061051e90610d08565b91505061041a565b5050565b600080600090505b6000600801805490508110156105d4578273ffffffffffffffffffffffffffffffffffffffff16600060080182815481106105705761056f610de7565b5b9060005260206000200160009054906101000a900473ffffffffffffffffffffffffffffffffffffffff1673ffffffffffffffffffffffffffffffffffffffff1614156105c15760019150506105da565b80806105cc90610d08565b915050610532565b50600090505b919050565b6000806014905060008373ffffffffffffffffffffffffffffffffffffffff16600060010160009054906101000a900473ffffffffffffffffffffffffffffffffffffffff1673ffffffffffffffffffffffffffffffffffffffff16636352211e846040518263ffffffff1660e01b815260040161065d9190610e25565b60206040518083038186803b15801561067557600080fd5b505afa158015610689573d6000803e3d6000fd5b505050506040513d601f19601f820116820180604052508101906106ad9190610e9e565b73ffffffffffffffffffffffffffffffffffffffff1614905060008060000160009054906101000a900473ffffffffffffffffffffffffffffffffffffffff1673ffffffffffffffffffffffffffffffffffffffff166370a08231866040518263ffffffff1660e01b81526004016107259190610eda565b60206040518083038186803b15801561073d57600080fd5b505afa158015610751573d6000803e3d6000fd5b505050506040513d601f19601f820116820180604052508101906107759190610f0a565b90508180156107845750600081115b9350505050919050565b600080600090505b6000600801805490508110156108615760008060080182815481106107be576107bd610de7565b5b9060005260206000200160009054906101000a900473ffffffffffffffffffffffffffffffffffffffff169050600060090160008273ffffffffffffffffffffffffffffffffffffffff1673ffffffffffffffffffffffffffffffffffffffff16815260200190815260200160002060000160149054906101000a900460ff1661084d57600092505050610867565b50808061085990610d08565b915050610796565b50600190505b90565b6060818311156108af576040517f08c379a00000000000000000000000000000000000000000000000000000000081526004016108a690610fa9565b60405180910390fd5b60008367ffffffffffffffff8111156108cb576108ca610fc9565b5b6040519080825280602002602001820160405280156108f95781602001602082028036833780820191505090505b509050600060018461090b9190610ff8565b905060005b858110156109b4576000600183610927919061102c565b428360405160200161093a9291906110a3565b6040516020818303038152906040528051906020012060001c61095d91906110fe565b90508084838151811061097357610972610de7565b5b602002602001018181525050828061098a9061112f565b9350508281146109a05761099f8482856109c0565b5b5080806109ac90610d08565b915050610910565b50819250505092915050565b60008383815181106109d5576109d4610de7565b5b602002602001015190508382815181106109f2576109f1610de7565b5b6020026020010151848481518110610a0d57610a0c610de7565b5b60200260200101818152505080848381518110610a2d57610a2c610de7565b5b60200260200101818152505050505050565b600080fd5b60008115159050919050565b610a5981610a44565b8114610a6457600080fd5b50565b600081359050610a7681610a50565b92915050565b6000819050919050565b610a8f81610a7c565b8114610a9a57600080fd5b50565b600081359050610aac81610a86565b92915050565b60008060408385031215610ac957610ac8610a3f565b5b6000610ad785828601610a67565b9250506020610ae885828601610a9d565b9150509250929050565b600082825260208201905092915050565b7f5761697420666f7220766f74696e672074696d6520706c656173652100000000600082015250565b6000610b39601c83610af2565b9150610b4482610b03565b602082019050919050565b60006020820190508181036000830152610b6881610b2c565b9050919050565b7f596f7520617265206e6f7420656c696769626c6520746f20766f746500000000600082015250565b6000610ba5601c83610af2565b9150610bb082610b6f565b602082019050919050565b60006020820190508181036000830152610bd481610b98565b9050919050565b7f596f75206d757374206861766520746865207265717569726564204e4654206160008201527f6e6420455243323020746f6b656e20746f20766f746500000000000000000000602082015250565b6000610c37603683610af2565b9150610c4282610bdb565b604082019050919050565b60006020820190508181036000830152610c6681610c2a565b9050919050565b7f596f75206861766520616c726561647920766f74656400000000000000000000600082015250565b6000610ca3601683610af2565b9150610cae82610c6d565b602082019050919050565b60006020820190508181036000830152610cd281610c96565b9050919050565b7f4e487b7100000000000000000000000000000000000000000000000000000000600052601160045260246000fd5b6000610d1382610a7c565b91507fffffffffffffffffffffffffffffffffffffffffffffffffffffffffffffffff821415610d4657610d45610cd9565b5b600182019050919050565b610d5a81610a44565b82525050565b6000602082019050610d756000830184610d51565b92915050565b7f4e6f7420656e6f75676820766f7465727320746f2073656c6563742066726f6d600082015250565b6000610db1602083610af2565b9150610dbc82610d7b565b602082019050919050565b60006020820190508181036000830152610de081610da4565b9050919050565b7f4e487b7100000000000000000000000000000000000000000000000000000000600052603260045260246000fd5b610e1f81610a7c565b82525050565b6000602082019050610e3a6000830184610e16565b92915050565b600073ffffffffffffffffffffffffffffffffffffffff82169050919050565b6000610e6b82610e40565b9050919050565b610e7b81610e60565b8114610e8657600080fd5b50565b600081519050610e9881610e72565b92915050565b600060208284031215610eb457610eb3610a3f565b5b6000610ec284828501610e89565b91505092915050565b610ed481610e60565b82525050565b6000602082019050610eef6000830184610ecb565b92915050565b600081519050610f0481610a86565b92915050565b600060208284031215610f2057610f1f610a3f565b5b6000610f2e84828501610ef5565b91505092915050565b7f436f756e74206d757374206265206c657373207468616e206f7220657175616c60008201527f20746f20746865206d6178696d756d0000000000000000000000000000000000602082015250565b6000610f93602f83610af2565b9150610f9e82610f37565b604082019050919050565b60006020820190508181036000830152610fc281610f86565b9050919050565b7f4e487b7100000000000000000000000000000000000000000000000000000000600052604160045260246000fd5b600061100382610a7c565b915061100e83610a7c565b92508282101561102157611020610cd9565b5b828203905092915050565b600061103782610a7c565b915061104283610a7c565b9250827fffffffffffffffffffffffffffffffffffffffffffffffffffffffffffffffff0382111561107757611076610cd9565b5b828201905092915050565b6000819050919050565b61109d61109882610a7c565b611082565b82525050565b60006110af828561108c565b6020820191506110bf828461108c565b6020820191508190509392505050565b7f4e487b7100000000000000000000000000000000000000000000000000000000600052601260045260246000fd5b600061110982610a7c565b915061111483610a7c565b925082611124576111236110cf565b5b828206905092915050565b600061113a82610a7c565b9150600082141561114e5761114d610cd9565b5b60018203905091905056fea2646970667358221220cb28fe299c605e2c5538d50797d7997fcbbc26c5934d179e4139462fa282abc864736f6c63430008090033","opcodes":"PUSH1 0x80 PUSH1 0x40 MSTORE CALLVALUE DUP1 ISZERO PUSH2 0x10 JUMPI PUSH1 0x0 DUP1 REVERT JUMPDEST POP PUSH2 0x118F DUP1 PUSH2 0x20 PUSH1 0x0 CODECOPY PUSH1 0x0 RETURN INVALID PUSH1 0x80 PUSH1 0x40 MSTORE CALLVALUE DUP1 ISZERO PUSH2 0x10 JUMPI PUSH1 0x0 DUP1 REVERT JUMPDEST POP PUSH1 0x4 CALLDATASIZE LT PUSH2 0x36 JUMPI PUSH1 0x0 CALLDATALOAD PUSH1 0xE0 SHR DUP1 PUSH4 0x10E6E06C EQ PUSH2 0x3B JUMPI DUP1 PUSH4 0x60777E1D EQ PUSH2 0x57 JUMPI JUMPDEST PUSH1 0x0 DUP1 REVERT JUMPDEST PUSH2 0x55 PUSH1 0x4 DUP1 CALLDATASIZE SUB DUP2 ADD SWAP1 PUSH2 0x50 SWAP2 SWAP1 PUSH2 0xAB2 JUMP JUMPDEST PUSH2 0x61 JUMP JUMPDEST STOP JUMPDEST PUSH2 0x5F PUSH2 0x3BA JUMP JUMPDEST STOP JUMPDEST PUSH1 0x0 PUSH1 0x6 ADD PUSH1 0x0 SWAP1 SLOAD SWAP1 PUSH2 0x100 EXP SWAP1 DIV PUSH1 0xFF AND PUSH2 0xB3 JUMPI PUSH1 0x40 MLOAD PUSH32 0x8C379A000000000000000000000000000000000000000000000000000000000 DUP2 MSTORE PUSH1 0x4 ADD PUSH2 0xAA SWAP1 PUSH2 0xB4F JUMP JUMPDEST PUSH1 0x40 MLOAD DUP1 SWAP2 SUB SWAP1 REVERT JUMPDEST TIMESTAMP PUSH1 0x0 PUSH1 0x4 ADD SLOAD GT ISZERO PUSH2 0xE9 JUMPI PUSH1 0x1 PUSH1 0x0 PUSH1 0x6 ADD PUSH1 0x0 PUSH2 0x100 EXP DUP2 SLOAD DUP2 PUSH1 0xFF MUL NOT AND SWAP1 DUP4 ISZERO ISZERO MUL OR SWAP1 SSTORE POP TIMESTAMP PUSH1 0x0 PUSH1 0x4 ADD DUP2 SWAP1 SSTORE POP JUMPDEST PUSH2 0xF2 CALLER PUSH2 0x52A JUMP JUMPDEST PUSH2 0x131 JUMPI PUSH1 0x40 MLOAD PUSH32 0x8C379A000000000000000000000000000000000000000000000000000000000 DUP2 MSTORE PUSH1 0x4 ADD PUSH2 0x128 SWAP1 PUSH2 0xBBB JUMP JUMPDEST PUSH1 0x40 MLOAD DUP1 SWAP2 SUB SWAP1 REVERT JUMPDEST PUSH2 0x13A CALLER PUSH2 0x5DF JUMP JUMPDEST PUSH2 0x179 JUMPI PUSH1 0x40 MLOAD PUSH32 0x8C379A000000000000000000000000000000000000000000000000000000000 DUP2 MSTORE PUSH1 0x4 ADD PUSH2 0x170 SWAP1 PUSH2 0xC4D JUMP JUMPDEST PUSH1 0x40 MLOAD DUP1 SWAP2 SUB SWAP1 REVERT JUMPDEST PUSH1 0x0 DUP1 PUSH1 0x9 ADD PUSH1 0x0 CALLER PUSH20 0xFFFFFFFFFFFFFFFFFFFFFFFFFFFFFFFFFFFFFFFF AND PUSH20 0xFFFFFFFFFFFFFFFFFFFFFFFFFFFFFFFFFFFFFFFF AND DUP2 MSTORE PUSH1 0x20 ADD SWAP1 DUP2 MSTORE PUSH1 0x20 ADD PUSH1 0x0 KECCAK256 PUSH1 0x40 MLOAD DUP1 PUSH1 0x60 ADD PUSH1 0x40 MSTORE SWAP1 DUP2 PUSH1 0x0 DUP3 ADD PUSH1 0x0 SWAP1 SLOAD SWAP1 PUSH2 0x100 EXP SWAP1 DIV PUSH20 0xFFFFFFFFFFFFFFFFFFFFFFFFFFFFFFFFFFFFFFFF AND PUSH20 0xFFFFFFFFFFFFFFFFFFFFFFFFFFFFFFFFFFFFFFFF AND PUSH20 0xFFFFFFFFFFFFFFFFFFFFFFFFFFFFFFFFFFFFFFFF AND DUP2 MSTORE PUSH1 0x20 ADD PUSH1 0x0 DUP3 ADD PUSH1 0x14 SWAP1 SLOAD SWAP1 PUSH2 0x100 EXP SWAP1 DIV PUSH1 0xFF AND ISZERO ISZERO ISZERO ISZERO DUP2 MSTORE PUSH1 0x20 ADD PUSH1 0x0 DUP3 ADD PUSH1 0x15 SWAP1 SLOAD SWAP1 PUSH2 0x100 EXP SWAP1 DIV PUSH1 0xFF AND ISZERO ISZERO ISZERO ISZERO DUP2 MSTORE POP POP SWAP1 POP DUP1 PUSH1 0x20 ADD MLOAD ISZERO PUSH2 0x29A JUMPI PUSH1 0x40 MLOAD PUSH32 0x8C379A000000000000000000000000000000000000000000000000000000000 DUP2 MSTORE PUSH1 0x4 ADD PUSH2 0x291 SWAP1 PUSH2 0xCB9 JUMP JUMPDEST PUSH1 0x40 MLOAD DUP1 SWAP2 SUB SWAP1 REVERT JUMPDEST PUSH1 0x1 DUP2 PUSH1 0x20 ADD SWAP1 ISZERO ISZERO SWAP1 DUP2 ISZERO ISZERO DUP2 MSTORE POP POP DUP3 DUP2 PUSH1 0x40 ADD SWAP1 ISZERO ISZERO SWAP1 DUP2 ISZERO ISZERO DUP2 MSTORE POP POP PUSH1 0x0 DUP1 PUSH1 0x7 ADD PUSH1 0x0 DUP5 DUP2 MSTORE PUSH1 0x20 ADD SWAP1 DUP2 MSTORE PUSH1 0x20 ADD PUSH1 0x0 KECCAK256 SWAP1 POP DUP4 ISZERO PUSH2 0x2F9 JUMPI DUP1 PUSH1 0xC ADD PUSH1 0x0 DUP2 SLOAD DUP1 SWAP3 SWAP2 SWAP1 PUSH2 0x2EF SWAP1 PUSH2 0xD08 JUMP JUMPDEST SWAP2 SWAP1 POP SSTORE POP PUSH2 0x314 JUMP JUMPDEST DUP1 PUSH1 0xD ADD PUSH1 0x0 DUP2 SLOAD DUP1 SWAP3 SWAP2 SWAP1 PUSH2 0x30E SWAP1 PUSH2 0xD08 JUMP JUMPDEST SWAP2 SWAP1 POP SSTORE POP JUMPDEST PUSH1 0x1 DUP2 PUSH1 0x8 ADD PUSH1 0x0 PUSH2 0x100 EXP DUP2 SLOAD DUP2 PUSH1 0xFF MUL NOT AND SWAP1 DUP4 ISZERO ISZERO MUL OR SWAP1 SSTORE POP PUSH2 0x339 PUSH2 0x78E JUMP JUMPDEST ISZERO PUSH2 0x366 JUMPI PUSH1 0x0 DUP1 PUSH1 0x6 ADD PUSH1 0x0 PUSH2 0x100 EXP DUP2 SLOAD DUP2 PUSH1 0xFF MUL NOT AND SWAP1 DUP4 ISZERO ISZERO MUL OR SWAP1 SSTORE POP PUSH1 0x0 DUP1 PUSH1 0x4 ADD DUP2 SWAP1 SSTORE POP JUMPDEST CALLER PUSH20 0xFFFFFFFFFFFFFFFFFFFFFFFFFFFFFFFFFFFFFFFF AND PUSH32 0xA32151C21B193DCF3D43D553597E960D429EF6CAFAD3492EE4790E41BE1CE520 DUP6 PUSH1 0x40 MLOAD PUSH2 0x3AC SWAP2 SWAP1 PUSH2 0xD60 JUMP JUMPDEST PUSH1 0x40 MLOAD DUP1 SWAP2 SUB SWAP1 LOG2 POP POP POP POP JUMP JUMPDEST PUSH1 0x3 PUSH1 0x0 PUSH1 0x5 ADD SLOAD LT ISZERO PUSH2 0x403 JUMPI PUSH1 0x40 MLOAD PUSH32 0x8C379A000000000000000000000000000000000000000000000000000000000 DUP2 MSTORE PUSH1 0x4 ADD PUSH2 0x3FA SWAP1 PUSH2 0xDC7 JUMP JUMPDEST PUSH1 0x40 MLOAD DUP1 SWAP2 SUB SWAP1 REVERT JUMPDEST PUSH1 0x0 PUSH2 0x415 PUSH1 0x3 PUSH1 0x0 PUSH1 0x5 ADD SLOAD PUSH2 0x86A JUMP JUMPDEST SWAP1 POP PUSH1 0x0 JUMPDEST DUP2 MLOAD DUP2 LT ISZERO PUSH2 0x526 JUMPI PUSH1 0x0 DUP3 DUP3 DUP2 MLOAD DUP2 LT PUSH2 0x438 JUMPI PUSH2 0x437 PUSH2 0xDE7 JUMP JUMPDEST JUMPDEST PUSH1 0x20 MUL PUSH1 0x20 ADD ADD MLOAD SWAP1 POP PUSH1 0x0 DUP1 PUSH1 0x9 ADD PUSH1 0x0 CALLER PUSH20 0xFFFFFFFFFFFFFFFFFFFFFFFFFFFFFFFFFFFFFFFF AND PUSH20 0xFFFFFFFFFFFFFFFFFFFFFFFFFFFFFFFFFFFFFFFF AND DUP2 MSTORE PUSH1 0x20 ADD SWAP1 DUP2 MSTORE PUSH1 0x20 ADD PUSH1 0x0 KECCAK256 PUSH1 0x0 ADD PUSH1 0x0 SWAP1 SLOAD SWAP1 PUSH2 0x100 EXP SWAP1 DIV PUSH20 0xFFFFFFFFFFFFFFFFFFFFFFFFFFFFFFFFFFFFFFFF AND SWAP1 POP PUSH1 0x0 PUSH1 0x8 ADD DUP2 SWAP1 DUP1 PUSH1 0x1 DUP2 SLOAD ADD DUP1 DUP3 SSTORE DUP1 SWAP2 POP POP PUSH1 0x1 SWAP1 SUB SWAP1 PUSH1 0x0 MSTORE PUSH1 0x20 PUSH1 0x0 KECCAK256 ADD PUSH1 0x0 SWAP1 SWAP2 SWAP1 SWAP2 SWAP1 SWAP2 PUSH2 0x100 EXP DUP2 SLOAD DUP2 PUSH20 0xFFFFFFFFFFFFFFFFFFFFFFFFFFFFFFFFFFFFFFFF MUL NOT AND SWAP1 DUP4 PUSH20 0xFFFFFFFFFFFFFFFFFFFFFFFFFFFFFFFFFFFFFFFF AND MUL OR SWAP1 SSTORE POP POP POP DUP1 DUP1 PUSH2 0x51E SWAP1 PUSH2 0xD08 JUMP JUMPDEST SWAP2 POP POP PUSH2 0x41A JUMP JUMPDEST POP POP JUMP JUMPDEST PUSH1 0x0 DUP1 PUSH1 0x0 SWAP1 POP JUMPDEST PUSH1 0x0 PUSH1 0x8 ADD DUP1 SLOAD SWAP1 POP DUP2 LT ISZERO PUSH2 0x5D4 JUMPI DUP3 PUSH20 0xFFFFFFFFFFFFFFFFFFFFFFFFFFFFFFFFFFFFFFFF AND PUSH1 0x0 PUSH1 0x8 ADD DUP3 DUP2 SLOAD DUP2 LT PUSH2 0x570 JUMPI PUSH2 0x56F PUSH2 0xDE7 JUMP JUMPDEST JUMPDEST SWAP1 PUSH1 0x0 MSTORE PUSH1 0x20 PUSH1 0x0 KECCAK256 ADD PUSH1 0x0 SWAP1 SLOAD SWAP1 PUSH2 0x100 EXP SWAP1 DIV PUSH20 0xFFFFFFFFFFFFFFFFFFFFFFFFFFFFFFFFFFFFFFFF AND PUSH20 0xFFFFFFFFFFFFFFFFFFFFFFFFFFFFFFFFFFFFFFFF AND EQ ISZERO PUSH2 0x5C1 JUMPI PUSH1 0x1 SWAP2 POP POP PUSH2 0x5DA JUMP JUMPDEST DUP1 DUP1 PUSH2 0x5CC SWAP1 PUSH2 0xD08 JUMP JUMPDEST SWAP2 POP POP PUSH2 0x532 JUMP JUMPDEST POP PUSH1 0x0 SWAP1 POP JUMPDEST SWAP2 SWAP1 POP JUMP JUMPDEST PUSH1 0x0 DUP1 PUSH1 0x14 SWAP1 POP PUSH1 0x0 DUP4 PUSH20 0xFFFFFFFFFFFFFFFFFFFFFFFFFFFFFFFFFFFFFFFF AND PUSH1 0x0 PUSH1 0x1 ADD PUSH1 0x0 SWAP1 SLOAD SWAP1 PUSH2 0x100 EXP SWAP1 DIV PUSH20 0xFFFFFFFFFFFFFFFFFFFFFFFFFFFFFFFFFFFFFFFF AND PUSH20 0xFFFFFFFFFFFFFFFFFFFFFFFFFFFFFFFFFFFFFFFF AND PUSH4 0x6352211E DUP5 PUSH1 0x40 MLOAD DUP3 PUSH4 0xFFFFFFFF AND PUSH1 0xE0 SHL DUP2 MSTORE PUSH1 0x4 ADD PUSH2 0x65D SWAP2 SWAP1 PUSH2 0xE25 JUMP JUMPDEST PUSH1 0x20 PUSH1 0x40 MLOAD DUP1 DUP4 SUB DUP2 DUP7 DUP1 EXTCODESIZE ISZERO DUP1 ISZERO PUSH2 0x675 JUMPI PUSH1 0x0 DUP1 REVERT JUMPDEST POP GAS STATICCALL ISZERO DUP1 ISZERO PUSH2 0x689 JUMPI RETURNDATASIZE PUSH1 0x0 DUP1 RETURNDATACOPY RETURNDATASIZE PUSH1 0x0 REVERT JUMPDEST POP POP POP POP PUSH1 0x40 MLOAD RETURNDATASIZE PUSH1 0x1F NOT PUSH1 0x1F DUP3 ADD AND DUP3 ADD DUP1 PUSH1 0x40 MSTORE POP DUP2 ADD SWAP1 PUSH2 0x6AD SWAP2 SWAP1 PUSH2 0xE9E JUMP JUMPDEST PUSH20 0xFFFFFFFFFFFFFFFFFFFFFFFFFFFFFFFFFFFFFFFF AND EQ SWAP1 POP PUSH1 0x0 DUP1 PUSH1 0x0 ADD PUSH1 0x0 SWAP1 SLOAD SWAP1 PUSH2 0x100 EXP SWAP1 DIV PUSH20 0xFFFFFFFFFFFFFFFFFFFFFFFFFFFFFFFFFFFFFFFF AND PUSH20 0xFFFFFFFFFFFFFFFFFFFFFFFFFFFFFFFFFFFFFFFF AND PUSH4 0x70A08231 DUP7 PUSH1 0x40 MLOAD DUP3 PUSH4 0xFFFFFFFF AND PUSH1 0xE0 SHL DUP2 MSTORE PUSH1 0x4 ADD PUSH2 0x725 SWAP2 SWAP1 PUSH2 0xEDA JUMP JUMPDEST PUSH1 0x20 PUSH1 0x40 MLOAD DUP1 DUP4 SUB DUP2 DUP7 DUP1 EXTCODESIZE ISZERO DUP1 ISZERO PUSH2 0x73D JUMPI PUSH1 0x0 DUP1 REVERT JUMPDEST POP GAS STATICCALL ISZERO DUP1 ISZERO PUSH2 0x751 JUMPI RETURNDATASIZE PUSH1 0x0 DUP1 RETURNDATACOPY RETURNDATASIZE PUSH1 0x0 REVERT JUMPDEST POP POP POP POP PUSH1 0x40 MLOAD RETURNDATASIZE PUSH1 0x1F NOT PUSH1 0x1F DUP3 ADD AND DUP3 ADD DUP1 PUSH1 0x40 MSTORE POP DUP2 ADD SWAP1 PUSH2 0x775 SWAP2 SWAP1 PUSH2 0xF0A JUMP JUMPDEST SWAP1 POP DUP2 DUP1 ISZERO PUSH2 0x784 JUMPI POP PUSH1 0x0 DUP2 GT JUMPDEST SWAP4 POP POP POP POP SWAP2 SWAP1 POP JUMP JUMPDEST PUSH1 0x0 DUP1 PUSH1 0x0 SWAP1 POP JUMPDEST PUSH1 0x0 PUSH1 0x8 ADD DUP1 SLOAD SWAP1 POP DUP2 LT ISZERO PUSH2 0x861 JUMPI PUSH1 0x0 DUP1 PUSH1 0x8 ADD DUP3 DUP2 SLOAD DUP2 LT PUSH2 0x7BE JUMPI PUSH2 0x7BD PUSH2 0xDE7 JUMP JUMPDEST JUMPDEST SWAP1 PUSH1 0x0 MSTORE PUSH1 0x20 PUSH1 0x0 KECCAK256 ADD PUSH1 0x0 SWAP1 SLOAD SWAP1 PUSH2 0x100 EXP SWAP1 DIV PUSH20 0xFFFFFFFFFFFFFFFFFFFFFFFFFFFFFFFFFFFFFFFF AND SWAP1 POP PUSH1 0x0 PUSH1 0x9 ADD PUSH1 0x0 DUP3 PUSH20 0xFFFFFFFFFFFFFFFFFFFFFFFFFFFFFFFFFFFFFFFF AND PUSH20 0xFFFFFFFFFFFFFFFFFFFFFFFFFFFFFFFFFFFFFFFF AND DUP2 MSTORE PUSH1 0x20 ADD SWAP1 DUP2 MSTORE PUSH1 0x20 ADD PUSH1 0x0 KECCAK256 PUSH1 0x0 ADD PUSH1 0x14 SWAP1 SLOAD SWAP1 PUSH2 0x100 EXP SWAP1 DIV PUSH1 0xFF AND PUSH2 0x84D JUMPI PUSH1 0x0 SWAP3 POP POP POP PUSH2 0x867 JUMP JUMPDEST POP DUP1 DUP1 PUSH2 0x859 SWAP1 PUSH2 0xD08 JUMP JUMPDEST SWAP2 POP POP PUSH2 0x796 JUMP JUMPDEST POP PUSH1 0x1 SWAP1 POP JUMPDEST SWAP1 JUMP JUMPDEST PUSH1 0x60 DUP2 DUP4 GT ISZERO PUSH2 0x8AF JUMPI PUSH1 0x40 MLOAD PUSH32 0x8C379A000000000000000000000000000000000000000000000000000000000 DUP2 MSTORE PUSH1 0x4 ADD PUSH2 0x8A6 SWAP1 PUSH2 0xFA9 JUMP JUMPDEST PUSH1 0x40 MLOAD DUP1 SWAP2 SUB SWAP1 REVERT JUMPDEST PUSH1 0x0 DUP4 PUSH8 0xFFFFFFFFFFFFFFFF DUP2 GT ISZERO PUSH2 0x8CB JUMPI PUSH2 0x8CA PUSH2 0xFC9 JUMP JUMPDEST JUMPDEST PUSH1 0x40 MLOAD SWAP1 DUP1 DUP3 MSTORE DUP1 PUSH1 0x20 MUL PUSH1 0x20 ADD DUP3 ADD PUSH1 0x40 MSTORE DUP1 ISZERO PUSH2 0x8F9 JUMPI DUP2 PUSH1 0x20 ADD PUSH1 0x20 DUP3 MUL DUP1 CALLDATASIZE DUP4 CALLDATACOPY DUP1 DUP3 ADD SWAP2 POP POP SWAP1 POP JUMPDEST POP SWAP1 POP PUSH1 0x0 PUSH1 0x1 DUP5 PUSH2 0x90B SWAP2 SWAP1 PUSH2 0xFF8 JUMP JUMPDEST SWAP1 POP PUSH1 0x0 JUMPDEST DUP6 DUP2 LT ISZERO PUSH2 0x9B4 JUMPI PUSH1 0x0 PUSH1 0x1 DUP4 PUSH2 0x927 SWAP2 SWAP1 PUSH2 0x102C JUMP JUMPDEST TIMESTAMP DUP4 PUSH1 0x40 MLOAD PUSH1 0x20 ADD PUSH2 0x93A SWAP3 SWAP2 SWAP1 PUSH2 0x10A3 JUMP JUMPDEST PUSH1 0x40 MLOAD PUSH1 0x20 DUP2 DUP4 SUB SUB DUP2 MSTORE SWAP1 PUSH1 0x40 MSTORE DUP1 MLOAD SWAP1 PUSH1 0x20 ADD KECCAK256 PUSH1 0x0 SHR PUSH2 0x95D SWAP2 SWAP1 PUSH2 0x10FE JUMP JUMPDEST SWAP1 POP DUP1 DUP5 DUP4 DUP2 MLOAD DUP2 LT PUSH2 0x973 JUMPI PUSH2 0x972 PUSH2 0xDE7 JUMP JUMPDEST JUMPDEST PUSH1 0x20 MUL PUSH1 0x20 ADD ADD DUP2 DUP2 MSTORE POP POP DUP3 DUP1 PUSH2 0x98A SWAP1 PUSH2 0x112F JUMP JUMPDEST SWAP4 POP POP DUP3 DUP2 EQ PUSH2 0x9A0 JUMPI PUSH2 0x99F DUP5 DUP3 DUP6 PUSH2 0x9C0 JUMP JUMPDEST JUMPDEST POP DUP1 DUP1 PUSH2 0x9AC SWAP1 PUSH2 0xD08 JUMP JUMPDEST SWAP2 POP POP PUSH2 0x910 JUMP JUMPDEST POP DUP2 SWAP3 POP POP POP SWAP3 SWAP2 POP POP JUMP JUMPDEST PUSH1 0x0 DUP4 DUP4 DUP2 MLOAD DUP2 LT PUSH2 0x9D5 JUMPI PUSH2 0x9D4 PUSH2 0xDE7 JUMP JUMPDEST JUMPDEST PUSH1 0x20 MUL PUSH1 0x20 ADD ADD MLOAD SWAP1 POP DUP4 DUP3 DUP2 MLOAD DUP2 LT PUSH2 0x9F2 JUMPI PUSH2 0x9F1 PUSH2 0xDE7 JUMP JUMPDEST JUMPDEST PUSH1 0x20 MUL PUSH1 0x20 ADD ADD MLOAD DUP5 DUP5 DUP2 MLOAD DUP2 LT PUSH2 0xA0D JUMPI PUSH2 0xA0C PUSH2 0xDE7 JUMP JUMPDEST JUMPDEST PUSH1 0x20 MUL PUSH1 0x20 ADD ADD DUP2 DUP2 MSTORE POP POP DUP1 DUP5 DUP4 DUP2 MLOAD DUP2 LT PUSH2 0xA2D JUMPI PUSH2 0xA2C PUSH2 0xDE7 JUMP JUMPDEST JUMPDEST PUSH1 0x20 MUL PUSH1 0x20 ADD ADD DUP2 DUP2 MSTORE POP POP POP POP POP POP JUMP JUMPDEST PUSH1 0x0 DUP1 REVERT JUMPDEST PUSH1 0x0 DUP2 ISZERO ISZERO SWAP1 POP SWAP2 SWAP1 POP JUMP JUMPDEST PUSH2 0xA59 DUP2 PUSH2 0xA44 JUMP JUMPDEST DUP2 EQ PUSH2 0xA64 JUMPI PUSH1 0x0 DUP1 REVERT JUMPDEST POP JUMP JUMPDEST PUSH1 0x0 DUP2 CALLDATALOAD SWAP1 POP PUSH2 0xA76 DUP2 PUSH2 0xA50 JUMP JUMPDEST SWAP3 SWAP2 POP POP JUMP JUMPDEST PUSH1 0x0 DUP2 SWAP1 POP SWAP2 SWAP1 POP JUMP JUMPDEST PUSH2 0xA8F DUP2 PUSH2 0xA7C JUMP JUMPDEST DUP2 EQ PUSH2 0xA9A JUMPI PUSH1 0x0 DUP1 REVERT JUMPDEST POP JUMP JUMPDEST PUSH1 0x0 DUP2 CALLDATALOAD SWAP1 POP PUSH2 0xAAC DUP2 PUSH2 0xA86 JUMP JUMPDEST SWAP3 SWAP2 POP POP JUMP JUMPDEST PUSH1 0x0 DUP1 PUSH1 0x40 DUP4 DUP6 SUB SLT ISZERO PUSH2 0xAC9 JUMPI PUSH2 0xAC8 PUSH2 0xA3F JUMP JUMPDEST JUMPDEST PUSH1 0x0 PUSH2 0xAD7 DUP6 DUP3 DUP7 ADD PUSH2 0xA67 JUMP JUMPDEST SWAP3 POP POP PUSH1 0x20 PUSH2 0xAE8 DUP6 DUP3 DUP7 ADD PUSH2 0xA9D JUMP JUMPDEST SWAP2 POP POP SWAP3 POP SWAP3 SWAP1 POP JUMP JUMPDEST PUSH1 0x0 DUP3 DUP3 MSTORE PUSH1 0x20 DUP3 ADD SWAP1 POP SWAP3 SWAP2 POP POP JUMP JUMPDEST PUSH32 0x5761697420666F7220766F74696E672074696D6520706C656173652100000000 PUSH1 0x0 DUP3 ADD MSTORE POP JUMP JUMPDEST PUSH1 0x0 PUSH2 0xB39 PUSH1 0x1C DUP4 PUSH2 0xAF2 JUMP JUMPDEST SWAP2 POP PUSH2 0xB44 DUP3 PUSH2 0xB03 JUMP JUMPDEST PUSH1 0x20 DUP3 ADD SWAP1 POP SWAP2 SWAP1 POP JUMP JUMPDEST PUSH1 0x0 PUSH1 0x20 DUP3 ADD SWAP1 POP DUP2 DUP2 SUB PUSH1 0x0 DUP4 ADD MSTORE PUSH2 0xB68 DUP2 PUSH2 0xB2C JUMP JUMPDEST SWAP1 POP SWAP2 SWAP1 POP JUMP JUMPDEST PUSH32 0x596F7520617265206E6F7420656C696769626C6520746F20766F746500000000 PUSH1 0x0 DUP3 ADD MSTORE POP JUMP JUMPDEST PUSH1 0x0 PUSH2 0xBA5 PUSH1 0x1C DUP4 PUSH2 0xAF2 JUMP JUMPDEST SWAP2 POP PUSH2 0xBB0 DUP3 PUSH2 0xB6F JUMP JUMPDEST PUSH1 0x20 DUP3 ADD SWAP1 POP SWAP2 SWAP1 POP JUMP JUMPDEST PUSH1 0x0 PUSH1 0x20 DUP3 ADD SWAP1 POP DUP2 DUP2 SUB PUSH1 0x0 DUP4 ADD MSTORE PUSH2 0xBD4 DUP2 PUSH2 0xB98 JUMP JUMPDEST SWAP1 POP SWAP2 SWAP1 POP JUMP JUMPDEST PUSH32 0x596F75206D757374206861766520746865207265717569726564204E46542061 PUSH1 0x0 DUP3 ADD MSTORE PUSH32 0x6E6420455243323020746F6B656E20746F20766F746500000000000000000000 PUSH1 0x20 DUP3 ADD MSTORE POP JUMP JUMPDEST PUSH1 0x0 PUSH2 0xC37 PUSH1 0x36 DUP4 PUSH2 0xAF2 JUMP JUMPDEST SWAP2 POP PUSH2 0xC42 DUP3 PUSH2 0xBDB JUMP JUMPDEST PUSH1 0x40 DUP3 ADD SWAP1 POP SWAP2 SWAP1 POP JUMP JUMPDEST PUSH1 0x0 PUSH1 0x20 DUP3 ADD SWAP1 POP DUP2 DUP2 SUB PUSH1 0x0 DUP4 ADD MSTORE PUSH2 0xC66 DUP2 PUSH2 0xC2A JUMP JUMPDEST SWAP1 POP SWAP2 SWAP1 POP JUMP JUMPDEST PUSH32 0x596F75206861766520616C726561647920766F74656400000000000000000000 PUSH1 0x0 DUP3 ADD MSTORE POP JUMP JUMPDEST PUSH1 0x0 PUSH2 0xCA3 PUSH1 0x16 DUP4 PUSH2 0xAF2 JUMP JUMPDEST SWAP2 POP PUSH2 0xCAE DUP3 PUSH2 0xC6D JUMP JUMPDEST PUSH1 0x20 DUP3 ADD SWAP1 POP SWAP2 SWAP1 POP JUMP JUMPDEST PUSH1 0x0 PUSH1 0x20 DUP3 ADD SWAP1 POP DUP2 DUP2 SUB PUSH1 0x0 DUP4 ADD MSTORE PUSH2 0xCD2 DUP2 PUSH2 0xC96 JUMP JUMPDEST SWAP1 POP SWAP2 SWAP1 POP JUMP JUMPDEST PUSH32 0x4E487B7100000000000000000000000000000000000000000000000000000000 PUSH1 0x0 MSTORE PUSH1 0x11 PUSH1 0x4 MSTORE PUSH1 0x24 PUSH1 0x0 REVERT JUMPDEST PUSH1 0x0 PUSH2 0xD13 DUP3 PUSH2 0xA7C JUMP JUMPDEST SWAP2 POP PUSH32 0xFFFFFFFFFFFFFFFFFFFFFFFFFFFFFFFFFFFFFFFFFFFFFFFFFFFFFFFFFFFFFFFF DUP3 EQ ISZERO PUSH2 0xD46 JUMPI PUSH2 0xD45 PUSH2 0xCD9 JUMP JUMPDEST JUMPDEST PUSH1 0x1 DUP3 ADD SWAP1 POP SWAP2 SWAP1 POP JUMP JUMPDEST PUSH2 0xD5A DUP2 PUSH2 0xA44 JUMP JUMPDEST DUP3 MSTORE POP POP JUMP JUMPDEST PUSH1 0x0 PUSH1 0x20 DUP3 ADD SWAP1 POP PUSH2 0xD75 PUSH1 0x0 DUP4 ADD DUP5 PUSH2 0xD51 JUMP JUMPDEST SWAP3 SWAP2 POP POP JUMP JUMPDEST PUSH32 0x4E6F7420656E6F75676820766F7465727320746F2073656C6563742066726F6D PUSH1 0x0 DUP3 ADD MSTORE POP JUMP JUMPDEST PUSH1 0x0 PUSH2 0xDB1 PUSH1 0x20 DUP4 PUSH2 0xAF2 JUMP JUMPDEST SWAP2 POP PUSH2 0xDBC DUP3 PUSH2 0xD7B JUMP JUMPDEST PUSH1 0x20 DUP3 ADD SWAP1 POP SWAP2 SWAP1 POP JUMP JUMPDEST PUSH1 0x0 PUSH1 0x20 DUP3 ADD SWAP1 POP DUP2 DUP2 SUB PUSH1 0x0 DUP4 ADD MSTORE PUSH2 0xDE0 DUP2 PUSH2 0xDA4 JUMP JUMPDEST SWAP1 POP SWAP2 SWAP1 POP JUMP JUMPDEST PUSH32 0x4E487B7100000000000000000000000000000000000000000000000000000000 PUSH1 0x0 MSTORE PUSH1 0x32 PUSH1 0x4 MSTORE PUSH1 0x24 PUSH1 0x0 REVERT JUMPDEST PUSH2 0xE1F DUP2 PUSH2 0xA7C JUMP JUMPDEST DUP3 MSTORE POP POP JUMP JUMPDEST PUSH1 0x0 PUSH1 0x20 DUP3 ADD SWAP1 POP PUSH2 0xE3A PUSH1 0x0 DUP4 ADD DUP5 PUSH2 0xE16 JUMP JUMPDEST SWAP3 SWAP2 POP POP JUMP JUMPDEST PUSH1 0x0 PUSH20 0xFFFFFFFFFFFFFFFFFFFFFFFFFFFFFFFFFFFFFFFF DUP3 AND SWAP1 POP SWAP2 SWAP1 POP JUMP JUMPDEST PUSH1 0x0 PUSH2 0xE6B DUP3 PUSH2 0xE40 JUMP JUMPDEST SWAP1 POP SWAP2 SWAP1 POP JUMP JUMPDEST PUSH2 0xE7B DUP2 PUSH2 0xE60 JUMP JUMPDEST DUP2 EQ PUSH2 0xE86 JUMPI PUSH1 0x0 DUP1 REVERT JUMPDEST POP JUMP JUMPDEST PUSH1 0x0 DUP2 MLOAD SWAP1 POP PUSH2 0xE98 DUP2 PUSH2 0xE72 JUMP JUMPDEST SWAP3 SWAP2 POP POP JUMP JUMPDEST PUSH1 0x0 PUSH1 0x20 DUP3 DUP5 SUB SLT ISZERO PUSH2 0xEB4 JUMPI PUSH2 0xEB3 PUSH2 0xA3F JUMP JUMPDEST JUMPDEST PUSH1 0x0 PUSH2 0xEC2 DUP5 DUP3 DUP6 ADD PUSH2 0xE89 JUMP JUMPDEST SWAP2 POP POP SWAP3 SWAP2 POP POP JUMP JUMPDEST PUSH2 0xED4 DUP2 PUSH2 0xE60 JUMP JUMPDEST DUP3 MSTORE POP POP JUMP JUMPDEST PUSH1 0x0 PUSH1 0x20 DUP3 ADD SWAP1 POP PUSH2 0xEEF PUSH1 0x0 DUP4 ADD DUP5 PUSH2 0xECB JUMP JUMPDEST SWAP3 SWAP2 POP POP JUMP JUMPDEST PUSH1 0x0 DUP2 MLOAD SWAP1 POP PUSH2 0xF04 DUP2 PUSH2 0xA86 JUMP JUMPDEST SWAP3 SWAP2 POP POP JUMP JUMPDEST PUSH1 0x0 PUSH1 0x20 DUP3 DUP5 SUB SLT ISZERO PUSH2 0xF20 JUMPI PUSH2 0xF1F PUSH2 0xA3F JUMP JUMPDEST JUMPDEST PUSH1 0x0 PUSH2 0xF2E DUP5 DUP3 DUP6 ADD PUSH2 0xEF5 JUMP JUMPDEST SWAP2 POP POP SWAP3 SWAP2 POP POP JUMP JUMPDEST PUSH32 0x436F756E74206D757374206265206C657373207468616E206F7220657175616C PUSH1 0x0 DUP3 ADD MSTORE PUSH32 0x20746F20746865206D6178696D756D0000000000000000000000000000000000 PUSH1 0x20 DUP3 ADD MSTORE POP JUMP JUMPDEST PUSH1 0x0 PUSH2 0xF93 PUSH1 0x2F DUP4 PUSH2 0xAF2 JUMP JUMPDEST SWAP2 POP PUSH2 0xF9E DUP3 PUSH2 0xF37 JUMP JUMPDEST PUSH1 0x40 DUP3 ADD SWAP1 POP SWAP2 SWAP1 POP JUMP JUMPDEST PUSH1 0x0 PUSH1 0x20 DUP3 ADD SWAP1 POP DUP2 DUP2 SUB PUSH1 0x0 DUP4 ADD MSTORE PUSH2 0xFC2 DUP2 PUSH2 0xF86 JUMP JUMPDEST SWAP1 POP SWAP2 SWAP1 POP JUMP JUMPDEST PUSH32 0x4E487B7100000000000000000000000000000000000000000000000000000000 PUSH1 0x0 MSTORE PUSH1 0x41 PUSH1 0x4 MSTORE PUSH1 0x24 PUSH1 0x0 REVERT JUMPDEST PUSH1 0x0 PUSH2 0x1003 DUP3 PUSH2 0xA7C JUMP JUMPDEST SWAP2 POP PUSH2 0x100E DUP4 PUSH2 0xA7C JUMP JUMPDEST SWAP3 POP DUP3 DUP3 LT ISZERO PUSH2 0x1021 JUMPI PUSH2 0x1020 PUSH2 0xCD9 JUMP JUMPDEST JUMPDEST DUP3 DUP3 SUB SWAP1 POP SWAP3 SWAP2 POP POP JUMP JUMPDEST PUSH1 0x0 PUSH2 0x1037 DUP3 PUSH2 0xA7C JUMP JUMPDEST SWAP2 POP PUSH2 0x1042 DUP4 PUSH2 0xA7C JUMP JUMPDEST SWAP3 POP DUP3 PUSH32 0xFFFFFFFFFFFFFFFFFFFFFFFFFFFFFFFFFFFFFFFFFFFFFFFFFFFFFFFFFFFFFFFF SUB DUP3 GT ISZERO PUSH2 0x1077 JUMPI PUSH2 0x1076 PUSH2 0xCD9 JUMP JUMPDEST JUMPDEST DUP3 DUP3 ADD SWAP1 POP SWAP3 SWAP2 POP POP JUMP JUMPDEST PUSH1 0x0 DUP2 SWAP1 POP SWAP2 SWAP1 POP JUMP JUMPDEST PUSH2 0x109D PUSH2 0x1098 DUP3 PUSH2 0xA7C JUMP JUMPDEST PUSH2 0x1082 JUMP JUMPDEST DUP3 MSTORE POP POP JUMP JUMPDEST PUSH1 0x0 PUSH2 0x10AF DUP3 DUP6 PUSH2 0x108C JUMP JUMPDEST PUSH1 0x20 DUP3 ADD SWAP2 POP PUSH2 0x10BF DUP3 DUP5 PUSH2 0x108C JUMP JUMPDEST PUSH1 0x20 DUP3 ADD SWAP2 POP DUP2 SWAP1 POP SWAP4 SWAP3 POP POP POP JUMP JUMPDEST PUSH32 0x4E487B7100000000000000000000000000000000000000000000000000000000 PUSH1 0x0 MSTORE PUSH1 0x12 PUSH1 0x4 MSTORE PUSH1 0x24 PUSH1 0x0 REVERT JUMPDEST PUSH1 0x0 PUSH2 0x1109 DUP3 PUSH2 0xA7C JUMP JUMPDEST SWAP2 POP PUSH2 0x1114 DUP4 PUSH2 0xA7C JUMP JUMPDEST SWAP3 POP DUP3 PUSH2 0x1124 JUMPI PUSH2 0x1123 PUSH2 0x10CF JUMP JUMPDEST JUMPDEST DUP3 DUP3 MOD SWAP1 POP SWAP3 SWAP2 POP POP JUMP JUMPDEST PUSH1 0x0 PUSH2 0x113A DUP3 PUSH2 0xA7C JUMP JUMPDEST SWAP2 POP PUSH1 0x0 DUP3 EQ ISZERO PUSH2 0x114E JUMPI PUSH2 0x114D PUSH2 0xCD9 JUMP JUMPDEST JUMPDEST PUSH1 0x1 DUP3 SUB SWAP1 POP SWAP2 SWAP1 POP JUMP INVALID LOG2 PUSH5 0x6970667358 0x22 SLT KECCAK256 0xCB 0x28 INVALID 0x29 SWAP13 PUSH1 0x5E 0x2C SSTORE CODESIZE 0xD5 SMOD SWAP8 0xD7 SWAP10 PUSH32 0xCBBC26C5934D179E4139462FA282ABC864736F6C634300080900330000000000 "},"methodIdentifiers":{"getRandomVoters()":"60777e1d","vote(bool,uint256)":"10e6e06c"}}}}}