{"contracts/facets/VoteContentFacet.sol":{"VoteContentFacet":{"abi":[{"anonymous":false,"inputs":[{"indexed":true,"internalType":"address","name":"voter","type":"address"},{"indexed":false,"internalType":"bool","name":"vote","type":"bool"}],"name":"VoteCast","type":"event"},{"inputs":[{"internalType":"address","name":"voterAddress","type":"address"}],"name":"addVoters","outputs":[],"stateMutability":"nonpayable","type":"function"},{"inputs":[],"name":"getRandomVoters","outputs":[],"stateMutability":"nonpayable","type":"function"},{"inputs":[{"internalType":"bool","name":"voteValue","type":"bool"},{"internalType":"uint256","name":"contentID","type":"uint256"}],"name":"vote","outputs":[],"stateMutability":"nonpayable","type":"function"}],"evm":{"bytecode":{"linkReferences":{},"object":"608060405234801561001057600080fd5b5061143a806100206000396000f3fe608060405234801561001057600080fd5b50600436106100415760003560e01c806310e6e06c146100465780634c105d1b1461006257806360777e1d1461007e575b600080fd5b610060600480360381019061005b9190610cd3565b610088565b005b61007c60048036038101906100779190610d71565b6103fc565b005b61008661061a565b005b600060060160009054906101000a900460ff166100da576040517f08c379a00000000000000000000000000000000000000000000000000000000081526004016100d190610dfb565b60405180910390fd5b426000600401541115610110576001600060060160006101000a81548160ff021916908315150217905550426000600401819055505b6101193361076a565b610158576040517f08c379a000000000000000000000000000000000000000000000000000000000815260040161014f90610e67565b60405180910390fd5b6101613361081e565b6101a0576040517f08c379a000000000000000000000000000000000000000000000000000000000815260040161019790610ef9565b60405180910390fd5b60008060090160003373ffffffffffffffffffffffffffffffffffffffff1673ffffffffffffffffffffffffffffffffffffffff1681526020019081526020016000206040518060800160405290816000820160009054906101000a900473ffffffffffffffffffffffffffffffffffffffff1673ffffffffffffffffffffffffffffffffffffffff1673ffffffffffffffffffffffffffffffffffffffff1681526020016000820160149054906101000a900460ff161515151581526020016000820160159054906101000a900460ff161515151581526020016000820160169054906101000a900460ff16151515158152505090508060200151156102dc576040517f08c379a00000000000000000000000000000000000000000000000000000000081526004016102d390610f65565b60405180910390fd5b60018160200190151590811515815250508281604001901515908115158152505060008060070160008481526020019081526020016000209050831561033b5780600c01600081548092919061033190610fb4565b9190505550610356565b80600d01600081548092919061035090610fb4565b91905055505b60018160080160006101000a81548160ff02191690831515021790555061037b6109af565b156103a85760008060060160006101000a81548160ff021916908315150217905550600080600401819055505b3373ffffffffffffffffffffffffffffffffffffffff167fa32151c21b193dcf3d43d553597e960d429ef6cafad3492ee4790e41be1ce520856040516103ee919061100b565b60405180910390a250505050565b600073ffffffffffffffffffffffffffffffffffffffff168173ffffffffffffffffffffffffffffffffffffffff160361046b576040517f08c379a000000000000000000000000000000000000000000000000000000000815260040161046290611072565b60405180910390fd5b60001515600060090160008373ffffffffffffffffffffffffffffffffffffffff1673ffffffffffffffffffffffffffffffffffffffff16815260200190815260200160002060000160169054906101000a900460ff1615150361061757600060405180608001604052808373ffffffffffffffffffffffffffffffffffffffff16815260200160001515815260200160001515815260200160011515815250905080600060090160008473ffffffffffffffffffffffffffffffffffffffff1673ffffffffffffffffffffffffffffffffffffffff16815260200190815260200160002060008201518160000160006101000a81548173ffffffffffffffffffffffffffffffffffffffff021916908373ffffffffffffffffffffffffffffffffffffffff16021790555060208201518160000160146101000a81548160ff02191690831515021790555060408201518160000160156101000a81548160ff02191690831515021790555060608201518160000160166101000a81548160ff0219169083151502179055509050506000600501600081548092919061061090610fb4565b9190505550505b50565b60036000600501541015610663576040517f08c379a000000000000000000000000000000000000000000000000000000000815260040161065a906110de565b60405180910390fd5b60006106756003600060050154610a8b565b905060005b81518110156107665760008060090160003373ffffffffffffffffffffffffffffffffffffffff1673ffffffffffffffffffffffffffffffffffffffff16815260200190815260200160002060000160009054906101000a900473ffffffffffffffffffffffffffffffffffffffff1690506000600801819080600181540180825580915050600190039060005260206000200160009091909190916101000a81548173ffffffffffffffffffffffffffffffffffffffff021916908373ffffffffffffffffffffffffffffffffffffffff16021790555050808061075e90610fb4565b91505061067a565b5050565b600080600090505b600060080180549050811015610813578273ffffffffffffffffffffffffffffffffffffffff16600060080182815481106107b0576107af6110fe565b5b9060005260206000200160009054906101000a900473ffffffffffffffffffffffffffffffffffffffff1673ffffffffffffffffffffffffffffffffffffffff1603610800576001915050610819565b808061080b90610fb4565b915050610772565b50600090505b919050565b6000806014905060008373ffffffffffffffffffffffffffffffffffffffff16600060010160009054906101000a900473ffffffffffffffffffffffffffffffffffffffff1673ffffffffffffffffffffffffffffffffffffffff16636352211e846040518263ffffffff1660e01b815260040161089c919061113c565b602060405180830381865afa1580156108b9573d6000803e3d6000fd5b505050506040513d601f19601f820116820180604052508101906108dd919061116c565b73ffffffffffffffffffffffffffffffffffffffff1614905060008060000160009054906101000a900473ffffffffffffffffffffffffffffffffffffffff1673ffffffffffffffffffffffffffffffffffffffff166370a08231866040518263ffffffff1660e01b815260040161095591906111a8565b602060405180830381865afa158015610972573d6000803e3d6000fd5b505050506040513d601f19601f8201168201806040525081019061099691906111d8565b90508180156109a55750600081115b9350505050919050565b600080600090505b600060080180549050811015610a825760008060080182815481106109df576109de6110fe565b5b9060005260206000200160009054906101000a900473ffffffffffffffffffffffffffffffffffffffff169050600060090160008273ffffffffffffffffffffffffffffffffffffffff1673ffffffffffffffffffffffffffffffffffffffff16815260200190815260200160002060000160149054906101000a900460ff16610a6e57600092505050610a88565b508080610a7a90610fb4565b9150506109b7565b50600190505b90565b606081831115610ad0576040517f08c379a0000000000000000000000000000000000000000000000000000000008152600401610ac790611277565b60405180910390fd5b60008367ffffffffffffffff811115610aec57610aeb611297565b5b604051908082528060200260200182016040528015610b1a5781602001602082028036833780820191505090505b5090506000600184610b2c91906112c6565b905060005b85811015610bd5576000600183610b4891906112fa565b4283604051602001610b5b92919061134f565b6040516020818303038152906040528051906020012060001c610b7e91906113aa565b905080848381518110610b9457610b936110fe565b5b6020026020010181815250508280610bab906113db565b935050828114610bc157610bc0848285610be1565b5b508080610bcd90610fb4565b915050610b31565b50819250505092915050565b6000838381518110610bf657610bf56110fe565b5b60200260200101519050838281518110610c1357610c126110fe565b5b6020026020010151848481518110610c2e57610c2d6110fe565b5b60200260200101818152505080848381518110610c4e57610c4d6110fe565b5b60200260200101818152505050505050565b600080fd5b60008115159050919050565b610c7a81610c65565b8114610c8557600080fd5b50565b600081359050610c9781610c71565b92915050565b6000819050919050565b610cb081610c9d565b8114610cbb57600080fd5b50565b600081359050610ccd81610ca7565b92915050565b60008060408385031215610cea57610ce9610c60565b5b6000610cf885828601610c88565b9250506020610d0985828601610cbe565b9150509250929050565b600073ffffffffffffffffffffffffffffffffffffffff82169050919050565b6000610d3e82610d13565b9050919050565b610d4e81610d33565b8114610d5957600080fd5b50565b600081359050610d6b81610d45565b92915050565b600060208284031215610d8757610d86610c60565b5b6000610d9584828501610d5c565b91505092915050565b600082825260208201905092915050565b7f5761697420666f7220766f74696e672074696d6520706c656173652100000000600082015250565b6000610de5601c83610d9e565b9150610df082610daf565b602082019050919050565b60006020820190508181036000830152610e1481610dd8565b9050919050565b7f596f7520617265206e6f7420656c696769626c6520746f20766f746500000000600082015250565b6000610e51601c83610d9e565b9150610e5c82610e1b565b602082019050919050565b60006020820190508181036000830152610e8081610e44565b9050919050565b7f596f75206d757374206861766520746865207265717569726564204e4654206160008201527f6e6420455243323020746f6b656e20746f20766f746500000000000000000000602082015250565b6000610ee3603683610d9e565b9150610eee82610e87565b604082019050919050565b60006020820190508181036000830152610f1281610ed6565b9050919050565b7f596f75206861766520616c726561647920766f74656400000000000000000000600082015250565b6000610f4f601683610d9e565b9150610f5a82610f19565b602082019050919050565b60006020820190508181036000830152610f7e81610f42565b9050919050565b7f4e487b7100000000000000000000000000000000000000000000000000000000600052601160045260246000fd5b6000610fbf82610c9d565b91507fffffffffffffffffffffffffffffffffffffffffffffffffffffffffffffffff8203610ff157610ff0610f85565b5b600182019050919050565b61100581610c65565b82525050565b60006020820190506110206000830184610ffc565b92915050565b7f496e76616c696420616464726573730000000000000000000000000000000000600082015250565b600061105c600f83610d9e565b915061106782611026565b602082019050919050565b6000602082019050818103600083015261108b8161104f565b9050919050565b7f4e6f7420656e6f75676820766f7465727320746f2073656c6563742066726f6d600082015250565b60006110c8602083610d9e565b91506110d382611092565b602082019050919050565b600060208201905081810360008301526110f7816110bb565b9050919050565b7f4e487b7100000000000000000000000000000000000000000000000000000000600052603260045260246000fd5b61113681610c9d565b82525050565b6000602082019050611151600083018461112d565b92915050565b60008151905061116681610d45565b92915050565b60006020828403121561118257611181610c60565b5b600061119084828501611157565b91505092915050565b6111a281610d33565b82525050565b60006020820190506111bd6000830184611199565b92915050565b6000815190506111d281610ca7565b92915050565b6000602082840312156111ee576111ed610c60565b5b60006111fc848285016111c3565b91505092915050565b7f436f756e74206d757374206265206c657373207468616e206f7220657175616c60008201527f20746f20746865206d6178696d756d0000000000000000000000000000000000602082015250565b6000611261602f83610d9e565b915061126c82611205565b604082019050919050565b6000602082019050818103600083015261129081611254565b9050919050565b7f4e487b7100000000000000000000000000000000000000000000000000000000600052604160045260246000fd5b60006112d182610c9d565b91506112dc83610c9d565b92508282039050818111156112f4576112f3610f85565b5b92915050565b600061130582610c9d565b915061131083610c9d565b925082820190508082111561132857611327610f85565b5b92915050565b6000819050919050565b61134961134482610c9d565b61132e565b82525050565b600061135b8285611338565b60208201915061136b8284611338565b6020820191508190509392505050565b7f4e487b7100000000000000000000000000000000000000000000000000000000600052601260045260246000fd5b60006113b582610c9d565b91506113c083610c9d565b9250826113d0576113cf61137b565b5b828206905092915050565b60006113e682610c9d565b9150600082036113f9576113f8610f85565b5b60018203905091905056fea2646970667358221220798c41555761ae44f32bec15f158e129518831135203b5d1b97db5a40958719664736f6c63430008110033","opcodes":"PUSH1 0x80 PUSH1 0x40 MSTORE CALLVALUE DUP1 ISZERO PUSH2 0x10 JUMPI PUSH1 0x0 DUP1 REVERT JUMPDEST POP PUSH2 0x143A DUP1 PUSH2 0x20 PUSH1 0x0 CODECOPY PUSH1 0x0 RETURN INVALID PUSH1 0x80 PUSH1 0x40 MSTORE CALLVALUE DUP1 ISZERO PUSH2 0x10 JUMPI PUSH1 0x0 DUP1 REVERT JUMPDEST POP PUSH1 0x4 CALLDATASIZE LT PUSH2 0x41 JUMPI PUSH1 0x0 CALLDATALOAD PUSH1 0xE0 SHR DUP1 PUSH4 0x10E6E06C EQ PUSH2 0x46 JUMPI DUP1 PUSH4 0x4C105D1B EQ PUSH2 0x62 JUMPI DUP1 PUSH4 0x60777E1D EQ PUSH2 0x7E JUMPI JUMPDEST PUSH1 0x0 DUP1 REVERT JUMPDEST PUSH2 0x60 PUSH1 0x4 DUP1 CALLDATASIZE SUB DUP2 ADD SWAP1 PUSH2 0x5B SWAP2 SWAP1 PUSH2 0xCD3 JUMP JUMPDEST PUSH2 0x88 JUMP JUMPDEST STOP JUMPDEST PUSH2 0x7C PUSH1 0x4 DUP1 CALLDATASIZE SUB DUP2 ADD SWAP1 PUSH2 0x77 SWAP2 SWAP1 PUSH2 0xD71 JUMP JUMPDEST PUSH2 0x3FC JUMP JUMPDEST STOP JUMPDEST PUSH2 0x86 PUSH2 0x61A JUMP JUMPDEST STOP JUMPDEST PUSH1 0x0 PUSH1 0x6 ADD PUSH1 0x0 SWAP1 SLOAD SWAP1 PUSH2 0x100 EXP SWAP1 DIV PUSH1 0xFF AND PUSH2 0xDA JUMPI PUSH1 0x40 MLOAD PUSH32 0x8C379A000000000000000000000000000000000000000000000000000000000 DUP2 MSTORE PUSH1 0x4 ADD PUSH2 0xD1 SWAP1 PUSH2 0xDFB JUMP JUMPDEST PUSH1 0x40 MLOAD DUP1 SWAP2 SUB SWAP1 REVERT JUMPDEST TIMESTAMP PUSH1 0x0 PUSH1 0x4 ADD SLOAD GT ISZERO PUSH2 0x110 JUMPI PUSH1 0x1 PUSH1 0x0 PUSH1 0x6 ADD PUSH1 0x0 PUSH2 0x100 EXP DUP2 SLOAD DUP2 PUSH1 0xFF MUL NOT AND SWAP1 DUP4 ISZERO ISZERO MUL OR SWAP1 SSTORE POP TIMESTAMP PUSH1 0x0 PUSH1 0x4 ADD DUP2 SWAP1 SSTORE POP JUMPDEST PUSH2 0x119 CALLER PUSH2 0x76A JUMP JUMPDEST PUSH2 0x158 JUMPI PUSH1 0x40 MLOAD PUSH32 0x8C379A000000000000000000000000000000000000000000000000000000000 DUP2 MSTORE PUSH1 0x4 ADD PUSH2 0x14F SWAP1 PUSH2 0xE67 JUMP JUMPDEST PUSH1 0x40 MLOAD DUP1 SWAP2 SUB SWAP1 REVERT JUMPDEST PUSH2 0x161 CALLER PUSH2 0x81E JUMP JUMPDEST PUSH2 0x1A0 JUMPI PUSH1 0x40 MLOAD PUSH32 0x8C379A000000000000000000000000000000000000000000000000000000000 DUP2 MSTORE PUSH1 0x4 ADD PUSH2 0x197 SWAP1 PUSH2 0xEF9 JUMP JUMPDEST PUSH1 0x40 MLOAD DUP1 SWAP2 SUB SWAP1 REVERT JUMPDEST PUSH1 0x0 DUP1 PUSH1 0x9 ADD PUSH1 0x0 CALLER PUSH20 0xFFFFFFFFFFFFFFFFFFFFFFFFFFFFFFFFFFFFFFFF AND PUSH20 0xFFFFFFFFFFFFFFFFFFFFFFFFFFFFFFFFFFFFFFFF AND DUP2 MSTORE PUSH1 0x20 ADD SWAP1 DUP2 MSTORE PUSH1 0x20 ADD PUSH1 0x0 KECCAK256 PUSH1 0x40 MLOAD DUP1 PUSH1 0x80 ADD PUSH1 0x40 MSTORE SWAP1 DUP2 PUSH1 0x0 DUP3 ADD PUSH1 0x0 SWAP1 SLOAD SWAP1 PUSH2 0x100 EXP SWAP1 DIV PUSH20 0xFFFFFFFFFFFFFFFFFFFFFFFFFFFFFFFFFFFFFFFF AND PUSH20 0xFFFFFFFFFFFFFFFFFFFFFFFFFFFFFFFFFFFFFFFF AND PUSH20 0xFFFFFFFFFFFFFFFFFFFFFFFFFFFFFFFFFFFFFFFF AND DUP2 MSTORE PUSH1 0x20 ADD PUSH1 0x0 DUP3 ADD PUSH1 0x14 SWAP1 SLOAD SWAP1 PUSH2 0x100 EXP SWAP1 DIV PUSH1 0xFF AND ISZERO ISZERO ISZERO ISZERO DUP2 MSTORE PUSH1 0x20 ADD PUSH1 0x0 DUP3 ADD PUSH1 0x15 SWAP1 SLOAD SWAP1 PUSH2 0x100 EXP SWAP1 DIV PUSH1 0xFF AND ISZERO ISZERO ISZERO ISZERO DUP2 MSTORE PUSH1 0x20 ADD PUSH1 0x0 DUP3 ADD PUSH1 0x16 SWAP1 SLOAD SWAP1 PUSH2 0x100 EXP SWAP1 DIV PUSH1 0xFF AND ISZERO ISZERO ISZERO ISZERO DUP2 MSTORE POP POP SWAP1 POP DUP1 PUSH1 0x20 ADD MLOAD ISZERO PUSH2 0x2DC JUMPI PUSH1 0x40 MLOAD PUSH32 0x8C379A000000000000000000000000000000000000000000000000000000000 DUP2 MSTORE PUSH1 0x4 ADD PUSH2 0x2D3 SWAP1 PUSH2 0xF65 JUMP JUMPDEST PUSH1 0x40 MLOAD DUP1 SWAP2 SUB SWAP1 REVERT JUMPDEST PUSH1 0x1 DUP2 PUSH1 0x20 ADD SWAP1 ISZERO ISZERO SWAP1 DUP2 ISZERO ISZERO DUP2 MSTORE POP POP DUP3 DUP2 PUSH1 0x40 ADD SWAP1 ISZERO ISZERO SWAP1 DUP2 ISZERO ISZERO DUP2 MSTORE POP POP PUSH1 0x0 DUP1 PUSH1 0x7 ADD PUSH1 0x0 DUP5 DUP2 MSTORE PUSH1 0x20 ADD SWAP1 DUP2 MSTORE PUSH1 0x20 ADD PUSH1 0x0 KECCAK256 SWAP1 POP DUP4 ISZERO PUSH2 0x33B JUMPI DUP1 PUSH1 0xC ADD PUSH1 0x0 DUP2 SLOAD DUP1 SWAP3 SWAP2 SWAP1 PUSH2 0x331 SWAP1 PUSH2 0xFB4 JUMP JUMPDEST SWAP2 SWAP1 POP SSTORE POP PUSH2 0x356 JUMP JUMPDEST DUP1 PUSH1 0xD ADD PUSH1 0x0 DUP2 SLOAD DUP1 SWAP3 SWAP2 SWAP1 PUSH2 0x350 SWAP1 PUSH2 0xFB4 JUMP JUMPDEST SWAP2 SWAP1 POP SSTORE POP JUMPDEST PUSH1 0x1 DUP2 PUSH1 0x8 ADD PUSH1 0x0 PUSH2 0x100 EXP DUP2 SLOAD DUP2 PUSH1 0xFF MUL NOT AND SWAP1 DUP4 ISZERO ISZERO MUL OR SWAP1 SSTORE POP PUSH2 0x37B PUSH2 0x9AF JUMP JUMPDEST ISZERO PUSH2 0x3A8 JUMPI PUSH1 0x0 DUP1 PUSH1 0x6 ADD PUSH1 0x0 PUSH2 0x100 EXP DUP2 SLOAD DUP2 PUSH1 0xFF MUL NOT AND SWAP1 DUP4 ISZERO ISZERO MUL OR SWAP1 SSTORE POP PUSH1 0x0 DUP1 PUSH1 0x4 ADD DUP2 SWAP1 SSTORE POP JUMPDEST CALLER PUSH20 0xFFFFFFFFFFFFFFFFFFFFFFFFFFFFFFFFFFFFFFFF AND PUSH32 0xA32151C21B193DCF3D43D553597E960D429EF6CAFAD3492EE4790E41BE1CE520 DUP6 PUSH1 0x40 MLOAD PUSH2 0x3EE SWAP2 SWAP1 PUSH2 0x100B JUMP JUMPDEST PUSH1 0x40 MLOAD DUP1 SWAP2 SUB SWAP1 LOG2 POP POP POP POP JUMP JUMPDEST PUSH1 0x0 PUSH20 0xFFFFFFFFFFFFFFFFFFFFFFFFFFFFFFFFFFFFFFFF AND DUP2 PUSH20 0xFFFFFFFFFFFFFFFFFFFFFFFFFFFFFFFFFFFFFFFF AND SUB PUSH2 0x46B JUMPI PUSH1 0x40 MLOAD PUSH32 0x8C379A000000000000000000000000000000000000000000000000000000000 DUP2 MSTORE PUSH1 0x4 ADD PUSH2 0x462 SWAP1 PUSH2 0x1072 JUMP JUMPDEST PUSH1 0x40 MLOAD DUP1 SWAP2 SUB SWAP1 REVERT JUMPDEST PUSH1 0x0 ISZERO ISZERO PUSH1 0x0 PUSH1 0x9 ADD PUSH1 0x0 DUP4 PUSH20 0xFFFFFFFFFFFFFFFFFFFFFFFFFFFFFFFFFFFFFFFF AND PUSH20 0xFFFFFFFFFFFFFFFFFFFFFFFFFFFFFFFFFFFFFFFF AND DUP2 MSTORE PUSH1 0x20 ADD SWAP1 DUP2 MSTORE PUSH1 0x20 ADD PUSH1 0x0 KECCAK256 PUSH1 0x0 ADD PUSH1 0x16 SWAP1 SLOAD SWAP1 PUSH2 0x100 EXP SWAP1 DIV PUSH1 0xFF AND ISZERO ISZERO SUB PUSH2 0x617 JUMPI PUSH1 0x0 PUSH1 0x40 MLOAD DUP1 PUSH1 0x80 ADD PUSH1 0x40 MSTORE DUP1 DUP4 PUSH20 0xFFFFFFFFFFFFFFFFFFFFFFFFFFFFFFFFFFFFFFFF AND DUP2 MSTORE PUSH1 0x20 ADD PUSH1 0x0 ISZERO ISZERO DUP2 MSTORE PUSH1 0x20 ADD PUSH1 0x0 ISZERO ISZERO DUP2 MSTORE PUSH1 0x20 ADD PUSH1 0x1 ISZERO ISZERO DUP2 MSTORE POP SWAP1 POP DUP1 PUSH1 0x0 PUSH1 0x9 ADD PUSH1 0x0 DUP5 PUSH20 0xFFFFFFFFFFFFFFFFFFFFFFFFFFFFFFFFFFFFFFFF AND PUSH20 0xFFFFFFFFFFFFFFFFFFFFFFFFFFFFFFFFFFFFFFFF AND DUP2 MSTORE PUSH1 0x20 ADD SWAP1 DUP2 MSTORE PUSH1 0x20 ADD PUSH1 0x0 KECCAK256 PUSH1 0x0 DUP3 ADD MLOAD DUP2 PUSH1 0x0 ADD PUSH1 0x0 PUSH2 0x100 EXP DUP2 SLOAD DUP2 PUSH20 0xFFFFFFFFFFFFFFFFFFFFFFFFFFFFFFFFFFFFFFFF MUL NOT AND SWAP1 DUP4 PUSH20 0xFFFFFFFFFFFFFFFFFFFFFFFFFFFFFFFFFFFFFFFF AND MUL OR SWAP1 SSTORE POP PUSH1 0x20 DUP3 ADD MLOAD DUP2 PUSH1 0x0 ADD PUSH1 0x14 PUSH2 0x100 EXP DUP2 SLOAD DUP2 PUSH1 0xFF MUL NOT AND SWAP1 DUP4 ISZERO ISZERO MUL OR SWAP1 SSTORE POP PUSH1 0x40 DUP3 ADD MLOAD DUP2 PUSH1 0x0 ADD PUSH1 0x15 PUSH2 0x100 EXP DUP2 SLOAD DUP2 PUSH1 0xFF MUL NOT AND SWAP1 DUP4 ISZERO ISZERO MUL OR SWAP1 SSTORE POP PUSH1 0x60 DUP3 ADD MLOAD DUP2 PUSH1 0x0 ADD PUSH1 0x16 PUSH2 0x100 EXP DUP2 SLOAD DUP2 PUSH1 0xFF MUL NOT AND SWAP1 DUP4 ISZERO ISZERO MUL OR SWAP1 SSTORE POP SWAP1 POP POP PUSH1 0x0 PUSH1 0x5 ADD PUSH1 0x0 DUP2 SLOAD DUP1 SWAP3 SWAP2 SWAP1 PUSH2 0x610 SWAP1 PUSH2 0xFB4 JUMP JUMPDEST SWAP2 SWAP1 POP SSTORE POP POP JUMPDEST POP JUMP JUMPDEST PUSH1 0x3 PUSH1 0x0 PUSH1 0x5 ADD SLOAD LT ISZERO PUSH2 0x663 JUMPI PUSH1 0x40 MLOAD PUSH32 0x8C379A000000000000000000000000000000000000000000000000000000000 DUP2 MSTORE PUSH1 0x4 ADD PUSH2 0x65A SWAP1 PUSH2 0x10DE JUMP JUMPDEST PUSH1 0x40 MLOAD DUP1 SWAP2 SUB SWAP1 REVERT JUMPDEST PUSH1 0x0 PUSH2 0x675 PUSH1 0x3 PUSH1 0x0 PUSH1 0x5 ADD SLOAD PUSH2 0xA8B JUMP JUMPDEST SWAP1 POP PUSH1 0x0 JUMPDEST DUP2 MLOAD DUP2 LT ISZERO PUSH2 0x766 JUMPI PUSH1 0x0 DUP1 PUSH1 0x9 ADD PUSH1 0x0 CALLER PUSH20 0xFFFFFFFFFFFFFFFFFFFFFFFFFFFFFFFFFFFFFFFF AND PUSH20 0xFFFFFFFFFFFFFFFFFFFFFFFFFFFFFFFFFFFFFFFF AND DUP2 MSTORE PUSH1 0x20 ADD SWAP1 DUP2 MSTORE PUSH1 0x20 ADD PUSH1 0x0 KECCAK256 PUSH1 0x0 ADD PUSH1 0x0 SWAP1 SLOAD SWAP1 PUSH2 0x100 EXP SWAP1 DIV PUSH20 0xFFFFFFFFFFFFFFFFFFFFFFFFFFFFFFFFFFFFFFFF AND SWAP1 POP PUSH1 0x0 PUSH1 0x8 ADD DUP2 SWAP1 DUP1 PUSH1 0x1 DUP2 SLOAD ADD DUP1 DUP3 SSTORE DUP1 SWAP2 POP POP PUSH1 0x1 SWAP1 SUB SWAP1 PUSH1 0x0 MSTORE PUSH1 0x20 PUSH1 0x0 KECCAK256 ADD PUSH1 0x0 SWAP1 SWAP2 SWAP1 SWAP2 SWAP1 SWAP2 PUSH2 0x100 EXP DUP2 SLOAD DUP2 PUSH20 0xFFFFFFFFFFFFFFFFFFFFFFFFFFFFFFFFFFFFFFFF MUL NOT AND SWAP1 DUP4 PUSH20 0xFFFFFFFFFFFFFFFFFFFFFFFFFFFFFFFFFFFFFFFF AND MUL OR SWAP1 SSTORE POP POP DUP1 DUP1 PUSH2 0x75E SWAP1 PUSH2 0xFB4 JUMP JUMPDEST SWAP2 POP POP PUSH2 0x67A JUMP JUMPDEST POP POP JUMP JUMPDEST PUSH1 0x0 DUP1 PUSH1 0x0 SWAP1 POP JUMPDEST PUSH1 0x0 PUSH1 0x8 ADD DUP1 SLOAD SWAP1 POP DUP2 LT ISZERO PUSH2 0x813 JUMPI DUP3 PUSH20 0xFFFFFFFFFFFFFFFFFFFFFFFFFFFFFFFFFFFFFFFF AND PUSH1 0x0 PUSH1 0x8 ADD DUP3 DUP2 SLOAD DUP2 LT PUSH2 0x7B0 JUMPI PUSH2 0x7AF PUSH2 0x10FE JUMP JUMPDEST JUMPDEST SWAP1 PUSH1 0x0 MSTORE PUSH1 0x20 PUSH1 0x0 KECCAK256 ADD PUSH1 0x0 SWAP1 SLOAD SWAP1 PUSH2 0x100 EXP SWAP1 DIV PUSH20 0xFFFFFFFFFFFFFFFFFFFFFFFFFFFFFFFFFFFFFFFF AND PUSH20 0xFFFFFFFFFFFFFFFFFFFFFFFFFFFFFFFFFFFFFFFF AND SUB PUSH2 0x800 JUMPI PUSH1 0x1 SWAP2 POP POP PUSH2 0x819 JUMP JUMPDEST DUP1 DUP1 PUSH2 0x80B SWAP1 PUSH2 0xFB4 JUMP JUMPDEST SWAP2 POP POP PUSH2 0x772 JUMP JUMPDEST POP PUSH1 0x0 SWAP1 POP JUMPDEST SWAP2 SWAP1 POP JUMP JUMPDEST PUSH1 0x0 DUP1 PUSH1 0x14 SWAP1 POP PUSH1 0x0 DUP4 PUSH20 0xFFFFFFFFFFFFFFFFFFFFFFFFFFFFFFFFFFFFFFFF AND PUSH1 0x0 PUSH1 0x1 ADD PUSH1 0x0 SWAP1 SLOAD SWAP1 PUSH2 0x100 EXP SWAP1 DIV PUSH20 0xFFFFFFFFFFFFFFFFFFFFFFFFFFFFFFFFFFFFFFFF AND PUSH20 0xFFFFFFFFFFFFFFFFFFFFFFFFFFFFFFFFFFFFFFFF AND PUSH4 0x6352211E DUP5 PUSH1 0x40 MLOAD DUP3 PUSH4 0xFFFFFFFF AND PUSH1 0xE0 SHL DUP2 MSTORE PUSH1 0x4 ADD PUSH2 0x89C SWAP2 SWAP1 PUSH2 0x113C JUMP JUMPDEST PUSH1 0x20 PUSH1 0x40 MLOAD DUP1 DUP4 SUB DUP2 DUP7 GAS STATICCALL ISZERO DUP1 ISZERO PUSH2 0x8B9 JUMPI RETURNDATASIZE PUSH1 0x0 DUP1 RETURNDATACOPY RETURNDATASIZE PUSH1 0x0 REVERT JUMPDEST POP POP POP POP PUSH1 0x40 MLOAD RETURNDATASIZE PUSH1 0x1F NOT PUSH1 0x1F DUP3 ADD AND DUP3 ADD DUP1 PUSH1 0x40 MSTORE POP DUP2 ADD SWAP1 PUSH2 0x8DD SWAP2 SWAP1 PUSH2 0x116C JUMP JUMPDEST PUSH20 0xFFFFFFFFFFFFFFFFFFFFFFFFFFFFFFFFFFFFFFFF AND EQ SWAP1 POP PUSH1 0x0 DUP1 PUSH1 0x0 ADD PUSH1 0x0 SWAP1 SLOAD SWAP1 PUSH2 0x100 EXP SWAP1 DIV PUSH20 0xFFFFFFFFFFFFFFFFFFFFFFFFFFFFFFFFFFFFFFFF AND PUSH20 0xFFFFFFFFFFFFFFFFFFFFFFFFFFFFFFFFFFFFFFFF AND PUSH4 0x70A08231 DUP7 PUSH1 0x40 MLOAD DUP3 PUSH4 0xFFFFFFFF AND PUSH1 0xE0 SHL DUP2 MSTORE PUSH1 0x4 ADD PUSH2 0x955 SWAP2 SWAP1 PUSH2 0x11A8 JUMP JUMPDEST PUSH1 0x20 PUSH1 0x40 MLOAD DUP1 DUP4 SUB DUP2 DUP7 GAS STATICCALL ISZERO DUP1 ISZERO PUSH2 0x972 JUMPI RETURNDATASIZE PUSH1 0x0 DUP1 RETURNDATACOPY RETURNDATASIZE PUSH1 0x0 REVERT JUMPDEST POP POP POP POP PUSH1 0x40 MLOAD RETURNDATASIZE PUSH1 0x1F NOT PUSH1 0x1F DUP3 ADD AND DUP3 ADD DUP1 PUSH1 0x40 MSTORE POP DUP2 ADD SWAP1 PUSH2 0x996 SWAP2 SWAP1 PUSH2 0x11D8 JUMP JUMPDEST SWAP1 POP DUP2 DUP1 ISZERO PUSH2 0x9A5 JUMPI POP PUSH1 0x0 DUP2 GT JUMPDEST SWAP4 POP POP POP POP SWAP2 SWAP1 POP JUMP JUMPDEST PUSH1 0x0 DUP1 PUSH1 0x0 SWAP1 POP JUMPDEST PUSH1 0x0 PUSH1 0x8 ADD DUP1 SLOAD SWAP1 POP DUP2 LT ISZERO PUSH2 0xA82 JUMPI PUSH1 0x0 DUP1 PUSH1 0x8 ADD DUP3 DUP2 SLOAD DUP2 LT PUSH2 0x9DF JUMPI PUSH2 0x9DE PUSH2 0x10FE JUMP JUMPDEST JUMPDEST SWAP1 PUSH1 0x0 MSTORE PUSH1 0x20 PUSH1 0x0 KECCAK256 ADD PUSH1 0x0 SWAP1 SLOAD SWAP1 PUSH2 0x100 EXP SWAP1 DIV PUSH20 0xFFFFFFFFFFFFFFFFFFFFFFFFFFFFFFFFFFFFFFFF AND SWAP1 POP PUSH1 0x0 PUSH1 0x9 ADD PUSH1 0x0 DUP3 PUSH20 0xFFFFFFFFFFFFFFFFFFFFFFFFFFFFFFFFFFFFFFFF AND PUSH20 0xFFFFFFFFFFFFFFFFFFFFFFFFFFFFFFFFFFFFFFFF AND DUP2 MSTORE PUSH1 0x20 ADD SWAP1 DUP2 MSTORE PUSH1 0x20 ADD PUSH1 0x0 KECCAK256 PUSH1 0x0 ADD PUSH1 0x14 SWAP1 SLOAD SWAP1 PUSH2 0x100 EXP SWAP1 DIV PUSH1 0xFF AND PUSH2 0xA6E JUMPI PUSH1 0x0 SWAP3 POP POP POP PUSH2 0xA88 JUMP JUMPDEST POP DUP1 DUP1 PUSH2 0xA7A SWAP1 PUSH2 0xFB4 JUMP JUMPDEST SWAP2 POP POP PUSH2 0x9B7 JUMP JUMPDEST POP PUSH1 0x1 SWAP1 POP JUMPDEST SWAP1 JUMP JUMPDEST PUSH1 0x60 DUP2 DUP4 GT ISZERO PUSH2 0xAD0 JUMPI PUSH1 0x40 MLOAD PUSH32 0x8C379A000000000000000000000000000000000000000000000000000000000 DUP2 MSTORE PUSH1 0x4 ADD PUSH2 0xAC7 SWAP1 PUSH2 0x1277 JUMP JUMPDEST PUSH1 0x40 MLOAD DUP1 SWAP2 SUB SWAP1 REVERT JUMPDEST PUSH1 0x0 DUP4 PUSH8 0xFFFFFFFFFFFFFFFF DUP2 GT ISZERO PUSH2 0xAEC JUMPI PUSH2 0xAEB PUSH2 0x1297 JUMP JUMPDEST JUMPDEST PUSH1 0x40 MLOAD SWAP1 DUP1 DUP3 MSTORE DUP1 PUSH1 0x20 MUL PUSH1 0x20 ADD DUP3 ADD PUSH1 0x40 MSTORE DUP1 ISZERO PUSH2 0xB1A JUMPI DUP2 PUSH1 0x20 ADD PUSH1 0x20 DUP3 MUL DUP1 CALLDATASIZE DUP4 CALLDATACOPY DUP1 DUP3 ADD SWAP2 POP POP SWAP1 POP JUMPDEST POP SWAP1 POP PUSH1 0x0 PUSH1 0x1 DUP5 PUSH2 0xB2C SWAP2 SWAP1 PUSH2 0x12C6 JUMP JUMPDEST SWAP1 POP PUSH1 0x0 JUMPDEST DUP6 DUP2 LT ISZERO PUSH2 0xBD5 JUMPI PUSH1 0x0 PUSH1 0x1 DUP4 PUSH2 0xB48 SWAP2 SWAP1 PUSH2 0x12FA JUMP JUMPDEST TIMESTAMP DUP4 PUSH1 0x40 MLOAD PUSH1 0x20 ADD PUSH2 0xB5B SWAP3 SWAP2 SWAP1 PUSH2 0x134F JUMP JUMPDEST PUSH1 0x40 MLOAD PUSH1 0x20 DUP2 DUP4 SUB SUB DUP2 MSTORE SWAP1 PUSH1 0x40 MSTORE DUP1 MLOAD SWAP1 PUSH1 0x20 ADD KECCAK256 PUSH1 0x0 SHR PUSH2 0xB7E SWAP2 SWAP1 PUSH2 0x13AA JUMP JUMPDEST SWAP1 POP DUP1 DUP5 DUP4 DUP2 MLOAD DUP2 LT PUSH2 0xB94 JUMPI PUSH2 0xB93 PUSH2 0x10FE JUMP JUMPDEST JUMPDEST PUSH1 0x20 MUL PUSH1 0x20 ADD ADD DUP2 DUP2 MSTORE POP POP DUP3 DUP1 PUSH2 0xBAB SWAP1 PUSH2 0x13DB JUMP JUMPDEST SWAP4 POP POP DUP3 DUP2 EQ PUSH2 0xBC1 JUMPI PUSH2 0xBC0 DUP5 DUP3 DUP6 PUSH2 0xBE1 JUMP JUMPDEST JUMPDEST POP DUP1 DUP1 PUSH2 0xBCD SWAP1 PUSH2 0xFB4 JUMP JUMPDEST SWAP2 POP POP PUSH2 0xB31 JUMP JUMPDEST POP DUP2 SWAP3 POP POP POP SWAP3 SWAP2 POP POP JUMP JUMPDEST PUSH1 0x0 DUP4 DUP4 DUP2 MLOAD DUP2 LT PUSH2 0xBF6 JUMPI PUSH2 0xBF5 PUSH2 0x10FE JUMP JUMPDEST JUMPDEST PUSH1 0x20 MUL PUSH1 0x20 ADD ADD MLOAD SWAP1 POP DUP4 DUP3 DUP2 MLOAD DUP2 LT PUSH2 0xC13 JUMPI PUSH2 0xC12 PUSH2 0x10FE JUMP JUMPDEST JUMPDEST PUSH1 0x20 MUL PUSH1 0x20 ADD ADD MLOAD DUP5 DUP5 DUP2 MLOAD DUP2 LT PUSH2 0xC2E JUMPI PUSH2 0xC2D PUSH2 0x10FE JUMP JUMPDEST JUMPDEST PUSH1 0x20 MUL PUSH1 0x20 ADD ADD DUP2 DUP2 MSTORE POP POP DUP1 DUP5 DUP4 DUP2 MLOAD DUP2 LT PUSH2 0xC4E JUMPI PUSH2 0xC4D PUSH2 0x10FE JUMP JUMPDEST JUMPDEST PUSH1 0x20 MUL PUSH1 0x20 ADD ADD DUP2 DUP2 MSTORE POP POP POP POP POP POP JUMP JUMPDEST PUSH1 0x0 DUP1 REVERT JUMPDEST PUSH1 0x0 DUP2 ISZERO ISZERO SWAP1 POP SWAP2 SWAP1 POP JUMP JUMPDEST PUSH2 0xC7A DUP2 PUSH2 0xC65 JUMP JUMPDEST DUP2 EQ PUSH2 0xC85 JUMPI PUSH1 0x0 DUP1 REVERT JUMPDEST POP JUMP JUMPDEST PUSH1 0x0 DUP2 CALLDATALOAD SWAP1 POP PUSH2 0xC97 DUP2 PUSH2 0xC71 JUMP JUMPDEST SWAP3 SWAP2 POP POP JUMP JUMPDEST PUSH1 0x0 DUP2 SWAP1 POP SWAP2 SWAP1 POP JUMP JUMPDEST PUSH2 0xCB0 DUP2 PUSH2 0xC9D JUMP JUMPDEST DUP2 EQ PUSH2 0xCBB JUMPI PUSH1 0x0 DUP1 REVERT JUMPDEST POP JUMP JUMPDEST PUSH1 0x0 DUP2 CALLDATALOAD SWAP1 POP PUSH2 0xCCD DUP2 PUSH2 0xCA7 JUMP JUMPDEST SWAP3 SWAP2 POP POP JUMP JUMPDEST PUSH1 0x0 DUP1 PUSH1 0x40 DUP4 DUP6 SUB SLT ISZERO PUSH2 0xCEA JUMPI PUSH2 0xCE9 PUSH2 0xC60 JUMP JUMPDEST JUMPDEST PUSH1 0x0 PUSH2 0xCF8 DUP6 DUP3 DUP7 ADD PUSH2 0xC88 JUMP JUMPDEST SWAP3 POP POP PUSH1 0x20 PUSH2 0xD09 DUP6 DUP3 DUP7 ADD PUSH2 0xCBE JUMP JUMPDEST SWAP2 POP POP SWAP3 POP SWAP3 SWAP1 POP JUMP JUMPDEST PUSH1 0x0 PUSH20 0xFFFFFFFFFFFFFFFFFFFFFFFFFFFFFFFFFFFFFFFF DUP3 AND SWAP1 POP SWAP2 SWAP1 POP JUMP JUMPDEST PUSH1 0x0 PUSH2 0xD3E DUP3 PUSH2 0xD13 JUMP JUMPDEST SWAP1 POP SWAP2 SWAP1 POP JUMP JUMPDEST PUSH2 0xD4E DUP2 PUSH2 0xD33 JUMP JUMPDEST DUP2 EQ PUSH2 0xD59 JUMPI PUSH1 0x0 DUP1 REVERT JUMPDEST POP JUMP JUMPDEST PUSH1 0x0 DUP2 CALLDATALOAD SWAP1 POP PUSH2 0xD6B DUP2 PUSH2 0xD45 JUMP JUMPDEST SWAP3 SWAP2 POP POP JUMP JUMPDEST PUSH1 0x0 PUSH1 0x20 DUP3 DUP5 SUB SLT ISZERO PUSH2 0xD87 JUMPI PUSH2 0xD86 PUSH2 0xC60 JUMP JUMPDEST JUMPDEST PUSH1 0x0 PUSH2 0xD95 DUP5 DUP3 DUP6 ADD PUSH2 0xD5C JUMP JUMPDEST SWAP2 POP POP SWAP3 SWAP2 POP POP JUMP JUMPDEST PUSH1 0x0 DUP3 DUP3 MSTORE PUSH1 0x20 DUP3 ADD SWAP1 POP SWAP3 SWAP2 POP POP JUMP JUMPDEST PUSH32 0x5761697420666F7220766F74696E672074696D6520706C656173652100000000 PUSH1 0x0 DUP3 ADD MSTORE POP JUMP JUMPDEST PUSH1 0x0 PUSH2 0xDE5 PUSH1 0x1C DUP4 PUSH2 0xD9E JUMP JUMPDEST SWAP2 POP PUSH2 0xDF0 DUP3 PUSH2 0xDAF JUMP JUMPDEST PUSH1 0x20 DUP3 ADD SWAP1 POP SWAP2 SWAP1 POP JUMP JUMPDEST PUSH1 0x0 PUSH1 0x20 DUP3 ADD SWAP1 POP DUP2 DUP2 SUB PUSH1 0x0 DUP4 ADD MSTORE PUSH2 0xE14 DUP2 PUSH2 0xDD8 JUMP JUMPDEST SWAP1 POP SWAP2 SWAP1 POP JUMP JUMPDEST PUSH32 0x596F7520617265206E6F7420656C696769626C6520746F20766F746500000000 PUSH1 0x0 DUP3 ADD MSTORE POP JUMP JUMPDEST PUSH1 0x0 PUSH2 0xE51 PUSH1 0x1C DUP4 PUSH2 0xD9E JUMP JUMPDEST SWAP2 POP PUSH2 0xE5C DUP3 PUSH2 0xE1B JUMP JUMPDEST PUSH1 0x20 DUP3 ADD SWAP1 POP SWAP2 SWAP1 POP JUMP JUMPDEST PUSH1 0x0 PUSH1 0x20 DUP3 ADD SWAP1 POP DUP2 DUP2 SUB PUSH1 0x0 DUP4 ADD MSTORE PUSH2 0xE80 DUP2 PUSH2 0xE44 JUMP JUMPDEST SWAP1 POP SWAP2 SWAP1 POP JUMP JUMPDEST PUSH32 0x596F75206D757374206861766520746865207265717569726564204E46542061 PUSH1 0x0 DUP3 ADD MSTORE PUSH32 0x6E6420455243323020746F6B656E20746F20766F746500000000000000000000 PUSH1 0x20 DUP3 ADD MSTORE POP JUMP JUMPDEST PUSH1 0x0 PUSH2 0xEE3 PUSH1 0x36 DUP4 PUSH2 0xD9E JUMP JUMPDEST SWAP2 POP PUSH2 0xEEE DUP3 PUSH2 0xE87 JUMP JUMPDEST PUSH1 0x40 DUP3 ADD SWAP1 POP SWAP2 SWAP1 POP JUMP JUMPDEST PUSH1 0x0 PUSH1 0x20 DUP3 ADD SWAP1 POP DUP2 DUP2 SUB PUSH1 0x0 DUP4 ADD MSTORE PUSH2 0xF12 DUP2 PUSH2 0xED6 JUMP JUMPDEST SWAP1 POP SWAP2 SWAP1 POP JUMP JUMPDEST PUSH32 0x596F75206861766520616C726561647920766F74656400000000000000000000 PUSH1 0x0 DUP3 ADD MSTORE POP JUMP JUMPDEST PUSH1 0x0 PUSH2 0xF4F PUSH1 0x16 DUP4 PUSH2 0xD9E JUMP JUMPDEST SWAP2 POP PUSH2 0xF5A DUP3 PUSH2 0xF19 JUMP JUMPDEST PUSH1 0x20 DUP3 ADD SWAP1 POP SWAP2 SWAP1 POP JUMP JUMPDEST PUSH1 0x0 PUSH1 0x20 DUP3 ADD SWAP1 POP DUP2 DUP2 SUB PUSH1 0x0 DUP4 ADD MSTORE PUSH2 0xF7E DUP2 PUSH2 0xF42 JUMP JUMPDEST SWAP1 POP SWAP2 SWAP1 POP JUMP JUMPDEST PUSH32 0x4E487B7100000000000000000000000000000000000000000000000000000000 PUSH1 0x0 MSTORE PUSH1 0x11 PUSH1 0x4 MSTORE PUSH1 0x24 PUSH1 0x0 REVERT JUMPDEST PUSH1 0x0 PUSH2 0xFBF DUP3 PUSH2 0xC9D JUMP JUMPDEST SWAP2 POP PUSH32 0xFFFFFFFFFFFFFFFFFFFFFFFFFFFFFFFFFFFFFFFFFFFFFFFFFFFFFFFFFFFFFFFF DUP3 SUB PUSH2 0xFF1 JUMPI PUSH2 0xFF0 PUSH2 0xF85 JUMP JUMPDEST JUMPDEST PUSH1 0x1 DUP3 ADD SWAP1 POP SWAP2 SWAP1 POP JUMP JUMPDEST PUSH2 0x1005 DUP2 PUSH2 0xC65 JUMP JUMPDEST DUP3 MSTORE POP POP JUMP JUMPDEST PUSH1 0x0 PUSH1 0x20 DUP3 ADD SWAP1 POP PUSH2 0x1020 PUSH1 0x0 DUP4 ADD DUP5 PUSH2 0xFFC JUMP JUMPDEST SWAP3 SWAP2 POP POP JUMP JUMPDEST PUSH32 0x496E76616C696420616464726573730000000000000000000000000000000000 PUSH1 0x0 DUP3 ADD MSTORE POP JUMP JUMPDEST PUSH1 0x0 PUSH2 0x105C PUSH1 0xF DUP4 PUSH2 0xD9E JUMP JUMPDEST SWAP2 POP PUSH2 0x1067 DUP3 PUSH2 0x1026 JUMP JUMPDEST PUSH1 0x20 DUP3 ADD SWAP1 POP SWAP2 SWAP1 POP JUMP JUMPDEST PUSH1 0x0 PUSH1 0x20 DUP3 ADD SWAP1 POP DUP2 DUP2 SUB PUSH1 0x0 DUP4 ADD MSTORE PUSH2 0x108B DUP2 PUSH2 0x104F JUMP JUMPDEST SWAP1 POP SWAP2 SWAP1 POP JUMP JUMPDEST PUSH32 0x4E6F7420656E6F75676820766F7465727320746F2073656C6563742066726F6D PUSH1 0x0 DUP3 ADD MSTORE POP JUMP JUMPDEST PUSH1 0x0 PUSH2 0x10C8 PUSH1 0x20 DUP4 PUSH2 0xD9E JUMP JUMPDEST SWAP2 POP PUSH2 0x10D3 DUP3 PUSH2 0x1092 JUMP JUMPDEST PUSH1 0x20 DUP3 ADD SWAP1 POP SWAP2 SWAP1 POP JUMP JUMPDEST PUSH1 0x0 PUSH1 0x20 DUP3 ADD SWAP1 POP DUP2 DUP2 SUB PUSH1 0x0 DUP4 ADD MSTORE PUSH2 0x10F7 DUP2 PUSH2 0x10BB JUMP JUMPDEST SWAP1 POP SWAP2 SWAP1 POP JUMP JUMPDEST PUSH32 0x4E487B7100000000000000000000000000000000000000000000000000000000 PUSH1 0x0 MSTORE PUSH1 0x32 PUSH1 0x4 MSTORE PUSH1 0x24 PUSH1 0x0 REVERT JUMPDEST PUSH2 0x1136 DUP2 PUSH2 0xC9D JUMP JUMPDEST DUP3 MSTORE POP POP JUMP JUMPDEST PUSH1 0x0 PUSH1 0x20 DUP3 ADD SWAP1 POP PUSH2 0x1151 PUSH1 0x0 DUP4 ADD DUP5 PUSH2 0x112D JUMP JUMPDEST SWAP3 SWAP2 POP POP JUMP JUMPDEST PUSH1 0x0 DUP2 MLOAD SWAP1 POP PUSH2 0x1166 DUP2 PUSH2 0xD45 JUMP JUMPDEST SWAP3 SWAP2 POP POP JUMP JUMPDEST PUSH1 0x0 PUSH1 0x20 DUP3 DUP5 SUB SLT ISZERO PUSH2 0x1182 JUMPI PUSH2 0x1181 PUSH2 0xC60 JUMP JUMPDEST JUMPDEST PUSH1 0x0 PUSH2 0x1190 DUP5 DUP3 DUP6 ADD PUSH2 0x1157 JUMP JUMPDEST SWAP2 POP POP SWAP3 SWAP2 POP POP JUMP JUMPDEST PUSH2 0x11A2 DUP2 PUSH2 0xD33 JUMP JUMPDEST DUP3 MSTORE POP POP JUMP JUMPDEST PUSH1 0x0 PUSH1 0x20 DUP3 ADD SWAP1 POP PUSH2 0x11BD PUSH1 0x0 DUP4 ADD DUP5 PUSH2 0x1199 JUMP JUMPDEST SWAP3 SWAP2 POP POP JUMP JUMPDEST PUSH1 0x0 DUP2 MLOAD SWAP1 POP PUSH2 0x11D2 DUP2 PUSH2 0xCA7 JUMP JUMPDEST SWAP3 SWAP2 POP POP JUMP JUMPDEST PUSH1 0x0 PUSH1 0x20 DUP3 DUP5 SUB SLT ISZERO PUSH2 0x11EE JUMPI PUSH2 0x11ED PUSH2 0xC60 JUMP JUMPDEST JUMPDEST PUSH1 0x0 PUSH2 0x11FC DUP5 DUP3 DUP6 ADD PUSH2 0x11C3 JUMP JUMPDEST SWAP2 POP POP SWAP3 SWAP2 POP POP JUMP JUMPDEST PUSH32 0x436F756E74206D757374206265206C657373207468616E206F7220657175616C PUSH1 0x0 DUP3 ADD MSTORE PUSH32 0x20746F20746865206D6178696D756D0000000000000000000000000000000000 PUSH1 0x20 DUP3 ADD MSTORE POP JUMP JUMPDEST PUSH1 0x0 PUSH2 0x1261 PUSH1 0x2F DUP4 PUSH2 0xD9E JUMP JUMPDEST SWAP2 POP PUSH2 0x126C DUP3 PUSH2 0x1205 JUMP JUMPDEST PUSH1 0x40 DUP3 ADD SWAP1 POP SWAP2 SWAP1 POP JUMP JUMPDEST PUSH1 0x0 PUSH1 0x20 DUP3 ADD SWAP1 POP DUP2 DUP2 SUB PUSH1 0x0 DUP4 ADD MSTORE PUSH2 0x1290 DUP2 PUSH2 0x1254 JUMP JUMPDEST SWAP1 POP SWAP2 SWAP1 POP JUMP JUMPDEST PUSH32 0x4E487B7100000000000000000000000000000000000000000000000000000000 PUSH1 0x0 MSTORE PUSH1 0x41 PUSH1 0x4 MSTORE PUSH1 0x24 PUSH1 0x0 REVERT JUMPDEST PUSH1 0x0 PUSH2 0x12D1 DUP3 PUSH2 0xC9D JUMP JUMPDEST SWAP2 POP PUSH2 0x12DC DUP4 PUSH2 0xC9D JUMP JUMPDEST SWAP3 POP DUP3 DUP3 SUB SWAP1 POP DUP2 DUP2 GT ISZERO PUSH2 0x12F4 JUMPI PUSH2 0x12F3 PUSH2 0xF85 JUMP JUMPDEST JUMPDEST SWAP3 SWAP2 POP POP JUMP JUMPDEST PUSH1 0x0 PUSH2 0x1305 DUP3 PUSH2 0xC9D JUMP JUMPDEST SWAP2 POP PUSH2 0x1310 DUP4 PUSH2 0xC9D JUMP JUMPDEST SWAP3 POP DUP3 DUP3 ADD SWAP1 POP DUP1 DUP3 GT ISZERO PUSH2 0x1328 JUMPI PUSH2 0x1327 PUSH2 0xF85 JUMP JUMPDEST JUMPDEST SWAP3 SWAP2 POP POP JUMP JUMPDEST PUSH1 0x0 DUP2 SWAP1 POP SWAP2 SWAP1 POP JUMP JUMPDEST PUSH2 0x1349 PUSH2 0x1344 DUP3 PUSH2 0xC9D JUMP JUMPDEST PUSH2 0x132E JUMP JUMPDEST DUP3 MSTORE POP POP JUMP JUMPDEST PUSH1 0x0 PUSH2 0x135B DUP3 DUP6 PUSH2 0x1338 JUMP JUMPDEST PUSH1 0x20 DUP3 ADD SWAP2 POP PUSH2 0x136B DUP3 DUP5 PUSH2 0x1338 JUMP JUMPDEST PUSH1 0x20 DUP3 ADD SWAP2 POP DUP2 SWAP1 POP SWAP4 SWAP3 POP POP POP JUMP JUMPDEST PUSH32 0x4E487B7100000000000000000000000000000000000000000000000000000000 PUSH1 0x0 MSTORE PUSH1 0x12 PUSH1 0x4 MSTORE PUSH1 0x24 PUSH1 0x0 REVERT JUMPDEST PUSH1 0x0 PUSH2 0x13B5 DUP3 PUSH2 0xC9D JUMP JUMPDEST SWAP2 POP PUSH2 0x13C0 DUP4 PUSH2 0xC9D JUMP JUMPDEST SWAP3 POP DUP3 PUSH2 0x13D0 JUMPI PUSH2 0x13CF PUSH2 0x137B JUMP JUMPDEST JUMPDEST DUP3 DUP3 MOD SWAP1 POP SWAP3 SWAP2 POP POP JUMP JUMPDEST PUSH1 0x0 PUSH2 0x13E6 DUP3 PUSH2 0xC9D JUMP JUMPDEST SWAP2 POP PUSH1 0x0 DUP3 SUB PUSH2 0x13F9 JUMPI PUSH2 0x13F8 PUSH2 0xF85 JUMP JUMPDEST JUMPDEST PUSH1 0x1 DUP3 SUB SWAP1 POP SWAP2 SWAP1 POP JUMP INVALID LOG2 PUSH5 0x6970667358 0x22 SLT KECCAK256 PUSH26 0x8C41555761AE44F32BEC15F158E129518831135203B5D1B97DB5 LOG4 MULMOD PC PUSH18 0x9664736F6C63430008110033000000000000 "},"methodIdentifiers":{"addVoters(address)":"4c105d1b","getRandomVoters()":"60777e1d","vote(bool,uint256)":"10e6e06c"}}}}}