{"contracts/facets/MerkleTreeFacet.sol":{"MerkleTreeFacet":{"abi":[{"anonymous":false,"inputs":[{"indexed":true,"internalType":"address","name":"previousOwner","type":"address"},{"indexed":true,"internalType":"address","name":"newOwner","type":"address"}],"name":"OwnershipTransferred","type":"event"},{"inputs":[],"name":"getMerkleRoot","outputs":[{"internalType":"bytes32","name":"","type":"bytes32"}],"stateMutability":"view","type":"function"},{"inputs":[],"name":"merkleRoot","outputs":[{"internalType":"bytes32","name":"","type":"bytes32"}],"stateMutability":"view","type":"function"},{"inputs":[],"name":"owner","outputs":[{"internalType":"address","name":"","type":"address"}],"stateMutability":"view","type":"function"},{"inputs":[],"name":"renounceOwnership","outputs":[],"stateMutability":"nonpayable","type":"function"},{"inputs":[{"internalType":"bytes32","name":"merkleRootHash","type":"bytes32"}],"name":"setMerkleRoot","outputs":[],"stateMutability":"nonpayable","type":"function"},{"inputs":[{"internalType":"address","name":"newOwner","type":"address"}],"name":"transferOwnership","outputs":[],"stateMutability":"nonpayable","type":"function"},{"inputs":[{"internalType":"bytes32[]","name":"_merkleProof","type":"bytes32[]"}],"name":"verifyAddress","outputs":[{"internalType":"bool","name":"","type":"bool"}],"stateMutability":"view","type":"function"},{"inputs":[{"internalType":"bytes32[]","name":"_merkleProof","type":"bytes32[]"}],"name":"whitelistFunc","outputs":[],"stateMutability":"view","type":"function"}],"evm":{"bytecode":{"linkReferences":{},"object":"608060405234801561001057600080fd5b5061002d61002261003260201b60201c565b61003a60201b60201c565b6100fe565b600033905090565b60008060009054906101000a900473ffffffffffffffffffffffffffffffffffffffff169050816000806101000a81548173ffffffffffffffffffffffffffffffffffffffff021916908373ffffffffffffffffffffffffffffffffffffffff1602179055508173ffffffffffffffffffffffffffffffffffffffff168173ffffffffffffffffffffffffffffffffffffffff167f8be0079c531659141344cd1fd0a4f28419497f9722a3daafe3b4186f6b6457e060405160405180910390a35050565b6109dc8061010d6000396000f3fe608060405234801561001057600080fd5b50600436106100885760003560e01c80637cb647591161005b5780637cb64759146101035780638da5cb5b1461011f5780639837bcfe1461013d578063f2fde38b1461015957610088565b80632eb4a7ab1461008d57806336591c21146100ab57806349590657146100db578063715018a6146100f9575b600080fd5b610095610175565b6040516100a291906104fd565b60405180910390f35b6100c560048036038101906100c09190610587565b61017b565b6040516100d291906105ef565b60405180910390f35b6100e36101be565b6040516100f091906104fd565b60405180910390f35b6101016101c8565b005b61011d60048036038101906101189190610636565b6101dc565b005b6101276101ee565b60405161013491906106a4565b60405180910390f35b61015760048036038101906101529190610587565b610217565b005b610173600480360381019061016e91906106eb565b610264565b005b60015481565b6000803360405160200161018f9190610760565b6040516020818303038152906040528051906020012090506101b58484600154846102e7565b91505092915050565b6000600154905090565b6101d0610300565b6101da600061037e565b565b6101e4610300565b8060018190555050565b60008060009054906101000a900473ffffffffffffffffffffffffffffffffffffffff16905090565b610221828261017b565b610260576040517f08c379a0000000000000000000000000000000000000000000000000000000008152600401610257906107d8565b60405180910390fd5b5050565b61026c610300565b600073ffffffffffffffffffffffffffffffffffffffff168173ffffffffffffffffffffffffffffffffffffffff16036102db576040517f08c379a00000000000000000000000000000000000000000000000000000000081526004016102d29061086a565b60405180910390fd5b6102e48161037e565b50565b6000826102f5868685610442565b149050949350505050565b61030861049a565b73ffffffffffffffffffffffffffffffffffffffff166103266101ee565b73ffffffffffffffffffffffffffffffffffffffff161461037c576040517f08c379a0000000000000000000000000000000000000000000000000000000008152600401610373906108d6565b60405180910390fd5b565b60008060009054906101000a900473ffffffffffffffffffffffffffffffffffffffff169050816000806101000a81548173ffffffffffffffffffffffffffffffffffffffff021916908373ffffffffffffffffffffffffffffffffffffffff1602179055508173ffffffffffffffffffffffffffffffffffffffff168173ffffffffffffffffffffffffffffffffffffffff167f8be0079c531659141344cd1fd0a4f28419497f9722a3daafe3b4186f6b6457e060405160405180910390a35050565b60008082905060005b8585905081101561048e576104798287878481811061046d5761046c6108f6565b5b905060200201356104a2565b915080806104869061095e565b91505061044b565b50809150509392505050565b600033905090565b60008183106104ba576104b582846104cd565b6104c5565b6104c483836104cd565b5b905092915050565b600082600052816020526040600020905092915050565b6000819050919050565b6104f7816104e4565b82525050565b600060208201905061051260008301846104ee565b92915050565b600080fd5b600080fd5b600080fd5b600080fd5b600080fd5b60008083601f84011261054757610546610522565b5b8235905067ffffffffffffffff81111561056457610563610527565b5b6020830191508360208202830111156105805761057f61052c565b5b9250929050565b6000806020838503121561059e5761059d610518565b5b600083013567ffffffffffffffff8111156105bc576105bb61051d565b5b6105c885828601610531565b92509250509250929050565b60008115159050919050565b6105e9816105d4565b82525050565b600060208201905061060460008301846105e0565b92915050565b610613816104e4565b811461061e57600080fd5b50565b6000813590506106308161060a565b92915050565b60006020828403121561064c5761064b610518565b5b600061065a84828501610621565b91505092915050565b600073ffffffffffffffffffffffffffffffffffffffff82169050919050565b600061068e82610663565b9050919050565b61069e81610683565b82525050565b60006020820190506106b96000830184610695565b92915050565b6106c881610683565b81146106d357600080fd5b50565b6000813590506106e5816106bf565b92915050565b60006020828403121561070157610700610518565b5b600061070f848285016106d6565b91505092915050565b60008160601b9050919050565b600061073082610718565b9050919050565b600061074282610725565b9050919050565b61075a61075582610683565b610737565b82525050565b600061076c8284610749565b60148201915081905092915050565b600082825260208201905092915050565b7f494e56414c49445f50524f4f4600000000000000000000000000000000000000600082015250565b60006107c2600d8361077b565b91506107cd8261078c565b602082019050919050565b600060208201905081810360008301526107f1816107b5565b9050919050565b7f4f776e61626c653a206e6577206f776e657220697320746865207a65726f206160008201527f6464726573730000000000000000000000000000000000000000000000000000602082015250565b600061085460268361077b565b915061085f826107f8565b604082019050919050565b6000602082019050818103600083015261088381610847565b9050919050565b7f4f776e61626c653a2063616c6c6572206973206e6f7420746865206f776e6572600082015250565b60006108c060208361077b565b91506108cb8261088a565b602082019050919050565b600060208201905081810360008301526108ef816108b3565b9050919050565b7f4e487b7100000000000000000000000000000000000000000000000000000000600052603260045260246000fd5b7f4e487b7100000000000000000000000000000000000000000000000000000000600052601160045260246000fd5b6000819050919050565b600061096982610954565b91507fffffffffffffffffffffffffffffffffffffffffffffffffffffffffffffffff820361099b5761099a610925565b5b60018201905091905056fea26469706673582212204fb7473189d65a400d40961c8ad54f2c174d6a7669da1ef2f006f8a9a87c83d064736f6c63430008110033","opcodes":"PUSH1 0x80 PUSH1 0x40 MSTORE CALLVALUE DUP1 ISZERO PUSH2 0x10 JUMPI PUSH1 0x0 DUP1 REVERT JUMPDEST POP PUSH2 0x2D PUSH2 0x22 PUSH2 0x32 PUSH1 0x20 SHL PUSH1 0x20 SHR JUMP JUMPDEST PUSH2 0x3A PUSH1 0x20 SHL PUSH1 0x20 SHR JUMP JUMPDEST PUSH2 0xFE JUMP JUMPDEST PUSH1 0x0 CALLER SWAP1 POP SWAP1 JUMP JUMPDEST PUSH1 0x0 DUP1 PUSH1 0x0 SWAP1 SLOAD SWAP1 PUSH2 0x100 EXP SWAP1 DIV PUSH20 0xFFFFFFFFFFFFFFFFFFFFFFFFFFFFFFFFFFFFFFFF AND SWAP1 POP DUP2 PUSH1 0x0 DUP1 PUSH2 0x100 EXP DUP2 SLOAD DUP2 PUSH20 0xFFFFFFFFFFFFFFFFFFFFFFFFFFFFFFFFFFFFFFFF MUL NOT AND SWAP1 DUP4 PUSH20 0xFFFFFFFFFFFFFFFFFFFFFFFFFFFFFFFFFFFFFFFF AND MUL OR SWAP1 SSTORE POP DUP2 PUSH20 0xFFFFFFFFFFFFFFFFFFFFFFFFFFFFFFFFFFFFFFFF AND DUP2 PUSH20 0xFFFFFFFFFFFFFFFFFFFFFFFFFFFFFFFFFFFFFFFF AND PUSH32 0x8BE0079C531659141344CD1FD0A4F28419497F9722A3DAAFE3B4186F6B6457E0 PUSH1 0x40 MLOAD PUSH1 0x40 MLOAD DUP1 SWAP2 SUB SWAP1 LOG3 POP POP JUMP JUMPDEST PUSH2 0x9DC DUP1 PUSH2 0x10D PUSH1 0x0 CODECOPY PUSH1 0x0 RETURN INVALID PUSH1 0x80 PUSH1 0x40 MSTORE CALLVALUE DUP1 ISZERO PUSH2 0x10 JUMPI PUSH1 0x0 DUP1 REVERT JUMPDEST POP PUSH1 0x4 CALLDATASIZE LT PUSH2 0x88 JUMPI PUSH1 0x0 CALLDATALOAD PUSH1 0xE0 SHR DUP1 PUSH4 0x7CB64759 GT PUSH2 0x5B JUMPI DUP1 PUSH4 0x7CB64759 EQ PUSH2 0x103 JUMPI DUP1 PUSH4 0x8DA5CB5B EQ PUSH2 0x11F JUMPI DUP1 PUSH4 0x9837BCFE EQ PUSH2 0x13D JUMPI DUP1 PUSH4 0xF2FDE38B EQ PUSH2 0x159 JUMPI PUSH2 0x88 JUMP JUMPDEST DUP1 PUSH4 0x2EB4A7AB EQ PUSH2 0x8D JUMPI DUP1 PUSH4 0x36591C21 EQ PUSH2 0xAB JUMPI DUP1 PUSH4 0x49590657 EQ PUSH2 0xDB JUMPI DUP1 PUSH4 0x715018A6 EQ PUSH2 0xF9 JUMPI JUMPDEST PUSH1 0x0 DUP1 REVERT JUMPDEST PUSH2 0x95 PUSH2 0x175 JUMP JUMPDEST PUSH1 0x40 MLOAD PUSH2 0xA2 SWAP2 SWAP1 PUSH2 0x4FD JUMP JUMPDEST PUSH1 0x40 MLOAD DUP1 SWAP2 SUB SWAP1 RETURN JUMPDEST PUSH2 0xC5 PUSH1 0x4 DUP1 CALLDATASIZE SUB DUP2 ADD SWAP1 PUSH2 0xC0 SWAP2 SWAP1 PUSH2 0x587 JUMP JUMPDEST PUSH2 0x17B JUMP JUMPDEST PUSH1 0x40 MLOAD PUSH2 0xD2 SWAP2 SWAP1 PUSH2 0x5EF JUMP JUMPDEST PUSH1 0x40 MLOAD DUP1 SWAP2 SUB SWAP1 RETURN JUMPDEST PUSH2 0xE3 PUSH2 0x1BE JUMP JUMPDEST PUSH1 0x40 MLOAD PUSH2 0xF0 SWAP2 SWAP1 PUSH2 0x4FD JUMP JUMPDEST PUSH1 0x40 MLOAD DUP1 SWAP2 SUB SWAP1 RETURN JUMPDEST PUSH2 0x101 PUSH2 0x1C8 JUMP JUMPDEST STOP JUMPDEST PUSH2 0x11D PUSH1 0x4 DUP1 CALLDATASIZE SUB DUP2 ADD SWAP1 PUSH2 0x118 SWAP2 SWAP1 PUSH2 0x636 JUMP JUMPDEST PUSH2 0x1DC JUMP JUMPDEST STOP JUMPDEST PUSH2 0x127 PUSH2 0x1EE JUMP JUMPDEST PUSH1 0x40 MLOAD PUSH2 0x134 SWAP2 SWAP1 PUSH2 0x6A4 JUMP JUMPDEST PUSH1 0x40 MLOAD DUP1 SWAP2 SUB SWAP1 RETURN JUMPDEST PUSH2 0x157 PUSH1 0x4 DUP1 CALLDATASIZE SUB DUP2 ADD SWAP1 PUSH2 0x152 SWAP2 SWAP1 PUSH2 0x587 JUMP JUMPDEST PUSH2 0x217 JUMP JUMPDEST STOP JUMPDEST PUSH2 0x173 PUSH1 0x4 DUP1 CALLDATASIZE SUB DUP2 ADD SWAP1 PUSH2 0x16E SWAP2 SWAP1 PUSH2 0x6EB JUMP JUMPDEST PUSH2 0x264 JUMP JUMPDEST STOP JUMPDEST PUSH1 0x1 SLOAD DUP2 JUMP JUMPDEST PUSH1 0x0 DUP1 CALLER PUSH1 0x40 MLOAD PUSH1 0x20 ADD PUSH2 0x18F SWAP2 SWAP1 PUSH2 0x760 JUMP JUMPDEST PUSH1 0x40 MLOAD PUSH1 0x20 DUP2 DUP4 SUB SUB DUP2 MSTORE SWAP1 PUSH1 0x40 MSTORE DUP1 MLOAD SWAP1 PUSH1 0x20 ADD KECCAK256 SWAP1 POP PUSH2 0x1B5 DUP5 DUP5 PUSH1 0x1 SLOAD DUP5 PUSH2 0x2E7 JUMP JUMPDEST SWAP2 POP POP SWAP3 SWAP2 POP POP JUMP JUMPDEST PUSH1 0x0 PUSH1 0x1 SLOAD SWAP1 POP SWAP1 JUMP JUMPDEST PUSH2 0x1D0 PUSH2 0x300 JUMP JUMPDEST PUSH2 0x1DA PUSH1 0x0 PUSH2 0x37E JUMP JUMPDEST JUMP JUMPDEST PUSH2 0x1E4 PUSH2 0x300 JUMP JUMPDEST DUP1 PUSH1 0x1 DUP2 SWAP1 SSTORE POP POP JUMP JUMPDEST PUSH1 0x0 DUP1 PUSH1 0x0 SWAP1 SLOAD SWAP1 PUSH2 0x100 EXP SWAP1 DIV PUSH20 0xFFFFFFFFFFFFFFFFFFFFFFFFFFFFFFFFFFFFFFFF AND SWAP1 POP SWAP1 JUMP JUMPDEST PUSH2 0x221 DUP3 DUP3 PUSH2 0x17B JUMP JUMPDEST PUSH2 0x260 JUMPI PUSH1 0x40 MLOAD PUSH32 0x8C379A000000000000000000000000000000000000000000000000000000000 DUP2 MSTORE PUSH1 0x4 ADD PUSH2 0x257 SWAP1 PUSH2 0x7D8 JUMP JUMPDEST PUSH1 0x40 MLOAD DUP1 SWAP2 SUB SWAP1 REVERT JUMPDEST POP POP JUMP JUMPDEST PUSH2 0x26C PUSH2 0x300 JUMP JUMPDEST PUSH1 0x0 PUSH20 0xFFFFFFFFFFFFFFFFFFFFFFFFFFFFFFFFFFFFFFFF AND DUP2 PUSH20 0xFFFFFFFFFFFFFFFFFFFFFFFFFFFFFFFFFFFFFFFF AND SUB PUSH2 0x2DB JUMPI PUSH1 0x40 MLOAD PUSH32 0x8C379A000000000000000000000000000000000000000000000000000000000 DUP2 MSTORE PUSH1 0x4 ADD PUSH2 0x2D2 SWAP1 PUSH2 0x86A JUMP JUMPDEST PUSH1 0x40 MLOAD DUP1 SWAP2 SUB SWAP1 REVERT JUMPDEST PUSH2 0x2E4 DUP2 PUSH2 0x37E JUMP JUMPDEST POP JUMP JUMPDEST PUSH1 0x0 DUP3 PUSH2 0x2F5 DUP7 DUP7 DUP6 PUSH2 0x442 JUMP JUMPDEST EQ SWAP1 POP SWAP5 SWAP4 POP POP POP POP JUMP JUMPDEST PUSH2 0x308 PUSH2 0x49A JUMP JUMPDEST PUSH20 0xFFFFFFFFFFFFFFFFFFFFFFFFFFFFFFFFFFFFFFFF AND PUSH2 0x326 PUSH2 0x1EE JUMP JUMPDEST PUSH20 0xFFFFFFFFFFFFFFFFFFFFFFFFFFFFFFFFFFFFFFFF AND EQ PUSH2 0x37C JUMPI PUSH1 0x40 MLOAD PUSH32 0x8C379A000000000000000000000000000000000000000000000000000000000 DUP2 MSTORE PUSH1 0x4 ADD PUSH2 0x373 SWAP1 PUSH2 0x8D6 JUMP JUMPDEST PUSH1 0x40 MLOAD DUP1 SWAP2 SUB SWAP1 REVERT JUMPDEST JUMP JUMPDEST PUSH1 0x0 DUP1 PUSH1 0x0 SWAP1 SLOAD SWAP1 PUSH2 0x100 EXP SWAP1 DIV PUSH20 0xFFFFFFFFFFFFFFFFFFFFFFFFFFFFFFFFFFFFFFFF AND SWAP1 POP DUP2 PUSH1 0x0 DUP1 PUSH2 0x100 EXP DUP2 SLOAD DUP2 PUSH20 0xFFFFFFFFFFFFFFFFFFFFFFFFFFFFFFFFFFFFFFFF MUL NOT AND SWAP1 DUP4 PUSH20 0xFFFFFFFFFFFFFFFFFFFFFFFFFFFFFFFFFFFFFFFF AND MUL OR SWAP1 SSTORE POP DUP2 PUSH20 0xFFFFFFFFFFFFFFFFFFFFFFFFFFFFFFFFFFFFFFFF AND DUP2 PUSH20 0xFFFFFFFFFFFFFFFFFFFFFFFFFFFFFFFFFFFFFFFF AND PUSH32 0x8BE0079C531659141344CD1FD0A4F28419497F9722A3DAAFE3B4186F6B6457E0 PUSH1 0x40 MLOAD PUSH1 0x40 MLOAD DUP1 SWAP2 SUB SWAP1 LOG3 POP POP JUMP JUMPDEST PUSH1 0x0 DUP1 DUP3 SWAP1 POP PUSH1 0x0 JUMPDEST DUP6 DUP6 SWAP1 POP DUP2 LT ISZERO PUSH2 0x48E JUMPI PUSH2 0x479 DUP3 DUP8 DUP8 DUP5 DUP2 DUP2 LT PUSH2 0x46D JUMPI PUSH2 0x46C PUSH2 0x8F6 JUMP JUMPDEST JUMPDEST SWAP1 POP PUSH1 0x20 MUL ADD CALLDATALOAD PUSH2 0x4A2 JUMP JUMPDEST SWAP2 POP DUP1 DUP1 PUSH2 0x486 SWAP1 PUSH2 0x95E JUMP JUMPDEST SWAP2 POP POP PUSH2 0x44B JUMP JUMPDEST POP DUP1 SWAP2 POP POP SWAP4 SWAP3 POP POP POP JUMP JUMPDEST PUSH1 0x0 CALLER SWAP1 POP SWAP1 JUMP JUMPDEST PUSH1 0x0 DUP2 DUP4 LT PUSH2 0x4BA JUMPI PUSH2 0x4B5 DUP3 DUP5 PUSH2 0x4CD JUMP JUMPDEST PUSH2 0x4C5 JUMP JUMPDEST PUSH2 0x4C4 DUP4 DUP4 PUSH2 0x4CD JUMP JUMPDEST JUMPDEST SWAP1 POP SWAP3 SWAP2 POP POP JUMP JUMPDEST PUSH1 0x0 DUP3 PUSH1 0x0 MSTORE DUP2 PUSH1 0x20 MSTORE PUSH1 0x40 PUSH1 0x0 KECCAK256 SWAP1 POP SWAP3 SWAP2 POP POP JUMP JUMPDEST PUSH1 0x0 DUP2 SWAP1 POP SWAP2 SWAP1 POP JUMP JUMPDEST PUSH2 0x4F7 DUP2 PUSH2 0x4E4 JUMP JUMPDEST DUP3 MSTORE POP POP JUMP JUMPDEST PUSH1 0x0 PUSH1 0x20 DUP3 ADD SWAP1 POP PUSH2 0x512 PUSH1 0x0 DUP4 ADD DUP5 PUSH2 0x4EE JUMP JUMPDEST SWAP3 SWAP2 POP POP JUMP JUMPDEST PUSH1 0x0 DUP1 REVERT JUMPDEST PUSH1 0x0 DUP1 REVERT JUMPDEST PUSH1 0x0 DUP1 REVERT JUMPDEST PUSH1 0x0 DUP1 REVERT JUMPDEST PUSH1 0x0 DUP1 REVERT JUMPDEST PUSH1 0x0 DUP1 DUP4 PUSH1 0x1F DUP5 ADD SLT PUSH2 0x547 JUMPI PUSH2 0x546 PUSH2 0x522 JUMP JUMPDEST JUMPDEST DUP3 CALLDATALOAD SWAP1 POP PUSH8 0xFFFFFFFFFFFFFFFF DUP2 GT ISZERO PUSH2 0x564 JUMPI PUSH2 0x563 PUSH2 0x527 JUMP JUMPDEST JUMPDEST PUSH1 0x20 DUP4 ADD SWAP2 POP DUP4 PUSH1 0x20 DUP3 MUL DUP4 ADD GT ISZERO PUSH2 0x580 JUMPI PUSH2 0x57F PUSH2 0x52C JUMP JUMPDEST JUMPDEST SWAP3 POP SWAP3 SWAP1 POP JUMP JUMPDEST PUSH1 0x0 DUP1 PUSH1 0x20 DUP4 DUP6 SUB SLT ISZERO PUSH2 0x59E JUMPI PUSH2 0x59D PUSH2 0x518 JUMP JUMPDEST JUMPDEST PUSH1 0x0 DUP4 ADD CALLDATALOAD PUSH8 0xFFFFFFFFFFFFFFFF DUP2 GT ISZERO PUSH2 0x5BC JUMPI PUSH2 0x5BB PUSH2 0x51D JUMP JUMPDEST JUMPDEST PUSH2 0x5C8 DUP6 DUP3 DUP7 ADD PUSH2 0x531 JUMP JUMPDEST SWAP3 POP SWAP3 POP POP SWAP3 POP SWAP3 SWAP1 POP JUMP JUMPDEST PUSH1 0x0 DUP2 ISZERO ISZERO SWAP1 POP SWAP2 SWAP1 POP JUMP JUMPDEST PUSH2 0x5E9 DUP2 PUSH2 0x5D4 JUMP JUMPDEST DUP3 MSTORE POP POP JUMP JUMPDEST PUSH1 0x0 PUSH1 0x20 DUP3 ADD SWAP1 POP PUSH2 0x604 PUSH1 0x0 DUP4 ADD DUP5 PUSH2 0x5E0 JUMP JUMPDEST SWAP3 SWAP2 POP POP JUMP JUMPDEST PUSH2 0x613 DUP2 PUSH2 0x4E4 JUMP JUMPDEST DUP2 EQ PUSH2 0x61E JUMPI PUSH1 0x0 DUP1 REVERT JUMPDEST POP JUMP JUMPDEST PUSH1 0x0 DUP2 CALLDATALOAD SWAP1 POP PUSH2 0x630 DUP2 PUSH2 0x60A JUMP JUMPDEST SWAP3 SWAP2 POP POP JUMP JUMPDEST PUSH1 0x0 PUSH1 0x20 DUP3 DUP5 SUB SLT ISZERO PUSH2 0x64C JUMPI PUSH2 0x64B PUSH2 0x518 JUMP JUMPDEST JUMPDEST PUSH1 0x0 PUSH2 0x65A DUP5 DUP3 DUP6 ADD PUSH2 0x621 JUMP JUMPDEST SWAP2 POP POP SWAP3 SWAP2 POP POP JUMP JUMPDEST PUSH1 0x0 PUSH20 0xFFFFFFFFFFFFFFFFFFFFFFFFFFFFFFFFFFFFFFFF DUP3 AND SWAP1 POP SWAP2 SWAP1 POP JUMP JUMPDEST PUSH1 0x0 PUSH2 0x68E DUP3 PUSH2 0x663 JUMP JUMPDEST SWAP1 POP SWAP2 SWAP1 POP JUMP JUMPDEST PUSH2 0x69E DUP2 PUSH2 0x683 JUMP JUMPDEST DUP3 MSTORE POP POP JUMP JUMPDEST PUSH1 0x0 PUSH1 0x20 DUP3 ADD SWAP1 POP PUSH2 0x6B9 PUSH1 0x0 DUP4 ADD DUP5 PUSH2 0x695 JUMP JUMPDEST SWAP3 SWAP2 POP POP JUMP JUMPDEST PUSH2 0x6C8 DUP2 PUSH2 0x683 JUMP JUMPDEST DUP2 EQ PUSH2 0x6D3 JUMPI PUSH1 0x0 DUP1 REVERT JUMPDEST POP JUMP JUMPDEST PUSH1 0x0 DUP2 CALLDATALOAD SWAP1 POP PUSH2 0x6E5 DUP2 PUSH2 0x6BF JUMP JUMPDEST SWAP3 SWAP2 POP POP JUMP JUMPDEST PUSH1 0x0 PUSH1 0x20 DUP3 DUP5 SUB SLT ISZERO PUSH2 0x701 JUMPI PUSH2 0x700 PUSH2 0x518 JUMP JUMPDEST JUMPDEST PUSH1 0x0 PUSH2 0x70F DUP5 DUP3 DUP6 ADD PUSH2 0x6D6 JUMP JUMPDEST SWAP2 POP POP SWAP3 SWAP2 POP POP JUMP JUMPDEST PUSH1 0x0 DUP2 PUSH1 0x60 SHL SWAP1 POP SWAP2 SWAP1 POP JUMP JUMPDEST PUSH1 0x0 PUSH2 0x730 DUP3 PUSH2 0x718 JUMP JUMPDEST SWAP1 POP SWAP2 SWAP1 POP JUMP JUMPDEST PUSH1 0x0 PUSH2 0x742 DUP3 PUSH2 0x725 JUMP JUMPDEST SWAP1 POP SWAP2 SWAP1 POP JUMP JUMPDEST PUSH2 0x75A PUSH2 0x755 DUP3 PUSH2 0x683 JUMP JUMPDEST PUSH2 0x737 JUMP JUMPDEST DUP3 MSTORE POP POP JUMP JUMPDEST PUSH1 0x0 PUSH2 0x76C DUP3 DUP5 PUSH2 0x749 JUMP JUMPDEST PUSH1 0x14 DUP3 ADD SWAP2 POP DUP2 SWAP1 POP SWAP3 SWAP2 POP POP JUMP JUMPDEST PUSH1 0x0 DUP3 DUP3 MSTORE PUSH1 0x20 DUP3 ADD SWAP1 POP SWAP3 SWAP2 POP POP JUMP JUMPDEST PUSH32 0x494E56414C49445F50524F4F4600000000000000000000000000000000000000 PUSH1 0x0 DUP3 ADD MSTORE POP JUMP JUMPDEST PUSH1 0x0 PUSH2 0x7C2 PUSH1 0xD DUP4 PUSH2 0x77B JUMP JUMPDEST SWAP2 POP PUSH2 0x7CD DUP3 PUSH2 0x78C JUMP JUMPDEST PUSH1 0x20 DUP3 ADD SWAP1 POP SWAP2 SWAP1 POP JUMP JUMPDEST PUSH1 0x0 PUSH1 0x20 DUP3 ADD SWAP1 POP DUP2 DUP2 SUB PUSH1 0x0 DUP4 ADD MSTORE PUSH2 0x7F1 DUP2 PUSH2 0x7B5 JUMP JUMPDEST SWAP1 POP SWAP2 SWAP1 POP JUMP JUMPDEST PUSH32 0x4F776E61626C653A206E6577206F776E657220697320746865207A65726F2061 PUSH1 0x0 DUP3 ADD MSTORE PUSH32 0x6464726573730000000000000000000000000000000000000000000000000000 PUSH1 0x20 DUP3 ADD MSTORE POP JUMP JUMPDEST PUSH1 0x0 PUSH2 0x854 PUSH1 0x26 DUP4 PUSH2 0x77B JUMP JUMPDEST SWAP2 POP PUSH2 0x85F DUP3 PUSH2 0x7F8 JUMP JUMPDEST PUSH1 0x40 DUP3 ADD SWAP1 POP SWAP2 SWAP1 POP JUMP JUMPDEST PUSH1 0x0 PUSH1 0x20 DUP3 ADD SWAP1 POP DUP2 DUP2 SUB PUSH1 0x0 DUP4 ADD MSTORE PUSH2 0x883 DUP2 PUSH2 0x847 JUMP JUMPDEST SWAP1 POP SWAP2 SWAP1 POP JUMP JUMPDEST PUSH32 0x4F776E61626C653A2063616C6C6572206973206E6F7420746865206F776E6572 PUSH1 0x0 DUP3 ADD MSTORE POP JUMP JUMPDEST PUSH1 0x0 PUSH2 0x8C0 PUSH1 0x20 DUP4 PUSH2 0x77B JUMP JUMPDEST SWAP2 POP PUSH2 0x8CB DUP3 PUSH2 0x88A JUMP JUMPDEST PUSH1 0x20 DUP3 ADD SWAP1 POP SWAP2 SWAP1 POP JUMP JUMPDEST PUSH1 0x0 PUSH1 0x20 DUP3 ADD SWAP1 POP DUP2 DUP2 SUB PUSH1 0x0 DUP4 ADD MSTORE PUSH2 0x8EF DUP2 PUSH2 0x8B3 JUMP JUMPDEST SWAP1 POP SWAP2 SWAP1 POP JUMP JUMPDEST PUSH32 0x4E487B7100000000000000000000000000000000000000000000000000000000 PUSH1 0x0 MSTORE PUSH1 0x32 PUSH1 0x4 MSTORE PUSH1 0x24 PUSH1 0x0 REVERT JUMPDEST PUSH32 0x4E487B7100000000000000000000000000000000000000000000000000000000 PUSH1 0x0 MSTORE PUSH1 0x11 PUSH1 0x4 MSTORE PUSH1 0x24 PUSH1 0x0 REVERT JUMPDEST PUSH1 0x0 DUP2 SWAP1 POP SWAP2 SWAP1 POP JUMP JUMPDEST PUSH1 0x0 PUSH2 0x969 DUP3 PUSH2 0x954 JUMP JUMPDEST SWAP2 POP PUSH32 0xFFFFFFFFFFFFFFFFFFFFFFFFFFFFFFFFFFFFFFFFFFFFFFFFFFFFFFFFFFFFFFFF DUP3 SUB PUSH2 0x99B JUMPI PUSH2 0x99A PUSH2 0x925 JUMP JUMPDEST JUMPDEST PUSH1 0x1 DUP3 ADD SWAP1 POP SWAP2 SWAP1 POP JUMP INVALID LOG2 PUSH5 0x6970667358 0x22 SLT KECCAK256 0x4F 0xB7 SELFBALANCE BALANCE DUP10 0xD6 GAS BLOCKHASH 0xD BLOCKHASH SWAP7 SHR DUP11 0xD5 0x4F 0x2C OR 0x4D PUSH11 0x7669DA1EF2F006F8A9A87C DUP4 0xD0 PUSH5 0x736F6C6343 STOP ADDMOD GT STOP CALLER "},"methodIdentifiers":{"getMerkleRoot()":"49590657","merkleRoot()":"2eb4a7ab","owner()":"8da5cb5b","renounceOwnership()":"715018a6","setMerkleRoot(bytes32)":"7cb64759","transferOwnership(address)":"f2fde38b","verifyAddress(bytes32[])":"36591c21","whitelistFunc(bytes32[])":"9837bcfe"}}}}}