{
  "_format": "hh-sol-artifact-1",
  "contractName": "MerkleTreeFacet",
  "sourceName": "contracts/facets/MerkleTreeFacet.sol",
  "abi": [
    {
      "anonymous": false,
      "inputs": [
        {
          "indexed": true,
          "internalType": "address",
          "name": "previousOwner",
          "type": "address"
        },
        {
          "indexed": true,
          "internalType": "address",
          "name": "newOwner",
          "type": "address"
        }
      ],
      "name": "OwnershipTransferred",
      "type": "event"
    },
    {
      "inputs": [],
      "name": "getMerkleRoot",
      "outputs": [
        {
          "internalType": "bytes32",
          "name": "",
          "type": "bytes32"
        }
      ],
      "stateMutability": "view",
      "type": "function"
    },
    {
      "inputs": [],
      "name": "merkleRoot",
      "outputs": [
        {
          "internalType": "bytes32",
          "name": "",
          "type": "bytes32"
        }
      ],
      "stateMutability": "view",
      "type": "function"
    },
    {
      "inputs": [],
      "name": "owner",
      "outputs": [
        {
          "internalType": "address",
          "name": "",
          "type": "address"
        }
      ],
      "stateMutability": "view",
      "type": "function"
    },
    {
      "inputs": [],
      "name": "renounceOwnership",
      "outputs": [],
      "stateMutability": "nonpayable",
      "type": "function"
    },
    {
      "inputs": [
        {
          "internalType": "address",
          "name": "newOwner",
          "type": "address"
        }
      ],
      "name": "transferOwnership",
      "outputs": [],
      "stateMutability": "nonpayable",
      "type": "function"
    },
    {
      "inputs": [
        {
          "internalType": "bytes32[]",
          "name": "_merkleProof",
          "type": "bytes32[]"
        }
      ],
      "name": "verifyAddress",
      "outputs": [
        {
          "internalType": "bool",
          "name": "",
          "type": "bool"
        }
      ],
      "stateMutability": "view",
      "type": "function"
    },
    {
      "inputs": [
        {
          "internalType": "bytes32[]",
          "name": "_merkleProof",
          "type": "bytes32[]"
        }
      ],
      "name": "whitelistFunc",
      "outputs": [],
      "stateMutability": "view",
      "type": "function"
    }
  ],
  "bytecode": "0x608060405234801561001057600080fd5b5061002d61002261003260201b60201c565b61003a60201b60201c565b6100fe565b600033905090565b60008060009054906101000a900473ffffffffffffffffffffffffffffffffffffffff169050816000806101000a81548173ffffffffffffffffffffffffffffffffffffffff021916908373ffffffffffffffffffffffffffffffffffffffff1602179055508173ffffffffffffffffffffffffffffffffffffffff168173ffffffffffffffffffffffffffffffffffffffff167f8be0079c531659141344cd1fd0a4f28419497f9722a3daafe3b4186f6b6457e060405160405180910390a35050565b61094a8061010d6000396000f3fe608060405234801561001057600080fd5b506004361061007d5760003560e01c8063715018a61161005b578063715018a6146100ee5780638da5cb5b146100f85780639837bcfe14610116578063f2fde38b146101325761007d565b80632eb4a7ab1461008257806336591c21146100a057806349590657146100d0575b600080fd5b61008a61014e565b60405161009791906104c4565b60405180910390f35b6100ba60048036038101906100b5919061054e565b610154565b6040516100c791906105b6565b60405180910390f35b6100d8610197565b6040516100e591906104c4565b60405180910390f35b6100f66101a1565b005b6101006101b5565b60405161010d9190610612565b60405180910390f35b610130600480360381019061012b919061054e565b6101de565b005b61014c60048036038101906101479190610659565b61022b565b005b60015481565b6000803360405160200161016891906106ce565b60405160208183030381529060405280519060200120905061018e8484600154846102ae565b91505092915050565b6000600154905090565b6101a96102c7565b6101b36000610345565b565b60008060009054906101000a900473ffffffffffffffffffffffffffffffffffffffff16905090565b6101e88282610154565b610227576040517f08c379a000000000000000000000000000000000000000000000000000000000815260040161021e90610746565b60405180910390fd5b5050565b6102336102c7565b600073ffffffffffffffffffffffffffffffffffffffff168173ffffffffffffffffffffffffffffffffffffffff16036102a2576040517f08c379a0000000000000000000000000000000000000000000000000000000008152600401610299906107d8565b60405180910390fd5b6102ab81610345565b50565b6000826102bc868685610409565b149050949350505050565b6102cf610461565b73ffffffffffffffffffffffffffffffffffffffff166102ed6101b5565b73ffffffffffffffffffffffffffffffffffffffff1614610343576040517f08c379a000000000000000000000000000000000000000000000000000000000815260040161033a90610844565b60405180910390fd5b565b60008060009054906101000a900473ffffffffffffffffffffffffffffffffffffffff169050816000806101000a81548173ffffffffffffffffffffffffffffffffffffffff021916908373ffffffffffffffffffffffffffffffffffffffff1602179055508173ffffffffffffffffffffffffffffffffffffffff168173ffffffffffffffffffffffffffffffffffffffff167f8be0079c531659141344cd1fd0a4f28419497f9722a3daafe3b4186f6b6457e060405160405180910390a35050565b60008082905060005b85859050811015610455576104408287878481811061043457610433610864565b5b90506020020135610469565b9150808061044d906108cc565b915050610412565b50809150509392505050565b600033905090565b60008183106104815761047c8284610494565b61048c565b61048b8383610494565b5b905092915050565b600082600052816020526040600020905092915050565b6000819050919050565b6104be816104ab565b82525050565b60006020820190506104d960008301846104b5565b92915050565b600080fd5b600080fd5b600080fd5b600080fd5b600080fd5b60008083601f84011261050e5761050d6104e9565b5b8235905067ffffffffffffffff81111561052b5761052a6104ee565b5b602083019150836020820283011115610547576105466104f3565b5b9250929050565b60008060208385031215610565576105646104df565b5b600083013567ffffffffffffffff811115610583576105826104e4565b5b61058f858286016104f8565b92509250509250929050565b60008115159050919050565b6105b08161059b565b82525050565b60006020820190506105cb60008301846105a7565b92915050565b600073ffffffffffffffffffffffffffffffffffffffff82169050919050565b60006105fc826105d1565b9050919050565b61060c816105f1565b82525050565b60006020820190506106276000830184610603565b92915050565b610636816105f1565b811461064157600080fd5b50565b6000813590506106538161062d565b92915050565b60006020828403121561066f5761066e6104df565b5b600061067d84828501610644565b91505092915050565b60008160601b9050919050565b600061069e82610686565b9050919050565b60006106b082610693565b9050919050565b6106c86106c3826105f1565b6106a5565b82525050565b60006106da82846106b7565b60148201915081905092915050565b600082825260208201905092915050565b7f494e56414c49445f50524f4f4600000000000000000000000000000000000000600082015250565b6000610730600d836106e9565b915061073b826106fa565b602082019050919050565b6000602082019050818103600083015261075f81610723565b9050919050565b7f4f776e61626c653a206e6577206f776e657220697320746865207a65726f206160008201527f6464726573730000000000000000000000000000000000000000000000000000602082015250565b60006107c26026836106e9565b91506107cd82610766565b604082019050919050565b600060208201905081810360008301526107f1816107b5565b9050919050565b7f4f776e61626c653a2063616c6c6572206973206e6f7420746865206f776e6572600082015250565b600061082e6020836106e9565b9150610839826107f8565b602082019050919050565b6000602082019050818103600083015261085d81610821565b9050919050565b7f4e487b7100000000000000000000000000000000000000000000000000000000600052603260045260246000fd5b7f4e487b7100000000000000000000000000000000000000000000000000000000600052601160045260246000fd5b6000819050919050565b60006108d7826108c2565b91507fffffffffffffffffffffffffffffffffffffffffffffffffffffffffffffffff820361090957610908610893565b5b60018201905091905056fea2646970667358221220d54fb7b6fcf792eb690a562e38101e3ff48211103337949423a3551094e26a4a64736f6c63430008110033",
  "linkReferences": {},
  "deployedLinkReferences": {}
}