{
  "_format": "hh-sol-artifact-1",
  "contractName": "MerkleTreeFacet",
  "sourceName": "contracts/facets/MerkleTreeFacet.sol",
  "abi": [
    {
      "inputs": [],
      "name": "getMerkleRoot",
      "outputs": [
        {
          "internalType": "bytes32",
          "name": "",
          "type": "bytes32"
        }
      ],
      "stateMutability": "view",
      "type": "function"
    },
    {
      "inputs": [],
      "name": "merkleRoot",
      "outputs": [
        {
          "internalType": "bytes32",
          "name": "",
          "type": "bytes32"
        }
      ],
      "stateMutability": "view",
      "type": "function"
    },
    {
      "inputs": [
        {
          "internalType": "bytes32[]",
          "name": "_merkleProof",
          "type": "bytes32[]"
        }
      ],
      "name": "verifyAddress",
      "outputs": [
        {
          "internalType": "bool",
          "name": "",
          "type": "bool"
        }
      ],
      "stateMutability": "view",
      "type": "function"
    },
    {
      "inputs": [
        {
          "internalType": "bytes32[]",
          "name": "_merkleProof",
          "type": "bytes32[]"
        }
      ],
      "name": "whitelistFunc",
      "outputs": [],
      "stateMutability": "view",
      "type": "function"
    }
  ],
  "bytecode": "0x608060405234801561001057600080fd5b50610549806100206000396000f3fe608060405234801561001057600080fd5b506004361061004c5760003560e01c80632eb4a7ab1461005157806336591c211461006f578063495906571461009f5780639837bcfe146100bd575b600080fd5b6100596100d9565b6040516100669190610244565b60405180910390f35b610089600480360381019061008491906102ce565b6100df565b6040516100969190610336565b60405180910390f35b6100a7610122565b6040516100b49190610244565b60405180910390f35b6100d760048036038101906100d291906102ce565b61012b565b005b60005481565b600080336040516020016100f391906103cb565b604051602081830303815290604052805190602001209050610119848460005484610178565b91505092915050565b60008054905090565b61013582826100df565b610174576040517f08c379a000000000000000000000000000000000000000000000000000000000815260040161016b90610443565b60405180910390fd5b5050565b600082610186868685610191565b149050949350505050565b60008082905060005b858590508110156101dd576101c8828787848181106101bc576101bb610463565b5b905060200201356101e9565b915080806101d5906104cb565b91505061019a565b50809150509392505050565b6000818310610201576101fc8284610214565b61020c565b61020b8383610214565b5b905092915050565b600082600052816020526040600020905092915050565b6000819050919050565b61023e8161022b565b82525050565b60006020820190506102596000830184610235565b92915050565b600080fd5b600080fd5b600080fd5b600080fd5b600080fd5b60008083601f84011261028e5761028d610269565b5b8235905067ffffffffffffffff8111156102ab576102aa61026e565b5b6020830191508360208202830111156102c7576102c6610273565b5b9250929050565b600080602083850312156102e5576102e461025f565b5b600083013567ffffffffffffffff81111561030357610302610264565b5b61030f85828601610278565b92509250509250929050565b60008115159050919050565b6103308161031b565b82525050565b600060208201905061034b6000830184610327565b92915050565b600073ffffffffffffffffffffffffffffffffffffffff82169050919050565b600061037c82610351565b9050919050565b60008160601b9050919050565b600061039b82610383565b9050919050565b60006103ad82610390565b9050919050565b6103c56103c082610371565b6103a2565b82525050565b60006103d782846103b4565b60148201915081905092915050565b600082825260208201905092915050565b7f494e56414c49445f50524f4f4600000000000000000000000000000000000000600082015250565b600061042d600d836103e6565b9150610438826103f7565b602082019050919050565b6000602082019050818103600083015261045c81610420565b9050919050565b7f4e487b7100000000000000000000000000000000000000000000000000000000600052603260045260246000fd5b7f4e487b7100000000000000000000000000000000000000000000000000000000600052601160045260246000fd5b6000819050919050565b60006104d6826104c1565b91507fffffffffffffffffffffffffffffffffffffffffffffffffffffffffffffffff820361050857610507610492565b5b60018201905091905056fea2646970667358221220699723f2124ebf73c6d540c029e557616991821fd11985e596b02ce7ae7acbc164736f6c63430008110033",
  "linkReferences": {},
  "deployedLinkReferences": {}
}