{
  "_format": "hh-sol-artifact-1",
  "contractName": "MerkleTreeFacet",
  "sourceName": "contracts/facets/MerkleTreeFacet.sol",
  "abi": [
    {
      "anonymous": false,
      "inputs": [
        {
          "indexed": true,
          "internalType": "address",
          "name": "previousOwner",
          "type": "address"
        },
        {
          "indexed": true,
          "internalType": "address",
          "name": "newOwner",
          "type": "address"
        }
      ],
      "name": "OwnershipTransferred",
      "type": "event"
    },
    {
      "inputs": [],
      "name": "merkleRoot",
      "outputs": [
        {
          "internalType": "bytes32",
          "name": "",
          "type": "bytes32"
        }
      ],
      "stateMutability": "view",
      "type": "function"
    },
    {
      "inputs": [],
      "name": "owner",
      "outputs": [
        {
          "internalType": "address",
          "name": "",
          "type": "address"
        }
      ],
      "stateMutability": "view",
      "type": "function"
    },
    {
      "inputs": [],
      "name": "renounceOwnership",
      "outputs": [],
      "stateMutability": "nonpayable",
      "type": "function"
    },
    {
      "inputs": [
        {
          "internalType": "bytes32",
          "name": "merkleRootHash",
          "type": "bytes32"
        }
      ],
      "name": "setMerkleRoot",
      "outputs": [],
      "stateMutability": "nonpayable",
      "type": "function"
    },
    {
      "inputs": [
        {
          "internalType": "address",
          "name": "newOwner",
          "type": "address"
        }
      ],
      "name": "transferOwnership",
      "outputs": [],
      "stateMutability": "nonpayable",
      "type": "function"
    },
    {
      "inputs": [
        {
          "internalType": "bytes32[]",
          "name": "_merkleProof",
          "type": "bytes32[]"
        }
      ],
      "name": "whitelistFunc",
      "outputs": [],
      "stateMutability": "nonpayable",
      "type": "function"
    }
  ],
  "bytecode": "0x608060405234801561001057600080fd5b5061002d61002261003260201b60201c565b61003a60201b60201c565b6100fe565b600033905090565b60008060009054906101000a900473ffffffffffffffffffffffffffffffffffffffff169050816000806101000a81548173ffffffffffffffffffffffffffffffffffffffff021916908373ffffffffffffffffffffffffffffffffffffffff1602179055508173ffffffffffffffffffffffffffffffffffffffff168173ffffffffffffffffffffffffffffffffffffffff167f8be0079c531659141344cd1fd0a4f28419497f9722a3daafe3b4186f6b6457e060405160405180910390a35050565b6109668061010d6000396000f3fe608060405234801561001057600080fd5b50600436106100625760003560e01c80632eb4a7ab14610067578063715018a6146100855780637cb647591461008f5780638da5cb5b146100ab5780639837bcfe146100c9578063f2fde38b146100e5575b600080fd5b61006f610101565b60405161007c91906104bc565b60405180910390f35b61008d610107565b005b6100a960048036038101906100a4919061050d565b61011b565b005b6100b361012d565b6040516100c0919061057b565b60405180910390f35b6100e360048036038101906100de91906105fb565b610156565b005b6100ff60048036038101906100fa9190610674565b6101a3565b005b60015481565b61010f610227565b61011960006102a5565b565b610123610227565b8060018190555050565b60008060009054906101000a900473ffffffffffffffffffffffffffffffffffffffff16905090565b6101608282610369565b61019f576040517f08c379a0000000000000000000000000000000000000000000000000000000008152600401610196906106fe565b60405180910390fd5b5050565b6101ab610227565b600073ffffffffffffffffffffffffffffffffffffffff168173ffffffffffffffffffffffffffffffffffffffff16141561021b576040517f08c379a000000000000000000000000000000000000000000000000000000000815260040161021290610790565b60405180910390fd5b610224816102a5565b50565b61022f6103ec565b73ffffffffffffffffffffffffffffffffffffffff1661024d61012d565b73ffffffffffffffffffffffffffffffffffffffff16146102a3576040517f08c379a000000000000000000000000000000000000000000000000000000000815260040161029a906107fc565b60405180910390fd5b565b60008060009054906101000a900473ffffffffffffffffffffffffffffffffffffffff169050816000806101000a81548173ffffffffffffffffffffffffffffffffffffffff021916908373ffffffffffffffffffffffffffffffffffffffff1602179055508173ffffffffffffffffffffffffffffffffffffffff168173ffffffffffffffffffffffffffffffffffffffff167f8be0079c531659141344cd1fd0a4f28419497f9722a3daafe3b4186f6b6457e060405160405180910390a35050565b6000803360405160200161037d9190610864565b6040516020818303038152906040528051906020012090506103e3848480806020026020016040519081016040528093929190818152602001838360200280828437600081840152601f19601f82011690508083019250505050505050600154836103f4565b91505092915050565b600033905090565b600082610401858461040b565b1490509392505050565b60008082905060005b845181101561045657610441828683815181106104345761043361087f565b5b6020026020010151610461565b9150808061044e906108e7565b915050610414565b508091505092915050565b600081831061047957610474828461048c565b610484565b610483838361048c565b5b905092915050565b600082600052816020526040600020905092915050565b6000819050919050565b6104b6816104a3565b82525050565b60006020820190506104d160008301846104ad565b92915050565b600080fd5b600080fd5b6104ea816104a3565b81146104f557600080fd5b50565b600081359050610507816104e1565b92915050565b600060208284031215610523576105226104d7565b5b6000610531848285016104f8565b91505092915050565b600073ffffffffffffffffffffffffffffffffffffffff82169050919050565b60006105658261053a565b9050919050565b6105758161055a565b82525050565b6000602082019050610590600083018461056c565b92915050565b600080fd5b600080fd5b600080fd5b60008083601f8401126105bb576105ba610596565b5b8235905067ffffffffffffffff8111156105d8576105d761059b565b5b6020830191508360208202830111156105f4576105f36105a0565b5b9250929050565b60008060208385031215610612576106116104d7565b5b600083013567ffffffffffffffff8111156106305761062f6104dc565b5b61063c858286016105a5565b92509250509250929050565b6106518161055a565b811461065c57600080fd5b50565b60008135905061066e81610648565b92915050565b60006020828403121561068a576106896104d7565b5b60006106988482850161065f565b91505092915050565b600082825260208201905092915050565b7f494e56414c49445f50524f4f4600000000000000000000000000000000000000600082015250565b60006106e8600d836106a1565b91506106f3826106b2565b602082019050919050565b60006020820190508181036000830152610717816106db565b9050919050565b7f4f776e61626c653a206e6577206f776e657220697320746865207a65726f206160008201527f6464726573730000000000000000000000000000000000000000000000000000602082015250565b600061077a6026836106a1565b91506107858261071e565b604082019050919050565b600060208201905081810360008301526107a98161076d565b9050919050565b7f4f776e61626c653a2063616c6c6572206973206e6f7420746865206f776e6572600082015250565b60006107e66020836106a1565b91506107f1826107b0565b602082019050919050565b60006020820190508181036000830152610815816107d9565b9050919050565b60008160601b9050919050565b60006108348261081c565b9050919050565b600061084682610829565b9050919050565b61085e6108598261055a565b61083b565b82525050565b6000610870828461084d565b60148201915081905092915050565b7f4e487b7100000000000000000000000000000000000000000000000000000000600052603260045260246000fd5b7f4e487b7100000000000000000000000000000000000000000000000000000000600052601160045260246000fd5b6000819050919050565b60006108f2826108dd565b91507fffffffffffffffffffffffffffffffffffffffffffffffffffffffffffffffff821415610925576109246108ae565b5b60018201905091905056fea26469706673582212203de83758456e72e40ac26826828b1bd3471fe8821eaa191fce5f37c0c5ff9b7b64736f6c63430008090033",
  "linkReferences": {},
  "deployedLinkReferences": {}
}