{
  "_format": "hh-sol-artifact-1",
  "contractName": "MerkleTreeFacet",
  "sourceName": "contracts/facets/MerkleTreeFacet.sol",
  "abi": [
    {
      "anonymous": false,
      "inputs": [
        {
          "indexed": true,
          "internalType": "address",
          "name": "previousOwner",
          "type": "address"
        },
        {
          "indexed": true,
          "internalType": "address",
          "name": "newOwner",
          "type": "address"
        }
      ],
      "name": "OwnershipTransferred",
      "type": "event"
    },
    {
      "inputs": [],
      "name": "getMerkleRoot",
      "outputs": [
        {
          "internalType": "bytes32",
          "name": "",
          "type": "bytes32"
        }
      ],
      "stateMutability": "view",
      "type": "function"
    },
    {
      "inputs": [],
      "name": "merkleRoot",
      "outputs": [
        {
          "internalType": "bytes32",
          "name": "",
          "type": "bytes32"
        }
      ],
      "stateMutability": "view",
      "type": "function"
    },
    {
      "inputs": [],
      "name": "owner",
      "outputs": [
        {
          "internalType": "address",
          "name": "",
          "type": "address"
        }
      ],
      "stateMutability": "view",
      "type": "function"
    },
    {
      "inputs": [],
      "name": "renounceOwnership",
      "outputs": [],
      "stateMutability": "nonpayable",
      "type": "function"
    },
    {
      "inputs": [
        {
          "internalType": "bytes32",
          "name": "merkleRootHash",
          "type": "bytes32"
        }
      ],
      "name": "setMerkleRoot",
      "outputs": [],
      "stateMutability": "nonpayable",
      "type": "function"
    },
    {
      "inputs": [
        {
          "internalType": "address",
          "name": "newOwner",
          "type": "address"
        }
      ],
      "name": "transferOwnership",
      "outputs": [],
      "stateMutability": "nonpayable",
      "type": "function"
    },
    {
      "inputs": [
        {
          "internalType": "bytes32[]",
          "name": "_merkleProof",
          "type": "bytes32[]"
        }
      ],
      "name": "verifyAddress",
      "outputs": [
        {
          "internalType": "bool",
          "name": "",
          "type": "bool"
        }
      ],
      "stateMutability": "view",
      "type": "function"
    },
    {
      "inputs": [
        {
          "internalType": "bytes32[]",
          "name": "_merkleProof",
          "type": "bytes32[]"
        }
      ],
      "name": "whitelistFunc",
      "outputs": [],
      "stateMutability": "view",
      "type": "function"
    }
  ],
  "bytecode": "0x608060405234801561001057600080fd5b5061002d61002261003260201b60201c565b61003a60201b60201c565b6100fe565b600033905090565b60008060009054906101000a900473ffffffffffffffffffffffffffffffffffffffff169050816000806101000a81548173ffffffffffffffffffffffffffffffffffffffff021916908373ffffffffffffffffffffffffffffffffffffffff1602179055508173ffffffffffffffffffffffffffffffffffffffff168173ffffffffffffffffffffffffffffffffffffffff167f8be0079c531659141344cd1fd0a4f28419497f9722a3daafe3b4186f6b6457e060405160405180910390a35050565b6109dc8061010d6000396000f3fe608060405234801561001057600080fd5b50600436106100885760003560e01c80637cb647591161005b5780637cb64759146101035780638da5cb5b1461011f5780639837bcfe1461013d578063f2fde38b1461015957610088565b80632eb4a7ab1461008d57806336591c21146100ab57806349590657146100db578063715018a6146100f9575b600080fd5b610095610175565b6040516100a291906104fd565b60405180910390f35b6100c560048036038101906100c09190610587565b61017b565b6040516100d291906105ef565b60405180910390f35b6100e36101be565b6040516100f091906104fd565b60405180910390f35b6101016101c8565b005b61011d60048036038101906101189190610636565b6101dc565b005b6101276101ee565b60405161013491906106a4565b60405180910390f35b61015760048036038101906101529190610587565b610217565b005b610173600480360381019061016e91906106eb565b610264565b005b60015481565b6000803360405160200161018f9190610760565b6040516020818303038152906040528051906020012090506101b58484600154846102e7565b91505092915050565b6000600154905090565b6101d0610300565b6101da600061037e565b565b6101e4610300565b8060018190555050565b60008060009054906101000a900473ffffffffffffffffffffffffffffffffffffffff16905090565b610221828261017b565b610260576040517f08c379a0000000000000000000000000000000000000000000000000000000008152600401610257906107d8565b60405180910390fd5b5050565b61026c610300565b600073ffffffffffffffffffffffffffffffffffffffff168173ffffffffffffffffffffffffffffffffffffffff16036102db576040517f08c379a00000000000000000000000000000000000000000000000000000000081526004016102d29061086a565b60405180910390fd5b6102e48161037e565b50565b6000826102f5868685610442565b149050949350505050565b61030861049a565b73ffffffffffffffffffffffffffffffffffffffff166103266101ee565b73ffffffffffffffffffffffffffffffffffffffff161461037c576040517f08c379a0000000000000000000000000000000000000000000000000000000008152600401610373906108d6565b60405180910390fd5b565b60008060009054906101000a900473ffffffffffffffffffffffffffffffffffffffff169050816000806101000a81548173ffffffffffffffffffffffffffffffffffffffff021916908373ffffffffffffffffffffffffffffffffffffffff1602179055508173ffffffffffffffffffffffffffffffffffffffff168173ffffffffffffffffffffffffffffffffffffffff167f8be0079c531659141344cd1fd0a4f28419497f9722a3daafe3b4186f6b6457e060405160405180910390a35050565b60008082905060005b8585905081101561048e576104798287878481811061046d5761046c6108f6565b5b905060200201356104a2565b915080806104869061095e565b91505061044b565b50809150509392505050565b600033905090565b60008183106104ba576104b582846104cd565b6104c5565b6104c483836104cd565b5b905092915050565b600082600052816020526040600020905092915050565b6000819050919050565b6104f7816104e4565b82525050565b600060208201905061051260008301846104ee565b92915050565b600080fd5b600080fd5b600080fd5b600080fd5b600080fd5b60008083601f84011261054757610546610522565b5b8235905067ffffffffffffffff81111561056457610563610527565b5b6020830191508360208202830111156105805761057f61052c565b5b9250929050565b6000806020838503121561059e5761059d610518565b5b600083013567ffffffffffffffff8111156105bc576105bb61051d565b5b6105c885828601610531565b92509250509250929050565b60008115159050919050565b6105e9816105d4565b82525050565b600060208201905061060460008301846105e0565b92915050565b610613816104e4565b811461061e57600080fd5b50565b6000813590506106308161060a565b92915050565b60006020828403121561064c5761064b610518565b5b600061065a84828501610621565b91505092915050565b600073ffffffffffffffffffffffffffffffffffffffff82169050919050565b600061068e82610663565b9050919050565b61069e81610683565b82525050565b60006020820190506106b96000830184610695565b92915050565b6106c881610683565b81146106d357600080fd5b50565b6000813590506106e5816106bf565b92915050565b60006020828403121561070157610700610518565b5b600061070f848285016106d6565b91505092915050565b60008160601b9050919050565b600061073082610718565b9050919050565b600061074282610725565b9050919050565b61075a61075582610683565b610737565b82525050565b600061076c8284610749565b60148201915081905092915050565b600082825260208201905092915050565b7f494e56414c49445f50524f4f4600000000000000000000000000000000000000600082015250565b60006107c2600d8361077b565b91506107cd8261078c565b602082019050919050565b600060208201905081810360008301526107f1816107b5565b9050919050565b7f4f776e61626c653a206e6577206f776e657220697320746865207a65726f206160008201527f6464726573730000000000000000000000000000000000000000000000000000602082015250565b600061085460268361077b565b915061085f826107f8565b604082019050919050565b6000602082019050818103600083015261088381610847565b9050919050565b7f4f776e61626c653a2063616c6c6572206973206e6f7420746865206f776e6572600082015250565b60006108c060208361077b565b91506108cb8261088a565b602082019050919050565b600060208201905081810360008301526108ef816108b3565b9050919050565b7f4e487b7100000000000000000000000000000000000000000000000000000000600052603260045260246000fd5b7f4e487b7100000000000000000000000000000000000000000000000000000000600052601160045260246000fd5b6000819050919050565b600061096982610954565b91507fffffffffffffffffffffffffffffffffffffffffffffffffffffffffffffffff820361099b5761099a610925565b5b60018201905091905056fea26469706673582212204fb7473189d65a400d40961c8ad54f2c174d6a7669da1ef2f006f8a9a87c83d064736f6c63430008110033",
  "linkReferences": {},
  "deployedLinkReferences": {}
}