{
  "_format": "hh-sol-artifact-1",
  "contractName": "MerkleTreeFacet",
  "sourceName": "contracts/facets/MerkleTreeFacet.sol",
  "abi": [
    {
      "anonymous": false,
      "inputs": [
        {
          "indexed": true,
          "internalType": "address",
          "name": "previousOwner",
          "type": "address"
        },
        {
          "indexed": true,
          "internalType": "address",
          "name": "newOwner",
          "type": "address"
        }
      ],
      "name": "OwnershipTransferred",
      "type": "event"
    },
    {
      "inputs": [],
      "name": "merkleRoot",
      "outputs": [
        {
          "internalType": "bytes32",
          "name": "",
          "type": "bytes32"
        }
      ],
      "stateMutability": "view",
      "type": "function"
    },
    {
      "inputs": [],
      "name": "owner",
      "outputs": [
        {
          "internalType": "address",
          "name": "",
          "type": "address"
        }
      ],
      "stateMutability": "view",
      "type": "function"
    },
    {
      "inputs": [],
      "name": "renounceOwnership",
      "outputs": [],
      "stateMutability": "nonpayable",
      "type": "function"
    },
    {
      "inputs": [
        {
          "internalType": "bytes32",
          "name": "merkleRootHash",
          "type": "bytes32"
        }
      ],
      "name": "setMerkleRoot",
      "outputs": [],
      "stateMutability": "nonpayable",
      "type": "function"
    },
    {
      "inputs": [
        {
          "internalType": "address",
          "name": "newOwner",
          "type": "address"
        }
      ],
      "name": "transferOwnership",
      "outputs": [],
      "stateMutability": "nonpayable",
      "type": "function"
    },
    {
      "inputs": [
        {
          "internalType": "bytes32[]",
          "name": "_merkleProof",
          "type": "bytes32[]"
        }
      ],
      "name": "whitelistFunc",
      "outputs": [],
      "stateMutability": "view",
      "type": "function"
    }
  ],
  "bytecode": "0x608060405234801561001057600080fd5b5061002d61002261003260201b60201c565b61003a60201b60201c565b6100fe565b600033905090565b60008060009054906101000a900473ffffffffffffffffffffffffffffffffffffffff169050816000806101000a81548173ffffffffffffffffffffffffffffffffffffffff021916908373ffffffffffffffffffffffffffffffffffffffff1602179055508173ffffffffffffffffffffffffffffffffffffffff168173ffffffffffffffffffffffffffffffffffffffff167f8be0079c531659141344cd1fd0a4f28419497f9722a3daafe3b4186f6b6457e060405160405180910390a35050565b6109648061010d6000396000f3fe608060405234801561001057600080fd5b50600436106100625760003560e01c80632eb4a7ab14610067578063715018a6146100855780637cb647591461008f5780638da5cb5b146100ab5780639837bcfe146100c9578063f2fde38b146100e5575b600080fd5b61006f610101565b60405161007c91906104bb565b60405180910390f35b61008d610107565b005b6100a960048036038101906100a4919061050c565b61011b565b005b6100b361012d565b6040516100c0919061057a565b60405180910390f35b6100e360048036038101906100de91906105fa565b610156565b005b6100ff60048036038101906100fa9190610673565b6101a3565b005b60015481565b61010f610226565b61011960006102a4565b565b610123610226565b8060018190555050565b60008060009054906101000a900473ffffffffffffffffffffffffffffffffffffffff16905090565b6101608282610368565b61019f576040517f08c379a0000000000000000000000000000000000000000000000000000000008152600401610196906106fd565b60405180910390fd5b5050565b6101ab610226565b600073ffffffffffffffffffffffffffffffffffffffff168173ffffffffffffffffffffffffffffffffffffffff160361021a576040517f08c379a00000000000000000000000000000000000000000000000000000000081526004016102119061078f565b60405180910390fd5b610223816102a4565b50565b61022e6103eb565b73ffffffffffffffffffffffffffffffffffffffff1661024c61012d565b73ffffffffffffffffffffffffffffffffffffffff16146102a2576040517f08c379a0000000000000000000000000000000000000000000000000000000008152600401610299906107fb565b60405180910390fd5b565b60008060009054906101000a900473ffffffffffffffffffffffffffffffffffffffff169050816000806101000a81548173ffffffffffffffffffffffffffffffffffffffff021916908373ffffffffffffffffffffffffffffffffffffffff1602179055508173ffffffffffffffffffffffffffffffffffffffff168173ffffffffffffffffffffffffffffffffffffffff167f8be0079c531659141344cd1fd0a4f28419497f9722a3daafe3b4186f6b6457e060405160405180910390a35050565b6000803360405160200161037c9190610863565b6040516020818303038152906040528051906020012090506103e2848480806020026020016040519081016040528093929190818152602001838360200280828437600081840152601f19601f82011690508083019250505050505050600154836103f3565b91505092915050565b600033905090565b600082610400858461040a565b1490509392505050565b60008082905060005b845181101561045557610440828683815181106104335761043261087e565b5b6020026020010151610460565b9150808061044d906108e6565b915050610413565b508091505092915050565b600081831061047857610473828461048b565b610483565b610482838361048b565b5b905092915050565b600082600052816020526040600020905092915050565b6000819050919050565b6104b5816104a2565b82525050565b60006020820190506104d060008301846104ac565b92915050565b600080fd5b600080fd5b6104e9816104a2565b81146104f457600080fd5b50565b600081359050610506816104e0565b92915050565b600060208284031215610522576105216104d6565b5b6000610530848285016104f7565b91505092915050565b600073ffffffffffffffffffffffffffffffffffffffff82169050919050565b600061056482610539565b9050919050565b61057481610559565b82525050565b600060208201905061058f600083018461056b565b92915050565b600080fd5b600080fd5b600080fd5b60008083601f8401126105ba576105b9610595565b5b8235905067ffffffffffffffff8111156105d7576105d661059a565b5b6020830191508360208202830111156105f3576105f261059f565b5b9250929050565b60008060208385031215610611576106106104d6565b5b600083013567ffffffffffffffff81111561062f5761062e6104db565b5b61063b858286016105a4565b92509250509250929050565b61065081610559565b811461065b57600080fd5b50565b60008135905061066d81610647565b92915050565b600060208284031215610689576106886104d6565b5b60006106978482850161065e565b91505092915050565b600082825260208201905092915050565b7f494e56414c49445f50524f4f4600000000000000000000000000000000000000600082015250565b60006106e7600d836106a0565b91506106f2826106b1565b602082019050919050565b60006020820190508181036000830152610716816106da565b9050919050565b7f4f776e61626c653a206e6577206f776e657220697320746865207a65726f206160008201527f6464726573730000000000000000000000000000000000000000000000000000602082015250565b60006107796026836106a0565b91506107848261071d565b604082019050919050565b600060208201905081810360008301526107a88161076c565b9050919050565b7f4f776e61626c653a2063616c6c6572206973206e6f7420746865206f776e6572600082015250565b60006107e56020836106a0565b91506107f0826107af565b602082019050919050565b60006020820190508181036000830152610814816107d8565b9050919050565b60008160601b9050919050565b60006108338261081b565b9050919050565b600061084582610828565b9050919050565b61085d61085882610559565b61083a565b82525050565b600061086f828461084c565b60148201915081905092915050565b7f4e487b7100000000000000000000000000000000000000000000000000000000600052603260045260246000fd5b7f4e487b7100000000000000000000000000000000000000000000000000000000600052601160045260246000fd5b6000819050919050565b60006108f1826108dc565b91507fffffffffffffffffffffffffffffffffffffffffffffffffffffffffffffffff8203610923576109226108ad565b5b60018201905091905056fea2646970667358221220cf6a9c305919eb2347b7d731de48070f4f36167658c33c466ad51ccc77139a5c64736f6c63430008110033",
  "linkReferences": {},
  "deployedLinkReferences": {}
}