{
  "_format": "hh-sol-artifact-1",
  "contractName": "TwikklToken",
  "sourceName": "contracts/utilities/TwikklToken.sol",
  "abi": [
    {
      "inputs": [],
      "stateMutability": "nonpayable",
      "type": "constructor"
    },
    {
      "anonymous": false,
      "inputs": [
        {
          "indexed": true,
          "internalType": "address",
          "name": "owner",
          "type": "address"
        },
        {
          "indexed": true,
          "internalType": "address",
          "name": "spender",
          "type": "address"
        },
        {
          "indexed": false,
          "internalType": "uint256",
          "name": "value",
          "type": "uint256"
        }
      ],
      "name": "Approval",
      "type": "event"
    },
    {
      "anonymous": false,
      "inputs": [
        {
          "indexed": true,
          "internalType": "address",
          "name": "from",
          "type": "address"
        },
        {
          "indexed": true,
          "internalType": "address",
          "name": "to",
          "type": "address"
        },
        {
          "indexed": false,
          "internalType": "uint256",
          "name": "value",
          "type": "uint256"
        }
      ],
      "name": "Transfer",
      "type": "event"
    },
    {
      "inputs": [
        {
          "internalType": "address",
          "name": "owner",
          "type": "address"
        },
        {
          "internalType": "address",
          "name": "spender",
          "type": "address"
        }
      ],
      "name": "allowance",
      "outputs": [
        {
          "internalType": "uint256",
          "name": "",
          "type": "uint256"
        }
      ],
      "stateMutability": "view",
      "type": "function"
    },
    {
      "inputs": [
        {
          "internalType": "address",
          "name": "spender",
          "type": "address"
        },
        {
          "internalType": "uint256",
          "name": "amount",
          "type": "uint256"
        }
      ],
      "name": "approve",
      "outputs": [
        {
          "internalType": "bool",
          "name": "",
          "type": "bool"
        }
      ],
      "stateMutability": "nonpayable",
      "type": "function"
    },
    {
      "inputs": [
        {
          "internalType": "address",
          "name": "account",
          "type": "address"
        }
      ],
      "name": "balanceOf",
      "outputs": [
        {
          "internalType": "uint256",
          "name": "",
          "type": "uint256"
        }
      ],
      "stateMutability": "view",
      "type": "function"
    },
    {
      "inputs": [],
      "name": "decimals",
      "outputs": [
        {
          "internalType": "uint8",
          "name": "",
          "type": "uint8"
        }
      ],
      "stateMutability": "view",
      "type": "function"
    },
    {
      "inputs": [
        {
          "internalType": "address",
          "name": "spender",
          "type": "address"
        },
        {
          "internalType": "uint256",
          "name": "subtractedValue",
          "type": "uint256"
        }
      ],
      "name": "decreaseAllowance",
      "outputs": [
        {
          "internalType": "bool",
          "name": "",
          "type": "bool"
        }
      ],
      "stateMutability": "nonpayable",
      "type": "function"
    },
    {
      "inputs": [
        {
          "internalType": "address",
          "name": "spender",
          "type": "address"
        },
        {
          "internalType": "uint256",
          "name": "addedValue",
          "type": "uint256"
        }
      ],
      "name": "increaseAllowance",
      "outputs": [
        {
          "internalType": "bool",
          "name": "",
          "type": "bool"
        }
      ],
      "stateMutability": "nonpayable",
      "type": "function"
    },
    {
      "inputs": [],
      "name": "name",
      "outputs": [
        {
          "internalType": "string",
          "name": "",
          "type": "string"
        }
      ],
      "stateMutability": "view",
      "type": "function"
    },
    {
      "inputs": [],
      "name": "symbol",
      "outputs": [
        {
          "internalType": "string",
          "name": "",
          "type": "string"
        }
      ],
      "stateMutability": "view",
      "type": "function"
    },
    {
      "inputs": [],
      "name": "totalSupply",
      "outputs": [
        {
          "internalType": "uint256",
          "name": "",
          "type": "uint256"
        }
      ],
      "stateMutability": "view",
      "type": "function"
    },
    {
      "inputs": [
        {
          "internalType": "address",
          "name": "to",
          "type": "address"
        },
        {
          "internalType": "uint256",
          "name": "amount",
          "type": "uint256"
        }
      ],
      "name": "transfer",
      "outputs": [
        {
          "internalType": "bool",
          "name": "",
          "type": "bool"
        }
      ],
      "stateMutability": "nonpayable",
      "type": "function"
    },
    {
      "inputs": [
        {
          "internalType": "address",
          "name": "from",
          "type": "address"
        },
        {
          "internalType": "address",
          "name": "to",
          "type": "address"
        },
        {
          "internalType": "uint256",
          "name": "amount",
          "type": "uint256"
        }
      ],
      "name": "transferFrom",
      "outputs": [
        {
          "internalType": "bool",
          "name": "",
          "type": "bool"
        }
      ],
      "stateMutability": "nonpayable",
      "type": "function"
    },
    {
      "inputs": [
        {
          "internalType": "address",
          "name": "_to",
          "type": "address"
        },
        {
          "internalType": "uint256",
          "name": "_amount",
          "type": "uint256"
        }
      ],
      "name": "withdrawFromContract",
      "outputs": [],
      "stateMutability": "nonpayable",
      "type": "function"
    }
  ],
  "bytecode": "0x60806040523480156200001157600080fd5b506040518060400160405280600581526020017f4a696767790000000000000000000000000000000000000000000000000000008152506040518060400160405280600381526020017f4a4759000000000000000000000000000000000000000000000000000000000081525081600390816200008f9190620004b8565b508060049081620000a19190620004b8565b505050620000c1306a01a784379d99db42000000620000c760201b60201c565b620006ba565b600073ffffffffffffffffffffffffffffffffffffffff168273ffffffffffffffffffffffffffffffffffffffff160362000139576040517f08c379a0000000000000000000000000000000000000000000000000000000008152600401620001309062000600565b60405180910390fd5b6200014d600083836200023460201b60201c565b806002600082825462000161919062000651565b92505081905550806000808473ffffffffffffffffffffffffffffffffffffffff1673ffffffffffffffffffffffffffffffffffffffff168152602001908152602001600020600082825401925050819055508173ffffffffffffffffffffffffffffffffffffffff16600073ffffffffffffffffffffffffffffffffffffffff167fddf252ad1be2c89b69c2b068fc378daa952ba7f163c4a11628f55a4df523b3ef836040516200021491906200069d565b60405180910390a362000230600083836200023960201b60201c565b5050565b505050565b505050565b600081519050919050565b7f4e487b7100000000000000000000000000000000000000000000000000000000600052604160045260246000fd5b7f4e487b7100000000000000000000000000000000000000000000000000000000600052602260045260246000fd5b60006002820490506001821680620002c057607f821691505b602082108103620002d657620002d562000278565b5b50919050565b60008190508160005260206000209050919050565b60006020601f8301049050919050565b600082821b905092915050565b600060088302620003407fffffffffffffffffffffffffffffffffffffffffffffffffffffffffffffffff8262000301565b6200034c868362000301565b95508019841693508086168417925050509392505050565b6000819050919050565b6000819050919050565b600062000399620003936200038d8462000364565b6200036e565b62000364565b9050919050565b6000819050919050565b620003b58362000378565b620003cd620003c482620003a0565b8484546200030e565b825550505050565b600090565b620003e4620003d5565b620003f1818484620003aa565b505050565b5b8181101562000419576200040d600082620003da565b600181019050620003f7565b5050565b601f82111562000468576200043281620002dc565b6200043d84620002f1565b810160208510156200044d578190505b620004656200045c85620002f1565b830182620003f6565b50505b505050565b600082821c905092915050565b60006200048d600019846008026200046d565b1980831691505092915050565b6000620004a883836200047a565b9150826002028217905092915050565b620004c3826200023e565b67ffffffffffffffff811115620004df57620004de62000249565b5b620004eb8254620002a7565b620004f88282856200041d565b600060209050601f8311600181146200053057600084156200051b578287015190505b6200052785826200049a565b86555062000597565b601f1984166200054086620002dc565b60005b828110156200056a5784890151825560018201915060208501945060208101905062000543565b868310156200058a578489015162000586601f8916826200047a565b8355505b6001600288020188555050505b505050505050565b600082825260208201905092915050565b7f45524332303a206d696e7420746f20746865207a65726f206164647265737300600082015250565b6000620005e8601f836200059f565b9150620005f582620005b0565b602082019050919050565b600060208201905081810360008301526200061b81620005d9565b9050919050565b7f4e487b7100000000000000000000000000000000000000000000000000000000600052601160045260246000fd5b60006200065e8262000364565b91506200066b8362000364565b925082820190508082111562000686576200068562000622565b5b92915050565b620006978162000364565b82525050565b6000602082019050620006b460008301846200068c565b92915050565b61132880620006ca6000396000f3fe608060405234801561001057600080fd5b50600436106100b45760003560e01c806370a082311161007157806370a08231146101a3578063837381fa146101d357806395d89b41146101ef578063a457c2d71461020d578063a9059cbb1461023d578063dd62ed3e1461026d576100b4565b806306fdde03146100b9578063095ea7b3146100d757806318160ddd1461010757806323b872dd14610125578063313ce567146101555780633950935114610173575b600080fd5b6100c161029d565b6040516100ce9190610b99565b60405180910390f35b6100f160048036038101906100ec9190610c54565b61032f565b6040516100fe9190610caf565b60405180910390f35b61010f610352565b60405161011c9190610cd9565b60405180910390f35b61013f600480360381019061013a9190610cf4565b61035c565b60405161014c9190610caf565b60405180910390f35b61015d61038b565b60405161016a9190610d63565b60405180910390f35b61018d60048036038101906101889190610c54565b610394565b60405161019a9190610caf565b60405180910390f35b6101bd60048036038101906101b89190610d7e565b6103cb565b6040516101ca9190610cd9565b60405180910390f35b6101ed60048036038101906101e89190610c54565b610413565b005b6101f7610479565b6040516102049190610b99565b60405180910390f35b61022760048036038101906102229190610c54565b61050b565b6040516102349190610caf565b60405180910390f35b61025760048036038101906102529190610c54565b610582565b6040516102649190610caf565b60405180910390f35b61028760048036038101906102829190610dab565b6105a5565b6040516102949190610cd9565b60405180910390f35b6060600380546102ac90610e1a565b80601f01602080910402602001604051908101604052809291908181526020018280546102d890610e1a565b80156103255780601f106102fa57610100808354040283529160200191610325565b820191906000526020600020905b81548152906001019060200180831161030857829003601f168201915b5050505050905090565b60008061033a61062c565b9050610347818585610634565b600191505092915050565b6000600254905090565b60008061036761062c565b90506103748582856107fd565b61037f858585610889565b60019150509392505050565b60006012905090565b60008061039f61062c565b90506103c08185856103b185896105a5565b6103bb9190610e7a565b610634565b600191505092915050565b60008060008373ffffffffffffffffffffffffffffffffffffffff1673ffffffffffffffffffffffffffffffffffffffff168152602001908152602001600020549050919050565b600061041e306103cb565b9050600082905080821015610468576040517f08c379a000000000000000000000000000000000000000000000000000000000815260040161045f90610efa565b60405180910390fd5b610473308583610889565b50505050565b60606004805461048890610e1a565b80601f01602080910402602001604051908101604052809291908181526020018280546104b490610e1a565b80156105015780601f106104d657610100808354040283529160200191610501565b820191906000526020600020905b8154815290600101906020018083116104e457829003601f168201915b5050505050905090565b60008061051661062c565b9050600061052482866105a5565b905083811015610569576040517f08c379a000000000000000000000000000000000000000000000000000000000815260040161056090610f8c565b60405180910390fd5b6105768286868403610634565b60019250505092915050565b60008061058d61062c565b905061059a818585610889565b600191505092915050565b6000600160008473ffffffffffffffffffffffffffffffffffffffff1673ffffffffffffffffffffffffffffffffffffffff16815260200190815260200160002060008373ffffffffffffffffffffffffffffffffffffffff1673ffffffffffffffffffffffffffffffffffffffff16815260200190815260200160002054905092915050565b600033905090565b600073ffffffffffffffffffffffffffffffffffffffff168373ffffffffffffffffffffffffffffffffffffffff16036106a3576040517f08c379a000000000000000000000000000000000000000000000000000000000815260040161069a9061101e565b60405180910390fd5b600073ffffffffffffffffffffffffffffffffffffffff168273ffffffffffffffffffffffffffffffffffffffff1603610712576040517f08c379a0000000000000000000000000000000000000000000000000000000008152600401610709906110b0565b60405180910390fd5b80600160008573ffffffffffffffffffffffffffffffffffffffff1673ffffffffffffffffffffffffffffffffffffffff16815260200190815260200160002060008473ffffffffffffffffffffffffffffffffffffffff1673ffffffffffffffffffffffffffffffffffffffff168152602001908152602001600020819055508173ffffffffffffffffffffffffffffffffffffffff168373ffffffffffffffffffffffffffffffffffffffff167f8c5be1e5ebec7d5bd14f71427d1e84f3dd0314c0f7b2291e5b200ac8c7c3b925836040516107f09190610cd9565b60405180910390a3505050565b600061080984846105a5565b90507fffffffffffffffffffffffffffffffffffffffffffffffffffffffffffffffff81146108835781811015610875576040517f08c379a000000000000000000000000000000000000000000000000000000000815260040161086c9061111c565b60405180910390fd5b6108828484848403610634565b5b50505050565b600073ffffffffffffffffffffffffffffffffffffffff168373ffffffffffffffffffffffffffffffffffffffff16036108f8576040517f08c379a00000000000000000000000000000000000000000000000000000000081526004016108ef906111ae565b60405180910390fd5b600073ffffffffffffffffffffffffffffffffffffffff168273ffffffffffffffffffffffffffffffffffffffff1603610967576040517f08c379a000000000000000000000000000000000000000000000000000000000815260040161095e90611240565b60405180910390fd5b610972838383610aff565b60008060008573ffffffffffffffffffffffffffffffffffffffff1673ffffffffffffffffffffffffffffffffffffffff168152602001908152602001600020549050818110156109f8576040517f08c379a00000000000000000000000000000000000000000000000000000000081526004016109ef906112d2565b60405180910390fd5b8181036000808673ffffffffffffffffffffffffffffffffffffffff1673ffffffffffffffffffffffffffffffffffffffff16815260200190815260200160002081905550816000808573ffffffffffffffffffffffffffffffffffffffff1673ffffffffffffffffffffffffffffffffffffffff168152602001908152602001600020600082825401925050819055508273ffffffffffffffffffffffffffffffffffffffff168473ffffffffffffffffffffffffffffffffffffffff167fddf252ad1be2c89b69c2b068fc378daa952ba7f163c4a11628f55a4df523b3ef84604051610ae69190610cd9565b60405180910390a3610af9848484610b04565b50505050565b505050565b505050565b600081519050919050565b600082825260208201905092915050565b60005b83811015610b43578082015181840152602081019050610b28565b60008484015250505050565b6000601f19601f8301169050919050565b6000610b6b82610b09565b610b758185610b14565b9350610b85818560208601610b25565b610b8e81610b4f565b840191505092915050565b60006020820190508181036000830152610bb38184610b60565b905092915050565b600080fd5b600073ffffffffffffffffffffffffffffffffffffffff82169050919050565b6000610beb82610bc0565b9050919050565b610bfb81610be0565b8114610c0657600080fd5b50565b600081359050610c1881610bf2565b92915050565b6000819050919050565b610c3181610c1e565b8114610c3c57600080fd5b50565b600081359050610c4e81610c28565b92915050565b60008060408385031215610c6b57610c6a610bbb565b5b6000610c7985828601610c09565b9250506020610c8a85828601610c3f565b9150509250929050565b60008115159050919050565b610ca981610c94565b82525050565b6000602082019050610cc46000830184610ca0565b92915050565b610cd381610c1e565b82525050565b6000602082019050610cee6000830184610cca565b92915050565b600080600060608486031215610d0d57610d0c610bbb565b5b6000610d1b86828701610c09565b9350506020610d2c86828701610c09565b9250506040610d3d86828701610c3f565b9150509250925092565b600060ff82169050919050565b610d5d81610d47565b82525050565b6000602082019050610d786000830184610d54565b92915050565b600060208284031215610d9457610d93610bbb565b5b6000610da284828501610c09565b91505092915050565b60008060408385031215610dc257610dc1610bbb565b5b6000610dd085828601610c09565b9250506020610de185828601610c09565b9150509250929050565b7f4e487b7100000000000000000000000000000000000000000000000000000000600052602260045260246000fd5b60006002820490506001821680610e3257607f821691505b602082108103610e4557610e44610deb565b5b50919050565b7f4e487b7100000000000000000000000000000000000000000000000000000000600052601160045260246000fd5b6000610e8582610c1e565b9150610e9083610c1e565b9250828201905080821115610ea857610ea7610e4b565b5b92915050565b7f4e6f7420656e6f756768206d6f6e657920746f207472616e7366657200000000600082015250565b6000610ee4601c83610b14565b9150610eef82610eae565b602082019050919050565b60006020820190508181036000830152610f1381610ed7565b9050919050565b7f45524332303a2064656372656173656420616c6c6f77616e63652062656c6f7760008201527f207a65726f000000000000000000000000000000000000000000000000000000602082015250565b6000610f76602583610b14565b9150610f8182610f1a565b604082019050919050565b60006020820190508181036000830152610fa581610f69565b9050919050565b7f45524332303a20617070726f76652066726f6d20746865207a65726f2061646460008201527f7265737300000000000000000000000000000000000000000000000000000000602082015250565b6000611008602483610b14565b915061101382610fac565b604082019050919050565b6000602082019050818103600083015261103781610ffb565b9050919050565b7f45524332303a20617070726f766520746f20746865207a65726f20616464726560008201527f7373000000000000000000000000000000000000000000000000000000000000602082015250565b600061109a602283610b14565b91506110a58261103e565b604082019050919050565b600060208201905081810360008301526110c98161108d565b9050919050565b7f45524332303a20696e73756666696369656e7420616c6c6f77616e6365000000600082015250565b6000611106601d83610b14565b9150611111826110d0565b602082019050919050565b60006020820190508181036000830152611135816110f9565b9050919050565b7f45524332303a207472616e736665722066726f6d20746865207a65726f20616460008201527f6472657373000000000000000000000000000000000000000000000000000000602082015250565b6000611198602583610b14565b91506111a38261113c565b604082019050919050565b600060208201905081810360008301526111c78161118b565b9050919050565b7f45524332303a207472616e7366657220746f20746865207a65726f206164647260008201527f6573730000000000000000000000000000000000000000000000000000000000602082015250565b600061122a602383610b14565b9150611235826111ce565b604082019050919050565b600060208201905081810360008301526112598161121d565b9050919050565b7f45524332303a207472616e7366657220616d6f756e742065786365656473206260008201527f616c616e63650000000000000000000000000000000000000000000000000000602082015250565b60006112bc602683610b14565b91506112c782611260565b604082019050919050565b600060208201905081810360008301526112eb816112af565b905091905056fea26469706673582212205f96053885efd36d0bfb094c416cb1be280dd00cd9d39c46719ef7ec96ad312d64736f6c63430008110033",
  "linkReferences": {},
  "deployedLinkReferences": {}
}