{
	"contracts/facets/MerkleTreeFacet.sol": {
		"MerkleTreeFacet": {
			"abi": [
				{
					"anonymous": false,
					"inputs": [
						{
							"indexed": true,
							"internalType": "address",
							"name": "previousOwner",
							"type": "address"
						},
						{
							"indexed": true,
							"internalType": "address",
							"name": "newOwner",
							"type": "address"
						}
					],
					"name": "OwnershipTransferred",
					"type": "event"
				},
				{
					"inputs": [],
					"name": "getMerkleRoot",
					"outputs": [
						{
							"internalType": "bytes32",
							"name": "",
							"type": "bytes32"
						}
					],
					"stateMutability": "view",
					"type": "function"
				},
				{
					"inputs": [],
					"name": "merkleRoot",
					"outputs": [
						{
							"internalType": "bytes32",
							"name": "",
							"type": "bytes32"
						}
					],
					"stateMutability": "view",
					"type": "function"
				},
				{
					"inputs": [],
					"name": "owner",
					"outputs": [
						{
							"internalType": "address",
							"name": "",
							"type": "address"
						}
					],
					"stateMutability": "view",
					"type": "function"
				},
				{
					"inputs": [],
					"name": "renounceOwnership",
					"outputs": [],
					"stateMutability": "nonpayable",
					"type": "function"
				},
				{
					"inputs": [
						{
							"internalType": "address",
							"name": "newOwner",
							"type": "address"
						}
					],
					"name": "transferOwnership",
					"outputs": [],
					"stateMutability": "nonpayable",
					"type": "function"
				},
				{
					"inputs": [
						{
							"internalType": "bytes32[]",
							"name": "_merkleProof",
							"type": "bytes32[]"
						}
					],
					"name": "verifyAddress",
					"outputs": [
						{
							"internalType": "bool",
							"name": "",
							"type": "bool"
						}
					],
					"stateMutability": "view",
					"type": "function"
				},
				{
					"inputs": [
						{
							"internalType": "bytes32[]",
							"name": "_merkleProof",
							"type": "bytes32[]"
						}
					],
					"name": "whitelistFunc",
					"outputs": [],
					"stateMutability": "view",
					"type": "function"
				}
			],
			"devdoc": {
				"details": "A smart contract for managing a Merkle tree-based whitelist.",
				"kind": "dev",
				"methods": {
					"getMerkleRoot()": {
						"returns": {
							"_0": "The current Merkle root hash."
						}
					},
					"owner()": {
						"details": "Returns the address of the current owner."
					},
					"renounceOwnership()": {
						"details": "Leaves the contract without owner. It will not be possible to call `onlyOwner` functions. Can only be called by the current owner. NOTE: Renouncing ownership will leave the contract without an owner, thereby disabling any functionality that is only available to the owner."
					},
					"transferOwnership(address)": {
						"details": "Transfers ownership of the contract to a new account (`newOwner`). Can only be called by the current owner."
					},
					"verifyAddress(bytes32[])": {
						"params": {
							"_merkleProof": "The Merkle proof for the address."
						},
						"returns": {
							"_0": "A boolean indicating whether the proof is valid."
						}
					},
					"whitelistFunc(bytes32[])": {
						"details": "Reverts if the Merkle proof is invalid.",
						"params": {
							"_merkleProof": "The Merkle proof for the caller's address."
						}
					}
				},
				"title": "MerkleTreeFacet",
				"version": 1
			},
			"evm": {
				"assembly": "    /* \"contracts/facets/MerkleTreeFacet.sol\":298:1740  contract MerkleTreeFacet is Ownable {... */\n  mstore(0x40, 0x80)\n  callvalue\n  dup1\n  iszero\n  tag_1\n  jumpi\n  0x00\n  dup1\n  revert\ntag_1:\n  pop\n    /* \"@openzeppelin/contracts/access/Ownable.sol\":936:968  _transferOwnership(_msgSender()) */\n  tag_4\n    /* \"@openzeppelin/contracts/access/Ownable.sol\":955:967  _msgSender() */\n  tag_5\n    /* \"@openzeppelin/contracts/access/Ownable.sol\":955:965  _msgSender */\n  shl(0x20, tag_6)\n    /* \"@openzeppelin/contracts/access/Ownable.sol\":955:967  _msgSender() */\n  0x20\n  shr\n  jump\t// in\ntag_5:\n    /* \"@openzeppelin/contracts/access/Ownable.sol\":936:954  _transferOwnership */\n  shl(0x20, tag_7)\n    /* \"@openzeppelin/contracts/access/Ownable.sol\":936:968  _transferOwnership(_msgSender()) */\n  0x20\n  shr\n  jump\t// in\ntag_4:\n    /* \"contracts/facets/MerkleTreeFacet.sol\":298:1740  contract MerkleTreeFacet is Ownable {... */\n  jump(tag_8)\n    /* \"@openzeppelin/contracts/utils/Context.sol\":640:736  function _msgSender() internal view virtual returns (address) {... */\ntag_6:\n    /* \"@openzeppelin/contracts/utils/Context.sol\":693:700  address */\n  0x00\n    /* \"@openzeppelin/contracts/utils/Context.sol\":719:729  msg.sender */\n  caller\n    /* \"@openzeppelin/contracts/utils/Context.sol\":712:729  return msg.sender */\n  swap1\n  pop\n    /* \"@openzeppelin/contracts/utils/Context.sol\":640:736  function _msgSender() internal view virtual returns (address) {... */\n  swap1\n  jump\t// out\n    /* \"@openzeppelin/contracts/access/Ownable.sol\":2426:2613  function _transferOwnership(address newOwner) internal virtual {... */\ntag_7:\n    /* \"@openzeppelin/contracts/access/Ownable.sol\":2499:2515  address oldOwner */\n  0x00\n    /* \"@openzeppelin/contracts/access/Ownable.sol\":2518:2524  _owner */\n  dup1\n  0x00\n  swap1\n  sload\n  swap1\n  0x0100\n  exp\n  swap1\n  div\n  0xffffffffffffffffffffffffffffffffffffffff\n  and\n    /* \"@openzeppelin/contracts/access/Ownable.sol\":2499:2524  address oldOwner = _owner */\n  swap1\n  pop\n    /* \"@openzeppelin/contracts/access/Ownable.sol\":2543:2551  newOwner */\n  dup2\n    /* \"@openzeppelin/contracts/access/Ownable.sol\":2534:2540  _owner */\n  0x00\n  dup1\n    /* \"@openzeppelin/contracts/access/Ownable.sol\":2534:2551  _owner = newOwner */\n  0x0100\n  exp\n  dup2\n  sload\n  dup2\n  0xffffffffffffffffffffffffffffffffffffffff\n  mul\n  not\n  and\n  swap1\n  dup4\n  0xffffffffffffffffffffffffffffffffffffffff\n  and\n  mul\n  or\n  swap1\n  sstore\n  pop\n    /* \"@openzeppelin/contracts/access/Ownable.sol\":2597:2605  newOwner */\n  dup2\n    /* \"@openzeppelin/contracts/access/Ownable.sol\":2566:2606  OwnershipTransferred(oldOwner, newOwner) */\n  0xffffffffffffffffffffffffffffffffffffffff\n  and\n    /* \"@openzeppelin/contracts/access/Ownable.sol\":2587:2595  oldOwner */\n  dup2\n    /* \"@openzeppelin/contracts/access/Ownable.sol\":2566:2606  OwnershipTransferred(oldOwner, newOwner) */\n  0xffffffffffffffffffffffffffffffffffffffff\n  and\n  0x8be0079c531659141344cd1fd0a4f28419497f9722a3daafe3b4186f6b6457e0\n  mload(0x40)\n  mload(0x40)\n  dup1\n  swap2\n  sub\n  swap1\n  log3\n    /* \"@openzeppelin/contracts/access/Ownable.sol\":2489:2613  {... */\n  pop\n    /* \"@openzeppelin/contracts/access/Ownable.sol\":2426:2613  function _transferOwnership(address newOwner) internal virtual {... */\n  pop\n  jump\t// out\n    /* \"contracts/facets/MerkleTreeFacet.sol\":298:1740  contract MerkleTreeFacet is Ownable {... */\ntag_8:\n  dataSize(sub_0)\n  dup1\n  dataOffset(sub_0)\n  0x00\n  codecopy\n  0x00\n  return\nstop\n\nsub_0: assembly {\n        /* \"contracts/facets/MerkleTreeFacet.sol\":298:1740  contract MerkleTreeFacet is Ownable {... */\n      mstore(0x40, 0x80)\n      callvalue\n      dup1\n      iszero\n      tag_1\n      jumpi\n      0x00\n      dup1\n      revert\n    tag_1:\n      pop\n      jumpi(tag_2, lt(calldatasize, 0x04))\n      shr(0xe0, calldataload(0x00))\n      dup1\n      0x715018a6\n      gt\n      tag_10\n      jumpi\n      dup1\n      0x715018a6\n      eq\n      tag_6\n      jumpi\n      dup1\n      0x8da5cb5b\n      eq\n      tag_7\n      jumpi\n      dup1\n      0x9837bcfe\n      eq\n      tag_8\n      jumpi\n      dup1\n      0xf2fde38b\n      eq\n      tag_9\n      jumpi\n      jump(tag_2)\n    tag_10:\n      dup1\n      0x2eb4a7ab\n      eq\n      tag_3\n      jumpi\n      dup1\n      0x36591c21\n      eq\n      tag_4\n      jumpi\n      dup1\n      0x49590657\n      eq\n      tag_5\n      jumpi\n    tag_2:\n      0x00\n      dup1\n      revert\n        /* \"contracts/facets/MerkleTreeFacet.sol\":408:433  bytes32 public merkleRoot */\n    tag_3:\n      tag_11\n      tag_12\n      jump\t// in\n    tag_11:\n      mload(0x40)\n      tag_13\n      swap2\n      swap1\n      tag_14\n      jump\t// in\n    tag_13:\n      mload(0x40)\n      dup1\n      swap2\n      sub\n      swap1\n      return\n        /* \"contracts/facets/MerkleTreeFacet.sol\":1127:1357  function verifyAddress(bytes32[] calldata _merkleProof) public ... */\n    tag_4:\n      tag_15\n      0x04\n      dup1\n      calldatasize\n      sub\n      dup2\n      add\n      swap1\n      tag_16\n      swap2\n      swap1\n      tag_17\n      jump\t// in\n    tag_16:\n      tag_18\n      jump\t// in\n    tag_15:\n      mload(0x40)\n      tag_19\n      swap2\n      swap1\n      tag_20\n      jump\t// in\n    tag_19:\n      mload(0x40)\n      dup1\n      swap2\n      sub\n      swap1\n      return\n        /* \"contracts/facets/MerkleTreeFacet.sol\":552:641  function getMerkleRoot() external view returns (bytes32)  {... */\n    tag_5:\n      tag_21\n      tag_22\n      jump\t// in\n    tag_21:\n      mload(0x40)\n      tag_23\n      swap2\n      swap1\n      tag_14\n      jump\t// in\n    tag_23:\n      mload(0x40)\n      dup1\n      swap2\n      sub\n      swap1\n      return\n        /* \"@openzeppelin/contracts/access/Ownable.sol\":1824:1925  function renounceOwnership() public virtual onlyOwner {... */\n    tag_6:\n      tag_24\n      tag_25\n      jump\t// in\n    tag_24:\n      stop\n        /* \"@openzeppelin/contracts/access/Ownable.sol\":1201:1286  function owner() public view virtual returns (address) {... */\n    tag_7:\n      tag_26\n      tag_27\n      jump\t// in\n    tag_26:\n      mload(0x40)\n      tag_28\n      swap2\n      swap1\n      tag_29\n      jump\t// in\n    tag_28:\n      mload(0x40)\n      dup1\n      swap2\n      sub\n      swap1\n      return\n        /* \"contracts/facets/MerkleTreeFacet.sol\":1592:1735  function whitelistFunc(bytes32[] calldata _merkleProof) external view... */\n    tag_8:\n      tag_30\n      0x04\n      dup1\n      calldatasize\n      sub\n      dup2\n      add\n      swap1\n      tag_31\n      swap2\n      swap1\n      tag_17\n      jump\t// in\n    tag_31:\n      tag_32\n      jump\t// in\n    tag_30:\n      stop\n        /* \"@openzeppelin/contracts/access/Ownable.sol\":2074:2272  function transferOwnership(address newOwner) public virtual onlyOwner {... */\n    tag_9:\n      tag_33\n      0x04\n      dup1\n      calldatasize\n      sub\n      dup2\n      add\n      swap1\n      tag_34\n      swap2\n      swap1\n      tag_35\n      jump\t// in\n    tag_34:\n      tag_36\n      jump\t// in\n    tag_33:\n      stop\n        /* \"contracts/facets/MerkleTreeFacet.sol\":408:433  bytes32 public merkleRoot */\n    tag_12:\n      sload(0x01)\n      dup2\n      jump\t// out\n        /* \"contracts/facets/MerkleTreeFacet.sol\":1127:1357  function verifyAddress(bytes32[] calldata _merkleProof) public ... */\n    tag_18:\n        /* \"contracts/facets/MerkleTreeFacet.sol\":1208:1212  bool */\n      0x00\n        /* \"contracts/facets/MerkleTreeFacet.sol\":1223:1235  bytes32 leaf */\n      dup1\n        /* \"contracts/facets/MerkleTreeFacet.sol\":1265:1275  msg.sender */\n      caller\n        /* \"contracts/facets/MerkleTreeFacet.sol\":1248:1276  abi.encodePacked(msg.sender) */\n      add(0x20, mload(0x40))\n      tag_38\n      swap2\n      swap1\n      tag_39\n      jump\t// in\n    tag_38:\n      mload(0x40)\n      0x20\n      dup2\n      dup4\n      sub\n      sub\n      dup2\n      mstore\n      swap1\n      0x40\n      mstore\n        /* \"contracts/facets/MerkleTreeFacet.sol\":1238:1277  keccak256(abi.encodePacked(msg.sender)) */\n      dup1\n      mload\n      swap1\n      0x20\n      add\n      keccak256\n        /* \"contracts/facets/MerkleTreeFacet.sol\":1223:1277  bytes32 leaf = keccak256(abi.encodePacked(msg.sender)) */\n      swap1\n      pop\n        /* \"contracts/facets/MerkleTreeFacet.sol\":1293:1351  MerkleProof.verifyCalldata(_merkleProof, merkleRoot, leaf) */\n      tag_40\n        /* \"contracts/facets/MerkleTreeFacet.sol\":1320:1332  _merkleProof */\n      dup5\n      dup5\n        /* \"contracts/facets/MerkleTreeFacet.sol\":1334:1344  merkleRoot */\n      sload(0x01)\n        /* \"contracts/facets/MerkleTreeFacet.sol\":1346:1350  leaf */\n      dup5\n        /* \"contracts/facets/MerkleTreeFacet.sol\":1293:1319  MerkleProof.verifyCalldata */\n      tag_41\n        /* \"contracts/facets/MerkleTreeFacet.sol\":1293:1351  MerkleProof.verifyCalldata(_merkleProof, merkleRoot, leaf) */\n      jump\t// in\n    tag_40:\n        /* \"contracts/facets/MerkleTreeFacet.sol\":1286:1351  return MerkleProof.verifyCalldata(_merkleProof, merkleRoot, leaf) */\n      swap2\n      pop\n      pop\n        /* \"contracts/facets/MerkleTreeFacet.sol\":1127:1357  function verifyAddress(bytes32[] calldata _merkleProof) public ... */\n      swap3\n      swap2\n      pop\n      pop\n      jump\t// out\n        /* \"contracts/facets/MerkleTreeFacet.sol\":552:641  function getMerkleRoot() external view returns (bytes32)  {... */\n    tag_22:\n        /* \"contracts/facets/MerkleTreeFacet.sol\":600:607  bytes32 */\n      0x00\n        /* \"contracts/facets/MerkleTreeFacet.sol\":625:635  merkleRoot */\n      sload(0x01)\n        /* \"contracts/facets/MerkleTreeFacet.sol\":618:635  return merkleRoot */\n      swap1\n      pop\n        /* \"contracts/facets/MerkleTreeFacet.sol\":552:641  function getMerkleRoot() external view returns (bytes32)  {... */\n      swap1\n      jump\t// out\n        /* \"@openzeppelin/contracts/access/Ownable.sol\":1824:1925  function renounceOwnership() public virtual onlyOwner {... */\n    tag_25:\n        /* \"@openzeppelin/contracts/access/Ownable.sol\":1094:1107  _checkOwner() */\n      tag_44\n        /* \"@openzeppelin/contracts/access/Ownable.sol\":1094:1105  _checkOwner */\n      tag_45\n        /* \"@openzeppelin/contracts/access/Ownable.sol\":1094:1107  _checkOwner() */\n      jump\t// in\n    tag_44:\n        /* \"@openzeppelin/contracts/access/Ownable.sol\":1888:1918  _transferOwnership(address(0)) */\n      tag_47\n        /* \"@openzeppelin/contracts/access/Ownable.sol\":1915:1916  0 */\n      0x00\n        /* \"@openzeppelin/contracts/access/Ownable.sol\":1888:1906  _transferOwnership */\n      tag_48\n        /* \"@openzeppelin/contracts/access/Ownable.sol\":1888:1918  _transferOwnership(address(0)) */\n      jump\t// in\n    tag_47:\n        /* \"@openzeppelin/contracts/access/Ownable.sol\":1824:1925  function renounceOwnership() public virtual onlyOwner {... */\n      jump\t// out\n        /* \"@openzeppelin/contracts/access/Ownable.sol\":1201:1286  function owner() public view virtual returns (address) {... */\n    tag_27:\n        /* \"@openzeppelin/contracts/access/Ownable.sol\":1247:1254  address */\n      0x00\n        /* \"@openzeppelin/contracts/access/Ownable.sol\":1273:1279  _owner */\n      dup1\n      0x00\n      swap1\n      sload\n      swap1\n      0x0100\n      exp\n      swap1\n      div\n      0xffffffffffffffffffffffffffffffffffffffff\n      and\n        /* \"@openzeppelin/contracts/access/Ownable.sol\":1266:1279  return _owner */\n      swap1\n      pop\n        /* \"@openzeppelin/contracts/access/Ownable.sol\":1201:1286  function owner() public view virtual returns (address) {... */\n      swap1\n      jump\t// out\n        /* \"contracts/facets/MerkleTreeFacet.sol\":1592:1735  function whitelistFunc(bytes32[] calldata _merkleProof) external view... */\n    tag_32:\n        /* \"contracts/facets/MerkleTreeFacet.sol\":1682:1709  verifyAddress(_merkleProof) */\n      tag_51\n        /* \"contracts/facets/MerkleTreeFacet.sol\":1696:1708  _merkleProof */\n      dup3\n      dup3\n        /* \"contracts/facets/MerkleTreeFacet.sol\":1682:1695  verifyAddress */\n      tag_18\n        /* \"contracts/facets/MerkleTreeFacet.sol\":1682:1709  verifyAddress(_merkleProof) */\n      jump\t// in\n    tag_51:\n        /* \"contracts/facets/MerkleTreeFacet.sol\":1674:1727  require(verifyAddress(_merkleProof), \"INVALID_PROOF\") */\n      tag_52\n      jumpi\n      mload(0x40)\n      0x08c379a000000000000000000000000000000000000000000000000000000000\n      dup2\n      mstore\n      0x04\n      add\n      tag_53\n      swap1\n      tag_54\n      jump\t// in\n    tag_53:\n      mload(0x40)\n      dup1\n      swap2\n      sub\n      swap1\n      revert\n    tag_52:\n        /* \"contracts/facets/MerkleTreeFacet.sol\":1592:1735  function whitelistFunc(bytes32[] calldata _merkleProof) external view... */\n      pop\n      pop\n      jump\t// out\n        /* \"@openzeppelin/contracts/access/Ownable.sol\":2074:2272  function transferOwnership(address newOwner) public virtual onlyOwner {... */\n    tag_36:\n        /* \"@openzeppelin/contracts/access/Ownable.sol\":1094:1107  _checkOwner() */\n      tag_56\n        /* \"@openzeppelin/contracts/access/Ownable.sol\":1094:1105  _checkOwner */\n      tag_45\n        /* \"@openzeppelin/contracts/access/Ownable.sol\":1094:1107  _checkOwner() */\n      jump\t// in\n    tag_56:\n        /* \"@openzeppelin/contracts/access/Ownable.sol\":2182:2183  0 */\n      0x00\n        /* \"@openzeppelin/contracts/access/Ownable.sol\":2162:2184  newOwner != address(0) */\n      0xffffffffffffffffffffffffffffffffffffffff\n      and\n        /* \"@openzeppelin/contracts/access/Ownable.sol\":2162:2170  newOwner */\n      dup2\n        /* \"@openzeppelin/contracts/access/Ownable.sol\":2162:2184  newOwner != address(0) */\n      0xffffffffffffffffffffffffffffffffffffffff\n      and\n      sub\n        /* \"@openzeppelin/contracts/access/Ownable.sol\":2154:2227  require(newOwner != address(0), \"Ownable: new owner is the zero address\") */\n      tag_58\n      jumpi\n      mload(0x40)\n      0x08c379a000000000000000000000000000000000000000000000000000000000\n      dup2\n      mstore\n      0x04\n      add\n      tag_59\n      swap1\n      tag_60\n      jump\t// in\n    tag_59:\n      mload(0x40)\n      dup1\n      swap2\n      sub\n      swap1\n      revert\n    tag_58:\n        /* \"@openzeppelin/contracts/access/Ownable.sol\":2237:2265  _transferOwnership(newOwner) */\n      tag_61\n        /* \"@openzeppelin/contracts/access/Ownable.sol\":2256:2264  newOwner */\n      dup2\n        /* \"@openzeppelin/contracts/access/Ownable.sol\":2237:2255  _transferOwnership */\n      tag_48\n        /* \"@openzeppelin/contracts/access/Ownable.sol\":2237:2265  _transferOwnership(newOwner) */\n      jump\t// in\n    tag_61:\n        /* \"@openzeppelin/contracts/access/Ownable.sol\":2074:2272  function transferOwnership(address newOwner) public virtual onlyOwner {... */\n      pop\n      jump\t// out\n        /* \"@openzeppelin/contracts/utils/cryptography/MerkleProof.sol\":1411:1583  function verifyCalldata(bytes32[] calldata proof, bytes32 root, bytes32 leaf) internal pure returns (bool) {... */\n    tag_41:\n        /* \"@openzeppelin/contracts/utils/cryptography/MerkleProof.sol\":1512:1516  bool */\n      0x00\n        /* \"@openzeppelin/contracts/utils/cryptography/MerkleProof.sol\":1572:1576  root */\n      dup3\n        /* \"@openzeppelin/contracts/utils/cryptography/MerkleProof.sol\":1535:1568  processProofCalldata(proof, leaf) */\n      tag_63\n        /* \"@openzeppelin/contracts/utils/cryptography/MerkleProof.sol\":1556:1561  proof */\n      dup7\n      dup7\n        /* \"@openzeppelin/contracts/utils/cryptography/MerkleProof.sol\":1563:1567  leaf */\n      dup6\n        /* \"@openzeppelin/contracts/utils/cryptography/MerkleProof.sol\":1535:1555  processProofCalldata */\n      tag_64\n        /* \"@openzeppelin/contracts/utils/cryptography/MerkleProof.sol\":1535:1568  processProofCalldata(proof, leaf) */\n      jump\t// in\n    tag_63:\n        /* \"@openzeppelin/contracts/utils/cryptography/MerkleProof.sol\":1535:1576  processProofCalldata(proof, leaf) == root */\n      eq\n        /* \"@openzeppelin/contracts/utils/cryptography/MerkleProof.sol\":1528:1576  return processProofCalldata(proof, leaf) == root */\n      swap1\n      pop\n        /* \"@openzeppelin/contracts/utils/cryptography/MerkleProof.sol\":1411:1583  function verifyCalldata(bytes32[] calldata proof, bytes32 root, bytes32 leaf) internal pure returns (bool) {... */\n      swap5\n      swap4\n      pop\n      pop\n      pop\n      pop\n      jump\t// out\n        /* \"@openzeppelin/contracts/access/Ownable.sol\":1359:1489  function _checkOwner() internal view virtual {... */\n    tag_45:\n        /* \"@openzeppelin/contracts/access/Ownable.sol\":1433:1445  _msgSender() */\n      tag_66\n        /* \"@openzeppelin/contracts/access/Ownable.sol\":1433:1443  _msgSender */\n      tag_67\n        /* \"@openzeppelin/contracts/access/Ownable.sol\":1433:1445  _msgSender() */\n      jump\t// in\n    tag_66:\n        /* \"@openzeppelin/contracts/access/Ownable.sol\":1422:1445  owner() == _msgSender() */\n      0xffffffffffffffffffffffffffffffffffffffff\n      and\n        /* \"@openzeppelin/contracts/access/Ownable.sol\":1422:1429  owner() */\n      tag_68\n        /* \"@openzeppelin/contracts/access/Ownable.sol\":1422:1427  owner */\n      tag_27\n        /* \"@openzeppelin/contracts/access/Ownable.sol\":1422:1429  owner() */\n      jump\t// in\n    tag_68:\n        /* \"@openzeppelin/contracts/access/Ownable.sol\":1422:1445  owner() == _msgSender() */\n      0xffffffffffffffffffffffffffffffffffffffff\n      and\n      eq\n        /* \"@openzeppelin/contracts/access/Ownable.sol\":1414:1482  require(owner() == _msgSender(), \"Ownable: caller is not the owner\") */\n      tag_69\n      jumpi\n      mload(0x40)\n      0x08c379a000000000000000000000000000000000000000000000000000000000\n      dup2\n      mstore\n      0x04\n      add\n      tag_70\n      swap1\n      tag_71\n      jump\t// in\n    tag_70:\n      mload(0x40)\n      dup1\n      swap2\n      sub\n      swap1\n      revert\n    tag_69:\n        /* \"@openzeppelin/contracts/access/Ownable.sol\":1359:1489  function _checkOwner() internal view virtual {... */\n      jump\t// out\n        /* \"@openzeppelin/contracts/access/Ownable.sol\":2426:2613  function _transferOwnership(address newOwner) internal virtual {... */\n    tag_48:\n        /* \"@openzeppelin/contracts/access/Ownable.sol\":2499:2515  address oldOwner */\n      0x00\n        /* \"@openzeppelin/contracts/access/Ownable.sol\":2518:2524  _owner */\n      dup1\n      0x00\n      swap1\n      sload\n      swap1\n      0x0100\n      exp\n      swap1\n      div\n      0xffffffffffffffffffffffffffffffffffffffff\n      and\n        /* \"@openzeppelin/contracts/access/Ownable.sol\":2499:2524  address oldOwner = _owner */\n      swap1\n      pop\n        /* \"@openzeppelin/contracts/access/Ownable.sol\":2543:2551  newOwner */\n      dup2\n        /* \"@openzeppelin/contracts/access/Ownable.sol\":2534:2540  _owner */\n      0x00\n      dup1\n        /* \"@openzeppelin/contracts/access/Ownable.sol\":2534:2551  _owner = newOwner */\n      0x0100\n      exp\n      dup2\n      sload\n      dup2\n      0xffffffffffffffffffffffffffffffffffffffff\n      mul\n      not\n      and\n      swap1\n      dup4\n      0xffffffffffffffffffffffffffffffffffffffff\n      and\n      mul\n      or\n      swap1\n      sstore\n      pop\n        /* \"@openzeppelin/contracts/access/Ownable.sol\":2597:2605  newOwner */\n      dup2\n        /* \"@openzeppelin/contracts/access/Ownable.sol\":2566:2606  OwnershipTransferred(oldOwner, newOwner) */\n      0xffffffffffffffffffffffffffffffffffffffff\n      and\n        /* \"@openzeppelin/contracts/access/Ownable.sol\":2587:2595  oldOwner */\n      dup2\n        /* \"@openzeppelin/contracts/access/Ownable.sol\":2566:2606  OwnershipTransferred(oldOwner, newOwner) */\n      0xffffffffffffffffffffffffffffffffffffffff\n      and\n      0x8be0079c531659141344cd1fd0a4f28419497f9722a3daafe3b4186f6b6457e0\n      mload(0x40)\n      mload(0x40)\n      dup1\n      swap2\n      sub\n      swap1\n      log3\n        /* \"@openzeppelin/contracts/access/Ownable.sol\":2489:2613  {... */\n      pop\n        /* \"@openzeppelin/contracts/access/Ownable.sol\":2426:2613  function _transferOwnership(address newOwner) internal virtual {... */\n      pop\n      jump\t// out\n        /* \"@openzeppelin/contracts/utils/cryptography/MerkleProof.sol\":2331:2631  function processProofCalldata(bytes32[] calldata proof, bytes32 leaf) internal pure returns (bytes32) {... */\n    tag_64:\n        /* \"@openzeppelin/contracts/utils/cryptography/MerkleProof.sol\":2424:2431  bytes32 */\n      0x00\n        /* \"@openzeppelin/contracts/utils/cryptography/MerkleProof.sol\":2443:2463  bytes32 computedHash */\n      dup1\n        /* \"@openzeppelin/contracts/utils/cryptography/MerkleProof.sol\":2466:2470  leaf */\n      dup3\n        /* \"@openzeppelin/contracts/utils/cryptography/MerkleProof.sol\":2443:2470  bytes32 computedHash = leaf */\n      swap1\n      pop\n        /* \"@openzeppelin/contracts/utils/cryptography/MerkleProof.sol\":2485:2494  uint256 i */\n      0x00\n        /* \"@openzeppelin/contracts/utils/cryptography/MerkleProof.sol\":2480:2596  for (uint256 i = 0; i < proof.length; i++) {... */\n    tag_74:\n        /* \"@openzeppelin/contracts/utils/cryptography/MerkleProof.sol\":2504:2509  proof */\n      dup6\n      dup6\n        /* \"@openzeppelin/contracts/utils/cryptography/MerkleProof.sol\":2504:2516  proof.length */\n      swap1\n      pop\n        /* \"@openzeppelin/contracts/utils/cryptography/MerkleProof.sol\":2500:2501  i */\n      dup2\n        /* \"@openzeppelin/contracts/utils/cryptography/MerkleProof.sol\":2500:2516  i < proof.length */\n      lt\n        /* \"@openzeppelin/contracts/utils/cryptography/MerkleProof.sol\":2480:2596  for (uint256 i = 0; i < proof.length; i++) {... */\n      iszero\n      tag_75\n      jumpi\n        /* \"@openzeppelin/contracts/utils/cryptography/MerkleProof.sol\":2552:2585  _hashPair(computedHash, proof[i]) */\n      tag_77\n        /* \"@openzeppelin/contracts/utils/cryptography/MerkleProof.sol\":2562:2574  computedHash */\n      dup3\n        /* \"@openzeppelin/contracts/utils/cryptography/MerkleProof.sol\":2576:2581  proof */\n      dup8\n      dup8\n        /* \"@openzeppelin/contracts/utils/cryptography/MerkleProof.sol\":2582:2583  i */\n      dup5\n        /* \"@openzeppelin/contracts/utils/cryptography/MerkleProof.sol\":2576:2584  proof[i] */\n      dup2\n      dup2\n      lt\n      tag_78\n      jumpi\n      tag_79\n      tag_80\n      jump\t// in\n    tag_79:\n    tag_78:\n      swap1\n      pop\n      0x20\n      mul\n      add\n      calldataload\n        /* \"@openzeppelin/contracts/utils/cryptography/MerkleProof.sol\":2552:2561  _hashPair */\n      tag_81\n        /* \"@openzeppelin/contracts/utils/cryptography/MerkleProof.sol\":2552:2585  _hashPair(computedHash, proof[i]) */\n      jump\t// in\n    tag_77:\n        /* \"@openzeppelin/contracts/utils/cryptography/MerkleProof.sol\":2537:2585  computedHash = _hashPair(computedHash, proof[i]) */\n      swap2\n      pop\n        /* \"@openzeppelin/contracts/utils/cryptography/MerkleProof.sol\":2518:2521  i++ */\n      dup1\n      dup1\n      tag_82\n      swap1\n      tag_83\n      jump\t// in\n    tag_82:\n      swap2\n      pop\n      pop\n        /* \"@openzeppelin/contracts/utils/cryptography/MerkleProof.sol\":2480:2596  for (uint256 i = 0; i < proof.length; i++) {... */\n      jump(tag_74)\n    tag_75:\n      pop\n        /* \"@openzeppelin/contracts/utils/cryptography/MerkleProof.sol\":2612:2624  computedHash */\n      dup1\n        /* \"@openzeppelin/contracts/utils/cryptography/MerkleProof.sol\":2605:2624  return computedHash */\n      swap2\n      pop\n      pop\n        /* \"@openzeppelin/contracts/utils/cryptography/MerkleProof.sol\":2331:2631  function processProofCalldata(bytes32[] calldata proof, bytes32 leaf) internal pure returns (bytes32) {... */\n      swap4\n      swap3\n      pop\n      pop\n      pop\n      jump\t// out\n        /* \"@openzeppelin/contracts/utils/Context.sol\":640:736  function _msgSender() internal view virtual returns (address) {... */\n    tag_67:\n        /* \"@openzeppelin/contracts/utils/Context.sol\":693:700  address */\n      0x00\n        /* \"@openzeppelin/contracts/utils/Context.sol\":719:729  msg.sender */\n      caller\n        /* \"@openzeppelin/contracts/utils/Context.sol\":712:729  return msg.sender */\n      swap1\n      pop\n        /* \"@openzeppelin/contracts/utils/Context.sol\":640:736  function _msgSender() internal view virtual returns (address) {... */\n      swap1\n      jump\t// out\n        /* \"@openzeppelin/contracts/utils/cryptography/MerkleProof.sol\":9205:9352  function _hashPair(bytes32 a, bytes32 b) private pure returns (bytes32) {... */\n    tag_81:\n        /* \"@openzeppelin/contracts/utils/cryptography/MerkleProof.sol\":9268:9275  bytes32 */\n      0x00\n        /* \"@openzeppelin/contracts/utils/cryptography/MerkleProof.sol\":9298:9299  b */\n      dup2\n        /* \"@openzeppelin/contracts/utils/cryptography/MerkleProof.sol\":9294:9295  a */\n      dup4\n        /* \"@openzeppelin/contracts/utils/cryptography/MerkleProof.sol\":9294:9299  a < b */\n      lt\n        /* \"@openzeppelin/contracts/utils/cryptography/MerkleProof.sol\":9294:9345  a < b ? _efficientHash(a, b) : _efficientHash(b, a) */\n      tag_86\n      jumpi\n        /* \"@openzeppelin/contracts/utils/cryptography/MerkleProof.sol\":9325:9345  _efficientHash(b, a) */\n      tag_87\n        /* \"@openzeppelin/contracts/utils/cryptography/MerkleProof.sol\":9340:9341  b */\n      dup3\n        /* \"@openzeppelin/contracts/utils/cryptography/MerkleProof.sol\":9343:9344  a */\n      dup5\n        /* \"@openzeppelin/contracts/utils/cryptography/MerkleProof.sol\":9325:9339  _efficientHash */\n      tag_88\n        /* \"@openzeppelin/contracts/utils/cryptography/MerkleProof.sol\":9325:9345  _efficientHash(b, a) */\n      jump\t// in\n    tag_87:\n        /* \"@openzeppelin/contracts/utils/cryptography/MerkleProof.sol\":9294:9345  a < b ? _efficientHash(a, b) : _efficientHash(b, a) */\n      jump(tag_89)\n    tag_86:\n        /* \"@openzeppelin/contracts/utils/cryptography/MerkleProof.sol\":9302:9322  _efficientHash(a, b) */\n      tag_90\n        /* \"@openzeppelin/contracts/utils/cryptography/MerkleProof.sol\":9317:9318  a */\n      dup4\n        /* \"@openzeppelin/contracts/utils/cryptography/MerkleProof.sol\":9320:9321  b */\n      dup4\n        /* \"@openzeppelin/contracts/utils/cryptography/MerkleProof.sol\":9302:9316  _efficientHash */\n      tag_88\n        /* \"@openzeppelin/contracts/utils/cryptography/MerkleProof.sol\":9302:9322  _efficientHash(a, b) */\n      jump\t// in\n    tag_90:\n        /* \"@openzeppelin/contracts/utils/cryptography/MerkleProof.sol\":9294:9345  a < b ? _efficientHash(a, b) : _efficientHash(b, a) */\n    tag_89:\n        /* \"@openzeppelin/contracts/utils/cryptography/MerkleProof.sol\":9287:9345  return a < b ? _efficientHash(a, b) : _efficientHash(b, a) */\n      swap1\n      pop\n        /* \"@openzeppelin/contracts/utils/cryptography/MerkleProof.sol\":9205:9352  function _hashPair(bytes32 a, bytes32 b) private pure returns (bytes32) {... */\n      swap3\n      swap2\n      pop\n      pop\n      jump\t// out\n        /* \"@openzeppelin/contracts/utils/cryptography/MerkleProof.sol\":9358:9619  function _efficientHash(bytes32 a, bytes32 b) private pure returns (bytes32 value) {... */\n    tag_88:\n        /* \"@openzeppelin/contracts/utils/cryptography/MerkleProof.sol\":9426:9439  bytes32 value */\n      0x00\n        /* \"@openzeppelin/contracts/utils/cryptography/MerkleProof.sol\":9530:9531  a */\n      dup3\n        /* \"@openzeppelin/contracts/utils/cryptography/MerkleProof.sol\":9524:9528  0x00 */\n      0x00\n        /* \"@openzeppelin/contracts/utils/cryptography/MerkleProof.sol\":9517:9532  mstore(0x00, a) */\n      mstore\n        /* \"@openzeppelin/contracts/utils/cryptography/MerkleProof.sol\":9558:9559  b */\n      dup2\n        /* \"@openzeppelin/contracts/utils/cryptography/MerkleProof.sol\":9552:9556  0x20 */\n      0x20\n        /* \"@openzeppelin/contracts/utils/cryptography/MerkleProof.sol\":9545:9560  mstore(0x20, b) */\n      mstore\n        /* \"@openzeppelin/contracts/utils/cryptography/MerkleProof.sol\":9598:9602  0x40 */\n      0x40\n        /* \"@openzeppelin/contracts/utils/cryptography/MerkleProof.sol\":9592:9596  0x00 */\n      0x00\n        /* \"@openzeppelin/contracts/utils/cryptography/MerkleProof.sol\":9582:9603  keccak256(0x00, 0x40) */\n      keccak256\n        /* \"@openzeppelin/contracts/utils/cryptography/MerkleProof.sol\":9573:9603  value := keccak256(0x00, 0x40) */\n      swap1\n      pop\n        /* \"@openzeppelin/contracts/utils/cryptography/MerkleProof.sol\":9358:9619  function _efficientHash(bytes32 a, bytes32 b) private pure returns (bytes32 value) {... */\n      swap3\n      swap2\n      pop\n      pop\n      jump\t// out\n        /* \"#utility.yul\":7:84   */\n    tag_92:\n        /* \"#utility.yul\":44:51   */\n      0x00\n        /* \"#utility.yul\":73:78   */\n      dup2\n        /* \"#utility.yul\":62:78   */\n      swap1\n      pop\n        /* \"#utility.yul\":7:84   */\n      swap2\n      swap1\n      pop\n      jump\t// out\n        /* \"#utility.yul\":90:208   */\n    tag_93:\n        /* \"#utility.yul\":177:201   */\n      tag_124\n        /* \"#utility.yul\":195:200   */\n      dup2\n        /* \"#utility.yul\":177:201   */\n      tag_92\n      jump\t// in\n    tag_124:\n        /* \"#utility.yul\":172:175   */\n      dup3\n        /* \"#utility.yul\":165:202   */\n      mstore\n        /* \"#utility.yul\":90:208   */\n      pop\n      pop\n      jump\t// out\n        /* \"#utility.yul\":214:436   */\n    tag_14:\n        /* \"#utility.yul\":307:311   */\n      0x00\n        /* \"#utility.yul\":345:347   */\n      0x20\n        /* \"#utility.yul\":334:343   */\n      dup3\n        /* \"#utility.yul\":330:348   */\n      add\n        /* \"#utility.yul\":322:348   */\n      swap1\n      pop\n        /* \"#utility.yul\":358:429   */\n      tag_126\n        /* \"#utility.yul\":426:427   */\n      0x00\n        /* \"#utility.yul\":415:424   */\n      dup4\n        /* \"#utility.yul\":411:428   */\n      add\n        /* \"#utility.yul\":402:408   */\n      dup5\n        /* \"#utility.yul\":358:429   */\n      tag_93\n      jump\t// in\n    tag_126:\n        /* \"#utility.yul\":214:436   */\n      swap3\n      swap2\n      pop\n      pop\n      jump\t// out\n        /* \"#utility.yul\":523:640   */\n    tag_95:\n        /* \"#utility.yul\":632:633   */\n      0x00\n        /* \"#utility.yul\":629:630   */\n      dup1\n        /* \"#utility.yul\":622:634   */\n      revert\n        /* \"#utility.yul\":646:763   */\n    tag_96:\n        /* \"#utility.yul\":755:756   */\n      0x00\n        /* \"#utility.yul\":752:753   */\n      dup1\n        /* \"#utility.yul\":745:757   */\n      revert\n        /* \"#utility.yul\":769:886   */\n    tag_97:\n        /* \"#utility.yul\":878:879   */\n      0x00\n        /* \"#utility.yul\":875:876   */\n      dup1\n        /* \"#utility.yul\":868:880   */\n      revert\n        /* \"#utility.yul\":892:1009   */\n    tag_98:\n        /* \"#utility.yul\":1001:1002   */\n      0x00\n        /* \"#utility.yul\":998:999   */\n      dup1\n        /* \"#utility.yul\":991:1003   */\n      revert\n        /* \"#utility.yul\":1015:1132   */\n    tag_99:\n        /* \"#utility.yul\":1124:1125   */\n      0x00\n        /* \"#utility.yul\":1121:1122   */\n      dup1\n        /* \"#utility.yul\":1114:1126   */\n      revert\n        /* \"#utility.yul\":1155:1723   */\n    tag_100:\n        /* \"#utility.yul\":1228:1236   */\n      0x00\n        /* \"#utility.yul\":1238:1244   */\n      dup1\n        /* \"#utility.yul\":1288:1291   */\n      dup4\n        /* \"#utility.yul\":1281:1285   */\n      0x1f\n        /* \"#utility.yul\":1273:1279   */\n      dup5\n        /* \"#utility.yul\":1269:1286   */\n      add\n        /* \"#utility.yul\":1265:1292   */\n      slt\n        /* \"#utility.yul\":1255:1377   */\n      tag_134\n      jumpi\n        /* \"#utility.yul\":1296:1375   */\n      tag_135\n      tag_97\n      jump\t// in\n    tag_135:\n        /* \"#utility.yul\":1255:1377   */\n    tag_134:\n        /* \"#utility.yul\":1409:1415   */\n      dup3\n        /* \"#utility.yul\":1396:1416   */\n      calldataload\n        /* \"#utility.yul\":1386:1416   */\n      swap1\n      pop\n        /* \"#utility.yul\":1439:1457   */\n      0xffffffffffffffff\n        /* \"#utility.yul\":1431:1437   */\n      dup2\n        /* \"#utility.yul\":1428:1458   */\n      gt\n        /* \"#utility.yul\":1425:1542   */\n      iszero\n      tag_136\n      jumpi\n        /* \"#utility.yul\":1461:1540   */\n      tag_137\n      tag_98\n      jump\t// in\n    tag_137:\n        /* \"#utility.yul\":1425:1542   */\n    tag_136:\n        /* \"#utility.yul\":1575:1579   */\n      0x20\n        /* \"#utility.yul\":1567:1573   */\n      dup4\n        /* \"#utility.yul\":1563:1580   */\n      add\n        /* \"#utility.yul\":1551:1580   */\n      swap2\n      pop\n        /* \"#utility.yul\":1629:1632   */\n      dup4\n        /* \"#utility.yul\":1621:1625   */\n      0x20\n        /* \"#utility.yul\":1613:1619   */\n      dup3\n        /* \"#utility.yul\":1609:1626   */\n      mul\n        /* \"#utility.yul\":1599:1607   */\n      dup4\n        /* \"#utility.yul\":1595:1627   */\n      add\n        /* \"#utility.yul\":1592:1633   */\n      gt\n        /* \"#utility.yul\":1589:1717   */\n      iszero\n      tag_138\n      jumpi\n        /* \"#utility.yul\":1636:1715   */\n      tag_139\n      tag_99\n      jump\t// in\n    tag_139:\n        /* \"#utility.yul\":1589:1717   */\n    tag_138:\n        /* \"#utility.yul\":1155:1723   */\n      swap3\n      pop\n      swap3\n      swap1\n      pop\n      jump\t// out\n        /* \"#utility.yul\":1729:2288   */\n    tag_17:\n        /* \"#utility.yul\":1815:1821   */\n      0x00\n        /* \"#utility.yul\":1823:1829   */\n      dup1\n        /* \"#utility.yul\":1872:1874   */\n      0x20\n        /* \"#utility.yul\":1860:1869   */\n      dup4\n        /* \"#utility.yul\":1851:1858   */\n      dup6\n        /* \"#utility.yul\":1847:1870   */\n      sub\n        /* \"#utility.yul\":1843:1875   */\n      slt\n        /* \"#utility.yul\":1840:1959   */\n      iszero\n      tag_141\n      jumpi\n        /* \"#utility.yul\":1878:1957   */\n      tag_142\n      tag_95\n      jump\t// in\n    tag_142:\n        /* \"#utility.yul\":1840:1959   */\n    tag_141:\n        /* \"#utility.yul\":2026:2027   */\n      0x00\n        /* \"#utility.yul\":2015:2024   */\n      dup4\n        /* \"#utility.yul\":2011:2028   */\n      add\n        /* \"#utility.yul\":1998:2029   */\n      calldataload\n        /* \"#utility.yul\":2056:2074   */\n      0xffffffffffffffff\n        /* \"#utility.yul\":2048:2054   */\n      dup2\n        /* \"#utility.yul\":2045:2075   */\n      gt\n        /* \"#utility.yul\":2042:2159   */\n      iszero\n      tag_143\n      jumpi\n        /* \"#utility.yul\":2078:2157   */\n      tag_144\n      tag_96\n      jump\t// in\n    tag_144:\n        /* \"#utility.yul\":2042:2159   */\n    tag_143:\n        /* \"#utility.yul\":2191:2271   */\n      tag_145\n        /* \"#utility.yul\":2263:2270   */\n      dup6\n        /* \"#utility.yul\":2254:2260   */\n      dup3\n        /* \"#utility.yul\":2243:2252   */\n      dup7\n        /* \"#utility.yul\":2239:2261   */\n      add\n        /* \"#utility.yul\":2191:2271   */\n      tag_100\n      jump\t// in\n    tag_145:\n        /* \"#utility.yul\":2173:2271   */\n      swap3\n      pop\n      swap3\n      pop\n        /* \"#utility.yul\":1969:2281   */\n      pop\n        /* \"#utility.yul\":1729:2288   */\n      swap3\n      pop\n      swap3\n      swap1\n      pop\n      jump\t// out\n        /* \"#utility.yul\":2294:2384   */\n    tag_101:\n        /* \"#utility.yul\":2328:2335   */\n      0x00\n        /* \"#utility.yul\":2371:2376   */\n      dup2\n        /* \"#utility.yul\":2364:2377   */\n      iszero\n        /* \"#utility.yul\":2357:2378   */\n      iszero\n        /* \"#utility.yul\":2346:2378   */\n      swap1\n      pop\n        /* \"#utility.yul\":2294:2384   */\n      swap2\n      swap1\n      pop\n      jump\t// out\n        /* \"#utility.yul\":2390:2499   */\n    tag_102:\n        /* \"#utility.yul\":2471:2492   */\n      tag_148\n        /* \"#utility.yul\":2486:2491   */\n      dup2\n        /* \"#utility.yul\":2471:2492   */\n      tag_101\n      jump\t// in\n    tag_148:\n        /* \"#utility.yul\":2466:2469   */\n      dup3\n        /* \"#utility.yul\":2459:2493   */\n      mstore\n        /* \"#utility.yul\":2390:2499   */\n      pop\n      pop\n      jump\t// out\n        /* \"#utility.yul\":2505:2715   */\n    tag_20:\n        /* \"#utility.yul\":2592:2596   */\n      0x00\n        /* \"#utility.yul\":2630:2632   */\n      0x20\n        /* \"#utility.yul\":2619:2628   */\n      dup3\n        /* \"#utility.yul\":2615:2633   */\n      add\n        /* \"#utility.yul\":2607:2633   */\n      swap1\n      pop\n        /* \"#utility.yul\":2643:2708   */\n      tag_150\n        /* \"#utility.yul\":2705:2706   */\n      0x00\n        /* \"#utility.yul\":2694:2703   */\n      dup4\n        /* \"#utility.yul\":2690:2707   */\n      add\n        /* \"#utility.yul\":2681:2687   */\n      dup5\n        /* \"#utility.yul\":2643:2708   */\n      tag_102\n      jump\t// in\n    tag_150:\n        /* \"#utility.yul\":2505:2715   */\n      swap3\n      swap2\n      pop\n      pop\n      jump\t// out\n        /* \"#utility.yul\":2721:2847   */\n    tag_103:\n        /* \"#utility.yul\":2758:2765   */\n      0x00\n        /* \"#utility.yul\":2798:2840   */\n      0xffffffffffffffffffffffffffffffffffffffff\n        /* \"#utility.yul\":2791:2796   */\n      dup3\n        /* \"#utility.yul\":2787:2841   */\n      and\n        /* \"#utility.yul\":2776:2841   */\n      swap1\n      pop\n        /* \"#utility.yul\":2721:2847   */\n      swap2\n      swap1\n      pop\n      jump\t// out\n        /* \"#utility.yul\":2853:2949   */\n    tag_104:\n        /* \"#utility.yul\":2890:2897   */\n      0x00\n        /* \"#utility.yul\":2919:2943   */\n      tag_153\n        /* \"#utility.yul\":2937:2942   */\n      dup3\n        /* \"#utility.yul\":2919:2943   */\n      tag_103\n      jump\t// in\n    tag_153:\n        /* \"#utility.yul\":2908:2943   */\n      swap1\n      pop\n        /* \"#utility.yul\":2853:2949   */\n      swap2\n      swap1\n      pop\n      jump\t// out\n        /* \"#utility.yul\":2955:3073   */\n    tag_105:\n        /* \"#utility.yul\":3042:3066   */\n      tag_155\n        /* \"#utility.yul\":3060:3065   */\n      dup2\n        /* \"#utility.yul\":3042:3066   */\n      tag_104\n      jump\t// in\n    tag_155:\n        /* \"#utility.yul\":3037:3040   */\n      dup3\n        /* \"#utility.yul\":3030:3067   */\n      mstore\n        /* \"#utility.yul\":2955:3073   */\n      pop\n      pop\n      jump\t// out\n        /* \"#utility.yul\":3079:3301   */\n    tag_29:\n        /* \"#utility.yul\":3172:3176   */\n      0x00\n        /* \"#utility.yul\":3210:3212   */\n      0x20\n        /* \"#utility.yul\":3199:3208   */\n      dup3\n        /* \"#utility.yul\":3195:3213   */\n      add\n        /* \"#utility.yul\":3187:3213   */\n      swap1\n      pop\n        /* \"#utility.yul\":3223:3294   */\n      tag_157\n        /* \"#utility.yul\":3291:3292   */\n      0x00\n        /* \"#utility.yul\":3280:3289   */\n      dup4\n        /* \"#utility.yul\":3276:3293   */\n      add\n        /* \"#utility.yul\":3267:3273   */\n      dup5\n        /* \"#utility.yul\":3223:3294   */\n      tag_105\n      jump\t// in\n    tag_157:\n        /* \"#utility.yul\":3079:3301   */\n      swap3\n      swap2\n      pop\n      pop\n      jump\t// out\n        /* \"#utility.yul\":3307:3429   */\n    tag_106:\n        /* \"#utility.yul\":3380:3404   */\n      tag_159\n        /* \"#utility.yul\":3398:3403   */\n      dup2\n        /* \"#utility.yul\":3380:3404   */\n      tag_104\n      jump\t// in\n    tag_159:\n        /* \"#utility.yul\":3373:3378   */\n      dup2\n        /* \"#utility.yul\":3370:3405   */\n      eq\n        /* \"#utility.yul\":3360:3423   */\n      tag_160\n      jumpi\n        /* \"#utility.yul\":3419:3420   */\n      0x00\n        /* \"#utility.yul\":3416:3417   */\n      dup1\n        /* \"#utility.yul\":3409:3421   */\n      revert\n        /* \"#utility.yul\":3360:3423   */\n    tag_160:\n        /* \"#utility.yul\":3307:3429   */\n      pop\n      jump\t// out\n        /* \"#utility.yul\":3435:3574   */\n    tag_107:\n        /* \"#utility.yul\":3481:3486   */\n      0x00\n        /* \"#utility.yul\":3519:3525   */\n      dup2\n        /* \"#utility.yul\":3506:3526   */\n      calldataload\n        /* \"#utility.yul\":3497:3526   */\n      swap1\n      pop\n        /* \"#utility.yul\":3535:3568   */\n      tag_162\n        /* \"#utility.yul\":3562:3567   */\n      dup2\n        /* \"#utility.yul\":3535:3568   */\n      tag_106\n      jump\t// in\n    tag_162:\n        /* \"#utility.yul\":3435:3574   */\n      swap3\n      swap2\n      pop\n      pop\n      jump\t// out\n        /* \"#utility.yul\":3580:3909   */\n    tag_35:\n        /* \"#utility.yul\":3639:3645   */\n      0x00\n        /* \"#utility.yul\":3688:3690   */\n      0x20\n        /* \"#utility.yul\":3676:3685   */\n      dup3\n        /* \"#utility.yul\":3667:3674   */\n      dup5\n        /* \"#utility.yul\":3663:3686   */\n      sub\n        /* \"#utility.yul\":3659:3691   */\n      slt\n        /* \"#utility.yul\":3656:3775   */\n      iszero\n      tag_164\n      jumpi\n        /* \"#utility.yul\":3694:3773   */\n      tag_165\n      tag_95\n      jump\t// in\n    tag_165:\n        /* \"#utility.yul\":3656:3775   */\n    tag_164:\n        /* \"#utility.yul\":3814:3815   */\n      0x00\n        /* \"#utility.yul\":3839:3892   */\n      tag_166\n        /* \"#utility.yul\":3884:3891   */\n      dup5\n        /* \"#utility.yul\":3875:3881   */\n      dup3\n        /* \"#utility.yul\":3864:3873   */\n      dup6\n        /* \"#utility.yul\":3860:3882   */\n      add\n        /* \"#utility.yul\":3839:3892   */\n      tag_107\n      jump\t// in\n    tag_166:\n        /* \"#utility.yul\":3829:3892   */\n      swap2\n      pop\n        /* \"#utility.yul\":3785:3902   */\n      pop\n        /* \"#utility.yul\":3580:3909   */\n      swap3\n      swap2\n      pop\n      pop\n      jump\t// out\n        /* \"#utility.yul\":3915:4009   */\n    tag_108:\n        /* \"#utility.yul\":3948:3956   */\n      0x00\n        /* \"#utility.yul\":3996:4001   */\n      dup2\n        /* \"#utility.yul\":3992:3994   */\n      0x60\n        /* \"#utility.yul\":3988:4002   */\n      shl\n        /* \"#utility.yul\":3967:4002   */\n      swap1\n      pop\n        /* \"#utility.yul\":3915:4009   */\n      swap2\n      swap1\n      pop\n      jump\t// out\n        /* \"#utility.yul\":4015:4109   */\n    tag_109:\n        /* \"#utility.yul\":4054:4061   */\n      0x00\n        /* \"#utility.yul\":4083:4103   */\n      tag_169\n        /* \"#utility.yul\":4097:4102   */\n      dup3\n        /* \"#utility.yul\":4083:4103   */\n      tag_108\n      jump\t// in\n    tag_169:\n        /* \"#utility.yul\":4072:4103   */\n      swap1\n      pop\n        /* \"#utility.yul\":4015:4109   */\n      swap2\n      swap1\n      pop\n      jump\t// out\n        /* \"#utility.yul\":4115:4215   */\n    tag_110:\n        /* \"#utility.yul\":4154:4161   */\n      0x00\n        /* \"#utility.yul\":4183:4209   */\n      tag_171\n        /* \"#utility.yul\":4203:4208   */\n      dup3\n        /* \"#utility.yul\":4183:4209   */\n      tag_109\n      jump\t// in\n    tag_171:\n        /* \"#utility.yul\":4172:4209   */\n      swap1\n      pop\n        /* \"#utility.yul\":4115:4215   */\n      swap2\n      swap1\n      pop\n      jump\t// out\n        /* \"#utility.yul\":4221:4378   */\n    tag_111:\n        /* \"#utility.yul\":4326:4371   */\n      tag_173\n        /* \"#utility.yul\":4346:4370   */\n      tag_174\n        /* \"#utility.yul\":4364:4369   */\n      dup3\n        /* \"#utility.yul\":4346:4370   */\n      tag_104\n      jump\t// in\n    tag_174:\n        /* \"#utility.yul\":4326:4371   */\n      tag_110\n      jump\t// in\n    tag_173:\n        /* \"#utility.yul\":4321:4324   */\n      dup3\n        /* \"#utility.yul\":4314:4372   */\n      mstore\n        /* \"#utility.yul\":4221:4378   */\n      pop\n      pop\n      jump\t// out\n        /* \"#utility.yul\":4384:4640   */\n    tag_39:\n        /* \"#utility.yul\":4496:4499   */\n      0x00\n        /* \"#utility.yul\":4511:4586   */\n      tag_176\n        /* \"#utility.yul\":4582:4585   */\n      dup3\n        /* \"#utility.yul\":4573:4579   */\n      dup5\n        /* \"#utility.yul\":4511:4586   */\n      tag_111\n      jump\t// in\n    tag_176:\n        /* \"#utility.yul\":4611:4613   */\n      0x14\n        /* \"#utility.yul\":4606:4609   */\n      dup3\n        /* \"#utility.yul\":4602:4614   */\n      add\n        /* \"#utility.yul\":4595:4614   */\n      swap2\n      pop\n        /* \"#utility.yul\":4631:4634   */\n      dup2\n        /* \"#utility.yul\":4624:4634   */\n      swap1\n      pop\n        /* \"#utility.yul\":4384:4640   */\n      swap3\n      swap2\n      pop\n      pop\n      jump\t// out\n        /* \"#utility.yul\":4646:4815   */\n    tag_112:\n        /* \"#utility.yul\":4730:4741   */\n      0x00\n        /* \"#utility.yul\":4764:4770   */\n      dup3\n        /* \"#utility.yul\":4759:4762   */\n      dup3\n        /* \"#utility.yul\":4752:4771   */\n      mstore\n        /* \"#utility.yul\":4804:4808   */\n      0x20\n        /* \"#utility.yul\":4799:4802   */\n      dup3\n        /* \"#utility.yul\":4795:4809   */\n      add\n        /* \"#utility.yul\":4780:4809   */\n      swap1\n      pop\n        /* \"#utility.yul\":4646:4815   */\n      swap3\n      swap2\n      pop\n      pop\n      jump\t// out\n        /* \"#utility.yul\":4821:4984   */\n    tag_113:\n        /* \"#utility.yul\":4961:4976   */\n      0x494e56414c49445f50524f4f4600000000000000000000000000000000000000\n        /* \"#utility.yul\":4957:4958   */\n      0x00\n        /* \"#utility.yul\":4949:4955   */\n      dup3\n        /* \"#utility.yul\":4945:4959   */\n      add\n        /* \"#utility.yul\":4938:4977   */\n      mstore\n        /* \"#utility.yul\":4821:4984   */\n      pop\n      jump\t// out\n        /* \"#utility.yul\":4990:5356   */\n    tag_114:\n        /* \"#utility.yul\":5132:5135   */\n      0x00\n        /* \"#utility.yul\":5153:5220   */\n      tag_180\n        /* \"#utility.yul\":5217:5219   */\n      0x0d\n        /* \"#utility.yul\":5212:5215   */\n      dup4\n        /* \"#utility.yul\":5153:5220   */\n      tag_112\n      jump\t// in\n    tag_180:\n        /* \"#utility.yul\":5146:5220   */\n      swap2\n      pop\n        /* \"#utility.yul\":5229:5322   */\n      tag_181\n        /* \"#utility.yul\":5318:5321   */\n      dup3\n        /* \"#utility.yul\":5229:5322   */\n      tag_113\n      jump\t// in\n    tag_181:\n        /* \"#utility.yul\":5347:5349   */\n      0x20\n        /* \"#utility.yul\":5342:5345   */\n      dup3\n        /* \"#utility.yul\":5338:5350   */\n      add\n        /* \"#utility.yul\":5331:5350   */\n      swap1\n      pop\n        /* \"#utility.yul\":4990:5356   */\n      swap2\n      swap1\n      pop\n      jump\t// out\n        /* \"#utility.yul\":5362:5781   */\n    tag_54:\n        /* \"#utility.yul\":5528:5532   */\n      0x00\n        /* \"#utility.yul\":5566:5568   */\n      0x20\n        /* \"#utility.yul\":5555:5564   */\n      dup3\n        /* \"#utility.yul\":5551:5569   */\n      add\n        /* \"#utility.yul\":5543:5569   */\n      swap1\n      pop\n        /* \"#utility.yul\":5615:5624   */\n      dup2\n        /* \"#utility.yul\":5609:5613   */\n      dup2\n        /* \"#utility.yul\":5605:5625   */\n      sub\n        /* \"#utility.yul\":5601:5602   */\n      0x00\n        /* \"#utility.yul\":5590:5599   */\n      dup4\n        /* \"#utility.yul\":5586:5603   */\n      add\n        /* \"#utility.yul\":5579:5626   */\n      mstore\n        /* \"#utility.yul\":5643:5774   */\n      tag_183\n        /* \"#utility.yul\":5769:5773   */\n      dup2\n        /* \"#utility.yul\":5643:5774   */\n      tag_114\n      jump\t// in\n    tag_183:\n        /* \"#utility.yul\":5635:5774   */\n      swap1\n      pop\n        /* \"#utility.yul\":5362:5781   */\n      swap2\n      swap1\n      pop\n      jump\t// out\n        /* \"#utility.yul\":5787:6012   */\n    tag_115:\n        /* \"#utility.yul\":5927:5961   */\n      0x4f776e61626c653a206e6577206f776e657220697320746865207a65726f2061\n        /* \"#utility.yul\":5923:5924   */\n      0x00\n        /* \"#utility.yul\":5915:5921   */\n      dup3\n        /* \"#utility.yul\":5911:5925   */\n      add\n        /* \"#utility.yul\":5904:5962   */\n      mstore\n        /* \"#utility.yul\":5996:6004   */\n      0x6464726573730000000000000000000000000000000000000000000000000000\n        /* \"#utility.yul\":5991:5993   */\n      0x20\n        /* \"#utility.yul\":5983:5989   */\n      dup3\n        /* \"#utility.yul\":5979:5994   */\n      add\n        /* \"#utility.yul\":5972:6005   */\n      mstore\n        /* \"#utility.yul\":5787:6012   */\n      pop\n      jump\t// out\n        /* \"#utility.yul\":6018:6384   */\n    tag_116:\n        /* \"#utility.yul\":6160:6163   */\n      0x00\n        /* \"#utility.yul\":6181:6248   */\n      tag_186\n        /* \"#utility.yul\":6245:6247   */\n      0x26\n        /* \"#utility.yul\":6240:6243   */\n      dup4\n        /* \"#utility.yul\":6181:6248   */\n      tag_112\n      jump\t// in\n    tag_186:\n        /* \"#utility.yul\":6174:6248   */\n      swap2\n      pop\n        /* \"#utility.yul\":6257:6350   */\n      tag_187\n        /* \"#utility.yul\":6346:6349   */\n      dup3\n        /* \"#utility.yul\":6257:6350   */\n      tag_115\n      jump\t// in\n    tag_187:\n        /* \"#utility.yul\":6375:6377   */\n      0x40\n        /* \"#utility.yul\":6370:6373   */\n      dup3\n        /* \"#utility.yul\":6366:6378   */\n      add\n        /* \"#utility.yul\":6359:6378   */\n      swap1\n      pop\n        /* \"#utility.yul\":6018:6384   */\n      swap2\n      swap1\n      pop\n      jump\t// out\n        /* \"#utility.yul\":6390:6809   */\n    tag_60:\n        /* \"#utility.yul\":6556:6560   */\n      0x00\n        /* \"#utility.yul\":6594:6596   */\n      0x20\n        /* \"#utility.yul\":6583:6592   */\n      dup3\n        /* \"#utility.yul\":6579:6597   */\n      add\n        /* \"#utility.yul\":6571:6597   */\n      swap1\n      pop\n        /* \"#utility.yul\":6643:6652   */\n      dup2\n        /* \"#utility.yul\":6637:6641   */\n      dup2\n        /* \"#utility.yul\":6633:6653   */\n      sub\n        /* \"#utility.yul\":6629:6630   */\n      0x00\n        /* \"#utility.yul\":6618:6627   */\n      dup4\n        /* \"#utility.yul\":6614:6631   */\n      add\n        /* \"#utility.yul\":6607:6654   */\n      mstore\n        /* \"#utility.yul\":6671:6802   */\n      tag_189\n        /* \"#utility.yul\":6797:6801   */\n      dup2\n        /* \"#utility.yul\":6671:6802   */\n      tag_116\n      jump\t// in\n    tag_189:\n        /* \"#utility.yul\":6663:6802   */\n      swap1\n      pop\n        /* \"#utility.yul\":6390:6809   */\n      swap2\n      swap1\n      pop\n      jump\t// out\n        /* \"#utility.yul\":6815:6997   */\n    tag_117:\n        /* \"#utility.yul\":6955:6989   */\n      0x4f776e61626c653a2063616c6c6572206973206e6f7420746865206f776e6572\n        /* \"#utility.yul\":6951:6952   */\n      0x00\n        /* \"#utility.yul\":6943:6949   */\n      dup3\n        /* \"#utility.yul\":6939:6953   */\n      add\n        /* \"#utility.yul\":6932:6990   */\n      mstore\n        /* \"#utility.yul\":6815:6997   */\n      pop\n      jump\t// out\n        /* \"#utility.yul\":7003:7369   */\n    tag_118:\n        /* \"#utility.yul\":7145:7148   */\n      0x00\n        /* \"#utility.yul\":7166:7233   */\n      tag_192\n        /* \"#utility.yul\":7230:7232   */\n      0x20\n        /* \"#utility.yul\":7225:7228   */\n      dup4\n        /* \"#utility.yul\":7166:7233   */\n      tag_112\n      jump\t// in\n    tag_192:\n        /* \"#utility.yul\":7159:7233   */\n      swap2\n      pop\n        /* \"#utility.yul\":7242:7335   */\n      tag_193\n        /* \"#utility.yul\":7331:7334   */\n      dup3\n        /* \"#utility.yul\":7242:7335   */\n      tag_117\n      jump\t// in\n    tag_193:\n        /* \"#utility.yul\":7360:7362   */\n      0x20\n        /* \"#utility.yul\":7355:7358   */\n      dup3\n        /* \"#utility.yul\":7351:7363   */\n      add\n        /* \"#utility.yul\":7344:7363   */\n      swap1\n      pop\n        /* \"#utility.yul\":7003:7369   */\n      swap2\n      swap1\n      pop\n      jump\t// out\n        /* \"#utility.yul\":7375:7794   */\n    tag_71:\n        /* \"#utility.yul\":7541:7545   */\n      0x00\n        /* \"#utility.yul\":7579:7581   */\n      0x20\n        /* \"#utility.yul\":7568:7577   */\n      dup3\n        /* \"#utility.yul\":7564:7582   */\n      add\n        /* \"#utility.yul\":7556:7582   */\n      swap1\n      pop\n        /* \"#utility.yul\":7628:7637   */\n      dup2\n        /* \"#utility.yul\":7622:7626   */\n      dup2\n        /* \"#utility.yul\":7618:7638   */\n      sub\n        /* \"#utility.yul\":7614:7615   */\n      0x00\n        /* \"#utility.yul\":7603:7612   */\n      dup4\n        /* \"#utility.yul\":7599:7616   */\n      add\n        /* \"#utility.yul\":7592:7639   */\n      mstore\n        /* \"#utility.yul\":7656:7787   */\n      tag_195\n        /* \"#utility.yul\":7782:7786   */\n      dup2\n        /* \"#utility.yul\":7656:7787   */\n      tag_118\n      jump\t// in\n    tag_195:\n        /* \"#utility.yul\":7648:7787   */\n      swap1\n      pop\n        /* \"#utility.yul\":7375:7794   */\n      swap2\n      swap1\n      pop\n      jump\t// out\n        /* \"#utility.yul\":7800:7980   */\n    tag_80:\n        /* \"#utility.yul\":7848:7925   */\n      0x4e487b7100000000000000000000000000000000000000000000000000000000\n        /* \"#utility.yul\":7845:7846   */\n      0x00\n        /* \"#utility.yul\":7838:7926   */\n      mstore\n        /* \"#utility.yul\":7945:7949   */\n      0x32\n        /* \"#utility.yul\":7942:7943   */\n      0x04\n        /* \"#utility.yul\":7935:7950   */\n      mstore\n        /* \"#utility.yul\":7969:7973   */\n      0x24\n        /* \"#utility.yul\":7966:7967   */\n      0x00\n        /* \"#utility.yul\":7959:7974   */\n      revert\n        /* \"#utility.yul\":7986:8166   */\n    tag_119:\n        /* \"#utility.yul\":8034:8111   */\n      0x4e487b7100000000000000000000000000000000000000000000000000000000\n        /* \"#utility.yul\":8031:8032   */\n      0x00\n        /* \"#utility.yul\":8024:8112   */\n      mstore\n        /* \"#utility.yul\":8131:8135   */\n      0x11\n        /* \"#utility.yul\":8128:8129   */\n      0x04\n        /* \"#utility.yul\":8121:8136   */\n      mstore\n        /* \"#utility.yul\":8155:8159   */\n      0x24\n        /* \"#utility.yul\":8152:8153   */\n      0x00\n        /* \"#utility.yul\":8145:8160   */\n      revert\n        /* \"#utility.yul\":8172:8249   */\n    tag_120:\n        /* \"#utility.yul\":8209:8216   */\n      0x00\n        /* \"#utility.yul\":8238:8243   */\n      dup2\n        /* \"#utility.yul\":8227:8243   */\n      swap1\n      pop\n        /* \"#utility.yul\":8172:8249   */\n      swap2\n      swap1\n      pop\n      jump\t// out\n        /* \"#utility.yul\":8255:8488   */\n    tag_83:\n        /* \"#utility.yul\":8294:8297   */\n      0x00\n        /* \"#utility.yul\":8317:8341   */\n      tag_200\n        /* \"#utility.yul\":8335:8340   */\n      dup3\n        /* \"#utility.yul\":8317:8341   */\n      tag_120\n      jump\t// in\n    tag_200:\n        /* \"#utility.yul\":8308:8341   */\n      swap2\n      pop\n        /* \"#utility.yul\":8363:8429   */\n      0xffffffffffffffffffffffffffffffffffffffffffffffffffffffffffffffff\n        /* \"#utility.yul\":8356:8361   */\n      dup3\n        /* \"#utility.yul\":8353:8430   */\n      sub\n        /* \"#utility.yul\":8350:8453   */\n      tag_201\n      jumpi\n        /* \"#utility.yul\":8433:8451   */\n      tag_202\n      tag_119\n      jump\t// in\n    tag_202:\n        /* \"#utility.yul\":8350:8453   */\n    tag_201:\n        /* \"#utility.yul\":8480:8481   */\n      0x01\n        /* \"#utility.yul\":8473:8478   */\n      dup3\n        /* \"#utility.yul\":8469:8482   */\n      add\n        /* \"#utility.yul\":8462:8482   */\n      swap1\n      pop\n        /* \"#utility.yul\":8255:8488   */\n      swap2\n      swap1\n      pop\n      jump\t// out\n\n    auxdata: 0xa2646970667358221220d54fb7b6fcf792eb690a562e38101e3ff48211103337949423a3551094e26a4a64736f6c63430008110033\n}\n",
				"bytecode": {
					"linkReferences": {},
					"object": "608060405234801561001057600080fd5b5061002d61002261003260201b60201c565b61003a60201b60201c565b6100fe565b600033905090565b60008060009054906101000a900473ffffffffffffffffffffffffffffffffffffffff169050816000806101000a81548173ffffffffffffffffffffffffffffffffffffffff021916908373ffffffffffffffffffffffffffffffffffffffff1602179055508173ffffffffffffffffffffffffffffffffffffffff168173ffffffffffffffffffffffffffffffffffffffff167f8be0079c531659141344cd1fd0a4f28419497f9722a3daafe3b4186f6b6457e060405160405180910390a35050565b61094a8061010d6000396000f3fe608060405234801561001057600080fd5b506004361061007d5760003560e01c8063715018a61161005b578063715018a6146100ee5780638da5cb5b146100f85780639837bcfe14610116578063f2fde38b146101325761007d565b80632eb4a7ab1461008257806336591c21146100a057806349590657146100d0575b600080fd5b61008a61014e565b60405161009791906104c4565b60405180910390f35b6100ba60048036038101906100b5919061054e565b610154565b6040516100c791906105b6565b60405180910390f35b6100d8610197565b6040516100e591906104c4565b60405180910390f35b6100f66101a1565b005b6101006101b5565b60405161010d9190610612565b60405180910390f35b610130600480360381019061012b919061054e565b6101de565b005b61014c60048036038101906101479190610659565b61022b565b005b60015481565b6000803360405160200161016891906106ce565b60405160208183030381529060405280519060200120905061018e8484600154846102ae565b91505092915050565b6000600154905090565b6101a96102c7565b6101b36000610345565b565b60008060009054906101000a900473ffffffffffffffffffffffffffffffffffffffff16905090565b6101e88282610154565b610227576040517f08c379a000000000000000000000000000000000000000000000000000000000815260040161021e90610746565b60405180910390fd5b5050565b6102336102c7565b600073ffffffffffffffffffffffffffffffffffffffff168173ffffffffffffffffffffffffffffffffffffffff16036102a2576040517f08c379a0000000000000000000000000000000000000000000000000000000008152600401610299906107d8565b60405180910390fd5b6102ab81610345565b50565b6000826102bc868685610409565b149050949350505050565b6102cf610461565b73ffffffffffffffffffffffffffffffffffffffff166102ed6101b5565b73ffffffffffffffffffffffffffffffffffffffff1614610343576040517f08c379a000000000000000000000000000000000000000000000000000000000815260040161033a90610844565b60405180910390fd5b565b60008060009054906101000a900473ffffffffffffffffffffffffffffffffffffffff169050816000806101000a81548173ffffffffffffffffffffffffffffffffffffffff021916908373ffffffffffffffffffffffffffffffffffffffff1602179055508173ffffffffffffffffffffffffffffffffffffffff168173ffffffffffffffffffffffffffffffffffffffff167f8be0079c531659141344cd1fd0a4f28419497f9722a3daafe3b4186f6b6457e060405160405180910390a35050565b60008082905060005b85859050811015610455576104408287878481811061043457610433610864565b5b90506020020135610469565b9150808061044d906108cc565b915050610412565b50809150509392505050565b600033905090565b60008183106104815761047c8284610494565b61048c565b61048b8383610494565b5b905092915050565b600082600052816020526040600020905092915050565b6000819050919050565b6104be816104ab565b82525050565b60006020820190506104d960008301846104b5565b92915050565b600080fd5b600080fd5b600080fd5b600080fd5b600080fd5b60008083601f84011261050e5761050d6104e9565b5b8235905067ffffffffffffffff81111561052b5761052a6104ee565b5b602083019150836020820283011115610547576105466104f3565b5b9250929050565b60008060208385031215610565576105646104df565b5b600083013567ffffffffffffffff811115610583576105826104e4565b5b61058f858286016104f8565b92509250509250929050565b60008115159050919050565b6105b08161059b565b82525050565b60006020820190506105cb60008301846105a7565b92915050565b600073ffffffffffffffffffffffffffffffffffffffff82169050919050565b60006105fc826105d1565b9050919050565b61060c816105f1565b82525050565b60006020820190506106276000830184610603565b92915050565b610636816105f1565b811461064157600080fd5b50565b6000813590506106538161062d565b92915050565b60006020828403121561066f5761066e6104df565b5b600061067d84828501610644565b91505092915050565b60008160601b9050919050565b600061069e82610686565b9050919050565b60006106b082610693565b9050919050565b6106c86106c3826105f1565b6106a5565b82525050565b60006106da82846106b7565b60148201915081905092915050565b600082825260208201905092915050565b7f494e56414c49445f50524f4f4600000000000000000000000000000000000000600082015250565b6000610730600d836106e9565b915061073b826106fa565b602082019050919050565b6000602082019050818103600083015261075f81610723565b9050919050565b7f4f776e61626c653a206e6577206f776e657220697320746865207a65726f206160008201527f6464726573730000000000000000000000000000000000000000000000000000602082015250565b60006107c26026836106e9565b91506107cd82610766565b604082019050919050565b600060208201905081810360008301526107f1816107b5565b9050919050565b7f4f776e61626c653a2063616c6c6572206973206e6f7420746865206f776e6572600082015250565b600061082e6020836106e9565b9150610839826107f8565b602082019050919050565b6000602082019050818103600083015261085d81610821565b9050919050565b7f4e487b7100000000000000000000000000000000000000000000000000000000600052603260045260246000fd5b7f4e487b7100000000000000000000000000000000000000000000000000000000600052601160045260246000fd5b6000819050919050565b60006108d7826108c2565b91507fffffffffffffffffffffffffffffffffffffffffffffffffffffffffffffffff820361090957610908610893565b5b60018201905091905056fea2646970667358221220d54fb7b6fcf792eb690a562e38101e3ff48211103337949423a3551094e26a4a64736f6c63430008110033",
					"opcodes": "PUSH1 0x80 PUSH1 0x40 MSTORE CALLVALUE DUP1 ISZERO PUSH2 0x10 JUMPI PUSH1 0x0 DUP1 REVERT JUMPDEST POP PUSH2 0x2D PUSH2 0x22 PUSH2 0x32 PUSH1 0x20 SHL PUSH1 0x20 SHR JUMP JUMPDEST PUSH2 0x3A PUSH1 0x20 SHL PUSH1 0x20 SHR JUMP JUMPDEST PUSH2 0xFE JUMP JUMPDEST PUSH1 0x0 CALLER SWAP1 POP SWAP1 JUMP JUMPDEST PUSH1 0x0 DUP1 PUSH1 0x0 SWAP1 SLOAD SWAP1 PUSH2 0x100 EXP SWAP1 DIV PUSH20 0xFFFFFFFFFFFFFFFFFFFFFFFFFFFFFFFFFFFFFFFF AND SWAP1 POP DUP2 PUSH1 0x0 DUP1 PUSH2 0x100 EXP DUP2 SLOAD DUP2 PUSH20 0xFFFFFFFFFFFFFFFFFFFFFFFFFFFFFFFFFFFFFFFF MUL NOT AND SWAP1 DUP4 PUSH20 0xFFFFFFFFFFFFFFFFFFFFFFFFFFFFFFFFFFFFFFFF AND MUL OR SWAP1 SSTORE POP DUP2 PUSH20 0xFFFFFFFFFFFFFFFFFFFFFFFFFFFFFFFFFFFFFFFF AND DUP2 PUSH20 0xFFFFFFFFFFFFFFFFFFFFFFFFFFFFFFFFFFFFFFFF AND PUSH32 0x8BE0079C531659141344CD1FD0A4F28419497F9722A3DAAFE3B4186F6B6457E0 PUSH1 0x40 MLOAD PUSH1 0x40 MLOAD DUP1 SWAP2 SUB SWAP1 LOG3 POP POP JUMP JUMPDEST PUSH2 0x94A DUP1 PUSH2 0x10D PUSH1 0x0 CODECOPY PUSH1 0x0 RETURN INVALID PUSH1 0x80 PUSH1 0x40 MSTORE CALLVALUE DUP1 ISZERO PUSH2 0x10 JUMPI PUSH1 0x0 DUP1 REVERT JUMPDEST POP PUSH1 0x4 CALLDATASIZE LT PUSH2 0x7D JUMPI PUSH1 0x0 CALLDATALOAD PUSH1 0xE0 SHR DUP1 PUSH4 0x715018A6 GT PUSH2 0x5B JUMPI DUP1 PUSH4 0x715018A6 EQ PUSH2 0xEE JUMPI DUP1 PUSH4 0x8DA5CB5B EQ PUSH2 0xF8 JUMPI DUP1 PUSH4 0x9837BCFE EQ PUSH2 0x116 JUMPI DUP1 PUSH4 0xF2FDE38B EQ PUSH2 0x132 JUMPI PUSH2 0x7D JUMP JUMPDEST DUP1 PUSH4 0x2EB4A7AB EQ PUSH2 0x82 JUMPI DUP1 PUSH4 0x36591C21 EQ PUSH2 0xA0 JUMPI DUP1 PUSH4 0x49590657 EQ PUSH2 0xD0 JUMPI JUMPDEST PUSH1 0x0 DUP1 REVERT JUMPDEST PUSH2 0x8A PUSH2 0x14E JUMP JUMPDEST PUSH1 0x40 MLOAD PUSH2 0x97 SWAP2 SWAP1 PUSH2 0x4C4 JUMP JUMPDEST PUSH1 0x40 MLOAD DUP1 SWAP2 SUB SWAP1 RETURN JUMPDEST PUSH2 0xBA PUSH1 0x4 DUP1 CALLDATASIZE SUB DUP2 ADD SWAP1 PUSH2 0xB5 SWAP2 SWAP1 PUSH2 0x54E JUMP JUMPDEST PUSH2 0x154 JUMP JUMPDEST PUSH1 0x40 MLOAD PUSH2 0xC7 SWAP2 SWAP1 PUSH2 0x5B6 JUMP JUMPDEST PUSH1 0x40 MLOAD DUP1 SWAP2 SUB SWAP1 RETURN JUMPDEST PUSH2 0xD8 PUSH2 0x197 JUMP JUMPDEST PUSH1 0x40 MLOAD PUSH2 0xE5 SWAP2 SWAP1 PUSH2 0x4C4 JUMP JUMPDEST PUSH1 0x40 MLOAD DUP1 SWAP2 SUB SWAP1 RETURN JUMPDEST PUSH2 0xF6 PUSH2 0x1A1 JUMP JUMPDEST STOP JUMPDEST PUSH2 0x100 PUSH2 0x1B5 JUMP JUMPDEST PUSH1 0x40 MLOAD PUSH2 0x10D SWAP2 SWAP1 PUSH2 0x612 JUMP JUMPDEST PUSH1 0x40 MLOAD DUP1 SWAP2 SUB SWAP1 RETURN JUMPDEST PUSH2 0x130 PUSH1 0x4 DUP1 CALLDATASIZE SUB DUP2 ADD SWAP1 PUSH2 0x12B SWAP2 SWAP1 PUSH2 0x54E JUMP JUMPDEST PUSH2 0x1DE JUMP JUMPDEST STOP JUMPDEST PUSH2 0x14C PUSH1 0x4 DUP1 CALLDATASIZE SUB DUP2 ADD SWAP1 PUSH2 0x147 SWAP2 SWAP1 PUSH2 0x659 JUMP JUMPDEST PUSH2 0x22B JUMP JUMPDEST STOP JUMPDEST PUSH1 0x1 SLOAD DUP2 JUMP JUMPDEST PUSH1 0x0 DUP1 CALLER PUSH1 0x40 MLOAD PUSH1 0x20 ADD PUSH2 0x168 SWAP2 SWAP1 PUSH2 0x6CE JUMP JUMPDEST PUSH1 0x40 MLOAD PUSH1 0x20 DUP2 DUP4 SUB SUB DUP2 MSTORE SWAP1 PUSH1 0x40 MSTORE DUP1 MLOAD SWAP1 PUSH1 0x20 ADD KECCAK256 SWAP1 POP PUSH2 0x18E DUP5 DUP5 PUSH1 0x1 SLOAD DUP5 PUSH2 0x2AE JUMP JUMPDEST SWAP2 POP POP SWAP3 SWAP2 POP POP JUMP JUMPDEST PUSH1 0x0 PUSH1 0x1 SLOAD SWAP1 POP SWAP1 JUMP JUMPDEST PUSH2 0x1A9 PUSH2 0x2C7 JUMP JUMPDEST PUSH2 0x1B3 PUSH1 0x0 PUSH2 0x345 JUMP JUMPDEST JUMP JUMPDEST PUSH1 0x0 DUP1 PUSH1 0x0 SWAP1 SLOAD SWAP1 PUSH2 0x100 EXP SWAP1 DIV PUSH20 0xFFFFFFFFFFFFFFFFFFFFFFFFFFFFFFFFFFFFFFFF AND SWAP1 POP SWAP1 JUMP JUMPDEST PUSH2 0x1E8 DUP3 DUP3 PUSH2 0x154 JUMP JUMPDEST PUSH2 0x227 JUMPI PUSH1 0x40 MLOAD PUSH32 0x8C379A000000000000000000000000000000000000000000000000000000000 DUP2 MSTORE PUSH1 0x4 ADD PUSH2 0x21E SWAP1 PUSH2 0x746 JUMP JUMPDEST PUSH1 0x40 MLOAD DUP1 SWAP2 SUB SWAP1 REVERT JUMPDEST POP POP JUMP JUMPDEST PUSH2 0x233 PUSH2 0x2C7 JUMP JUMPDEST PUSH1 0x0 PUSH20 0xFFFFFFFFFFFFFFFFFFFFFFFFFFFFFFFFFFFFFFFF AND DUP2 PUSH20 0xFFFFFFFFFFFFFFFFFFFFFFFFFFFFFFFFFFFFFFFF AND SUB PUSH2 0x2A2 JUMPI PUSH1 0x40 MLOAD PUSH32 0x8C379A000000000000000000000000000000000000000000000000000000000 DUP2 MSTORE PUSH1 0x4 ADD PUSH2 0x299 SWAP1 PUSH2 0x7D8 JUMP JUMPDEST PUSH1 0x40 MLOAD DUP1 SWAP2 SUB SWAP1 REVERT JUMPDEST PUSH2 0x2AB DUP2 PUSH2 0x345 JUMP JUMPDEST POP JUMP JUMPDEST PUSH1 0x0 DUP3 PUSH2 0x2BC DUP7 DUP7 DUP6 PUSH2 0x409 JUMP JUMPDEST EQ SWAP1 POP SWAP5 SWAP4 POP POP POP POP JUMP JUMPDEST PUSH2 0x2CF PUSH2 0x461 JUMP JUMPDEST PUSH20 0xFFFFFFFFFFFFFFFFFFFFFFFFFFFFFFFFFFFFFFFF AND PUSH2 0x2ED PUSH2 0x1B5 JUMP JUMPDEST PUSH20 0xFFFFFFFFFFFFFFFFFFFFFFFFFFFFFFFFFFFFFFFF AND EQ PUSH2 0x343 JUMPI PUSH1 0x40 MLOAD PUSH32 0x8C379A000000000000000000000000000000000000000000000000000000000 DUP2 MSTORE PUSH1 0x4 ADD PUSH2 0x33A SWAP1 PUSH2 0x844 JUMP JUMPDEST PUSH1 0x40 MLOAD DUP1 SWAP2 SUB SWAP1 REVERT JUMPDEST JUMP JUMPDEST PUSH1 0x0 DUP1 PUSH1 0x0 SWAP1 SLOAD SWAP1 PUSH2 0x100 EXP SWAP1 DIV PUSH20 0xFFFFFFFFFFFFFFFFFFFFFFFFFFFFFFFFFFFFFFFF AND SWAP1 POP DUP2 PUSH1 0x0 DUP1 PUSH2 0x100 EXP DUP2 SLOAD DUP2 PUSH20 0xFFFFFFFFFFFFFFFFFFFFFFFFFFFFFFFFFFFFFFFF MUL NOT AND SWAP1 DUP4 PUSH20 0xFFFFFFFFFFFFFFFFFFFFFFFFFFFFFFFFFFFFFFFF AND MUL OR SWAP1 SSTORE POP DUP2 PUSH20 0xFFFFFFFFFFFFFFFFFFFFFFFFFFFFFFFFFFFFFFFF AND DUP2 PUSH20 0xFFFFFFFFFFFFFFFFFFFFFFFFFFFFFFFFFFFFFFFF AND PUSH32 0x8BE0079C531659141344CD1FD0A4F28419497F9722A3DAAFE3B4186F6B6457E0 PUSH1 0x40 MLOAD PUSH1 0x40 MLOAD DUP1 SWAP2 SUB SWAP1 LOG3 POP POP JUMP JUMPDEST PUSH1 0x0 DUP1 DUP3 SWAP1 POP PUSH1 0x0 JUMPDEST DUP6 DUP6 SWAP1 POP DUP2 LT ISZERO PUSH2 0x455 JUMPI PUSH2 0x440 DUP3 DUP8 DUP8 DUP5 DUP2 DUP2 LT PUSH2 0x434 JUMPI PUSH2 0x433 PUSH2 0x864 JUMP JUMPDEST JUMPDEST SWAP1 POP PUSH1 0x20 MUL ADD CALLDATALOAD PUSH2 0x469 JUMP JUMPDEST SWAP2 POP DUP1 DUP1 PUSH2 0x44D SWAP1 PUSH2 0x8CC JUMP JUMPDEST SWAP2 POP POP PUSH2 0x412 JUMP JUMPDEST POP DUP1 SWAP2 POP POP SWAP4 SWAP3 POP POP POP JUMP JUMPDEST PUSH1 0x0 CALLER SWAP1 POP SWAP1 JUMP JUMPDEST PUSH1 0x0 DUP2 DUP4 LT PUSH2 0x481 JUMPI PUSH2 0x47C DUP3 DUP5 PUSH2 0x494 JUMP JUMPDEST PUSH2 0x48C JUMP JUMPDEST PUSH2 0x48B DUP4 DUP4 PUSH2 0x494 JUMP JUMPDEST JUMPDEST SWAP1 POP SWAP3 SWAP2 POP POP JUMP JUMPDEST PUSH1 0x0 DUP3 PUSH1 0x0 MSTORE DUP2 PUSH1 0x20 MSTORE PUSH1 0x40 PUSH1 0x0 KECCAK256 SWAP1 POP SWAP3 SWAP2 POP POP JUMP JUMPDEST PUSH1 0x0 DUP2 SWAP1 POP SWAP2 SWAP1 POP JUMP JUMPDEST PUSH2 0x4BE DUP2 PUSH2 0x4AB JUMP JUMPDEST DUP3 MSTORE POP POP JUMP JUMPDEST PUSH1 0x0 PUSH1 0x20 DUP3 ADD SWAP1 POP PUSH2 0x4D9 PUSH1 0x0 DUP4 ADD DUP5 PUSH2 0x4B5 JUMP JUMPDEST SWAP3 SWAP2 POP POP JUMP JUMPDEST PUSH1 0x0 DUP1 REVERT JUMPDEST PUSH1 0x0 DUP1 REVERT JUMPDEST PUSH1 0x0 DUP1 REVERT JUMPDEST PUSH1 0x0 DUP1 REVERT JUMPDEST PUSH1 0x0 DUP1 REVERT JUMPDEST PUSH1 0x0 DUP1 DUP4 PUSH1 0x1F DUP5 ADD SLT PUSH2 0x50E JUMPI PUSH2 0x50D PUSH2 0x4E9 JUMP JUMPDEST JUMPDEST DUP3 CALLDATALOAD SWAP1 POP PUSH8 0xFFFFFFFFFFFFFFFF DUP2 GT ISZERO PUSH2 0x52B JUMPI PUSH2 0x52A PUSH2 0x4EE JUMP JUMPDEST JUMPDEST PUSH1 0x20 DUP4 ADD SWAP2 POP DUP4 PUSH1 0x20 DUP3 MUL DUP4 ADD GT ISZERO PUSH2 0x547 JUMPI PUSH2 0x546 PUSH2 0x4F3 JUMP JUMPDEST JUMPDEST SWAP3 POP SWAP3 SWAP1 POP JUMP JUMPDEST PUSH1 0x0 DUP1 PUSH1 0x20 DUP4 DUP6 SUB SLT ISZERO PUSH2 0x565 JUMPI PUSH2 0x564 PUSH2 0x4DF JUMP JUMPDEST JUMPDEST PUSH1 0x0 DUP4 ADD CALLDATALOAD PUSH8 0xFFFFFFFFFFFFFFFF DUP2 GT ISZERO PUSH2 0x583 JUMPI PUSH2 0x582 PUSH2 0x4E4 JUMP JUMPDEST JUMPDEST PUSH2 0x58F DUP6 DUP3 DUP7 ADD PUSH2 0x4F8 JUMP JUMPDEST SWAP3 POP SWAP3 POP POP SWAP3 POP SWAP3 SWAP1 POP JUMP JUMPDEST PUSH1 0x0 DUP2 ISZERO ISZERO SWAP1 POP SWAP2 SWAP1 POP JUMP JUMPDEST PUSH2 0x5B0 DUP2 PUSH2 0x59B JUMP JUMPDEST DUP3 MSTORE POP POP JUMP JUMPDEST PUSH1 0x0 PUSH1 0x20 DUP3 ADD SWAP1 POP PUSH2 0x5CB PUSH1 0x0 DUP4 ADD DUP5 PUSH2 0x5A7 JUMP JUMPDEST SWAP3 SWAP2 POP POP JUMP JUMPDEST PUSH1 0x0 PUSH20 0xFFFFFFFFFFFFFFFFFFFFFFFFFFFFFFFFFFFFFFFF DUP3 AND SWAP1 POP SWAP2 SWAP1 POP JUMP JUMPDEST PUSH1 0x0 PUSH2 0x5FC DUP3 PUSH2 0x5D1 JUMP JUMPDEST SWAP1 POP SWAP2 SWAP1 POP JUMP JUMPDEST PUSH2 0x60C DUP2 PUSH2 0x5F1 JUMP JUMPDEST DUP3 MSTORE POP POP JUMP JUMPDEST PUSH1 0x0 PUSH1 0x20 DUP3 ADD SWAP1 POP PUSH2 0x627 PUSH1 0x0 DUP4 ADD DUP5 PUSH2 0x603 JUMP JUMPDEST SWAP3 SWAP2 POP POP JUMP JUMPDEST PUSH2 0x636 DUP2 PUSH2 0x5F1 JUMP JUMPDEST DUP2 EQ PUSH2 0x641 JUMPI PUSH1 0x0 DUP1 REVERT JUMPDEST POP JUMP JUMPDEST PUSH1 0x0 DUP2 CALLDATALOAD SWAP1 POP PUSH2 0x653 DUP2 PUSH2 0x62D JUMP JUMPDEST SWAP3 SWAP2 POP POP JUMP JUMPDEST PUSH1 0x0 PUSH1 0x20 DUP3 DUP5 SUB SLT ISZERO PUSH2 0x66F JUMPI PUSH2 0x66E PUSH2 0x4DF JUMP JUMPDEST JUMPDEST PUSH1 0x0 PUSH2 0x67D DUP5 DUP3 DUP6 ADD PUSH2 0x644 JUMP JUMPDEST SWAP2 POP POP SWAP3 SWAP2 POP POP JUMP JUMPDEST PUSH1 0x0 DUP2 PUSH1 0x60 SHL SWAP1 POP SWAP2 SWAP1 POP JUMP JUMPDEST PUSH1 0x0 PUSH2 0x69E DUP3 PUSH2 0x686 JUMP JUMPDEST SWAP1 POP SWAP2 SWAP1 POP JUMP JUMPDEST PUSH1 0x0 PUSH2 0x6B0 DUP3 PUSH2 0x693 JUMP JUMPDEST SWAP1 POP SWAP2 SWAP1 POP JUMP JUMPDEST PUSH2 0x6C8 PUSH2 0x6C3 DUP3 PUSH2 0x5F1 JUMP JUMPDEST PUSH2 0x6A5 JUMP JUMPDEST DUP3 MSTORE POP POP JUMP JUMPDEST PUSH1 0x0 PUSH2 0x6DA DUP3 DUP5 PUSH2 0x6B7 JUMP JUMPDEST PUSH1 0x14 DUP3 ADD SWAP2 POP DUP2 SWAP1 POP SWAP3 SWAP2 POP POP JUMP JUMPDEST PUSH1 0x0 DUP3 DUP3 MSTORE PUSH1 0x20 DUP3 ADD SWAP1 POP SWAP3 SWAP2 POP POP JUMP JUMPDEST PUSH32 0x494E56414C49445F50524F4F4600000000000000000000000000000000000000 PUSH1 0x0 DUP3 ADD MSTORE POP JUMP JUMPDEST PUSH1 0x0 PUSH2 0x730 PUSH1 0xD DUP4 PUSH2 0x6E9 JUMP JUMPDEST SWAP2 POP PUSH2 0x73B DUP3 PUSH2 0x6FA JUMP JUMPDEST PUSH1 0x20 DUP3 ADD SWAP1 POP SWAP2 SWAP1 POP JUMP JUMPDEST PUSH1 0x0 PUSH1 0x20 DUP3 ADD SWAP1 POP DUP2 DUP2 SUB PUSH1 0x0 DUP4 ADD MSTORE PUSH2 0x75F DUP2 PUSH2 0x723 JUMP JUMPDEST SWAP1 POP SWAP2 SWAP1 POP JUMP JUMPDEST PUSH32 0x4F776E61626C653A206E6577206F776E657220697320746865207A65726F2061 PUSH1 0x0 DUP3 ADD MSTORE PUSH32 0x6464726573730000000000000000000000000000000000000000000000000000 PUSH1 0x20 DUP3 ADD MSTORE POP JUMP JUMPDEST PUSH1 0x0 PUSH2 0x7C2 PUSH1 0x26 DUP4 PUSH2 0x6E9 JUMP JUMPDEST SWAP2 POP PUSH2 0x7CD DUP3 PUSH2 0x766 JUMP JUMPDEST PUSH1 0x40 DUP3 ADD SWAP1 POP SWAP2 SWAP1 POP JUMP JUMPDEST PUSH1 0x0 PUSH1 0x20 DUP3 ADD SWAP1 POP DUP2 DUP2 SUB PUSH1 0x0 DUP4 ADD MSTORE PUSH2 0x7F1 DUP2 PUSH2 0x7B5 JUMP JUMPDEST SWAP1 POP SWAP2 SWAP1 POP JUMP JUMPDEST PUSH32 0x4F776E61626C653A2063616C6C6572206973206E6F7420746865206F776E6572 PUSH1 0x0 DUP3 ADD MSTORE POP JUMP JUMPDEST PUSH1 0x0 PUSH2 0x82E PUSH1 0x20 DUP4 PUSH2 0x6E9 JUMP JUMPDEST SWAP2 POP PUSH2 0x839 DUP3 PUSH2 0x7F8 JUMP JUMPDEST PUSH1 0x20 DUP3 ADD SWAP1 POP SWAP2 SWAP1 POP JUMP JUMPDEST PUSH1 0x0 PUSH1 0x20 DUP3 ADD SWAP1 POP DUP2 DUP2 SUB PUSH1 0x0 DUP4 ADD MSTORE PUSH2 0x85D DUP2 PUSH2 0x821 JUMP JUMPDEST SWAP1 POP SWAP2 SWAP1 POP JUMP JUMPDEST PUSH32 0x4E487B7100000000000000000000000000000000000000000000000000000000 PUSH1 0x0 MSTORE PUSH1 0x32 PUSH1 0x4 MSTORE PUSH1 0x24 PUSH1 0x0 REVERT JUMPDEST PUSH32 0x4E487B7100000000000000000000000000000000000000000000000000000000 PUSH1 0x0 MSTORE PUSH1 0x11 PUSH1 0x4 MSTORE PUSH1 0x24 PUSH1 0x0 REVERT JUMPDEST PUSH1 0x0 DUP2 SWAP1 POP SWAP2 SWAP1 POP JUMP JUMPDEST PUSH1 0x0 PUSH2 0x8D7 DUP3 PUSH2 0x8C2 JUMP JUMPDEST SWAP2 POP PUSH32 0xFFFFFFFFFFFFFFFFFFFFFFFFFFFFFFFFFFFFFFFFFFFFFFFFFFFFFFFFFFFFFFFF DUP3 SUB PUSH2 0x909 JUMPI PUSH2 0x908 PUSH2 0x893 JUMP JUMPDEST JUMPDEST PUSH1 0x1 DUP3 ADD SWAP1 POP SWAP2 SWAP1 POP JUMP INVALID LOG2 PUSH5 0x6970667358 0x22 SLT KECCAK256 0xD5 0x4F 0xB7 0xB6 0xFC 0xF7 SWAP3 0xEB PUSH10 0xA562E38101E3FF48211 LT CALLER CALLDATACOPY SWAP5 SWAP5 0x23 LOG3 SSTORE LT SWAP5 0xE2 PUSH11 0x4A64736F6C634300081100 CALLER "
				},
				"gasEstimates": {
					"creation": {
						"codeDepositCost": "475600",
						"executionCost": "infinite",
						"totalCost": "infinite"
					},
					"external": {
						"getMerkleRoot()": "2482",
						"merkleRoot()": "2430",
						"owner()": "2544",
						"renounceOwnership()": "30398",
						"transferOwnership(address)": "30810",
						"verifyAddress(bytes32[])": "infinite",
						"whitelistFunc(bytes32[])": "infinite"
					},
					"internal": {
						"setMerkleRoot(bytes32)": "infinite"
					}
				},
				"methodIdentifiers": {
					"getMerkleRoot()": "49590657",
					"merkleRoot()": "2eb4a7ab",
					"owner()": "8da5cb5b",
					"renounceOwnership()": "715018a6",
					"transferOwnership(address)": "f2fde38b",
					"verifyAddress(bytes32[])": "36591c21",
					"whitelistFunc(bytes32[])": "9837bcfe"
				}
			},
			"storageLayout": {
				"storage": [
					{
						"astId": 7,
						"contract": "contracts/facets/MerkleTreeFacet.sol:MerkleTreeFacet",
						"label": "_owner",
						"offset": 0,
						"slot": "0",
						"type": "t_address"
					},
					{
						"astId": 672,
						"contract": "contracts/facets/MerkleTreeFacet.sol:MerkleTreeFacet",
						"label": "merkleRoot",
						"offset": 0,
						"slot": "1",
						"type": "t_bytes32"
					}
				],
				"types": {
					"t_address": {
						"encoding": "inplace",
						"label": "address",
						"numberOfBytes": "20"
					},
					"t_bytes32": {
						"encoding": "inplace",
						"label": "bytes32",
						"numberOfBytes": "32"
					}
				}
			},
			"userdoc": {
				"kind": "user",
				"methods": {
					"getMerkleRoot()": {
						"notice": "Get the current Merkle root hash."
					},
					"merkleRoot()": {
						"notice": "Merkle root hash for whitelist addresses"
					},
					"verifyAddress(bytes32[])": {
						"notice": "Verify a Merkle proof for an address."
					},
					"whitelistFunc(bytes32[])": {
						"notice": "Perform an operation using the whitelist. Requires a valid Merkle proof."
					}
				},
				"version": 1
			}
		}
	}
}