{
	"contracts/facets/FlagContentFacet.sol": {
		"FlagContentFacet": {
			"abi": [
				{
					"inputs": [
						{
							"internalType": "uint256",
							"name": "_contentID",
							"type": "uint256"
						}
					],
					"name": "FlagContent",
					"outputs": [],
					"stateMutability": "nonpayable",
					"type": "function"
				},
				{
					"inputs": [
						{
							"internalType": "uint256",
							"name": "contentID",
							"type": "uint256"
						}
					],
					"name": "getFlaggedContent",
					"outputs": [
						{
							"components": [
								{
									"internalType": "uint256",
									"name": "contentID",
									"type": "uint256"
								},
								{
									"internalType": "uint256",
									"name": "flaggedTimestamp",
									"type": "uint256"
								},
								{
									"internalType": "address",
									"name": "flaggedBy",
									"type": "address"
								}
							],
							"internalType": "struct flaggedContent",
							"name": "",
							"type": "tuple"
						}
					],
					"stateMutability": "view",
					"type": "function"
				}
			],
			"devdoc": {
				"details": "A smart contract for flagging content and storing flagged content details.",
				"kind": "dev",
				"methods": {
					"FlagContent(uint256)": {
						"params": {
							"_contentID": "The ID of the content to be flagged."
						}
					},
					"getFlaggedContent(uint256)": {
						"params": {
							"contentID": "The ID of the content to retrieve details for."
						},
						"returns": {
							"_0": "The details of the flagged content."
						}
					}
				},
				"title": "FlagContentFacet",
				"version": 1
			},
			"evm": {
				"assembly": "    /* \"contracts/facets/FlagContentFacet.sol\":262:1456  contract FlagContentFacet {... */\n  mstore(0x40, 0x80)\n  callvalue\n  dup1\n  iszero\n  tag_1\n  jumpi\n  0x00\n  dup1\n  revert\ntag_1:\n  pop\n  dataSize(sub_0)\n  dup1\n  dataOffset(sub_0)\n  0x00\n  codecopy\n  0x00\n  return\nstop\n\nsub_0: assembly {\n        /* \"contracts/facets/FlagContentFacet.sol\":262:1456  contract FlagContentFacet {... */\n      mstore(0x40, 0x80)\n      callvalue\n      dup1\n      iszero\n      tag_1\n      jumpi\n      0x00\n      dup1\n      revert\n    tag_1:\n      pop\n      jumpi(tag_2, lt(calldatasize, 0x04))\n      shr(0xe0, calldataload(0x00))\n      dup1\n      0x1b107313\n      eq\n      tag_3\n      jumpi\n      dup1\n      0xfb812543\n      eq\n      tag_4\n      jumpi\n    tag_2:\n      0x00\n      dup1\n      revert\n        /* \"contracts/facets/FlagContentFacet.sol\":881:1453  function FlagContent(uint256 _contentID) public {... */\n    tag_3:\n      tag_5\n      0x04\n      dup1\n      calldatasize\n      sub\n      dup2\n      add\n      swap1\n      tag_6\n      swap2\n      swap1\n      tag_7\n      jump\t// in\n    tag_6:\n      tag_8\n      jump\t// in\n    tag_5:\n      stop\n        /* \"contracts/facets/FlagContentFacet.sol\":590:750  function getFlaggedContent(... */\n    tag_4:\n      tag_9\n      0x04\n      dup1\n      calldatasize\n      sub\n      dup2\n      add\n      swap1\n      tag_10\n      swap2\n      swap1\n      tag_7\n      jump\t// in\n    tag_10:\n      tag_11\n      jump\t// in\n    tag_9:\n      mload(0x40)\n      tag_12\n      swap2\n      swap1\n      tag_13\n      jump\t// in\n    tag_12:\n      mload(0x40)\n      dup1\n      swap2\n      sub\n      swap1\n      return\n        /* \"contracts/facets/FlagContentFacet.sol\":881:1453  function FlagContent(uint256 _contentID) public {... */\n    tag_8:\n        /* \"contracts/facets/FlagContentFacet.sol\":962:963  0 */\n      0x00\n        /* \"contracts/facets/FlagContentFacet.sol\":948:958  _contentID */\n      dup2\n        /* \"contracts/facets/FlagContentFacet.sol\":948:963  _contentID != 0 */\n      sub\n        /* \"contracts/facets/FlagContentFacet.sol\":940:987  require(_contentID != 0, \"Flag valid content!\") */\n      tag_15\n      jumpi\n      mload(0x40)\n      0x08c379a000000000000000000000000000000000000000000000000000000000\n      dup2\n      mstore\n      0x04\n      add\n      tag_16\n      swap1\n      tag_17\n      jump\t// in\n    tag_16:\n      mload(0x40)\n      dup1\n      swap2\n      sub\n      swap1\n      revert\n    tag_15:\n        /* \"contracts/facets/FlagContentFacet.sol\":1030:1031  0 */\n      0x00\n        /* \"contracts/facets/FlagContentFacet.sol\":1008:1032  msg.sender != address(0) */\n      0xffffffffffffffffffffffffffffffffffffffff\n      and\n        /* \"contracts/facets/FlagContentFacet.sol\":1008:1018  msg.sender */\n      caller\n        /* \"contracts/facets/FlagContentFacet.sol\":1008:1032  msg.sender != address(0) */\n      0xffffffffffffffffffffffffffffffffffffffff\n      and\n      sub\n        /* \"contracts/facets/FlagContentFacet.sol\":1000:1066  require(msg.sender != address(0), \"No permission to flag content\") */\n      tag_18\n      jumpi\n      mload(0x40)\n      0x08c379a000000000000000000000000000000000000000000000000000000000\n      dup2\n      mstore\n      0x04\n      add\n      tag_19\n      swap1\n      tag_20\n      jump\t// in\n    tag_19:\n      mload(0x40)\n      dup1\n      swap2\n      sub\n      swap1\n      revert\n    tag_18:\n        /* \"contracts/facets/FlagContentFacet.sol\":1157:1196  flaggedContent memory newFlaggedContent */\n      0x00\n        /* \"contracts/facets/FlagContentFacet.sol\":1199:1346  flaggedContent({... */\n      mload(0x40)\n      dup1\n      0x60\n      add\n      0x40\n      mstore\n      dup1\n        /* \"contracts/facets/FlagContentFacet.sol\":1240:1250  _contentID */\n      dup4\n        /* \"contracts/facets/FlagContentFacet.sol\":1199:1346  flaggedContent({... */\n      dup2\n      mstore\n      0x20\n      add\n        /* \"contracts/facets/FlagContentFacet.sol\":1283:1298  block.timestamp */\n      timestamp\n        /* \"contracts/facets/FlagContentFacet.sol\":1199:1346  flaggedContent({... */\n      dup2\n      mstore\n      0x20\n      add\n        /* \"contracts/facets/FlagContentFacet.sol\":1324:1334  msg.sender */\n      caller\n        /* \"contracts/facets/FlagContentFacet.sol\":1199:1346  flaggedContent({... */\n      0xffffffffffffffffffffffffffffffffffffffff\n      and\n      dup2\n      mstore\n      pop\n        /* \"contracts/facets/FlagContentFacet.sol\":1157:1346  flaggedContent memory newFlaggedContent = flaggedContent({... */\n      swap1\n      pop\n        /* \"contracts/facets/FlagContentFacet.sol\":1391:1408  newFlaggedContent */\n      dup1\n        /* \"contracts/facets/FlagContentFacet.sol\":1359:1360  s */\n      0x00\n        /* \"contracts/facets/FlagContentFacet.sol\":1359:1376  s.flaggedContents */\n      0x0a\n      add\n        /* \"contracts/facets/FlagContentFacet.sol\":1359:1388  s.flaggedContents[_contentID] */\n      0x00\n        /* \"contracts/facets/FlagContentFacet.sol\":1377:1387  _contentID */\n      dup5\n        /* \"contracts/facets/FlagContentFacet.sol\":1359:1388  s.flaggedContents[_contentID] */\n      dup2\n      mstore\n      0x20\n      add\n      swap1\n      dup2\n      mstore\n      0x20\n      add\n      0x00\n      keccak256\n        /* \"contracts/facets/FlagContentFacet.sol\":1359:1408  s.flaggedContents[_contentID] = newFlaggedContent */\n      0x00\n      dup3\n      add\n      mload\n      dup2\n      0x00\n      add\n      sstore\n      0x20\n      dup3\n      add\n      mload\n      dup2\n      0x01\n      add\n      sstore\n      0x40\n      dup3\n      add\n      mload\n      dup2\n      0x02\n      add\n      exp(0x0100, 0x00)\n      dup2\n      sload\n      dup2\n      0xffffffffffffffffffffffffffffffffffffffff\n      mul\n      not\n      and\n      swap1\n      dup4\n      0xffffffffffffffffffffffffffffffffffffffff\n      and\n      mul\n      or\n      swap1\n      sstore\n      pop\n      swap1\n      pop\n      pop\n        /* \"contracts/facets/FlagContentFacet.sol\":1421:1422  s */\n      0x00\n        /* \"contracts/facets/FlagContentFacet.sol\":1421:1443  s._totalFlaggedContent */\n      0x02\n      add\n      0x00\n        /* \"contracts/facets/FlagContentFacet.sol\":1421:1445  s._totalFlaggedContent++ */\n      dup2\n      sload\n      dup1\n      swap3\n      swap2\n      swap1\n      tag_21\n      swap1\n      tag_22\n      jump\t// in\n    tag_21:\n      swap2\n      swap1\n      pop\n      sstore\n      pop\n        /* \"contracts/facets/FlagContentFacet.sol\":929:1453  {... */\n      pop\n        /* \"contracts/facets/FlagContentFacet.sol\":881:1453  function FlagContent(uint256 _contentID) public {... */\n      pop\n      jump\t// out\n        /* \"contracts/facets/FlagContentFacet.sol\":590:750  function getFlaggedContent(... */\n    tag_11:\n        /* \"contracts/facets/FlagContentFacet.sol\":673:694  flaggedContent memory */\n      tag_23\n      tag_24\n      jump\t// in\n    tag_23:\n        /* \"contracts/facets/FlagContentFacet.sol\":714:715  s */\n      0x00\n        /* \"contracts/facets/FlagContentFacet.sol\":714:731  s.flaggedContents */\n      0x0a\n      add\n        /* \"contracts/facets/FlagContentFacet.sol\":714:742  s.flaggedContents[contentID] */\n      0x00\n        /* \"contracts/facets/FlagContentFacet.sol\":732:741  contentID */\n      dup4\n        /* \"contracts/facets/FlagContentFacet.sol\":714:742  s.flaggedContents[contentID] */\n      dup2\n      mstore\n      0x20\n      add\n      swap1\n      dup2\n      mstore\n      0x20\n      add\n      0x00\n      keccak256\n        /* \"contracts/facets/FlagContentFacet.sol\":707:742  return s.flaggedContents[contentID] */\n      mload(0x40)\n      dup1\n      0x60\n      add\n      0x40\n      mstore\n      swap1\n      dup2\n      0x00\n      dup3\n      add\n      sload\n      dup2\n      mstore\n      0x20\n      add\n      0x01\n      dup3\n      add\n      sload\n      dup2\n      mstore\n      0x20\n      add\n      0x02\n      dup3\n      add\n      0x00\n      swap1\n      sload\n      swap1\n      0x0100\n      exp\n      swap1\n      div\n      0xffffffffffffffffffffffffffffffffffffffff\n      and\n      0xffffffffffffffffffffffffffffffffffffffff\n      and\n      0xffffffffffffffffffffffffffffffffffffffff\n      and\n      dup2\n      mstore\n      pop\n      pop\n      swap1\n      pop\n        /* \"contracts/facets/FlagContentFacet.sol\":590:750  function getFlaggedContent(... */\n      swap2\n      swap1\n      pop\n      jump\t// out\n    tag_24:\n      mload(0x40)\n      dup1\n      0x60\n      add\n      0x40\n      mstore\n      dup1\n      0x00\n      dup2\n      mstore\n      0x20\n      add\n      0x00\n      dup2\n      mstore\n      0x20\n      add\n      and(0xffffffffffffffffffffffffffffffffffffffff, 0x00)\n      dup2\n      mstore\n      pop\n      swap1\n      jump\t// out\n        /* \"#utility.yul\":88:205   */\n    tag_27:\n        /* \"#utility.yul\":197:198   */\n      0x00\n        /* \"#utility.yul\":194:195   */\n      dup1\n        /* \"#utility.yul\":187:199   */\n      revert\n        /* \"#utility.yul\":334:411   */\n    tag_29:\n        /* \"#utility.yul\":371:378   */\n      0x00\n        /* \"#utility.yul\":400:405   */\n      dup2\n        /* \"#utility.yul\":389:405   */\n      swap1\n      pop\n        /* \"#utility.yul\":334:411   */\n      swap2\n      swap1\n      pop\n      jump\t// out\n        /* \"#utility.yul\":417:539   */\n    tag_30:\n        /* \"#utility.yul\":490:514   */\n      tag_49\n        /* \"#utility.yul\":508:513   */\n      dup2\n        /* \"#utility.yul\":490:514   */\n      tag_29\n      jump\t// in\n    tag_49:\n        /* \"#utility.yul\":483:488   */\n      dup2\n        /* \"#utility.yul\":480:515   */\n      eq\n        /* \"#utility.yul\":470:533   */\n      tag_50\n      jumpi\n        /* \"#utility.yul\":529:530   */\n      0x00\n        /* \"#utility.yul\":526:527   */\n      dup1\n        /* \"#utility.yul\":519:531   */\n      revert\n        /* \"#utility.yul\":470:533   */\n    tag_50:\n        /* \"#utility.yul\":417:539   */\n      pop\n      jump\t// out\n        /* \"#utility.yul\":545:684   */\n    tag_31:\n        /* \"#utility.yul\":591:596   */\n      0x00\n        /* \"#utility.yul\":629:635   */\n      dup2\n        /* \"#utility.yul\":616:636   */\n      calldataload\n        /* \"#utility.yul\":607:636   */\n      swap1\n      pop\n        /* \"#utility.yul\":645:678   */\n      tag_52\n        /* \"#utility.yul\":672:677   */\n      dup2\n        /* \"#utility.yul\":645:678   */\n      tag_30\n      jump\t// in\n    tag_52:\n        /* \"#utility.yul\":545:684   */\n      swap3\n      swap2\n      pop\n      pop\n      jump\t// out\n        /* \"#utility.yul\":690:1019   */\n    tag_7:\n        /* \"#utility.yul\":749:755   */\n      0x00\n        /* \"#utility.yul\":798:800   */\n      0x20\n        /* \"#utility.yul\":786:795   */\n      dup3\n        /* \"#utility.yul\":777:784   */\n      dup5\n        /* \"#utility.yul\":773:796   */\n      sub\n        /* \"#utility.yul\":769:801   */\n      slt\n        /* \"#utility.yul\":766:885   */\n      iszero\n      tag_54\n      jumpi\n        /* \"#utility.yul\":804:883   */\n      tag_55\n      tag_27\n      jump\t// in\n    tag_55:\n        /* \"#utility.yul\":766:885   */\n    tag_54:\n        /* \"#utility.yul\":924:925   */\n      0x00\n        /* \"#utility.yul\":949:1002   */\n      tag_56\n        /* \"#utility.yul\":994:1001   */\n      dup5\n        /* \"#utility.yul\":985:991   */\n      dup3\n        /* \"#utility.yul\":974:983   */\n      dup6\n        /* \"#utility.yul\":970:992   */\n      add\n        /* \"#utility.yul\":949:1002   */\n      tag_31\n      jump\t// in\n    tag_56:\n        /* \"#utility.yul\":939:1002   */\n      swap2\n      pop\n        /* \"#utility.yul\":895:1012   */\n      pop\n        /* \"#utility.yul\":690:1019   */\n      swap3\n      swap2\n      pop\n      pop\n      jump\t// out\n        /* \"#utility.yul\":1025:1133   */\n    tag_32:\n        /* \"#utility.yul\":1102:1126   */\n      tag_58\n        /* \"#utility.yul\":1120:1125   */\n      dup2\n        /* \"#utility.yul\":1102:1126   */\n      tag_29\n      jump\t// in\n    tag_58:\n        /* \"#utility.yul\":1097:1100   */\n      dup3\n        /* \"#utility.yul\":1090:1127   */\n      mstore\n        /* \"#utility.yul\":1025:1133   */\n      pop\n      pop\n      jump\t// out\n        /* \"#utility.yul\":1139:1265   */\n    tag_33:\n        /* \"#utility.yul\":1176:1183   */\n      0x00\n        /* \"#utility.yul\":1216:1258   */\n      0xffffffffffffffffffffffffffffffffffffffff\n        /* \"#utility.yul\":1209:1214   */\n      dup3\n        /* \"#utility.yul\":1205:1259   */\n      and\n        /* \"#utility.yul\":1194:1259   */\n      swap1\n      pop\n        /* \"#utility.yul\":1139:1265   */\n      swap2\n      swap1\n      pop\n      jump\t// out\n        /* \"#utility.yul\":1271:1367   */\n    tag_34:\n        /* \"#utility.yul\":1308:1315   */\n      0x00\n        /* \"#utility.yul\":1337:1361   */\n      tag_61\n        /* \"#utility.yul\":1355:1360   */\n      dup3\n        /* \"#utility.yul\":1337:1361   */\n      tag_33\n      jump\t// in\n    tag_61:\n        /* \"#utility.yul\":1326:1361   */\n      swap1\n      pop\n        /* \"#utility.yul\":1271:1367   */\n      swap2\n      swap1\n      pop\n      jump\t// out\n        /* \"#utility.yul\":1373:1481   */\n    tag_35:\n        /* \"#utility.yul\":1450:1474   */\n      tag_63\n        /* \"#utility.yul\":1468:1473   */\n      dup2\n        /* \"#utility.yul\":1450:1474   */\n      tag_34\n      jump\t// in\n    tag_63:\n        /* \"#utility.yul\":1445:1448   */\n      dup3\n        /* \"#utility.yul\":1438:1475   */\n      mstore\n        /* \"#utility.yul\":1373:1481   */\n      pop\n      pop\n      jump\t// out\n        /* \"#utility.yul\":1541:2256   */\n    tag_36:\n        /* \"#utility.yul\":1700:1704   */\n      0x60\n        /* \"#utility.yul\":1695:1698   */\n      dup3\n        /* \"#utility.yul\":1691:1705   */\n      add\n        /* \"#utility.yul\":1792:1796   */\n      0x00\n        /* \"#utility.yul\":1785:1790   */\n      dup3\n        /* \"#utility.yul\":1781:1797   */\n      add\n        /* \"#utility.yul\":1775:1798   */\n      mload\n        /* \"#utility.yul\":1811:1874   */\n      tag_65\n        /* \"#utility.yul\":1868:1872   */\n      0x00\n        /* \"#utility.yul\":1863:1866   */\n      dup6\n        /* \"#utility.yul\":1859:1873   */\n      add\n        /* \"#utility.yul\":1845:1857   */\n      dup3\n        /* \"#utility.yul\":1811:1874   */\n      tag_32\n      jump\t// in\n    tag_65:\n        /* \"#utility.yul\":1715:1884   */\n      pop\n        /* \"#utility.yul\":1978:1982   */\n      0x20\n        /* \"#utility.yul\":1971:1976   */\n      dup3\n        /* \"#utility.yul\":1967:1983   */\n      add\n        /* \"#utility.yul\":1961:1984   */\n      mload\n        /* \"#utility.yul\":1997:2060   */\n      tag_66\n        /* \"#utility.yul\":2054:2058   */\n      0x20\n        /* \"#utility.yul\":2049:2052   */\n      dup6\n        /* \"#utility.yul\":2045:2059   */\n      add\n        /* \"#utility.yul\":2031:2043   */\n      dup3\n        /* \"#utility.yul\":1997:2060   */\n      tag_32\n      jump\t// in\n    tag_66:\n        /* \"#utility.yul\":1894:2070   */\n      pop\n        /* \"#utility.yul\":2157:2161   */\n      0x40\n        /* \"#utility.yul\":2150:2155   */\n      dup3\n        /* \"#utility.yul\":2146:2162   */\n      add\n        /* \"#utility.yul\":2140:2163   */\n      mload\n        /* \"#utility.yul\":2176:2239   */\n      tag_67\n        /* \"#utility.yul\":2233:2237   */\n      0x40\n        /* \"#utility.yul\":2228:2231   */\n      dup6\n        /* \"#utility.yul\":2224:2238   */\n      add\n        /* \"#utility.yul\":2210:2222   */\n      dup3\n        /* \"#utility.yul\":2176:2239   */\n      tag_35\n      jump\t// in\n    tag_67:\n        /* \"#utility.yul\":2080:2249   */\n      pop\n        /* \"#utility.yul\":1669:2256   */\n      pop\n        /* \"#utility.yul\":1541:2256   */\n      pop\n      pop\n      jump\t// out\n        /* \"#utility.yul\":2262:2608   */\n    tag_13:\n        /* \"#utility.yul\":2417:2421   */\n      0x00\n        /* \"#utility.yul\":2455:2457   */\n      0x60\n        /* \"#utility.yul\":2444:2453   */\n      dup3\n        /* \"#utility.yul\":2440:2458   */\n      add\n        /* \"#utility.yul\":2432:2458   */\n      swap1\n      pop\n        /* \"#utility.yul\":2468:2601   */\n      tag_69\n        /* \"#utility.yul\":2598:2599   */\n      0x00\n        /* \"#utility.yul\":2587:2596   */\n      dup4\n        /* \"#utility.yul\":2583:2600   */\n      add\n        /* \"#utility.yul\":2574:2580   */\n      dup5\n        /* \"#utility.yul\":2468:2601   */\n      tag_36\n      jump\t// in\n    tag_69:\n        /* \"#utility.yul\":2262:2608   */\n      swap3\n      swap2\n      pop\n      pop\n      jump\t// out\n        /* \"#utility.yul\":2614:2783   */\n    tag_37:\n        /* \"#utility.yul\":2698:2709   */\n      0x00\n        /* \"#utility.yul\":2732:2738   */\n      dup3\n        /* \"#utility.yul\":2727:2730   */\n      dup3\n        /* \"#utility.yul\":2720:2739   */\n      mstore\n        /* \"#utility.yul\":2772:2776   */\n      0x20\n        /* \"#utility.yul\":2767:2770   */\n      dup3\n        /* \"#utility.yul\":2763:2777   */\n      add\n        /* \"#utility.yul\":2748:2777   */\n      swap1\n      pop\n        /* \"#utility.yul\":2614:2783   */\n      swap3\n      swap2\n      pop\n      pop\n      jump\t// out\n        /* \"#utility.yul\":2789:2958   */\n    tag_38:\n        /* \"#utility.yul\":2929:2950   */\n      0x466c61672076616c696420636f6e74656e742100000000000000000000000000\n        /* \"#utility.yul\":2925:2926   */\n      0x00\n        /* \"#utility.yul\":2917:2923   */\n      dup3\n        /* \"#utility.yul\":2913:2927   */\n      add\n        /* \"#utility.yul\":2906:2951   */\n      mstore\n        /* \"#utility.yul\":2789:2958   */\n      pop\n      jump\t// out\n        /* \"#utility.yul\":2964:3330   */\n    tag_39:\n        /* \"#utility.yul\":3106:3109   */\n      0x00\n        /* \"#utility.yul\":3127:3194   */\n      tag_73\n        /* \"#utility.yul\":3191:3193   */\n      0x13\n        /* \"#utility.yul\":3186:3189   */\n      dup4\n        /* \"#utility.yul\":3127:3194   */\n      tag_37\n      jump\t// in\n    tag_73:\n        /* \"#utility.yul\":3120:3194   */\n      swap2\n      pop\n        /* \"#utility.yul\":3203:3296   */\n      tag_74\n        /* \"#utility.yul\":3292:3295   */\n      dup3\n        /* \"#utility.yul\":3203:3296   */\n      tag_38\n      jump\t// in\n    tag_74:\n        /* \"#utility.yul\":3321:3323   */\n      0x20\n        /* \"#utility.yul\":3316:3319   */\n      dup3\n        /* \"#utility.yul\":3312:3324   */\n      add\n        /* \"#utility.yul\":3305:3324   */\n      swap1\n      pop\n        /* \"#utility.yul\":2964:3330   */\n      swap2\n      swap1\n      pop\n      jump\t// out\n        /* \"#utility.yul\":3336:3755   */\n    tag_17:\n        /* \"#utility.yul\":3502:3506   */\n      0x00\n        /* \"#utility.yul\":3540:3542   */\n      0x20\n        /* \"#utility.yul\":3529:3538   */\n      dup3\n        /* \"#utility.yul\":3525:3543   */\n      add\n        /* \"#utility.yul\":3517:3543   */\n      swap1\n      pop\n        /* \"#utility.yul\":3589:3598   */\n      dup2\n        /* \"#utility.yul\":3583:3587   */\n      dup2\n        /* \"#utility.yul\":3579:3599   */\n      sub\n        /* \"#utility.yul\":3575:3576   */\n      0x00\n        /* \"#utility.yul\":3564:3573   */\n      dup4\n        /* \"#utility.yul\":3560:3577   */\n      add\n        /* \"#utility.yul\":3553:3600   */\n      mstore\n        /* \"#utility.yul\":3617:3748   */\n      tag_76\n        /* \"#utility.yul\":3743:3747   */\n      dup2\n        /* \"#utility.yul\":3617:3748   */\n      tag_39\n      jump\t// in\n    tag_76:\n        /* \"#utility.yul\":3609:3748   */\n      swap1\n      pop\n        /* \"#utility.yul\":3336:3755   */\n      swap2\n      swap1\n      pop\n      jump\t// out\n        /* \"#utility.yul\":3761:3940   */\n    tag_40:\n        /* \"#utility.yul\":3901:3932   */\n      0x4e6f207065726d697373696f6e20746f20666c616720636f6e74656e74000000\n        /* \"#utility.yul\":3897:3898   */\n      0x00\n        /* \"#utility.yul\":3889:3895   */\n      dup3\n        /* \"#utility.yul\":3885:3899   */\n      add\n        /* \"#utility.yul\":3878:3933   */\n      mstore\n        /* \"#utility.yul\":3761:3940   */\n      pop\n      jump\t// out\n        /* \"#utility.yul\":3946:4312   */\n    tag_41:\n        /* \"#utility.yul\":4088:4091   */\n      0x00\n        /* \"#utility.yul\":4109:4176   */\n      tag_79\n        /* \"#utility.yul\":4173:4175   */\n      0x1d\n        /* \"#utility.yul\":4168:4171   */\n      dup4\n        /* \"#utility.yul\":4109:4176   */\n      tag_37\n      jump\t// in\n    tag_79:\n        /* \"#utility.yul\":4102:4176   */\n      swap2\n      pop\n        /* \"#utility.yul\":4185:4278   */\n      tag_80\n        /* \"#utility.yul\":4274:4277   */\n      dup3\n        /* \"#utility.yul\":4185:4278   */\n      tag_40\n      jump\t// in\n    tag_80:\n        /* \"#utility.yul\":4303:4305   */\n      0x20\n        /* \"#utility.yul\":4298:4301   */\n      dup3\n        /* \"#utility.yul\":4294:4306   */\n      add\n        /* \"#utility.yul\":4287:4306   */\n      swap1\n      pop\n        /* \"#utility.yul\":3946:4312   */\n      swap2\n      swap1\n      pop\n      jump\t// out\n        /* \"#utility.yul\":4318:4737   */\n    tag_20:\n        /* \"#utility.yul\":4484:4488   */\n      0x00\n        /* \"#utility.yul\":4522:4524   */\n      0x20\n        /* \"#utility.yul\":4511:4520   */\n      dup3\n        /* \"#utility.yul\":4507:4525   */\n      add\n        /* \"#utility.yul\":4499:4525   */\n      swap1\n      pop\n        /* \"#utility.yul\":4571:4580   */\n      dup2\n        /* \"#utility.yul\":4565:4569   */\n      dup2\n        /* \"#utility.yul\":4561:4581   */\n      sub\n        /* \"#utility.yul\":4557:4558   */\n      0x00\n        /* \"#utility.yul\":4546:4555   */\n      dup4\n        /* \"#utility.yul\":4542:4559   */\n      add\n        /* \"#utility.yul\":4535:4582   */\n      mstore\n        /* \"#utility.yul\":4599:4730   */\n      tag_82\n        /* \"#utility.yul\":4725:4729   */\n      dup2\n        /* \"#utility.yul\":4599:4730   */\n      tag_41\n      jump\t// in\n    tag_82:\n        /* \"#utility.yul\":4591:4730   */\n      swap1\n      pop\n        /* \"#utility.yul\":4318:4737   */\n      swap2\n      swap1\n      pop\n      jump\t// out\n        /* \"#utility.yul\":4743:4923   */\n    tag_42:\n        /* \"#utility.yul\":4791:4868   */\n      0x4e487b7100000000000000000000000000000000000000000000000000000000\n        /* \"#utility.yul\":4788:4789   */\n      0x00\n        /* \"#utility.yul\":4781:4869   */\n      mstore\n        /* \"#utility.yul\":4888:4892   */\n      0x11\n        /* \"#utility.yul\":4885:4886   */\n      0x04\n        /* \"#utility.yul\":4878:4893   */\n      mstore\n        /* \"#utility.yul\":4912:4916   */\n      0x24\n        /* \"#utility.yul\":4909:4910   */\n      0x00\n        /* \"#utility.yul\":4902:4917   */\n      revert\n        /* \"#utility.yul\":4929:5162   */\n    tag_22:\n        /* \"#utility.yul\":4968:4971   */\n      0x00\n        /* \"#utility.yul\":4991:5015   */\n      tag_85\n        /* \"#utility.yul\":5009:5014   */\n      dup3\n        /* \"#utility.yul\":4991:5015   */\n      tag_29\n      jump\t// in\n    tag_85:\n        /* \"#utility.yul\":4982:5015   */\n      swap2\n      pop\n        /* \"#utility.yul\":5037:5103   */\n      0xffffffffffffffffffffffffffffffffffffffffffffffffffffffffffffffff\n        /* \"#utility.yul\":5030:5035   */\n      dup3\n        /* \"#utility.yul\":5027:5104   */\n      sub\n        /* \"#utility.yul\":5024:5127   */\n      tag_86\n      jumpi\n        /* \"#utility.yul\":5107:5125   */\n      tag_87\n      tag_42\n      jump\t// in\n    tag_87:\n        /* \"#utility.yul\":5024:5127   */\n    tag_86:\n        /* \"#utility.yul\":5154:5155   */\n      0x01\n        /* \"#utility.yul\":5147:5152   */\n      dup3\n        /* \"#utility.yul\":5143:5156   */\n      add\n        /* \"#utility.yul\":5136:5156   */\n      swap1\n      pop\n        /* \"#utility.yul\":4929:5162   */\n      swap2\n      swap1\n      pop\n      jump\t// out\n\n    auxdata: 0xa2646970667358221220492590b728805332e22143913338380650730553e5fb7ca97012066cb64b815364736f6c63430008110033\n}\n",
				"bytecode": {
					"linkReferences": {},
					"object": "608060405234801561001057600080fd5b5061057e806100206000396000f3fe608060405234801561001057600080fd5b50600436106100365760003560e01c80631b1073131461003b578063fb81254314610057575b600080fd5b6100556004803603810190610050919061030e565b610087565b005b610071600480360381019061006c919061030e565b610202565b60405161007e91906103cd565b60405180910390f35b600081036100ca576040517f08c379a00000000000000000000000000000000000000000000000000000000081526004016100c190610445565b60405180910390fd5b600073ffffffffffffffffffffffffffffffffffffffff163373ffffffffffffffffffffffffffffffffffffffff1603610139576040517f08c379a0000000000000000000000000000000000000000000000000000000008152600401610130906104b1565b60405180910390fd5b600060405180606001604052808381526020014281526020013373ffffffffffffffffffffffffffffffffffffffff168152509050806000600a016000848152602001908152602001600020600082015181600001556020820151816001015560408201518160020160006101000a81548173ffffffffffffffffffffffffffffffffffffffff021916908373ffffffffffffffffffffffffffffffffffffffff160217905550905050600060020160008154809291906101f990610500565b91905055505050565b61020a61029c565b6000600a01600083815260200190815260200160002060405180606001604052908160008201548152602001600182015481526020016002820160009054906101000a900473ffffffffffffffffffffffffffffffffffffffff1673ffffffffffffffffffffffffffffffffffffffff1673ffffffffffffffffffffffffffffffffffffffff16815250509050919050565b60405180606001604052806000815260200160008152602001600073ffffffffffffffffffffffffffffffffffffffff1681525090565b600080fd5b6000819050919050565b6102eb816102d8565b81146102f657600080fd5b50565b600081359050610308816102e2565b92915050565b600060208284031215610324576103236102d3565b5b6000610332848285016102f9565b91505092915050565b610344816102d8565b82525050565b600073ffffffffffffffffffffffffffffffffffffffff82169050919050565b60006103758261034a565b9050919050565b6103858161036a565b82525050565b6060820160008201516103a1600085018261033b565b5060208201516103b4602085018261033b565b5060408201516103c7604085018261037c565b50505050565b60006060820190506103e2600083018461038b565b92915050565b600082825260208201905092915050565b7f466c61672076616c696420636f6e74656e742100000000000000000000000000600082015250565b600061042f6013836103e8565b915061043a826103f9565b602082019050919050565b6000602082019050818103600083015261045e81610422565b9050919050565b7f4e6f207065726d697373696f6e20746f20666c616720636f6e74656e74000000600082015250565b600061049b601d836103e8565b91506104a682610465565b602082019050919050565b600060208201905081810360008301526104ca8161048e565b9050919050565b7f4e487b7100000000000000000000000000000000000000000000000000000000600052601160045260246000fd5b600061050b826102d8565b91507fffffffffffffffffffffffffffffffffffffffffffffffffffffffffffffffff820361053d5761053c6104d1565b5b60018201905091905056fea2646970667358221220492590b728805332e22143913338380650730553e5fb7ca97012066cb64b815364736f6c63430008110033",
					"opcodes": "PUSH1 0x80 PUSH1 0x40 MSTORE CALLVALUE DUP1 ISZERO PUSH2 0x10 JUMPI PUSH1 0x0 DUP1 REVERT JUMPDEST POP PUSH2 0x57E DUP1 PUSH2 0x20 PUSH1 0x0 CODECOPY PUSH1 0x0 RETURN INVALID PUSH1 0x80 PUSH1 0x40 MSTORE CALLVALUE DUP1 ISZERO PUSH2 0x10 JUMPI PUSH1 0x0 DUP1 REVERT JUMPDEST POP PUSH1 0x4 CALLDATASIZE LT PUSH2 0x36 JUMPI PUSH1 0x0 CALLDATALOAD PUSH1 0xE0 SHR DUP1 PUSH4 0x1B107313 EQ PUSH2 0x3B JUMPI DUP1 PUSH4 0xFB812543 EQ PUSH2 0x57 JUMPI JUMPDEST PUSH1 0x0 DUP1 REVERT JUMPDEST PUSH2 0x55 PUSH1 0x4 DUP1 CALLDATASIZE SUB DUP2 ADD SWAP1 PUSH2 0x50 SWAP2 SWAP1 PUSH2 0x30E JUMP JUMPDEST PUSH2 0x87 JUMP JUMPDEST STOP JUMPDEST PUSH2 0x71 PUSH1 0x4 DUP1 CALLDATASIZE SUB DUP2 ADD SWAP1 PUSH2 0x6C SWAP2 SWAP1 PUSH2 0x30E JUMP JUMPDEST PUSH2 0x202 JUMP JUMPDEST PUSH1 0x40 MLOAD PUSH2 0x7E SWAP2 SWAP1 PUSH2 0x3CD JUMP JUMPDEST PUSH1 0x40 MLOAD DUP1 SWAP2 SUB SWAP1 RETURN JUMPDEST PUSH1 0x0 DUP2 SUB PUSH2 0xCA JUMPI PUSH1 0x40 MLOAD PUSH32 0x8C379A000000000000000000000000000000000000000000000000000000000 DUP2 MSTORE PUSH1 0x4 ADD PUSH2 0xC1 SWAP1 PUSH2 0x445 JUMP JUMPDEST PUSH1 0x40 MLOAD DUP1 SWAP2 SUB SWAP1 REVERT JUMPDEST PUSH1 0x0 PUSH20 0xFFFFFFFFFFFFFFFFFFFFFFFFFFFFFFFFFFFFFFFF AND CALLER PUSH20 0xFFFFFFFFFFFFFFFFFFFFFFFFFFFFFFFFFFFFFFFF AND SUB PUSH2 0x139 JUMPI PUSH1 0x40 MLOAD PUSH32 0x8C379A000000000000000000000000000000000000000000000000000000000 DUP2 MSTORE PUSH1 0x4 ADD PUSH2 0x130 SWAP1 PUSH2 0x4B1 JUMP JUMPDEST PUSH1 0x40 MLOAD DUP1 SWAP2 SUB SWAP1 REVERT JUMPDEST PUSH1 0x0 PUSH1 0x40 MLOAD DUP1 PUSH1 0x60 ADD PUSH1 0x40 MSTORE DUP1 DUP4 DUP2 MSTORE PUSH1 0x20 ADD TIMESTAMP DUP2 MSTORE PUSH1 0x20 ADD CALLER PUSH20 0xFFFFFFFFFFFFFFFFFFFFFFFFFFFFFFFFFFFFFFFF AND DUP2 MSTORE POP SWAP1 POP DUP1 PUSH1 0x0 PUSH1 0xA ADD PUSH1 0x0 DUP5 DUP2 MSTORE PUSH1 0x20 ADD SWAP1 DUP2 MSTORE PUSH1 0x20 ADD PUSH1 0x0 KECCAK256 PUSH1 0x0 DUP3 ADD MLOAD DUP2 PUSH1 0x0 ADD SSTORE PUSH1 0x20 DUP3 ADD MLOAD DUP2 PUSH1 0x1 ADD SSTORE PUSH1 0x40 DUP3 ADD MLOAD DUP2 PUSH1 0x2 ADD PUSH1 0x0 PUSH2 0x100 EXP DUP2 SLOAD DUP2 PUSH20 0xFFFFFFFFFFFFFFFFFFFFFFFFFFFFFFFFFFFFFFFF MUL NOT AND SWAP1 DUP4 PUSH20 0xFFFFFFFFFFFFFFFFFFFFFFFFFFFFFFFFFFFFFFFF AND MUL OR SWAP1 SSTORE POP SWAP1 POP POP PUSH1 0x0 PUSH1 0x2 ADD PUSH1 0x0 DUP2 SLOAD DUP1 SWAP3 SWAP2 SWAP1 PUSH2 0x1F9 SWAP1 PUSH2 0x500 JUMP JUMPDEST SWAP2 SWAP1 POP SSTORE POP POP POP JUMP JUMPDEST PUSH2 0x20A PUSH2 0x29C JUMP JUMPDEST PUSH1 0x0 PUSH1 0xA ADD PUSH1 0x0 DUP4 DUP2 MSTORE PUSH1 0x20 ADD SWAP1 DUP2 MSTORE PUSH1 0x20 ADD PUSH1 0x0 KECCAK256 PUSH1 0x40 MLOAD DUP1 PUSH1 0x60 ADD PUSH1 0x40 MSTORE SWAP1 DUP2 PUSH1 0x0 DUP3 ADD SLOAD DUP2 MSTORE PUSH1 0x20 ADD PUSH1 0x1 DUP3 ADD SLOAD DUP2 MSTORE PUSH1 0x20 ADD PUSH1 0x2 DUP3 ADD PUSH1 0x0 SWAP1 SLOAD SWAP1 PUSH2 0x100 EXP SWAP1 DIV PUSH20 0xFFFFFFFFFFFFFFFFFFFFFFFFFFFFFFFFFFFFFFFF AND PUSH20 0xFFFFFFFFFFFFFFFFFFFFFFFFFFFFFFFFFFFFFFFF AND PUSH20 0xFFFFFFFFFFFFFFFFFFFFFFFFFFFFFFFFFFFFFFFF AND DUP2 MSTORE POP POP SWAP1 POP SWAP2 SWAP1 POP JUMP JUMPDEST PUSH1 0x40 MLOAD DUP1 PUSH1 0x60 ADD PUSH1 0x40 MSTORE DUP1 PUSH1 0x0 DUP2 MSTORE PUSH1 0x20 ADD PUSH1 0x0 DUP2 MSTORE PUSH1 0x20 ADD PUSH1 0x0 PUSH20 0xFFFFFFFFFFFFFFFFFFFFFFFFFFFFFFFFFFFFFFFF AND DUP2 MSTORE POP SWAP1 JUMP JUMPDEST PUSH1 0x0 DUP1 REVERT JUMPDEST PUSH1 0x0 DUP2 SWAP1 POP SWAP2 SWAP1 POP JUMP JUMPDEST PUSH2 0x2EB DUP2 PUSH2 0x2D8 JUMP JUMPDEST DUP2 EQ PUSH2 0x2F6 JUMPI PUSH1 0x0 DUP1 REVERT JUMPDEST POP JUMP JUMPDEST PUSH1 0x0 DUP2 CALLDATALOAD SWAP1 POP PUSH2 0x308 DUP2 PUSH2 0x2E2 JUMP JUMPDEST SWAP3 SWAP2 POP POP JUMP JUMPDEST PUSH1 0x0 PUSH1 0x20 DUP3 DUP5 SUB SLT ISZERO PUSH2 0x324 JUMPI PUSH2 0x323 PUSH2 0x2D3 JUMP JUMPDEST JUMPDEST PUSH1 0x0 PUSH2 0x332 DUP5 DUP3 DUP6 ADD PUSH2 0x2F9 JUMP JUMPDEST SWAP2 POP POP SWAP3 SWAP2 POP POP JUMP JUMPDEST PUSH2 0x344 DUP2 PUSH2 0x2D8 JUMP JUMPDEST DUP3 MSTORE POP POP JUMP JUMPDEST PUSH1 0x0 PUSH20 0xFFFFFFFFFFFFFFFFFFFFFFFFFFFFFFFFFFFFFFFF DUP3 AND SWAP1 POP SWAP2 SWAP1 POP JUMP JUMPDEST PUSH1 0x0 PUSH2 0x375 DUP3 PUSH2 0x34A JUMP JUMPDEST SWAP1 POP SWAP2 SWAP1 POP JUMP JUMPDEST PUSH2 0x385 DUP2 PUSH2 0x36A JUMP JUMPDEST DUP3 MSTORE POP POP JUMP JUMPDEST PUSH1 0x60 DUP3 ADD PUSH1 0x0 DUP3 ADD MLOAD PUSH2 0x3A1 PUSH1 0x0 DUP6 ADD DUP3 PUSH2 0x33B JUMP JUMPDEST POP PUSH1 0x20 DUP3 ADD MLOAD PUSH2 0x3B4 PUSH1 0x20 DUP6 ADD DUP3 PUSH2 0x33B JUMP JUMPDEST POP PUSH1 0x40 DUP3 ADD MLOAD PUSH2 0x3C7 PUSH1 0x40 DUP6 ADD DUP3 PUSH2 0x37C JUMP JUMPDEST POP POP POP POP JUMP JUMPDEST PUSH1 0x0 PUSH1 0x60 DUP3 ADD SWAP1 POP PUSH2 0x3E2 PUSH1 0x0 DUP4 ADD DUP5 PUSH2 0x38B JUMP JUMPDEST SWAP3 SWAP2 POP POP JUMP JUMPDEST PUSH1 0x0 DUP3 DUP3 MSTORE PUSH1 0x20 DUP3 ADD SWAP1 POP SWAP3 SWAP2 POP POP JUMP JUMPDEST PUSH32 0x466C61672076616C696420636F6E74656E742100000000000000000000000000 PUSH1 0x0 DUP3 ADD MSTORE POP JUMP JUMPDEST PUSH1 0x0 PUSH2 0x42F PUSH1 0x13 DUP4 PUSH2 0x3E8 JUMP JUMPDEST SWAP2 POP PUSH2 0x43A DUP3 PUSH2 0x3F9 JUMP JUMPDEST PUSH1 0x20 DUP3 ADD SWAP1 POP SWAP2 SWAP1 POP JUMP JUMPDEST PUSH1 0x0 PUSH1 0x20 DUP3 ADD SWAP1 POP DUP2 DUP2 SUB PUSH1 0x0 DUP4 ADD MSTORE PUSH2 0x45E DUP2 PUSH2 0x422 JUMP JUMPDEST SWAP1 POP SWAP2 SWAP1 POP JUMP JUMPDEST PUSH32 0x4E6F207065726D697373696F6E20746F20666C616720636F6E74656E74000000 PUSH1 0x0 DUP3 ADD MSTORE POP JUMP JUMPDEST PUSH1 0x0 PUSH2 0x49B PUSH1 0x1D DUP4 PUSH2 0x3E8 JUMP JUMPDEST SWAP2 POP PUSH2 0x4A6 DUP3 PUSH2 0x465 JUMP JUMPDEST PUSH1 0x20 DUP3 ADD SWAP1 POP SWAP2 SWAP1 POP JUMP JUMPDEST PUSH1 0x0 PUSH1 0x20 DUP3 ADD SWAP1 POP DUP2 DUP2 SUB PUSH1 0x0 DUP4 ADD MSTORE PUSH2 0x4CA DUP2 PUSH2 0x48E JUMP JUMPDEST SWAP1 POP SWAP2 SWAP1 POP JUMP JUMPDEST PUSH32 0x4E487B7100000000000000000000000000000000000000000000000000000000 PUSH1 0x0 MSTORE PUSH1 0x11 PUSH1 0x4 MSTORE PUSH1 0x24 PUSH1 0x0 REVERT JUMPDEST PUSH1 0x0 PUSH2 0x50B DUP3 PUSH2 0x2D8 JUMP JUMPDEST SWAP2 POP PUSH32 0xFFFFFFFFFFFFFFFFFFFFFFFFFFFFFFFFFFFFFFFFFFFFFFFFFFFFFFFFFFFFFFFF DUP3 SUB PUSH2 0x53D JUMPI PUSH2 0x53C PUSH2 0x4D1 JUMP JUMPDEST JUMPDEST PUSH1 0x1 DUP3 ADD SWAP1 POP SWAP2 SWAP1 POP JUMP INVALID LOG2 PUSH5 0x6970667358 0x22 SLT KECCAK256 0x49 0x25 SWAP1 0xB7 0x28 DUP1 MSTORE8 ORIGIN 0xE2 0x21 NUMBER SWAP2 CALLER CODESIZE CODESIZE MOD POP PUSH20 0x553E5FB7CA97012066CB64B815364736F6C6343 STOP ADDMOD GT STOP CALLER "
				},
				"gasEstimates": {
					"creation": {
						"codeDepositCost": "281200",
						"executionCost": "318",
						"totalCost": "281518"
					},
					"external": {
						"FlagContent(uint256)": "infinite",
						"getFlaggedContent(uint256)": "infinite"
					}
				},
				"methodIdentifiers": {
					"FlagContent(uint256)": "1b107313",
					"getFlaggedContent(uint256)": "fb812543"
				}
			},
			"storageLayout": {
				"storage": [
					{
						"astId": 8,
						"contract": "contracts/facets/FlagContentFacet.sol:FlagContentFacet",
						"label": "s",
						"offset": 0,
						"slot": "0",
						"type": "t_struct(AppStorage)159_storage"
					},
					{
						"astId": 13,
						"contract": "contracts/facets/FlagContentFacet.sol:FlagContentFacet",
						"label": "flaggedContents",
						"offset": 0,
						"slot": "11",
						"type": "t_mapping(t_uint256,t_struct(flaggedContent)117_storage)"
					}
				],
				"types": {
					"t_address": {
						"encoding": "inplace",
						"label": "address",
						"numberOfBytes": "20"
					},
					"t_array(t_address)dyn_storage": {
						"base": "t_address",
						"encoding": "dynamic_array",
						"label": "address[]",
						"numberOfBytes": "32"
					},
					"t_bool": {
						"encoding": "inplace",
						"label": "bool",
						"numberOfBytes": "1"
					},
					"t_mapping(t_address,t_struct(VotersDetails)126_storage)": {
						"encoding": "mapping",
						"key": "t_address",
						"label": "mapping(address => struct VotersDetails)",
						"numberOfBytes": "32",
						"value": "t_struct(VotersDetails)126_storage"
					},
					"t_mapping(t_uint256,t_struct(Content)110_storage)": {
						"encoding": "mapping",
						"key": "t_uint256",
						"label": "mapping(uint256 => struct Content)",
						"numberOfBytes": "32",
						"value": "t_struct(Content)110_storage"
					},
					"t_mapping(t_uint256,t_struct(flaggedContent)117_storage)": {
						"encoding": "mapping",
						"key": "t_uint256",
						"label": "mapping(uint256 => struct flaggedContent)",
						"numberOfBytes": "32",
						"value": "t_struct(flaggedContent)117_storage"
					},
					"t_string_storage": {
						"encoding": "bytes",
						"label": "string",
						"numberOfBytes": "32"
					},
					"t_struct(AppStorage)159_storage": {
						"encoding": "inplace",
						"label": "struct AppStorage",
						"members": [
							{
								"astId": 128,
								"contract": "contracts/facets/FlagContentFacet.sol:FlagContentFacet",
								"label": "_tokenAddress",
								"offset": 0,
								"slot": "0",
								"type": "t_address"
							},
							{
								"astId": 130,
								"contract": "contracts/facets/FlagContentFacet.sol:FlagContentFacet",
								"label": "_nftAddress",
								"offset": 0,
								"slot": "1",
								"type": "t_address"
							},
							{
								"astId": 132,
								"contract": "contracts/facets/FlagContentFacet.sol:FlagContentFacet",
								"label": "_totalFlaggedContent",
								"offset": 0,
								"slot": "2",
								"type": "t_uint256"
							},
							{
								"astId": 134,
								"contract": "contracts/facets/FlagContentFacet.sol:FlagContentFacet",
								"label": "_voteCount",
								"offset": 0,
								"slot": "3",
								"type": "t_uint256"
							},
							{
								"astId": 136,
								"contract": "contracts/facets/FlagContentFacet.sol:FlagContentFacet",
								"label": "_votingTime",
								"offset": 0,
								"slot": "4",
								"type": "t_uint256"
							},
							{
								"astId": 138,
								"contract": "contracts/facets/FlagContentFacet.sol:FlagContentFacet",
								"label": "_totalVoters",
								"offset": 0,
								"slot": "5",
								"type": "t_uint256"
							},
							{
								"astId": 140,
								"contract": "contracts/facets/FlagContentFacet.sol:FlagContentFacet",
								"label": "_isVotingOn",
								"offset": 0,
								"slot": "6",
								"type": "t_bool"
							},
							{
								"astId": 145,
								"contract": "contracts/facets/FlagContentFacet.sol:FlagContentFacet",
								"label": "ContentBank",
								"offset": 0,
								"slot": "7",
								"type": "t_mapping(t_uint256,t_struct(Content)110_storage)"
							},
							{
								"astId": 148,
								"contract": "contracts/facets/FlagContentFacet.sol:FlagContentFacet",
								"label": "EligibleVoters",
								"offset": 0,
								"slot": "8",
								"type": "t_array(t_address)dyn_storage"
							},
							{
								"astId": 153,
								"contract": "contracts/facets/FlagContentFacet.sol:FlagContentFacet",
								"label": "Voters",
								"offset": 0,
								"slot": "9",
								"type": "t_mapping(t_address,t_struct(VotersDetails)126_storage)"
							},
							{
								"astId": 158,
								"contract": "contracts/facets/FlagContentFacet.sol:FlagContentFacet",
								"label": "flaggedContents",
								"offset": 0,
								"slot": "10",
								"type": "t_mapping(t_uint256,t_struct(flaggedContent)117_storage)"
							}
						],
						"numberOfBytes": "352"
					},
					"t_struct(Content)110_storage": {
						"encoding": "inplace",
						"label": "struct Content",
						"members": [
							{
								"astId": 82,
								"contract": "contracts/facets/FlagContentFacet.sol:FlagContentFacet",
								"label": "contentName",
								"offset": 0,
								"slot": "0",
								"type": "t_string_storage"
							},
							{
								"astId": 84,
								"contract": "contracts/facets/FlagContentFacet.sol:FlagContentFacet",
								"label": "contentCreator",
								"offset": 0,
								"slot": "1",
								"type": "t_address"
							},
							{
								"astId": 86,
								"contract": "contracts/facets/FlagContentFacet.sol:FlagContentFacet",
								"label": "contentID",
								"offset": 0,
								"slot": "2",
								"type": "t_uint256"
							},
							{
								"astId": 88,
								"contract": "contracts/facets/FlagContentFacet.sol:FlagContentFacet",
								"label": "flagged",
								"offset": 0,
								"slot": "3",
								"type": "t_bool"
							},
							{
								"astId": 90,
								"contract": "contracts/facets/FlagContentFacet.sol:FlagContentFacet",
								"label": "flaggedTimestamp",
								"offset": 0,
								"slot": "4",
								"type": "t_uint256"
							},
							{
								"astId": 92,
								"contract": "contracts/facets/FlagContentFacet.sol:FlagContentFacet",
								"label": "flaggedBy",
								"offset": 0,
								"slot": "5",
								"type": "t_address"
							},
							{
								"astId": 94,
								"contract": "contracts/facets/FlagContentFacet.sol:FlagContentFacet",
								"label": "reasonForFlagging",
								"offset": 0,
								"slot": "6",
								"type": "t_string_storage"
							},
							{
								"astId": 96,
								"contract": "contracts/facets/FlagContentFacet.sol:FlagContentFacet",
								"label": "contentDescription",
								"offset": 0,
								"slot": "7",
								"type": "t_string_storage"
							},
							{
								"astId": 98,
								"contract": "contracts/facets/FlagContentFacet.sol:FlagContentFacet",
								"label": "isVotedOn",
								"offset": 0,
								"slot": "8",
								"type": "t_bool"
							},
							{
								"astId": 101,
								"contract": "contracts/facets/FlagContentFacet.sol:FlagContentFacet",
								"label": "voters",
								"offset": 0,
								"slot": "9",
								"type": "t_array(t_address)dyn_storage"
							},
							{
								"astId": 103,
								"contract": "contracts/facets/FlagContentFacet.sol:FlagContentFacet",
								"label": "totalVoteCount",
								"offset": 0,
								"slot": "10",
								"type": "t_uint256"
							},
							{
								"astId": 105,
								"contract": "contracts/facets/FlagContentFacet.sol:FlagContentFacet",
								"label": "flaggedVotes",
								"offset": 0,
								"slot": "11",
								"type": "t_uint256"
							},
							{
								"astId": 107,
								"contract": "contracts/facets/FlagContentFacet.sol:FlagContentFacet",
								"label": "yesVotes",
								"offset": 0,
								"slot": "12",
								"type": "t_uint256"
							},
							{
								"astId": 109,
								"contract": "contracts/facets/FlagContentFacet.sol:FlagContentFacet",
								"label": "noVotes",
								"offset": 0,
								"slot": "13",
								"type": "t_uint256"
							}
						],
						"numberOfBytes": "448"
					},
					"t_struct(VotersDetails)126_storage": {
						"encoding": "inplace",
						"label": "struct VotersDetails",
						"members": [
							{
								"astId": 119,
								"contract": "contracts/facets/FlagContentFacet.sol:FlagContentFacet",
								"label": "voterAddress",
								"offset": 0,
								"slot": "0",
								"type": "t_address"
							},
							{
								"astId": 121,
								"contract": "contracts/facets/FlagContentFacet.sol:FlagContentFacet",
								"label": "hasVoted",
								"offset": 20,
								"slot": "0",
								"type": "t_bool"
							},
							{
								"astId": 123,
								"contract": "contracts/facets/FlagContentFacet.sol:FlagContentFacet",
								"label": "vote",
								"offset": 21,
								"slot": "0",
								"type": "t_bool"
							},
							{
								"astId": 125,
								"contract": "contracts/facets/FlagContentFacet.sol:FlagContentFacet",
								"label": "verified",
								"offset": 22,
								"slot": "0",
								"type": "t_bool"
							}
						],
						"numberOfBytes": "32"
					},
					"t_struct(flaggedContent)117_storage": {
						"encoding": "inplace",
						"label": "struct flaggedContent",
						"members": [
							{
								"astId": 112,
								"contract": "contracts/facets/FlagContentFacet.sol:FlagContentFacet",
								"label": "contentID",
								"offset": 0,
								"slot": "0",
								"type": "t_uint256"
							},
							{
								"astId": 114,
								"contract": "contracts/facets/FlagContentFacet.sol:FlagContentFacet",
								"label": "flaggedTimestamp",
								"offset": 0,
								"slot": "1",
								"type": "t_uint256"
							},
							{
								"astId": 116,
								"contract": "contracts/facets/FlagContentFacet.sol:FlagContentFacet",
								"label": "flaggedBy",
								"offset": 0,
								"slot": "2",
								"type": "t_address"
							}
						],
						"numberOfBytes": "96"
					},
					"t_uint256": {
						"encoding": "inplace",
						"label": "uint256",
						"numberOfBytes": "32"
					}
				}
			},
			"userdoc": {
				"kind": "user",
				"methods": {
					"FlagContent(uint256)": {
						"notice": "Flag a content by its ID."
					},
					"getFlaggedContent(uint256)": {
						"notice": "Get details of a flagged content by content ID."
					}
				},
				"version": 1
			}
		}
	}
}