{
  "_format": "hh-sol-artifact-1",
  "contractName": "FlagContentFacet",
  "sourceName": "contracts/facets/FlagContentFacet.sol",
  "abi": [
    {
      "inputs": [
        {
          "internalType": "uint256",
          "name": "_contentID",
          "type": "uint256"
        }
      ],
      "name": "FlagContent",
      "outputs": [],
      "stateMutability": "nonpayable",
      "type": "function"
    }
  ],
  "bytecode": "0x608060405234801561001057600080fd5b5061022a806100206000396000f3fe608060405234801561001057600080fd5b506004361061002b5760003560e01c80631b10731314610030575b600080fd5b61004a60048036038101906100459190610150565b61004c565b005b600060405180606001604052808381526020014281526020013373ffffffffffffffffffffffffffffffffffffffff168152509050806000600a016000848152602001908152602001600020600082015181600001556020820151816001015560408201518160020160006101000a81548173ffffffffffffffffffffffffffffffffffffffff021916908373ffffffffffffffffffffffffffffffffffffffff1602179055509050506000600201600081548092919061010c906101ac565b91905055505050565b600080fd5b6000819050919050565b61012d8161011a565b811461013857600080fd5b50565b60008135905061014a81610124565b92915050565b60006020828403121561016657610165610115565b5b60006101748482850161013b565b91505092915050565b7f4e487b7100000000000000000000000000000000000000000000000000000000600052601160045260246000fd5b60006101b78261011a565b91507fffffffffffffffffffffffffffffffffffffffffffffffffffffffffffffffff82036101e9576101e861017d565b5b60018201905091905056fea26469706673582212202eb28cc8fb07d652156419aa1de9b5369b7ff228f83e474390cc5af6c6f25d1364736f6c63430008110033",
  "linkReferences": {},
  "deployedLinkReferences": {}
}