{
  "_format": "hh-sol-artifact-1",
  "contractName": "FlagContentFacet",
  "sourceName": "contracts/facets/FlagContentFacet.sol",
  "abi": [
    {
      "inputs": [
        {
          "internalType": "uint256",
          "name": "_contentID",
          "type": "uint256"
        }
      ],
      "name": "FlagContent",
      "outputs": [],
      "stateMutability": "nonpayable",
      "type": "function"
    },
    {
      "inputs": [
        {
          "internalType": "uint256",
          "name": "contentID",
          "type": "uint256"
        }
      ],
      "name": "getFlaggedContent",
      "outputs": [
        {
          "components": [
            {
              "internalType": "uint256",
              "name": "contentID",
              "type": "uint256"
            },
            {
              "internalType": "uint256",
              "name": "flaggedTimestamp",
              "type": "uint256"
            },
            {
              "internalType": "address",
              "name": "flaggedBy",
              "type": "address"
            }
          ],
          "internalType": "struct flaggedContent",
          "name": "",
          "type": "tuple"
        }
      ],
      "stateMutability": "view",
      "type": "function"
    }
  ],
  "bytecode": "0x608060405234801561001057600080fd5b5061057e806100206000396000f3fe608060405234801561001057600080fd5b50600436106100365760003560e01c80631b1073131461003b578063fb81254314610057575b600080fd5b6100556004803603810190610050919061030e565b610087565b005b610071600480360381019061006c919061030e565b610202565b60405161007e91906103cd565b60405180910390f35b600081036100ca576040517f08c379a00000000000000000000000000000000000000000000000000000000081526004016100c190610445565b60405180910390fd5b600073ffffffffffffffffffffffffffffffffffffffff163373ffffffffffffffffffffffffffffffffffffffff1603610139576040517f08c379a0000000000000000000000000000000000000000000000000000000008152600401610130906104b1565b60405180910390fd5b600060405180606001604052808381526020014281526020013373ffffffffffffffffffffffffffffffffffffffff168152509050806000600a016000848152602001908152602001600020600082015181600001556020820151816001015560408201518160020160006101000a81548173ffffffffffffffffffffffffffffffffffffffff021916908373ffffffffffffffffffffffffffffffffffffffff160217905550905050600060020160008154809291906101f990610500565b91905055505050565b61020a61029c565b6000600a01600083815260200190815260200160002060405180606001604052908160008201548152602001600182015481526020016002820160009054906101000a900473ffffffffffffffffffffffffffffffffffffffff1673ffffffffffffffffffffffffffffffffffffffff1673ffffffffffffffffffffffffffffffffffffffff16815250509050919050565b60405180606001604052806000815260200160008152602001600073ffffffffffffffffffffffffffffffffffffffff1681525090565b600080fd5b6000819050919050565b6102eb816102d8565b81146102f657600080fd5b50565b600081359050610308816102e2565b92915050565b600060208284031215610324576103236102d3565b5b6000610332848285016102f9565b91505092915050565b610344816102d8565b82525050565b600073ffffffffffffffffffffffffffffffffffffffff82169050919050565b60006103758261034a565b9050919050565b6103858161036a565b82525050565b6060820160008201516103a1600085018261033b565b5060208201516103b4602085018261033b565b5060408201516103c7604085018261037c565b50505050565b60006060820190506103e2600083018461038b565b92915050565b600082825260208201905092915050565b7f466c61672076616c696420636f6e74656e742100000000000000000000000000600082015250565b600061042f6013836103e8565b915061043a826103f9565b602082019050919050565b6000602082019050818103600083015261045e81610422565b9050919050565b7f4e6f207065726d697373696f6e20746f20666c616720636f6e74656e74000000600082015250565b600061049b601d836103e8565b91506104a682610465565b602082019050919050565b600060208201905081810360008301526104ca8161048e565b9050919050565b7f4e487b7100000000000000000000000000000000000000000000000000000000600052601160045260246000fd5b600061050b826102d8565b91507fffffffffffffffffffffffffffffffffffffffffffffffffffffffffffffffff820361053d5761053c6104d1565b5b60018201905091905056fea2646970667358221220492590b728805332e22143913338380650730553e5fb7ca97012066cb64b815364736f6c63430008110033",
  "linkReferences": {},
  "deployedLinkReferences": {}
}