{
  "_format": "hh-sol-artifact-1",
  "contractName": "VoteContent",
  "sourceName": "contracts/facets/VoteContent.sol",
  "abi": [
    {
      "anonymous": false,
      "inputs": [
        {
          "indexed": true,
          "internalType": "address",
          "name": "voter",
          "type": "address"
        },
        {
          "indexed": false,
          "internalType": "bool",
          "name": "vote",
          "type": "bool"
        }
      ],
      "name": "VoteCast",
      "type": "event"
    },
    {
      "inputs": [],
      "name": "getRandomVoters",
      "outputs": [],
      "stateMutability": "nonpayable",
      "type": "function"
    },
    {
      "inputs": [
        {
          "internalType": "bool",
          "name": "voteValue",
          "type": "bool"
        },
        {
          "internalType": "uint256",
          "name": "contentID",
          "type": "uint256"
        }
      ],
      "name": "vote",
      "outputs": [],
      "stateMutability": "nonpayable",
      "type": "function"
    }
  ],
  "bytecode": "0x608060405234801561001057600080fd5b5061118f806100206000396000f3fe608060405234801561001057600080fd5b50600436106100365760003560e01c806310e6e06c1461003b57806360777e1d14610057575b600080fd5b61005560048036038101906100509190610ab2565b610061565b005b61005f6103ba565b005b600060060160009054906101000a900460ff166100b3576040517f08c379a00000000000000000000000000000000000000000000000000000000081526004016100aa90610b4f565b60405180910390fd5b4260006004015411156100e9576001600060060160006101000a81548160ff021916908315150217905550426000600401819055505b6100f23361052a565b610131576040517f08c379a000000000000000000000000000000000000000000000000000000000815260040161012890610bbb565b60405180910390fd5b61013a336105df565b610179576040517f08c379a000000000000000000000000000000000000000000000000000000000815260040161017090610c4d565b60405180910390fd5b60008060090160003373ffffffffffffffffffffffffffffffffffffffff1673ffffffffffffffffffffffffffffffffffffffff1681526020019081526020016000206040518060600160405290816000820160009054906101000a900473ffffffffffffffffffffffffffffffffffffffff1673ffffffffffffffffffffffffffffffffffffffff1673ffffffffffffffffffffffffffffffffffffffff1681526020016000820160149054906101000a900460ff161515151581526020016000820160159054906101000a900460ff161515151581525050905080602001511561029a576040517f08c379a000000000000000000000000000000000000000000000000000000000815260040161029190610cb9565b60405180910390fd5b6001816020019015159081151581525050828160400190151590811515815250506000806007016000848152602001908152602001600020905083156102f95780600c0160008154809291906102ef90610d08565b9190505550610314565b80600d01600081548092919061030e90610d08565b91905055505b60018160080160006101000a81548160ff02191690831515021790555061033961078e565b156103665760008060060160006101000a81548160ff021916908315150217905550600080600401819055505b3373ffffffffffffffffffffffffffffffffffffffff167fa32151c21b193dcf3d43d553597e960d429ef6cafad3492ee4790e41be1ce520856040516103ac9190610d60565b60405180910390a250505050565b60036000600501541015610403576040517f08c379a00000000000000000000000000000000000000000000000000000000081526004016103fa90610dc7565b60405180910390fd5b6000610415600360006005015461086a565b905060005b815181101561052657600082828151811061043857610437610de7565b5b6020026020010151905060008060090160003373ffffffffffffffffffffffffffffffffffffffff1673ffffffffffffffffffffffffffffffffffffffff16815260200190815260200160002060000160009054906101000a900473ffffffffffffffffffffffffffffffffffffffff1690506000600801819080600181540180825580915050600190039060005260206000200160009091909190916101000a81548173ffffffffffffffffffffffffffffffffffffffff021916908373ffffffffffffffffffffffffffffffffffffffff1602179055505050808061051e90610d08565b91505061041a565b5050565b600080600090505b6000600801805490508110156105d4578273ffffffffffffffffffffffffffffffffffffffff16600060080182815481106105705761056f610de7565b5b9060005260206000200160009054906101000a900473ffffffffffffffffffffffffffffffffffffffff1673ffffffffffffffffffffffffffffffffffffffff1614156105c15760019150506105da565b80806105cc90610d08565b915050610532565b50600090505b919050565b6000806014905060008373ffffffffffffffffffffffffffffffffffffffff16600060010160009054906101000a900473ffffffffffffffffffffffffffffffffffffffff1673ffffffffffffffffffffffffffffffffffffffff16636352211e846040518263ffffffff1660e01b815260040161065d9190610e25565b60206040518083038186803b15801561067557600080fd5b505afa158015610689573d6000803e3d6000fd5b505050506040513d601f19601f820116820180604052508101906106ad9190610e9e565b73ffffffffffffffffffffffffffffffffffffffff1614905060008060000160009054906101000a900473ffffffffffffffffffffffffffffffffffffffff1673ffffffffffffffffffffffffffffffffffffffff166370a08231866040518263ffffffff1660e01b81526004016107259190610eda565b60206040518083038186803b15801561073d57600080fd5b505afa158015610751573d6000803e3d6000fd5b505050506040513d601f19601f820116820180604052508101906107759190610f0a565b90508180156107845750600081115b9350505050919050565b600080600090505b6000600801805490508110156108615760008060080182815481106107be576107bd610de7565b5b9060005260206000200160009054906101000a900473ffffffffffffffffffffffffffffffffffffffff169050600060090160008273ffffffffffffffffffffffffffffffffffffffff1673ffffffffffffffffffffffffffffffffffffffff16815260200190815260200160002060000160149054906101000a900460ff1661084d57600092505050610867565b50808061085990610d08565b915050610796565b50600190505b90565b6060818311156108af576040517f08c379a00000000000000000000000000000000000000000000000000000000081526004016108a690610fa9565b60405180910390fd5b60008367ffffffffffffffff8111156108cb576108ca610fc9565b5b6040519080825280602002602001820160405280156108f95781602001602082028036833780820191505090505b509050600060018461090b9190610ff8565b905060005b858110156109b4576000600183610927919061102c565b428360405160200161093a9291906110a3565b6040516020818303038152906040528051906020012060001c61095d91906110fe565b90508084838151811061097357610972610de7565b5b602002602001018181525050828061098a9061112f565b9350508281146109a05761099f8482856109c0565b5b5080806109ac90610d08565b915050610910565b50819250505092915050565b60008383815181106109d5576109d4610de7565b5b602002602001015190508382815181106109f2576109f1610de7565b5b6020026020010151848481518110610a0d57610a0c610de7565b5b60200260200101818152505080848381518110610a2d57610a2c610de7565b5b60200260200101818152505050505050565b600080fd5b60008115159050919050565b610a5981610a44565b8114610a6457600080fd5b50565b600081359050610a7681610a50565b92915050565b6000819050919050565b610a8f81610a7c565b8114610a9a57600080fd5b50565b600081359050610aac81610a86565b92915050565b60008060408385031215610ac957610ac8610a3f565b5b6000610ad785828601610a67565b9250506020610ae885828601610a9d565b9150509250929050565b600082825260208201905092915050565b7f5761697420666f7220766f74696e672074696d6520706c656173652100000000600082015250565b6000610b39601c83610af2565b9150610b4482610b03565b602082019050919050565b60006020820190508181036000830152610b6881610b2c565b9050919050565b7f596f7520617265206e6f7420656c696769626c6520746f20766f746500000000600082015250565b6000610ba5601c83610af2565b9150610bb082610b6f565b602082019050919050565b60006020820190508181036000830152610bd481610b98565b9050919050565b7f596f75206d757374206861766520746865207265717569726564204e4654206160008201527f6e6420455243323020746f6b656e20746f20766f746500000000000000000000602082015250565b6000610c37603683610af2565b9150610c4282610bdb565b604082019050919050565b60006020820190508181036000830152610c6681610c2a565b9050919050565b7f596f75206861766520616c726561647920766f74656400000000000000000000600082015250565b6000610ca3601683610af2565b9150610cae82610c6d565b602082019050919050565b60006020820190508181036000830152610cd281610c96565b9050919050565b7f4e487b7100000000000000000000000000000000000000000000000000000000600052601160045260246000fd5b6000610d1382610a7c565b91507fffffffffffffffffffffffffffffffffffffffffffffffffffffffffffffffff821415610d4657610d45610cd9565b5b600182019050919050565b610d5a81610a44565b82525050565b6000602082019050610d756000830184610d51565b92915050565b7f4e6f7420656e6f75676820766f7465727320746f2073656c6563742066726f6d600082015250565b6000610db1602083610af2565b9150610dbc82610d7b565b602082019050919050565b60006020820190508181036000830152610de081610da4565b9050919050565b7f4e487b7100000000000000000000000000000000000000000000000000000000600052603260045260246000fd5b610e1f81610a7c565b82525050565b6000602082019050610e3a6000830184610e16565b92915050565b600073ffffffffffffffffffffffffffffffffffffffff82169050919050565b6000610e6b82610e40565b9050919050565b610e7b81610e60565b8114610e8657600080fd5b50565b600081519050610e9881610e72565b92915050565b600060208284031215610eb457610eb3610a3f565b5b6000610ec284828501610e89565b91505092915050565b610ed481610e60565b82525050565b6000602082019050610eef6000830184610ecb565b92915050565b600081519050610f0481610a86565b92915050565b600060208284031215610f2057610f1f610a3f565b5b6000610f2e84828501610ef5565b91505092915050565b7f436f756e74206d757374206265206c657373207468616e206f7220657175616c60008201527f20746f20746865206d6178696d756d0000000000000000000000000000000000602082015250565b6000610f93602f83610af2565b9150610f9e82610f37565b604082019050919050565b60006020820190508181036000830152610fc281610f86565b9050919050565b7f4e487b7100000000000000000000000000000000000000000000000000000000600052604160045260246000fd5b600061100382610a7c565b915061100e83610a7c565b92508282101561102157611020610cd9565b5b828203905092915050565b600061103782610a7c565b915061104283610a7c565b9250827fffffffffffffffffffffffffffffffffffffffffffffffffffffffffffffffff0382111561107757611076610cd9565b5b828201905092915050565b6000819050919050565b61109d61109882610a7c565b611082565b82525050565b60006110af828561108c565b6020820191506110bf828461108c565b6020820191508190509392505050565b7f4e487b7100000000000000000000000000000000000000000000000000000000600052601260045260246000fd5b600061110982610a7c565b915061111483610a7c565b925082611124576111236110cf565b5b828206905092915050565b600061113a82610a7c565b9150600082141561114e5761114d610cd9565b5b60018203905091905056fea2646970667358221220cb28fe299c605e2c5538d50797d7997fcbbc26c5934d179e4139462fa282abc864736f6c63430008090033",
  "linkReferences": {},
  "deployedLinkReferences": {}
}