{
  "_format": "hh-sol-artifact-1",
  "contractName": "Diamond",
  "sourceName": "contracts/Diamond.sol",
  "abi": [
    {
      "inputs": [
        {
          "internalType": "address",
          "name": "_contractOwner",
          "type": "address"
        },
        {
          "internalType": "address",
          "name": "_diamondCutFacet",
          "type": "address"
        }
      ],
      "stateMutability": "payable",
      "type": "constructor"
    },
    {
      "inputs": [],
      "name": "EmptyCalldata",
      "type": "error"
    },
    {
      "inputs": [
        {
          "internalType": "bytes4",
          "name": "selector",
          "type": "bytes4"
        }
      ],
      "name": "ImmutableFunction",
      "type": "error"
    },
    {
      "inputs": [],
      "name": "InValidFacetCutAction",
      "type": "error"
    },
    {
      "inputs": [],
      "name": "InitCallFailed",
      "type": "error"
    },
    {
      "inputs": [],
      "name": "MustBeZeroAddress",
      "type": "error"
    },
    {
      "inputs": [],
      "name": "NoCode",
      "type": "error"
    },
    {
      "inputs": [],
      "name": "NoSelectorsInFacet",
      "type": "error"
    },
    {
      "inputs": [],
      "name": "NoZeroAddress",
      "type": "error"
    },
    {
      "inputs": [],
      "name": "NonEmptyCalldata",
      "type": "error"
    },
    {
      "inputs": [
        {
          "internalType": "bytes4",
          "name": "selector",
          "type": "bytes4"
        }
      ],
      "name": "NonExistentSelector",
      "type": "error"
    },
    {
      "inputs": [
        {
          "internalType": "bytes4",
          "name": "selector",
          "type": "bytes4"
        }
      ],
      "name": "SameSelectorReplacement",
      "type": "error"
    },
    {
      "inputs": [
        {
          "internalType": "bytes4",
          "name": "selector",
          "type": "bytes4"
        }
      ],
      "name": "SelectorExists",
      "type": "error"
    },
    {
      "stateMutability": "payable",
      "type": "fallback"
    },
    {
      "inputs": [],
      "name": "example",
      "outputs": [
        {
          "internalType": "string",
          "name": "",
          "type": "string"
        }
      ],
      "stateMutability": "pure",
      "type": "function"
    },
    {
      "stateMutability": "payable",
      "type": "receive"
    }
  ],
  "bytecode": "0x608060405260405162003be638038062003be6833981810160405281019062000029919062001844565b6200003f826200021460201b620001d01760201c565b6000600167ffffffffffffffff8111156200005f576200005e6200188b565b5b6040519080825280602002602001820160405280156200009c57816020015b620000886200178e565b8152602001906001900390816200007e5790505b5090506000600167ffffffffffffffff811115620000bf57620000be6200188b565b5b604051908082528060200260200182016040528015620000ee5781602001602082028036833780820191505090505b509050631f931c1c60e01b8160008151811062000110576200010f620018ba565b5b60200260200101907bffffffffffffffffffffffffffffffffffffffffffffffffffffffff191690817bffffffffffffffffffffffffffffffffffffffffffffffffffffffff19168152505060405180606001604052808473ffffffffffffffffffffffffffffffffffffffff168152602001600060028111156200019a5762000199620018e9565b5b81526020018281525082600081518110620001ba57620001b9620018ba565b5b6020026020010181905250620001ed82600060405180602001604052806000815250620002f360201b620002a71760201c565b60008060060160006101000a81548160ff0219169083151502179055505050505062001edb565b6000620002266200056c60201b60201c565b905060008160040160009054906101000a900473ffffffffffffffffffffffffffffffffffffffff169050828260040160006101000a81548173ffffffffffffffffffffffffffffffffffffffff021916908373ffffffffffffffffffffffffffffffffffffffff1602179055508273ffffffffffffffffffffffffffffffffffffffff168173ffffffffffffffffffffffffffffffffffffffff167f8be0079c531659141344cd1fd0a4f28419497f9722a3daafe3b4186f6b6457e060405160405180910390a3505050565b60005b835181101562000517576000848281518110620003185762000317620018ba565b5b6020026020010151602001519050600060028111156200033d576200033c620018e9565b5b816002811115620003535762000352620018e9565b5b03620003b357620003ad858381518110620003735762000372620018ba565b5b602002602001015160000151868481518110620003955762000394620018ba565b5b6020026020010151604001516200059960201b60201c565b62000500565b60016002811115620003ca57620003c9620018e9565b5b816002811115620003e057620003df620018e9565b5b0362000440576200043a8583815181106200040057620003ff620018ba565b5b602002602001015160000151868481518110620004225762000421620018ba565b5b6020026020010151604001516200082760201b60201c565b620004ff565b600280811115620004565762000455620018e9565b5b8160028111156200046c576200046b620018e9565b5b03620004cc57620004c68583815181106200048c576200048b620018ba565b5b602002602001015160000151868481518110620004ae57620004ad620018ba565b5b60200260200101516040015162000ac760201b60201c565b620004fe565b6040517f062f2eb800000000000000000000000000000000000000000000000000000000815260040160405180910390fd5b5b5b5080806200050e9062001951565b915050620002f6565b507f8faa70878671ccd212d20771b795c50af8fd3ff6cf27f4bde57e5d4de0aeb6738383836040516200054d9392919062001ccb565b60405180910390a162000567828262000c5960201b60201c565b505050565b6000807fc8fcad8db84d3cc18b4c41d551ea0ee66dd599cde068d998e57d5e09332c131c90508091505090565b6000815111620005d5576040517f92d2fe5000000000000000000000000000000000000000000000000000000000815260040160405180910390fd5b6000620005e76200056c60201b60201c565b9050600073ffffffffffffffffffffffffffffffffffffffff168373ffffffffffffffffffffffffffffffffffffffff160362000650576040517fddbadd5f00000000000000000000000000000000000000000000000000000000815260040160405180910390fd5b60008160010160008573ffffffffffffffffffffffffffffffffffffffff1673ffffffffffffffffffffffffffffffffffffffff1681526020019081526020016000206000018054905090506000816bffffffffffffffffffffffff1603620006c657620006c5828562000e4d60201b60201c565b5b60005b835181101562000820576000848281518110620006eb57620006ea620018ba565b5b602002602001015190506000846000016000837bffffffffffffffffffffffffffffffffffffffffffffffffffffffff19167bffffffffffffffffffffffffffffffffffffffffffffffffffffffff1916815260200190815260200160002060000160009054906101000a900473ffffffffffffffffffffffffffffffffffffffff169050600073ffffffffffffffffffffffffffffffffffffffff168173ffffffffffffffffffffffffffffffffffffffff1614620007e457816040517f501e70c7000000000000000000000000000000000000000000000000000000008152600401620007db919062001d27565b60405180910390fd5b620007f88583868a62000f1760201b60201c565b8380620008059062001d5c565b94505050508080620008179062001951565b915050620006c9565b5050505050565b600081511162000863576040517f92d2fe5000000000000000000000000000000000000000000000000000000000815260040160405180910390fd5b6000620008756200056c60201b60201c565b9050600073ffffffffffffffffffffffffffffffffffffffff168373ffffffffffffffffffffffffffffffffffffffff1603620008de576040517fddbadd5f00000000000000000000000000000000000000000000000000000000815260040160405180910390fd5b60008160010160008573ffffffffffffffffffffffffffffffffffffffff1673ffffffffffffffffffffffffffffffffffffffff1681526020019081526020016000206000018054905090506000816bffffffffffffffffffffffff1603620009545762000953828562000e4d60201b60201c565b5b60005b835181101562000ac0576000848281518110620009795762000978620018ba565b5b602002602001015190506000846000016000837bffffffffffffffffffffffffffffffffffffffffffffffffffffffff19167bffffffffffffffffffffffffffffffffffffffffffffffffffffffff1916815260200190815260200160002060000160009054906101000a900473ffffffffffffffffffffffffffffffffffffffff1690508673ffffffffffffffffffffffffffffffffffffffff168173ffffffffffffffffffffffffffffffffffffffff160362000a7157816040517fe020c45800000000000000000000000000000000000000000000000000000000815260040162000a68919062001d27565b60405180910390fd5b62000a84858284620010c460201b60201c565b62000a988583868a62000f1760201b60201c565b838062000aa59062001d5c565b9450505050808062000ab79062001951565b91505062000957565b5050505050565b600081511162000b03576040517f92d2fe5000000000000000000000000000000000000000000000000000000000815260040160405180910390fd5b600062000b156200056c60201b60201c565b9050600073ffffffffffffffffffffffffffffffffffffffff168373ffffffffffffffffffffffffffffffffffffffff161462000b7e576040517f6f997f9400000000000000000000000000000000000000000000000000000000815260040160405180910390fd5b60005b825181101562000c5357600083828151811062000ba35762000ba2620018ba565b5b602002602001015190506000836000016000837bffffffffffffffffffffffffffffffffffffffffffffffffffffffff19167bffffffffffffffffffffffffffffffffffffffffffffffffffffffff1916815260200190815260200160002060000160009054906101000a900473ffffffffffffffffffffffffffffffffffffffff16905062000c3b848284620010c460201b60201c565b5050808062000c4a9062001951565b91505062000b81565b50505050565b600073ffffffffffffffffffffffffffffffffffffffff168273ffffffffffffffffffffffffffffffffffffffff160362000cd15760008151111562000ccb576040517fc21b1ab700000000000000000000000000000000000000000000000000000000815260040160405180910390fd5b62000e49565b600081510362000d0d576040517fc047a18400000000000000000000000000000000000000000000000000000000815260040160405180910390fd5b3073ffffffffffffffffffffffffffffffffffffffff168273ffffffffffffffffffffffffffffffffffffffff161462000d535762000d52826200174960201b60201c565b5b6000808373ffffffffffffffffffffffffffffffffffffffff168360405162000d7d919062001dd7565b600060405180830381855af49150503d806000811462000dba576040519150601f19603f3d011682016040523d82523d6000602084013e62000dbf565b606091505b50915091508162000e465760008151111562000e1457806040517f08c379a000000000000000000000000000000000000000000000000000000000815260040162000e0b919062001e4d565b60405180910390fd5b6040517f3a18f8dd00000000000000000000000000000000000000000000000000000000815260040160405180910390fd5b50505b5050565b62000e5e816200174960201b60201c565b81600201805490508260010160008373ffffffffffffffffffffffffffffffffffffffff1673ffffffffffffffffffffffffffffffffffffffff1681526020019081526020016000206001018190555081600201819080600181540180825580915050600190039060005260206000200160009091909190916101000a81548173ffffffffffffffffffffffffffffffffffffffff021916908373ffffffffffffffffffffffffffffffffffffffff1602179055505050565b81846000016000857bffffffffffffffffffffffffffffffffffffffffffffffffffffffff19167bffffffffffffffffffffffffffffffffffffffffffffffffffffffff1916815260200190815260200160002060000160146101000a8154816bffffffffffffffffffffffff02191690836bffffffffffffffffffffffff1602179055508360010160008273ffffffffffffffffffffffffffffffffffffffff1673ffffffffffffffffffffffffffffffffffffffff1681526020019081526020016000206000018390806001815401808255809150506001900390600052602060002090600891828204019190066004029091909190916101000a81548163ffffffff021916908360e01c021790555080846000016000857bffffffffffffffffffffffffffffffffffffffffffffffffffffffff19167bffffffffffffffffffffffffffffffffffffffffffffffffffffffff1916815260200190815260200160002060000160006101000a81548173ffffffffffffffffffffffffffffffffffffffff021916908373ffffffffffffffffffffffffffffffffffffffff16021790555050505050565b600073ffffffffffffffffffffffffffffffffffffffff168273ffffffffffffffffffffffffffffffffffffffff16036200113857806040517f5205a6000000000000000000000000000000000000000000000000000000000081526004016200112f919062001d27565b60405180910390fd5b3073ffffffffffffffffffffffffffffffffffffffff168273ffffffffffffffffffffffffffffffffffffffff1603620011ab57806040517f69731c50000000000000000000000000000000000000000000000000000000008152600401620011a2919062001d27565b60405180910390fd5b6000836000016000837bffffffffffffffffffffffffffffffffffffffffffffffffffffffff19167bffffffffffffffffffffffffffffffffffffffffffffffffffffffff1916815260200190815260200160002060000160149054906101000a90046bffffffffffffffffffffffff166bffffffffffffffffffffffff169050600060018560010160008673ffffffffffffffffffffffffffffffffffffffff1673ffffffffffffffffffffffffffffffffffffffff1681526020019081526020016000206000018054905062001284919062001e71565b90508082146200141f5760008560010160008673ffffffffffffffffffffffffffffffffffffffff1673ffffffffffffffffffffffffffffffffffffffff1681526020019081526020016000206000018281548110620012e957620012e8620018ba565b5b90600052602060002090600891828204019190066004029054906101000a900460e01b9050808660010160008773ffffffffffffffffffffffffffffffffffffffff1673ffffffffffffffffffffffffffffffffffffffff1681526020019081526020016000206000018481548110620013685762001367620018ba565b5b90600052602060002090600891828204019190066004026101000a81548163ffffffff021916908360e01c021790555082866000016000837bffffffffffffffffffffffffffffffffffffffffffffffffffffffff19167bffffffffffffffffffffffffffffffffffffffffffffffffffffffff1916815260200190815260200160002060000160146101000a8154816bffffffffffffffffffffffff02191690836bffffffffffffffffffffffff160217905550505b8460010160008573ffffffffffffffffffffffffffffffffffffffff1673ffffffffffffffffffffffffffffffffffffffff16815260200190815260200160002060000180548062001476576200147562001eac565b5b60019003818190600052602060002090600891828204019190066004026101000a81549063ffffffff02191690559055846000016000847bffffffffffffffffffffffffffffffffffffffffffffffffffffffff19167bffffffffffffffffffffffffffffffffffffffffffffffffffffffff19168152602001908152602001600020600080820160006101000a81549073ffffffffffffffffffffffffffffffffffffffff02191690556000820160146101000a8154906bffffffffffffffffffffffff0219169055505060008103620017425760006001866002018054905062001563919062001e71565b905060008660010160008773ffffffffffffffffffffffffffffffffffffffff1673ffffffffffffffffffffffffffffffffffffffff168152602001908152602001600020600101549050818114620016ab576000876002018381548110620015d157620015d0620018ba565b5b9060005260206000200160009054906101000a900473ffffffffffffffffffffffffffffffffffffffff16905080886002018381548110620016185762001617620018ba565b5b9060005260206000200160006101000a81548173ffffffffffffffffffffffffffffffffffffffff021916908373ffffffffffffffffffffffffffffffffffffffff160217905550818860010160008373ffffffffffffffffffffffffffffffffffffffff1673ffffffffffffffffffffffffffffffffffffffff16815260200190815260200160002060010181905550505b86600201805480620016c257620016c162001eac565b5b6001900381819060005260206000200160006101000a81549073ffffffffffffffffffffffffffffffffffffffff021916905590558660010160008773ffffffffffffffffffffffffffffffffffffffff1673ffffffffffffffffffffffffffffffffffffffff1681526020019081526020016000206001016000905550505b5050505050565b6000813b9050600081116200178a576040517ff046a71400000000000000000000000000000000000000000000000000000000815260040160405180910390fd5b5050565b6040518060600160405280600073ffffffffffffffffffffffffffffffffffffffff16815260200160006002811115620017cd57620017cc620018e9565b5b8152602001606081525090565b600080fd5b600073ffffffffffffffffffffffffffffffffffffffff82169050919050565b60006200180c82620017df565b9050919050565b6200181e81620017ff565b81146200182a57600080fd5b50565b6000815190506200183e8162001813565b92915050565b600080604083850312156200185e576200185d620017da565b5b60006200186e858286016200182d565b925050602062001881858286016200182d565b9150509250929050565b7f4e487b7100000000000000000000000000000000000000000000000000000000600052604160045260246000fd5b7f4e487b7100000000000000000000000000000000000000000000000000000000600052603260045260246000fd5b7f4e487b7100000000000000000000000000000000000000000000000000000000600052602160045260246000fd5b7f4e487b7100000000000000000000000000000000000000000000000000000000600052601160045260246000fd5b6000819050919050565b60006200195e8262001947565b91507fffffffffffffffffffffffffffffffffffffffffffffffffffffffffffffffff820362001993576200199262001918565b5b600182019050919050565b600081519050919050565b600082825260208201905092915050565b6000819050602082019050919050565b620019d581620017ff565b82525050565b60038110620019ef57620019ee620018e9565b5b50565b600081905062001a0282620019db565b919050565b600062001a1482620019f2565b9050919050565b62001a268162001a07565b82525050565b600081519050919050565b600082825260208201905092915050565b6000819050602082019050919050565b60007fffffffff0000000000000000000000000000000000000000000000000000000082169050919050565b62001a8f8162001a58565b82525050565b600062001aa3838362001a84565b60208301905092915050565b6000602082019050919050565b600062001ac98262001a2c565b62001ad5818562001a37565b935062001ae28362001a48565b8060005b8381101562001b1957815162001afd888262001a95565b975062001b0a8362001aaf565b92505060018101905062001ae6565b5085935050505092915050565b600060608301600083015162001b406000860182620019ca565b50602083015162001b55602086018262001a1b565b506040830151848203604086015262001b6f828262001abc565b9150508091505092915050565b600062001b8a838362001b26565b905092915050565b6000602082019050919050565b600062001bac826200199e565b62001bb88185620019a9565b93508360208202850162001bcc85620019ba565b8060005b8581101562001c0e578484038952815162001bec858262001b7c565b945062001bf98362001b92565b925060208a0199505060018101905062001bd0565b50829750879550505050505092915050565b62001c2b81620017ff565b82525050565b600081519050919050565b600082825260208201905092915050565b60005b8381101562001c6d57808201518184015260208101905062001c50565b60008484015250505050565b6000601f19601f8301169050919050565b600062001c978262001c31565b62001ca3818562001c3c565b935062001cb581856020860162001c4d565b62001cc08162001c79565b840191505092915050565b6000606082019050818103600083015262001ce7818662001b9f565b905062001cf8602083018562001c20565b818103604083015262001d0c818462001c8a565b9050949350505050565b62001d218162001a58565b82525050565b600060208201905062001d3e600083018462001d16565b92915050565b60006bffffffffffffffffffffffff82169050919050565b600062001d698262001d44565b91506bffffffffffffffffffffffff820362001d8a5762001d8962001918565b5b600182019050919050565b600081905092915050565b600062001dad8262001c31565b62001db9818562001d95565b935062001dcb81856020860162001c4d565b80840191505092915050565b600062001de5828462001da0565b915081905092915050565b600081519050919050565b600082825260208201905092915050565b600062001e198262001df0565b62001e25818562001dfb565b935062001e3781856020860162001c4d565b62001e428162001c79565b840191505092915050565b6000602082019050818103600083015262001e69818462001e0c565b905092915050565b600062001e7e8262001947565b915062001e8b8362001947565b925082820390508181111562001ea65762001ea562001918565b5b92915050565b7f4e487b7100000000000000000000000000000000000000000000000000000000600052603160045260246000fd5b611cfb8062001eeb6000396000f3fe6080604052600436106100225760003560e01c806354353f2f1461018557610029565b3661002957005b6000807fc8fcad8db84d3cc18b4c41d551ea0ee66dd599cde068d998e57d5e09332c131c9050809150600082600001600080357fffffffff00000000000000000000000000000000000000000000000000000000167bffffffffffffffffffffffffffffffffffffffffffffffffffffffff19167bffffffffffffffffffffffffffffffffffffffffffffffffffffffff1916815260200190815260200160002060000160009054906101000a900473ffffffffffffffffffffffffffffffffffffffff169050600073ffffffffffffffffffffffffffffffffffffffff168173ffffffffffffffffffffffffffffffffffffffff160361015f576040517f08c379a0000000000000000000000000000000000000000000000000000000008152600401610156906116a0565b60405180910390fd5b3660008037600080366000845af43d6000803e8060008114610180573d6000f35b3d6000fd5b34801561019157600080fd5b5061019a6101b0565b6040516101a7919061173f565b60405180910390f35b60606040518060600160405280602b8152602001611c9b602b9139905090565b60006101da6104cd565b905060008160040160009054906101000a900473ffffffffffffffffffffffffffffffffffffffff169050828260040160006101000a81548173ffffffffffffffffffffffffffffffffffffffff021916908373ffffffffffffffffffffffffffffffffffffffff1602179055508273ffffffffffffffffffffffffffffffffffffffff168173ffffffffffffffffffffffffffffffffffffffff167f8be0079c531659141344cd1fd0a4f28419497f9722a3daafe3b4186f6b6457e060405160405180910390a3505050565b60005b83518110156104825760008482815181106102c8576102c7611761565b5b6020026020010151602001519050600060028111156102ea576102e9611790565b5b8160028111156102fd576102fc611790565b5b0361034d5761034885838151811061031857610317611761565b5b60200260200101516000015186848151811061033757610336611761565b5b6020026020010151604001516104fa565b61046e565b6001600281111561036157610360611790565b5b81600281111561037457610373611790565b5b036103c4576103bf85838151811061038f5761038e611761565b5b6020026020010151600001518684815181106103ae576103ad611761565b5b602002602001015160400151610761565b61046d565b6002808111156103d7576103d6611790565b5b8160028111156103ea576103e9611790565b5b0361043a5761043585838151811061040557610404611761565b5b60200260200101516000015186848151811061042457610423611761565b5b6020026020010151604001516109d2565b61046c565b6040517f062f2eb800000000000000000000000000000000000000000000000000000000815260040160405180910390fd5b5b5b50808061047a906117f8565b9150506102aa565b507f8faa70878671ccd212d20771b795c50af8fd3ff6cf27f4bde57e5d4de0aeb6738383836040516104b693929190611b29565b60405180910390a16104c88282610b4b565b505050565b6000807fc8fcad8db84d3cc18b4c41d551ea0ee66dd599cde068d998e57d5e09332c131c90508091505090565b6000815111610535576040517f92d2fe5000000000000000000000000000000000000000000000000000000000815260040160405180910390fd5b600061053f6104cd565b9050600073ffffffffffffffffffffffffffffffffffffffff168373ffffffffffffffffffffffffffffffffffffffff16036105a7576040517fddbadd5f00000000000000000000000000000000000000000000000000000000815260040160405180910390fd5b60008160010160008573ffffffffffffffffffffffffffffffffffffffff1673ffffffffffffffffffffffffffffffffffffffff1681526020019081526020016000206000018054905090506000816bffffffffffffffffffffffff1603610614576106138285610d2a565b5b60005b835181101561075a57600084828151811061063557610634611761565b5b602002602001015190506000846000016000837bffffffffffffffffffffffffffffffffffffffffffffffffffffffff19167bffffffffffffffffffffffffffffffffffffffffffffffffffffffff1916815260200190815260200160002060000160009054906101000a900473ffffffffffffffffffffffffffffffffffffffff169050600073ffffffffffffffffffffffffffffffffffffffff168173ffffffffffffffffffffffffffffffffffffffff161461072b57816040517f501e70c70000000000000000000000000000000000000000000000000000000081526004016107229190611b7d565b60405180910390fd5b6107378583868a610dec565b838061074290611bb0565b94505050508080610752906117f8565b915050610617565b5050505050565b600081511161079c576040517f92d2fe5000000000000000000000000000000000000000000000000000000000815260040160405180910390fd5b60006107a66104cd565b9050600073ffffffffffffffffffffffffffffffffffffffff168373ffffffffffffffffffffffffffffffffffffffff160361080e576040517fddbadd5f00000000000000000000000000000000000000000000000000000000815260040160405180910390fd5b60008160010160008573ffffffffffffffffffffffffffffffffffffffff1673ffffffffffffffffffffffffffffffffffffffff1681526020019081526020016000206000018054905090506000816bffffffffffffffffffffffff160361087b5761087a8285610d2a565b5b60005b83518110156109cb57600084828151811061089c5761089b611761565b5b602002602001015190506000846000016000837bffffffffffffffffffffffffffffffffffffffffffffffffffffffff19167bffffffffffffffffffffffffffffffffffffffffffffffffffffffff1916815260200190815260200160002060000160009054906101000a900473ffffffffffffffffffffffffffffffffffffffff1690508673ffffffffffffffffffffffffffffffffffffffff168173ffffffffffffffffffffffffffffffffffffffff160361099157816040517fe020c4580000000000000000000000000000000000000000000000000000000081526004016109889190611b7d565b60405180910390fd5b61099c858284610f99565b6109a88583868a610dec565b83806109b390611bb0565b945050505080806109c3906117f8565b91505061087e565b5050505050565b6000815111610a0d576040517f92d2fe5000000000000000000000000000000000000000000000000000000000815260040160405180910390fd5b6000610a176104cd565b9050600073ffffffffffffffffffffffffffffffffffffffff168373ffffffffffffffffffffffffffffffffffffffff1614610a7f576040517f6f997f9400000000000000000000000000000000000000000000000000000000815260040160405180910390fd5b60005b8251811015610b45576000838281518110610aa057610a9f611761565b5b602002602001015190506000836000016000837bffffffffffffffffffffffffffffffffffffffffffffffffffffffff19167bffffffffffffffffffffffffffffffffffffffffffffffffffffffff1916815260200190815260200160002060000160009054906101000a900473ffffffffffffffffffffffffffffffffffffffff169050610b30848284610f99565b50508080610b3d906117f8565b915050610a82565b50505050565b600073ffffffffffffffffffffffffffffffffffffffff168273ffffffffffffffffffffffffffffffffffffffff1603610bc057600081511115610bbb576040517fc21b1ab700000000000000000000000000000000000000000000000000000000815260040160405180910390fd5b610d26565b6000815103610bfb576040517fc047a18400000000000000000000000000000000000000000000000000000000815260040160405180910390fd5b3073ffffffffffffffffffffffffffffffffffffffff168273ffffffffffffffffffffffffffffffffffffffff1614610c3857610c37826115ff565b5b6000808373ffffffffffffffffffffffffffffffffffffffff1683604051610c609190611c20565b600060405180830381855af49150503d8060008114610c9b576040519150601f19603f3d011682016040523d82523d6000602084013e610ca0565b606091505b509150915081610d2357600081511115610cf157806040517f08c379a0000000000000000000000000000000000000000000000000000000008152600401610ce8919061173f565b60405180910390fd5b6040517f3a18f8dd00000000000000000000000000000000000000000000000000000000815260040160405180910390fd5b50505b5050565b610d33816115ff565b81600201805490508260010160008373ffffffffffffffffffffffffffffffffffffffff1673ffffffffffffffffffffffffffffffffffffffff1681526020019081526020016000206001018190555081600201819080600181540180825580915050600190039060005260206000200160009091909190916101000a81548173ffffffffffffffffffffffffffffffffffffffff021916908373ffffffffffffffffffffffffffffffffffffffff1602179055505050565b81846000016000857bffffffffffffffffffffffffffffffffffffffffffffffffffffffff19167bffffffffffffffffffffffffffffffffffffffffffffffffffffffff1916815260200190815260200160002060000160146101000a8154816bffffffffffffffffffffffff02191690836bffffffffffffffffffffffff1602179055508360010160008273ffffffffffffffffffffffffffffffffffffffff1673ffffffffffffffffffffffffffffffffffffffff1681526020019081526020016000206000018390806001815401808255809150506001900390600052602060002090600891828204019190066004029091909190916101000a81548163ffffffff021916908360e01c021790555080846000016000857bffffffffffffffffffffffffffffffffffffffffffffffffffffffff19167bffffffffffffffffffffffffffffffffffffffffffffffffffffffff1916815260200190815260200160002060000160006101000a81548173ffffffffffffffffffffffffffffffffffffffff021916908373ffffffffffffffffffffffffffffffffffffffff16021790555050505050565b600073ffffffffffffffffffffffffffffffffffffffff168273ffffffffffffffffffffffffffffffffffffffff160361100a57806040517f5205a6000000000000000000000000000000000000000000000000000000000081526004016110019190611b7d565b60405180910390fd5b3073ffffffffffffffffffffffffffffffffffffffff168273ffffffffffffffffffffffffffffffffffffffff160361107a57806040517f69731c500000000000000000000000000000000000000000000000000000000081526004016110719190611b7d565b60405180910390fd5b6000836000016000837bffffffffffffffffffffffffffffffffffffffffffffffffffffffff19167bffffffffffffffffffffffffffffffffffffffffffffffffffffffff1916815260200190815260200160002060000160149054906101000a90046bffffffffffffffffffffffff166bffffffffffffffffffffffff169050600060018560010160008673ffffffffffffffffffffffffffffffffffffffff1673ffffffffffffffffffffffffffffffffffffffff168152602001908152602001600020600001805490506111519190611c37565b90508082146112e55760008560010160008673ffffffffffffffffffffffffffffffffffffffff1673ffffffffffffffffffffffffffffffffffffffff16815260200190815260200160002060000182815481106111b2576111b1611761565b5b90600052602060002090600891828204019190066004029054906101000a900460e01b9050808660010160008773ffffffffffffffffffffffffffffffffffffffff1673ffffffffffffffffffffffffffffffffffffffff168152602001908152602001600020600001848154811061122e5761122d611761565b5b90600052602060002090600891828204019190066004026101000a81548163ffffffff021916908360e01c021790555082866000016000837bffffffffffffffffffffffffffffffffffffffffffffffffffffffff19167bffffffffffffffffffffffffffffffffffffffffffffffffffffffff1916815260200190815260200160002060000160146101000a8154816bffffffffffffffffffffffff02191690836bffffffffffffffffffffffff160217905550505b8460010160008573ffffffffffffffffffffffffffffffffffffffff1673ffffffffffffffffffffffffffffffffffffffff16815260200190815260200160002060000180548061133957611338611c6b565b5b60019003818190600052602060002090600891828204019190066004026101000a81549063ffffffff02191690559055846000016000847bffffffffffffffffffffffffffffffffffffffffffffffffffffffff19167bffffffffffffffffffffffffffffffffffffffffffffffffffffffff19168152602001908152602001600020600080820160006101000a81549073ffffffffffffffffffffffffffffffffffffffff02191690556000820160146101000a8154906bffffffffffffffffffffffff02191690555050600081036115f8576000600186600201805490506114239190611c37565b905060008660010160008773ffffffffffffffffffffffffffffffffffffffff1673ffffffffffffffffffffffffffffffffffffffff16815260200190815260200160002060010154905081811461156457600087600201838154811061148d5761148c611761565b5b9060005260206000200160009054906101000a900473ffffffffffffffffffffffffffffffffffffffff169050808860020183815481106114d1576114d0611761565b5b9060005260206000200160006101000a81548173ffffffffffffffffffffffffffffffffffffffff021916908373ffffffffffffffffffffffffffffffffffffffff160217905550818860010160008373ffffffffffffffffffffffffffffffffffffffff1673ffffffffffffffffffffffffffffffffffffffff16815260200190815260200160002060010181905550505b8660020180548061157857611577611c6b565b5b6001900381819060005260206000200160006101000a81549073ffffffffffffffffffffffffffffffffffffffff021916905590558660010160008773ffffffffffffffffffffffffffffffffffffffff1673ffffffffffffffffffffffffffffffffffffffff1681526020019081526020016000206001016000905550505b5050505050565b6000813b90506000811161163f576040517ff046a71400000000000000000000000000000000000000000000000000000000815260040160405180910390fd5b5050565b600082825260208201905092915050565b7f4469616d6f6e643a2046756e6374696f6e20646f6573206e6f74206578697374600082015250565b600061168a602083611643565b915061169582611654565b602082019050919050565b600060208201905081810360008301526116b98161167d565b9050919050565b600081519050919050565b60005b838110156116e95780820151818401526020810190506116ce565b60008484015250505050565b6000601f19601f8301169050919050565b6000611711826116c0565b61171b8185611643565b935061172b8185602086016116cb565b611734816116f5565b840191505092915050565b600060208201905081810360008301526117598184611706565b905092915050565b7f4e487b7100000000000000000000000000000000000000000000000000000000600052603260045260246000fd5b7f4e487b7100000000000000000000000000000000000000000000000000000000600052602160045260246000fd5b7f4e487b7100000000000000000000000000000000000000000000000000000000600052601160045260246000fd5b6000819050919050565b6000611803826117ee565b91507fffffffffffffffffffffffffffffffffffffffffffffffffffffffffffffffff8203611835576118346117bf565b5b600182019050919050565b600081519050919050565b600082825260208201905092915050565b6000819050602082019050919050565b600073ffffffffffffffffffffffffffffffffffffffff82169050919050565b60006118978261186c565b9050919050565b6118a78161188c565b82525050565b600381106118be576118bd611790565b5b50565b60008190506118cf826118ad565b919050565b60006118df826118c1565b9050919050565b6118ef816118d4565b82525050565b600081519050919050565b600082825260208201905092915050565b6000819050602082019050919050565b60007fffffffff0000000000000000000000000000000000000000000000000000000082169050919050565b61195681611921565b82525050565b6000611968838361194d565b60208301905092915050565b6000602082019050919050565b600061198c826118f5565b6119968185611900565b93506119a183611911565b8060005b838110156119d25781516119b9888261195c565b97506119c483611974565b9250506001810190506119a5565b5085935050505092915050565b60006060830160008301516119f7600086018261189e565b506020830151611a0a60208601826118e6565b5060408301518482036040860152611a228282611981565b9150508091505092915050565b6000611a3b83836119df565b905092915050565b6000602082019050919050565b6000611a5b82611840565b611a65818561184b565b935083602082028501611a778561185c565b8060005b85811015611ab35784840389528151611a948582611a2f565b9450611a9f83611a43565b925060208a01995050600181019050611a7b565b50829750879550505050505092915050565b611ace8161188c565b82525050565b600081519050919050565b600082825260208201905092915050565b6000611afb82611ad4565b611b058185611adf565b9350611b158185602086016116cb565b611b1e816116f5565b840191505092915050565b60006060820190508181036000830152611b438186611a50565b9050611b526020830185611ac5565b8181036040830152611b648184611af0565b9050949350505050565b611b7781611921565b82525050565b6000602082019050611b926000830184611b6e565b92915050565b60006bffffffffffffffffffffffff82169050919050565b6000611bbb82611b98565b91506bffffffffffffffffffffffff8203611bd957611bd86117bf565b5b600182019050919050565b600081905092915050565b6000611bfa82611ad4565b611c048185611be4565b9350611c148185602086016116cb565b80840191505092915050565b6000611c2c8284611bef565b915081905092915050565b6000611c42826117ee565b9150611c4d836117ee565b9250828203905081811115611c6557611c646117bf565b5b92915050565b7f4e487b7100000000000000000000000000000000000000000000000000000000600052603160045260246000fdfe5448495320495320414e204558414d504c45204f4620414e20494d4d555441424c452046554e4354494f4ea26469706673582212209b835f14154781e6180ace239d6f071aa8e04ddaaad9afe38c5895d4871f211264736f6c63430008110033",
  "linkReferences": {},
  "deployedLinkReferences": {}
}