{
  "_format": "hh-sol-artifact-1",
  "contractName": "Diamond",
  "sourceName": "contracts/Diamond.sol",
  "abi": [
    {
      "inputs": [
        {
          "internalType": "address",
          "name": "_contractOwner",
          "type": "address"
        },
        {
          "internalType": "address",
          "name": "_diamondCutFacet",
          "type": "address"
        },
        {
          "internalType": "uint256",
          "name": "ERC20totalSupply",
          "type": "uint256"
        },
        {
          "internalType": "string",
          "name": "ERC20name",
          "type": "string"
        },
        {
          "internalType": "string",
          "name": "ERC20symbol",
          "type": "string"
        },
        {
          "internalType": "uint8",
          "name": "ERC20decimal",
          "type": "uint8"
        }
      ],
      "stateMutability": "payable",
      "type": "constructor"
    },
    {
      "inputs": [],
      "name": "EmptyCalldata",
      "type": "error"
    },
    {
      "inputs": [
        {
          "internalType": "bytes4",
          "name": "selector",
          "type": "bytes4"
        }
      ],
      "name": "ImmutableFunction",
      "type": "error"
    },
    {
      "inputs": [],
      "name": "InValidFacetCutAction",
      "type": "error"
    },
    {
      "inputs": [],
      "name": "InitCallFailed",
      "type": "error"
    },
    {
      "inputs": [],
      "name": "MustBeZeroAddress",
      "type": "error"
    },
    {
      "inputs": [],
      "name": "NoCode",
      "type": "error"
    },
    {
      "inputs": [],
      "name": "NoSelectorsInFacet",
      "type": "error"
    },
    {
      "inputs": [],
      "name": "NoZeroAddress",
      "type": "error"
    },
    {
      "inputs": [],
      "name": "NonEmptyCalldata",
      "type": "error"
    },
    {
      "inputs": [
        {
          "internalType": "bytes4",
          "name": "selector",
          "type": "bytes4"
        }
      ],
      "name": "NonExistentSelector",
      "type": "error"
    },
    {
      "inputs": [
        {
          "internalType": "bytes4",
          "name": "selector",
          "type": "bytes4"
        }
      ],
      "name": "SameSelectorReplacement",
      "type": "error"
    },
    {
      "inputs": [
        {
          "internalType": "bytes4",
          "name": "selector",
          "type": "bytes4"
        }
      ],
      "name": "SelectorExists",
      "type": "error"
    },
    {
      "stateMutability": "payable",
      "type": "fallback"
    },
    {
      "inputs": [],
      "name": "example",
      "outputs": [
        {
          "internalType": "string",
          "name": "",
          "type": "string"
        }
      ],
      "stateMutability": "pure",
      "type": "function"
    },
    {
      "stateMutability": "payable",
      "type": "receive"
    }
  ],
  "bytecode": "0x6080604052604051620041b8380380620041b8833981810160405281019062000029919062001b73565b6200003f866200027560201b620001d11760201c565b6000600167ffffffffffffffff8111156200005f576200005e620019c7565b5b6040519080825280602002602001820160405280156200009c57816020015b62000088620017fc565b8152602001906001900390816200007e5790505b5090506000600167ffffffffffffffff811115620000bf57620000be620019c7565b5b604051908082528060200260200182016040528015620000ee5781602001602082028036833780820191505090505b509050631f931c1c60e01b8160008151811062000110576200010f62001c4d565b5b60200260200101907bffffffffffffffffffffffffffffffffffffffffffffffffffffffff191690817bffffffffffffffffffffffffffffffffffffffffffffffffffffffff19168152505060405180606001604052808873ffffffffffffffffffffffffffffffffffffffff168152602001600060028111156200019a576200019962001c7c565b5b81526020018281525082600081518110620001ba57620001b962001c4d565b5b6020026020010181905250620001ed826000604051806020016040528060008152506200035460201b620002a81760201c565b84600060010190805190602001906200020892919062001848565b5082600a62000218919062001e2e565b8662000225919062001e7f565b600080018190555083600060020190805190602001906200024892919062001848565b5082600060030160006101000a81548160ff021916908360ff160217905550505050505050505062002494565b600062000287620005d060201b60201c565b905060008160040160009054906101000a900473ffffffffffffffffffffffffffffffffffffffff169050828260040160006101000a81548173ffffffffffffffffffffffffffffffffffffffff021916908373ffffffffffffffffffffffffffffffffffffffff1602179055508273ffffffffffffffffffffffffffffffffffffffff168173ffffffffffffffffffffffffffffffffffffffff167f8be0079c531659141344cd1fd0a4f28419497f9722a3daafe3b4186f6b6457e060405160405180910390a3505050565b60005b83518110156200057b57600084828151811062000379576200037862001c4d565b5b6020026020010151602001519050600060028111156200039e576200039d62001c7c565b5b816002811115620003b457620003b362001c7c565b5b141562000415576200040f858381518110620003d557620003d462001c4d565b5b602002602001015160000151868481518110620003f757620003f662001c4d565b5b602002602001015160400151620005fd60201b60201c565b62000564565b600160028111156200042c576200042b62001c7c565b5b81600281111562000442576200044162001c7c565b5b1415620004a3576200049d85838151811062000463576200046262001c4d565b5b60200260200101516000015186848151811062000485576200048462001c4d565b5b6020026020010151604001516200088d60201b60201c565b62000563565b600280811115620004b957620004b862001c7c565b5b816002811115620004cf57620004ce62001c7c565b5b141562000530576200052a858381518110620004f057620004ef62001c4d565b5b60200260200101516000015186848151811062000512576200051162001c4d565b5b60200260200101516040015162000b3060201b60201c565b62000562565b6040517f062f2eb800000000000000000000000000000000000000000000000000000000815260040160405180910390fd5b5b5b508080620005729062001ee0565b91505062000357565b507f8faa70878671ccd212d20771b795c50af8fd3ff6cf27f4bde57e5d4de0aeb673838383604051620005b1939291906200221e565b60405180910390a1620005cb828262000cc260201b60201c565b505050565b6000807fc8fcad8db84d3cc18b4c41d551ea0ee66dd599cde068d998e57d5e09332c131c90508091505090565b600081511162000639576040517f92d2fe5000000000000000000000000000000000000000000000000000000000815260040160405180910390fd5b60006200064b620005d060201b60201c565b9050600073ffffffffffffffffffffffffffffffffffffffff168373ffffffffffffffffffffffffffffffffffffffff161415620006b5576040517fddbadd5f00000000000000000000000000000000000000000000000000000000815260040160405180910390fd5b60008160010160008573ffffffffffffffffffffffffffffffffffffffff1673ffffffffffffffffffffffffffffffffffffffff1681526020019081526020016000206000018054905090506000816bffffffffffffffffffffffff1614156200072c576200072b828562000eb860201b60201c565b5b60005b83518110156200088657600084828151811062000751576200075062001c4d565b5b602002602001015190506000846000016000837bffffffffffffffffffffffffffffffffffffffffffffffffffffffff19167bffffffffffffffffffffffffffffffffffffffffffffffffffffffff1916815260200190815260200160002060000160009054906101000a900473ffffffffffffffffffffffffffffffffffffffff169050600073ffffffffffffffffffffffffffffffffffffffff168173ffffffffffffffffffffffffffffffffffffffff16146200084a57816040517f501e70c70000000000000000000000000000000000000000000000000000000081526004016200084191906200227a565b60405180910390fd5b6200085e8583868a62000f8260201b60201c565b83806200086b90620022af565b945050505080806200087d9062001ee0565b9150506200072f565b5050505050565b6000815111620008c9576040517f92d2fe5000000000000000000000000000000000000000000000000000000000815260040160405180910390fd5b6000620008db620005d060201b60201c565b9050600073ffffffffffffffffffffffffffffffffffffffff168373ffffffffffffffffffffffffffffffffffffffff16141562000945576040517fddbadd5f00000000000000000000000000000000000000000000000000000000815260040160405180910390fd5b60008160010160008573ffffffffffffffffffffffffffffffffffffffff1673ffffffffffffffffffffffffffffffffffffffff1681526020019081526020016000206000018054905090506000816bffffffffffffffffffffffff161415620009bc57620009bb828562000eb860201b60201c565b5b60005b835181101562000b29576000848281518110620009e157620009e062001c4d565b5b602002602001015190506000846000016000837bffffffffffffffffffffffffffffffffffffffffffffffffffffffff19167bffffffffffffffffffffffffffffffffffffffffffffffffffffffff1916815260200190815260200160002060000160009054906101000a900473ffffffffffffffffffffffffffffffffffffffff1690508673ffffffffffffffffffffffffffffffffffffffff168173ffffffffffffffffffffffffffffffffffffffff16141562000ada57816040517fe020c45800000000000000000000000000000000000000000000000000000000815260040162000ad191906200227a565b60405180910390fd5b62000aed8582846200112f60201b60201c565b62000b018583868a62000f8260201b60201c565b838062000b0e90620022af565b9450505050808062000b209062001ee0565b915050620009bf565b5050505050565b600081511162000b6c576040517f92d2fe5000000000000000000000000000000000000000000000000000000000815260040160405180910390fd5b600062000b7e620005d060201b60201c565b9050600073ffffffffffffffffffffffffffffffffffffffff168373ffffffffffffffffffffffffffffffffffffffff161462000be7576040517f6f997f9400000000000000000000000000000000000000000000000000000000815260040160405180910390fd5b60005b825181101562000cbc57600083828151811062000c0c5762000c0b62001c4d565b5b602002602001015190506000836000016000837bffffffffffffffffffffffffffffffffffffffffffffffffffffffff19167bffffffffffffffffffffffffffffffffffffffffffffffffffffffff1916815260200190815260200160002060000160009054906101000a900473ffffffffffffffffffffffffffffffffffffffff16905062000ca48482846200112f60201b60201c565b5050808062000cb39062001ee0565b91505062000bea565b50505050565b600073ffffffffffffffffffffffffffffffffffffffff168273ffffffffffffffffffffffffffffffffffffffff16141562000d3b5760008151111562000d35576040517fc21b1ab700000000000000000000000000000000000000000000000000000000815260040160405180910390fd5b62000eb4565b60008151141562000d78576040517fc047a18400000000000000000000000000000000000000000000000000000000815260040160405180910390fd5b3073ffffffffffffffffffffffffffffffffffffffff168273ffffffffffffffffffffffffffffffffffffffff161462000dbe5762000dbd82620017b760201b60201c565b5b6000808373ffffffffffffffffffffffffffffffffffffffff168360405162000de891906200232b565b600060405180830381855af49150503d806000811462000e25576040519150601f19603f3d011682016040523d82523d6000602084013e62000e2a565b606091505b50915091508162000eb15760008151111562000e7f57806040517f08c379a000000000000000000000000000000000000000000000000000000000815260040162000e769190620023a1565b60405180910390fd5b6040517f3a18f8dd00000000000000000000000000000000000000000000000000000000815260040160405180910390fd5b50505b5050565b62000ec981620017b760201b60201c565b81600201805490508260010160008373ffffffffffffffffffffffffffffffffffffffff1673ffffffffffffffffffffffffffffffffffffffff1681526020019081526020016000206001018190555081600201819080600181540180825580915050600190039060005260206000200160009091909190916101000a81548173ffffffffffffffffffffffffffffffffffffffff021916908373ffffffffffffffffffffffffffffffffffffffff1602179055505050565b81846000016000857bffffffffffffffffffffffffffffffffffffffffffffffffffffffff19167bffffffffffffffffffffffffffffffffffffffffffffffffffffffff1916815260200190815260200160002060000160146101000a8154816bffffffffffffffffffffffff02191690836bffffffffffffffffffffffff1602179055508360010160008273ffffffffffffffffffffffffffffffffffffffff1673ffffffffffffffffffffffffffffffffffffffff1681526020019081526020016000206000018390806001815401808255809150506001900390600052602060002090600891828204019190066004029091909190916101000a81548163ffffffff021916908360e01c021790555080846000016000857bffffffffffffffffffffffffffffffffffffffffffffffffffffffff19167bffffffffffffffffffffffffffffffffffffffffffffffffffffffff1916815260200190815260200160002060000160006101000a81548173ffffffffffffffffffffffffffffffffffffffff021916908373ffffffffffffffffffffffffffffffffffffffff16021790555050505050565b600073ffffffffffffffffffffffffffffffffffffffff168273ffffffffffffffffffffffffffffffffffffffff161415620011a457806040517f5205a6000000000000000000000000000000000000000000000000000000000081526004016200119b91906200227a565b60405180910390fd5b3073ffffffffffffffffffffffffffffffffffffffff168273ffffffffffffffffffffffffffffffffffffffff1614156200121857806040517f69731c500000000000000000000000000000000000000000000000000000000081526004016200120f91906200227a565b60405180910390fd5b6000836000016000837bffffffffffffffffffffffffffffffffffffffffffffffffffffffff19167bffffffffffffffffffffffffffffffffffffffffffffffffffffffff1916815260200190815260200160002060000160149054906101000a90046bffffffffffffffffffffffff166bffffffffffffffffffffffff169050600060018560010160008673ffffffffffffffffffffffffffffffffffffffff1673ffffffffffffffffffffffffffffffffffffffff16815260200190815260200160002060000180549050620012f19190620023c5565b90508082146200148c5760008560010160008673ffffffffffffffffffffffffffffffffffffffff1673ffffffffffffffffffffffffffffffffffffffff168152602001908152602001600020600001828154811062001356576200135562001c4d565b5b90600052602060002090600891828204019190066004029054906101000a900460e01b9050808660010160008773ffffffffffffffffffffffffffffffffffffffff1673ffffffffffffffffffffffffffffffffffffffff1681526020019081526020016000206000018481548110620013d557620013d462001c4d565b5b90600052602060002090600891828204019190066004026101000a81548163ffffffff021916908360e01c021790555082866000016000837bffffffffffffffffffffffffffffffffffffffffffffffffffffffff19167bffffffffffffffffffffffffffffffffffffffffffffffffffffffff1916815260200190815260200160002060000160146101000a8154816bffffffffffffffffffffffff02191690836bffffffffffffffffffffffff160217905550505b8460010160008573ffffffffffffffffffffffffffffffffffffffff1673ffffffffffffffffffffffffffffffffffffffff168152602001908152602001600020600001805480620014e357620014e262002400565b5b60019003818190600052602060002090600891828204019190066004026101000a81549063ffffffff02191690559055846000016000847bffffffffffffffffffffffffffffffffffffffffffffffffffffffff19167bffffffffffffffffffffffffffffffffffffffffffffffffffffffff19168152602001908152602001600020600080820160006101000a81549073ffffffffffffffffffffffffffffffffffffffff02191690556000820160146101000a8154906bffffffffffffffffffffffff021916905550506000811415620017b057600060018660020180549050620015d19190620023c5565b905060008660010160008773ffffffffffffffffffffffffffffffffffffffff1673ffffffffffffffffffffffffffffffffffffffff168152602001908152602001600020600101549050818114620017195760008760020183815481106200163f576200163e62001c4d565b5b9060005260206000200160009054906101000a900473ffffffffffffffffffffffffffffffffffffffff1690508088600201838154811062001686576200168562001c4d565b5b9060005260206000200160006101000a81548173ffffffffffffffffffffffffffffffffffffffff021916908373ffffffffffffffffffffffffffffffffffffffff160217905550818860010160008373ffffffffffffffffffffffffffffffffffffffff1673ffffffffffffffffffffffffffffffffffffffff16815260200190815260200160002060010181905550505b8660020180548062001730576200172f62002400565b5b6001900381819060005260206000200160006101000a81549073ffffffffffffffffffffffffffffffffffffffff021916905590558660010160008773ffffffffffffffffffffffffffffffffffffffff1673ffffffffffffffffffffffffffffffffffffffff1681526020019081526020016000206001016000905550505b5050505050565b6000813b905060008111620017f8576040517ff046a71400000000000000000000000000000000000000000000000000000000815260040160405180910390fd5b5050565b6040518060600160405280600073ffffffffffffffffffffffffffffffffffffffff168152602001600060028111156200183b576200183a62001c7c565b5b8152602001606081525090565b82805462001856906200245e565b90600052602060002090601f0160209004810192826200187a5760008555620018c6565b82601f106200189557805160ff1916838001178555620018c6565b82800160010185558215620018c6579182015b82811115620018c5578251825591602001919060010190620018a8565b5b509050620018d59190620018d9565b5090565b5b80821115620018f4576000816000905550600101620018da565b5090565b6000604051905090565b600080fd5b600080fd5b600073ffffffffffffffffffffffffffffffffffffffff82169050919050565b600062001939826200190c565b9050919050565b6200194b816200192c565b81146200195757600080fd5b50565b6000815190506200196b8162001940565b92915050565b6000819050919050565b620019868162001971565b81146200199257600080fd5b50565b600081519050620019a6816200197b565b92915050565b600080fd5b600080fd5b6000601f19601f8301169050919050565b7f4e487b7100000000000000000000000000000000000000000000000000000000600052604160045260246000fd5b62001a0182620019b6565b810181811067ffffffffffffffff8211171562001a235762001a22620019c7565b5b80604052505050565b600062001a38620018f8565b905062001a468282620019f6565b919050565b600067ffffffffffffffff82111562001a695762001a68620019c7565b5b62001a7482620019b6565b9050602081019050919050565b60005b8381101562001aa157808201518184015260208101905062001a84565b8381111562001ab1576000848401525b50505050565b600062001ace62001ac88462001a4b565b62001a2c565b90508281526020810184848401111562001aed5762001aec620019b1565b5b62001afa84828562001a81565b509392505050565b600082601f83011262001b1a5762001b19620019ac565b5b815162001b2c84826020860162001ab7565b91505092915050565b600060ff82169050919050565b62001b4d8162001b35565b811462001b5957600080fd5b50565b60008151905062001b6d8162001b42565b92915050565b60008060008060008060c0878903121562001b935762001b9262001902565b5b600062001ba389828a016200195a565b965050602062001bb689828a016200195a565b955050604062001bc989828a0162001995565b945050606087015167ffffffffffffffff81111562001bed5762001bec62001907565b5b62001bfb89828a0162001b02565b935050608087015167ffffffffffffffff81111562001c1f5762001c1e62001907565b5b62001c2d89828a0162001b02565b92505060a062001c4089828a0162001b5c565b9150509295509295509295565b7f4e487b7100000000000000000000000000000000000000000000000000000000600052603260045260246000fd5b7f4e487b7100000000000000000000000000000000000000000000000000000000600052602160045260246000fd5b7f4e487b7100000000000000000000000000000000000000000000000000000000600052601160045260246000fd5b60008160011c9050919050565b6000808291508390505b600185111562001d395780860481111562001d115762001d1062001cab565b5b600185161562001d215780820291505b808102905062001d318562001cda565b945062001cf1565b94509492505050565b60008262001d54576001905062001e27565b8162001d64576000905062001e27565b816001811462001d7d576002811462001d885762001dbe565b600191505062001e27565b60ff84111562001d9d5762001d9c62001cab565b5b8360020a91508482111562001db75762001db662001cab565b5b5062001e27565b5060208310610133831016604e8410600b841016171562001df85782820a90508381111562001df25762001df162001cab565b5b62001e27565b62001e07848484600162001ce7565b9250905081840481111562001e215762001e2062001cab565b5b81810290505b9392505050565b600062001e3b8262001971565b915062001e488362001b35565b925062001e777fffffffffffffffffffffffffffffffffffffffffffffffffffffffffffffffff848462001d42565b905092915050565b600062001e8c8262001971565b915062001e998362001971565b9250817fffffffffffffffffffffffffffffffffffffffffffffffffffffffffffffffff048311821515161562001ed55762001ed462001cab565b5b828202905092915050565b600062001eed8262001971565b91507fffffffffffffffffffffffffffffffffffffffffffffffffffffffffffffffff82141562001f235762001f2262001cab565b5b600182019050919050565b600081519050919050565b600082825260208201905092915050565b6000819050602082019050919050565b62001f65816200192c565b82525050565b6003811062001f7f5762001f7e62001c7c565b5b50565b600081905062001f928262001f6b565b919050565b600062001fa48262001f82565b9050919050565b62001fb68162001f97565b82525050565b600081519050919050565b600082825260208201905092915050565b6000819050602082019050919050565b60007fffffffff0000000000000000000000000000000000000000000000000000000082169050919050565b6200201f8162001fe8565b82525050565b600062002033838362002014565b60208301905092915050565b6000602082019050919050565b6000620020598262001fbc565b62002065818562001fc7565b9350620020728362001fd8565b8060005b83811015620020a95781516200208d888262002025565b97506200209a836200203f565b92505060018101905062002076565b5085935050505092915050565b6000606083016000830151620020d0600086018262001f5a565b506020830151620020e5602086018262001fab565b5060408301518482036040860152620020ff82826200204c565b9150508091505092915050565b60006200211a8383620020b6565b905092915050565b6000602082019050919050565b60006200213c8262001f2e565b62002148818562001f39565b9350836020820285016200215c8562001f4a565b8060005b858110156200219e57848403895281516200217c85826200210c565b9450620021898362002122565b925060208a0199505060018101905062002160565b50829750879550505050505092915050565b620021bb816200192c565b82525050565b600081519050919050565b600082825260208201905092915050565b6000620021ea82620021c1565b620021f68185620021cc565b93506200220881856020860162001a81565b6200221381620019b6565b840191505092915050565b600060608201905081810360008301526200223a81866200212f565b90506200224b6020830185620021b0565b81810360408301526200225f8184620021dd565b9050949350505050565b620022748162001fe8565b82525050565b600060208201905062002291600083018462002269565b92915050565b60006bffffffffffffffffffffffff82169050919050565b6000620022bc8262002297565b91506bffffffffffffffffffffffff821415620022de57620022dd62001cab565b5b600182019050919050565b600081905092915050565b60006200230182620021c1565b6200230d8185620022e9565b93506200231f81856020860162001a81565b80840191505092915050565b6000620023398284620022f4565b915081905092915050565b600081519050919050565b600082825260208201905092915050565b60006200236d8262002344565b6200237981856200234f565b93506200238b81856020860162001a81565b6200239681620019b6565b840191505092915050565b60006020820190508181036000830152620023bd818462002360565b905092915050565b6000620023d28262001971565b9150620023df8362001971565b925082821015620023f557620023f462001cab565b5b828203905092915050565b7f4e487b7100000000000000000000000000000000000000000000000000000000600052603160045260246000fd5b7f4e487b7100000000000000000000000000000000000000000000000000000000600052602260045260246000fd5b600060028204905060018216806200247757607f821691505b602082108114156200248e576200248d6200242f565b5b50919050565b611d1480620024a46000396000f3fe6080604052600436106100225760003560e01c806354353f2f1461018657610029565b3661002957005b6000807fc8fcad8db84d3cc18b4c41d551ea0ee66dd599cde068d998e57d5e09332c131c9050809150600082600001600080357fffffffff00000000000000000000000000000000000000000000000000000000167bffffffffffffffffffffffffffffffffffffffffffffffffffffffff19167bffffffffffffffffffffffffffffffffffffffffffffffffffffffff1916815260200190815260200160002060000160009054906101000a900473ffffffffffffffffffffffffffffffffffffffff169050600073ffffffffffffffffffffffffffffffffffffffff168173ffffffffffffffffffffffffffffffffffffffff161415610160576040517f08c379a0000000000000000000000000000000000000000000000000000000008152600401610157906116ae565b60405180910390fd5b3660008037600080366000845af43d6000803e8060008114610181573d6000f35b3d6000fd5b34801561019257600080fd5b5061019b6101b1565b6040516101a89190611756565b60405180910390f35b60606040518060600160405280602b8152602001611cb4602b9139905090565b60006101db6104d1565b905060008160040160009054906101000a900473ffffffffffffffffffffffffffffffffffffffff169050828260040160006101000a81548173ffffffffffffffffffffffffffffffffffffffff021916908373ffffffffffffffffffffffffffffffffffffffff1602179055508273ffffffffffffffffffffffffffffffffffffffff168173ffffffffffffffffffffffffffffffffffffffff167f8be0079c531659141344cd1fd0a4f28419497f9722a3daafe3b4186f6b6457e060405160405180910390a3505050565b60005b83518110156104865760008482815181106102c9576102c8611778565b5b6020026020010151602001519050600060028111156102eb576102ea6117a7565b5b8160028111156102fe576102fd6117a7565b5b141561034f5761034a85838151811061031a57610319611778565b5b60200260200101516000015186848151811061033957610338611778565b5b6020026020010151604001516104fe565b610472565b60016002811115610363576103626117a7565b5b816002811115610376576103756117a7565b5b14156103c7576103c285838151811061039257610391611778565b5b6020026020010151600001518684815181106103b1576103b0611778565b5b602002602001015160400151610767565b610471565b6002808111156103da576103d96117a7565b5b8160028111156103ed576103ec6117a7565b5b141561043e5761043985838151811061040957610408611778565b5b60200260200101516000015186848151811061042857610427611778565b5b6020026020010151604001516109db565b610470565b6040517f062f2eb800000000000000000000000000000000000000000000000000000000815260040160405180910390fd5b5b5b50808061047e9061180f565b9150506102ab565b507f8faa70878671ccd212d20771b795c50af8fd3ff6cf27f4bde57e5d4de0aeb6738383836040516104ba93929190611b41565b60405180910390a16104cc8282610b54565b505050565b6000807fc8fcad8db84d3cc18b4c41d551ea0ee66dd599cde068d998e57d5e09332c131c90508091505090565b6000815111610539576040517f92d2fe5000000000000000000000000000000000000000000000000000000000815260040160405180910390fd5b60006105436104d1565b9050600073ffffffffffffffffffffffffffffffffffffffff168373ffffffffffffffffffffffffffffffffffffffff1614156105ac576040517fddbadd5f00000000000000000000000000000000000000000000000000000000815260040160405180910390fd5b60008160010160008573ffffffffffffffffffffffffffffffffffffffff1673ffffffffffffffffffffffffffffffffffffffff1681526020019081526020016000206000018054905090506000816bffffffffffffffffffffffff16141561061a576106198285610d35565b5b60005b835181101561076057600084828151811061063b5761063a611778565b5b602002602001015190506000846000016000837bffffffffffffffffffffffffffffffffffffffffffffffffffffffff19167bffffffffffffffffffffffffffffffffffffffffffffffffffffffff1916815260200190815260200160002060000160009054906101000a900473ffffffffffffffffffffffffffffffffffffffff169050600073ffffffffffffffffffffffffffffffffffffffff168173ffffffffffffffffffffffffffffffffffffffff161461073157816040517f501e70c70000000000000000000000000000000000000000000000000000000081526004016107289190611b95565b60405180910390fd5b61073d8583868a610df7565b838061074890611bc8565b945050505080806107589061180f565b91505061061d565b5050505050565b60008151116107a2576040517f92d2fe5000000000000000000000000000000000000000000000000000000000815260040160405180910390fd5b60006107ac6104d1565b9050600073ffffffffffffffffffffffffffffffffffffffff168373ffffffffffffffffffffffffffffffffffffffff161415610815576040517fddbadd5f00000000000000000000000000000000000000000000000000000000815260040160405180910390fd5b60008160010160008573ffffffffffffffffffffffffffffffffffffffff1673ffffffffffffffffffffffffffffffffffffffff1681526020019081526020016000206000018054905090506000816bffffffffffffffffffffffff161415610883576108828285610d35565b5b60005b83518110156109d45760008482815181106108a4576108a3611778565b5b602002602001015190506000846000016000837bffffffffffffffffffffffffffffffffffffffffffffffffffffffff19167bffffffffffffffffffffffffffffffffffffffffffffffffffffffff1916815260200190815260200160002060000160009054906101000a900473ffffffffffffffffffffffffffffffffffffffff1690508673ffffffffffffffffffffffffffffffffffffffff168173ffffffffffffffffffffffffffffffffffffffff16141561099a57816040517fe020c4580000000000000000000000000000000000000000000000000000000081526004016109919190611b95565b60405180910390fd5b6109a5858284610fa4565b6109b18583868a610df7565b83806109bc90611bc8565b945050505080806109cc9061180f565b915050610886565b5050505050565b6000815111610a16576040517f92d2fe5000000000000000000000000000000000000000000000000000000000815260040160405180910390fd5b6000610a206104d1565b9050600073ffffffffffffffffffffffffffffffffffffffff168373ffffffffffffffffffffffffffffffffffffffff1614610a88576040517f6f997f9400000000000000000000000000000000000000000000000000000000815260040160405180910390fd5b60005b8251811015610b4e576000838281518110610aa957610aa8611778565b5b602002602001015190506000836000016000837bffffffffffffffffffffffffffffffffffffffffffffffffffffffff19167bffffffffffffffffffffffffffffffffffffffffffffffffffffffff1916815260200190815260200160002060000160009054906101000a900473ffffffffffffffffffffffffffffffffffffffff169050610b39848284610fa4565b50508080610b469061180f565b915050610a8b565b50505050565b600073ffffffffffffffffffffffffffffffffffffffff168273ffffffffffffffffffffffffffffffffffffffff161415610bca57600081511115610bc5576040517fc21b1ab700000000000000000000000000000000000000000000000000000000815260040160405180910390fd5b610d31565b600081511415610c06576040517fc047a18400000000000000000000000000000000000000000000000000000000815260040160405180910390fd5b3073ffffffffffffffffffffffffffffffffffffffff168273ffffffffffffffffffffffffffffffffffffffff1614610c4357610c428261160d565b5b6000808373ffffffffffffffffffffffffffffffffffffffff1683604051610c6b9190611c39565b600060405180830381855af49150503d8060008114610ca6576040519150601f19603f3d011682016040523d82523d6000602084013e610cab565b606091505b509150915081610d2e57600081511115610cfc57806040517f08c379a0000000000000000000000000000000000000000000000000000000008152600401610cf39190611756565b60405180910390fd5b6040517f3a18f8dd00000000000000000000000000000000000000000000000000000000815260040160405180910390fd5b50505b5050565b610d3e8161160d565b81600201805490508260010160008373ffffffffffffffffffffffffffffffffffffffff1673ffffffffffffffffffffffffffffffffffffffff1681526020019081526020016000206001018190555081600201819080600181540180825580915050600190039060005260206000200160009091909190916101000a81548173ffffffffffffffffffffffffffffffffffffffff021916908373ffffffffffffffffffffffffffffffffffffffff1602179055505050565b81846000016000857bffffffffffffffffffffffffffffffffffffffffffffffffffffffff19167bffffffffffffffffffffffffffffffffffffffffffffffffffffffff1916815260200190815260200160002060000160146101000a8154816bffffffffffffffffffffffff02191690836bffffffffffffffffffffffff1602179055508360010160008273ffffffffffffffffffffffffffffffffffffffff1673ffffffffffffffffffffffffffffffffffffffff1681526020019081526020016000206000018390806001815401808255809150506001900390600052602060002090600891828204019190066004029091909190916101000a81548163ffffffff021916908360e01c021790555080846000016000857bffffffffffffffffffffffffffffffffffffffffffffffffffffffff19167bffffffffffffffffffffffffffffffffffffffffffffffffffffffff1916815260200190815260200160002060000160006101000a81548173ffffffffffffffffffffffffffffffffffffffff021916908373ffffffffffffffffffffffffffffffffffffffff16021790555050505050565b600073ffffffffffffffffffffffffffffffffffffffff168273ffffffffffffffffffffffffffffffffffffffff16141561101657806040517f5205a60000000000000000000000000000000000000000000000000000000000815260040161100d9190611b95565b60405180910390fd5b3073ffffffffffffffffffffffffffffffffffffffff168273ffffffffffffffffffffffffffffffffffffffff16141561108757806040517f69731c5000000000000000000000000000000000000000000000000000000000815260040161107e9190611b95565b60405180910390fd5b6000836000016000837bffffffffffffffffffffffffffffffffffffffffffffffffffffffff19167bffffffffffffffffffffffffffffffffffffffffffffffffffffffff1916815260200190815260200160002060000160149054906101000a90046bffffffffffffffffffffffff166bffffffffffffffffffffffff169050600060018560010160008673ffffffffffffffffffffffffffffffffffffffff1673ffffffffffffffffffffffffffffffffffffffff1681526020019081526020016000206000018054905061115e9190611c50565b90508082146112f25760008560010160008673ffffffffffffffffffffffffffffffffffffffff1673ffffffffffffffffffffffffffffffffffffffff16815260200190815260200160002060000182815481106111bf576111be611778565b5b90600052602060002090600891828204019190066004029054906101000a900460e01b9050808660010160008773ffffffffffffffffffffffffffffffffffffffff1673ffffffffffffffffffffffffffffffffffffffff168152602001908152602001600020600001848154811061123b5761123a611778565b5b90600052602060002090600891828204019190066004026101000a81548163ffffffff021916908360e01c021790555082866000016000837bffffffffffffffffffffffffffffffffffffffffffffffffffffffff19167bffffffffffffffffffffffffffffffffffffffffffffffffffffffff1916815260200190815260200160002060000160146101000a8154816bffffffffffffffffffffffff02191690836bffffffffffffffffffffffff160217905550505b8460010160008573ffffffffffffffffffffffffffffffffffffffff1673ffffffffffffffffffffffffffffffffffffffff16815260200190815260200160002060000180548061134657611345611c84565b5b60019003818190600052602060002090600891828204019190066004026101000a81549063ffffffff02191690559055846000016000847bffffffffffffffffffffffffffffffffffffffffffffffffffffffff19167bffffffffffffffffffffffffffffffffffffffffffffffffffffffff19168152602001908152602001600020600080820160006101000a81549073ffffffffffffffffffffffffffffffffffffffff02191690556000820160146101000a8154906bffffffffffffffffffffffff021916905550506000811415611606576000600186600201805490506114319190611c50565b905060008660010160008773ffffffffffffffffffffffffffffffffffffffff1673ffffffffffffffffffffffffffffffffffffffff16815260200190815260200160002060010154905081811461157257600087600201838154811061149b5761149a611778565b5b9060005260206000200160009054906101000a900473ffffffffffffffffffffffffffffffffffffffff169050808860020183815481106114df576114de611778565b5b9060005260206000200160006101000a81548173ffffffffffffffffffffffffffffffffffffffff021916908373ffffffffffffffffffffffffffffffffffffffff160217905550818860010160008373ffffffffffffffffffffffffffffffffffffffff1673ffffffffffffffffffffffffffffffffffffffff16815260200190815260200160002060010181905550505b8660020180548061158657611585611c84565b5b6001900381819060005260206000200160006101000a81549073ffffffffffffffffffffffffffffffffffffffff021916905590558660010160008773ffffffffffffffffffffffffffffffffffffffff1673ffffffffffffffffffffffffffffffffffffffff1681526020019081526020016000206001016000905550505b5050505050565b6000813b90506000811161164d576040517ff046a71400000000000000000000000000000000000000000000000000000000815260040160405180910390fd5b5050565b600082825260208201905092915050565b7f4469616d6f6e643a2046756e6374696f6e20646f6573206e6f74206578697374600082015250565b6000611698602083611651565b91506116a382611662565b602082019050919050565b600060208201905081810360008301526116c78161168b565b9050919050565b600081519050919050565b60005b838110156116f75780820151818401526020810190506116dc565b83811115611706576000848401525b50505050565b6000601f19601f8301169050919050565b6000611728826116ce565b6117328185611651565b93506117428185602086016116d9565b61174b8161170c565b840191505092915050565b60006020820190508181036000830152611770818461171d565b905092915050565b7f4e487b7100000000000000000000000000000000000000000000000000000000600052603260045260246000fd5b7f4e487b7100000000000000000000000000000000000000000000000000000000600052602160045260246000fd5b7f4e487b7100000000000000000000000000000000000000000000000000000000600052601160045260246000fd5b6000819050919050565b600061181a82611805565b91507fffffffffffffffffffffffffffffffffffffffffffffffffffffffffffffffff82141561184d5761184c6117d6565b5b600182019050919050565b600081519050919050565b600082825260208201905092915050565b6000819050602082019050919050565b600073ffffffffffffffffffffffffffffffffffffffff82169050919050565b60006118af82611884565b9050919050565b6118bf816118a4565b82525050565b600381106118d6576118d56117a7565b5b50565b60008190506118e7826118c5565b919050565b60006118f7826118d9565b9050919050565b611907816118ec565b82525050565b600081519050919050565b600082825260208201905092915050565b6000819050602082019050919050565b60007fffffffff0000000000000000000000000000000000000000000000000000000082169050919050565b61196e81611939565b82525050565b60006119808383611965565b60208301905092915050565b6000602082019050919050565b60006119a48261190d565b6119ae8185611918565b93506119b983611929565b8060005b838110156119ea5781516119d18882611974565b97506119dc8361198c565b9250506001810190506119bd565b5085935050505092915050565b6000606083016000830151611a0f60008601826118b6565b506020830151611a2260208601826118fe565b5060408301518482036040860152611a3a8282611999565b9150508091505092915050565b6000611a5383836119f7565b905092915050565b6000602082019050919050565b6000611a7382611858565b611a7d8185611863565b935083602082028501611a8f85611874565b8060005b85811015611acb5784840389528151611aac8582611a47565b9450611ab783611a5b565b925060208a01995050600181019050611a93565b50829750879550505050505092915050565b611ae6816118a4565b82525050565b600081519050919050565b600082825260208201905092915050565b6000611b1382611aec565b611b1d8185611af7565b9350611b2d8185602086016116d9565b611b368161170c565b840191505092915050565b60006060820190508181036000830152611b5b8186611a68565b9050611b6a6020830185611add565b8181036040830152611b7c8184611b08565b9050949350505050565b611b8f81611939565b82525050565b6000602082019050611baa6000830184611b86565b92915050565b60006bffffffffffffffffffffffff82169050919050565b6000611bd382611bb0565b91506bffffffffffffffffffffffff821415611bf257611bf16117d6565b5b600182019050919050565b600081905092915050565b6000611c1382611aec565b611c1d8185611bfd565b9350611c2d8185602086016116d9565b80840191505092915050565b6000611c458284611c08565b915081905092915050565b6000611c5b82611805565b9150611c6683611805565b925082821015611c7957611c786117d6565b5b828203905092915050565b7f4e487b7100000000000000000000000000000000000000000000000000000000600052603160045260246000fdfe5448495320495320414e204558414d504c45204f4620414e20494d4d555441424c452046554e4354494f4ea2646970667358221220cce1d83b9d0eb6de31d0accbe8466e0ad6bad9fa4365055c05a639febf58a1ac64736f6c63430008090033",
  "linkReferences": {},
  "deployedLinkReferences": {}
}