{
  "_format": "hh-sol-artifact-1",
  "contractName": "VoteContentFacet",
  "sourceName": "contracts/facets/VoteContentFacet.sol",
  "abi": [
    {
      "anonymous": false,
      "inputs": [
        {
          "indexed": true,
          "internalType": "address",
          "name": "previousOwner",
          "type": "address"
        },
        {
          "indexed": true,
          "internalType": "address",
          "name": "newOwner",
          "type": "address"
        }
      ],
      "name": "OwnershipTransferred",
      "type": "event"
    },
    {
      "anonymous": false,
      "inputs": [
        {
          "indexed": true,
          "internalType": "address",
          "name": "voter",
          "type": "address"
        },
        {
          "indexed": false,
          "internalType": "bool",
          "name": "vote",
          "type": "bool"
        }
      ],
      "name": "VoteCast",
      "type": "event"
    },
    {
      "inputs": [
        {
          "internalType": "address",
          "name": "voterAddress",
          "type": "address"
        }
      ],
      "name": "addVoters",
      "outputs": [],
      "stateMutability": "nonpayable",
      "type": "function"
    },
    {
      "inputs": [],
      "name": "checkNFTAdress",
      "outputs": [
        {
          "internalType": "address",
          "name": "",
          "type": "address"
        }
      ],
      "stateMutability": "view",
      "type": "function"
    },
    {
      "inputs": [],
      "name": "checkTokenAdress",
      "outputs": [
        {
          "internalType": "address",
          "name": "",
          "type": "address"
        }
      ],
      "stateMutability": "view",
      "type": "function"
    },
    {
      "inputs": [
        {
          "internalType": "uint256",
          "name": "contentID",
          "type": "uint256"
        }
      ],
      "name": "getContent",
      "outputs": [
        {
          "components": [
            {
              "internalType": "string",
              "name": "contentName",
              "type": "string"
            },
            {
              "internalType": "address",
              "name": "contentCreator",
              "type": "address"
            },
            {
              "internalType": "uint256",
              "name": "contentID",
              "type": "uint256"
            },
            {
              "internalType": "bool",
              "name": "flagged",
              "type": "bool"
            },
            {
              "internalType": "uint256",
              "name": "flaggedTimestamp",
              "type": "uint256"
            },
            {
              "internalType": "address",
              "name": "flaggedBy",
              "type": "address"
            },
            {
              "internalType": "string",
              "name": "reasonForFlagging",
              "type": "string"
            },
            {
              "internalType": "string",
              "name": "contentDescription",
              "type": "string"
            },
            {
              "internalType": "bool",
              "name": "isVotedOn",
              "type": "bool"
            },
            {
              "internalType": "address[]",
              "name": "voters",
              "type": "address[]"
            },
            {
              "internalType": "uint256",
              "name": "totalVoteCount",
              "type": "uint256"
            },
            {
              "internalType": "uint256",
              "name": "flaggedVotes",
              "type": "uint256"
            },
            {
              "internalType": "uint256",
              "name": "yesVotes",
              "type": "uint256"
            },
            {
              "internalType": "uint256",
              "name": "noVotes",
              "type": "uint256"
            }
          ],
          "internalType": "struct Content",
          "name": "",
          "type": "tuple"
        }
      ],
      "stateMutability": "view",
      "type": "function"
    },
    {
      "inputs": [],
      "name": "getRandomVoters",
      "outputs": [],
      "stateMutability": "nonpayable",
      "type": "function"
    },
    {
      "inputs": [],
      "name": "isVotingOn",
      "outputs": [
        {
          "internalType": "bool",
          "name": "",
          "type": "bool"
        }
      ],
      "stateMutability": "view",
      "type": "function"
    },
    {
      "inputs": [],
      "name": "owner",
      "outputs": [
        {
          "internalType": "address",
          "name": "",
          "type": "address"
        }
      ],
      "stateMutability": "view",
      "type": "function"
    },
    {
      "inputs": [],
      "name": "renounceOwnership",
      "outputs": [],
      "stateMutability": "nonpayable",
      "type": "function"
    },
    {
      "inputs": [
        {
          "internalType": "address",
          "name": "NFTaddress",
          "type": "address"
        }
      ],
      "name": "setNFTAdress",
      "outputs": [],
      "stateMutability": "nonpayable",
      "type": "function"
    },
    {
      "inputs": [
        {
          "internalType": "address",
          "name": "tokenAddress",
          "type": "address"
        }
      ],
      "name": "setTokenAdress",
      "outputs": [],
      "stateMutability": "nonpayable",
      "type": "function"
    },
    {
      "inputs": [],
      "name": "startVoting",
      "outputs": [
        {
          "internalType": "bool",
          "name": "",
          "type": "bool"
        }
      ],
      "stateMutability": "nonpayable",
      "type": "function"
    },
    {
      "inputs": [],
      "name": "stopVoting",
      "outputs": [
        {
          "internalType": "bool",
          "name": "",
          "type": "bool"
        }
      ],
      "stateMutability": "nonpayable",
      "type": "function"
    },
    {
      "inputs": [],
      "name": "totalFlaggedContent",
      "outputs": [
        {
          "internalType": "uint256",
          "name": "",
          "type": "uint256"
        }
      ],
      "stateMutability": "view",
      "type": "function"
    },
    {
      "inputs": [],
      "name": "totalVoters",
      "outputs": [
        {
          "internalType": "uint256",
          "name": "",
          "type": "uint256"
        }
      ],
      "stateMutability": "view",
      "type": "function"
    },
    {
      "inputs": [
        {
          "internalType": "address",
          "name": "newOwner",
          "type": "address"
        }
      ],
      "name": "transferOwnership",
      "outputs": [],
      "stateMutability": "nonpayable",
      "type": "function"
    },
    {
      "inputs": [
        {
          "internalType": "bool",
          "name": "voteValue",
          "type": "bool"
        },
        {
          "internalType": "uint256",
          "name": "contentID",
          "type": "uint256"
        }
      ],
      "name": "vote",
      "outputs": [],
      "stateMutability": "nonpayable",
      "type": "function"
    }
  ],
  "bytecode": "0x608060405234801561001057600080fd5b5061002d61002261003260201b60201c565b61003a60201b60201c565b6100fe565b600033905090565b60008060009054906101000a900473ffffffffffffffffffffffffffffffffffffffff169050816000806101000a81548173ffffffffffffffffffffffffffffffffffffffff021916908373ffffffffffffffffffffffffffffffffffffffff1602179055508173ffffffffffffffffffffffffffffffffffffffff168173ffffffffffffffffffffffffffffffffffffffff167f8be0079c531659141344cd1fd0a4f28419497f9722a3daafe3b4186f6b6457e060405160405180910390a35050565b6123bc806200010e6000396000f3fe608060405234801561001057600080fd5b50600436106101005760003560e01c8063715018a611610097578063e7a595ca11610066578063e7a595ca14610251578063f06459ee1461026f578063f2fde38b1461028b578063fab2f86b146102a757610100565b8063715018a6146101ef5780638bb0d810146101f95780638da5cb5b14610215578063d1817c2c1461023357610100565b8063219ea8d3116100d3578063219ea8d31461018d5780634c105d1b146101ab5780635f5300ff146101c757806360777e1d146101e557610100565b80630b7ad54c146101055780631019b6c21461013557806310e6e06c146101535780631ec6b60a1461016f575b600080fd5b61011f600480360381019061011a9190611797565b6102c5565b60405161012c9190611ab1565b60405180910390f35b61013d610658565b60405161014a9190611ae2565b60405180910390f35b61016d60048036038101906101689190611b29565b610665565b005b6101776109c8565b6040516101849190611b78565b60405180910390f35b6101956109f3565b6040516101a29190611ba2565b60405180910390f35b6101c560048036038101906101c09190611be9565b610a20565b005b6101cf610d79565b6040516101dc9190611ae2565b60405180910390f35b6101ed610d86565b005b6101f7610edf565b005b610213600480360381019061020e9190611be9565b610ef3565b005b61021d610f42565b60405161022a9190611ba2565b60405180910390f35b61023b610f6b565b6040516102489190611b78565b60405180910390f35b610259610f85565b6040516102669190611ba2565b60405180910390f35b61028960048036038101906102849190611be9565b610fb1565b005b6102a560048036038101906102a09190611be9565b610fff565b005b6102af611082565b6040516102bc9190611b78565b60405180910390f35b6102cd6116bd565b60016007016000838152602001908152602001600020604051806101c00160405290816000820180546102ff90611c45565b80601f016020809104026020016040519081016040528092919081815260200182805461032b90611c45565b80156103785780601f1061034d57610100808354040283529160200191610378565b820191906000526020600020905b81548152906001019060200180831161035b57829003601f168201915b505050505081526020016001820160009054906101000a900473ffffffffffffffffffffffffffffffffffffffff1673ffffffffffffffffffffffffffffffffffffffff1673ffffffffffffffffffffffffffffffffffffffff168152602001600282015481526020016003820160009054906101000a900460ff16151515158152602001600482015481526020016005820160009054906101000a900473ffffffffffffffffffffffffffffffffffffffff1673ffffffffffffffffffffffffffffffffffffffff1673ffffffffffffffffffffffffffffffffffffffff16815260200160068201805461046c90611c45565b80601f016020809104026020016040519081016040528092919081815260200182805461049890611c45565b80156104e55780601f106104ba576101008083540402835291602001916104e5565b820191906000526020600020905b8154815290600101906020018083116104c857829003601f168201915b505050505081526020016007820180546104fe90611c45565b80601f016020809104026020016040519081016040528092919081815260200182805461052a90611c45565b80156105775780601f1061054c57610100808354040283529160200191610577565b820191906000526020600020905b81548152906001019060200180831161055a57829003601f168201915b505050505081526020016008820160009054906101000a900460ff161515151581526020016009820180548060200260200160405190810160405280929190818152602001828054801561062057602002820191906000526020600020905b8160009054906101000a900473ffffffffffffffffffffffffffffffffffffffff1673ffffffffffffffffffffffffffffffffffffffff16815260200190600101908083116105d6575b50505050508152602001600a8201548152602001600b8201548152602001600c8201548152602001600d820154815250509050919050565b6000600160020154905090565b600160060160009054906101000a900460ff16156106b8576040517f08c379a00000000000000000000000000000000000000000000000000000000081526004016106af90611cd3565b60405180910390fd5b6106c1336110ae565b610700576040517f08c379a00000000000000000000000000000000000000000000000000000000081526004016106f790611d3f565b60405180910390fd5b61070933611162565b610748576040517f08c379a000000000000000000000000000000000000000000000000000000000815260040161073f90611dd1565b60405180910390fd5b6000600160090160003373ffffffffffffffffffffffffffffffffffffffff1673ffffffffffffffffffffffffffffffffffffffff1681526020019081526020016000206040518060800160405290816000820160009054906101000a900473ffffffffffffffffffffffffffffffffffffffff1673ffffffffffffffffffffffffffffffffffffffff1673ffffffffffffffffffffffffffffffffffffffff1681526020016000820160149054906101000a900460ff161515151581526020016000820160159054906101000a900460ff161515151581526020016000820160169054906101000a900460ff161515151581525050905060001515816020015115151461088b576040517f08c379a000000000000000000000000000000000000000000000000000000000815260040161088290611e3d565b60405180910390fd5b600181602001901515908115158152505082816040019015159081151581525050600060016007016000848152602001908152602001600020905083156108eb5780600c0160008154809291906108e190611e8c565b9190505550610906565b80600d01600081548092919061090090611e8c565b91905055505b60018160080160006101000a81548160ff02191690831515021790555080600a01600081548092919061093890611e8c565b91905055506109456112c1565b15610974576000600160060160006101000a81548160ff02191690831515021790555060006001600401819055505b3373ffffffffffffffffffffffffffffffffffffffff167fa32151c21b193dcf3d43d553597e960d429ef6cafad3492ee4790e41be1ce520856040516109ba9190611b78565b60405180910390a250505050565b60006109d261139e565b60018060060160006101000a81548160ff0219169083151502179055905090565b6000600160000160009054906101000a900473ffffffffffffffffffffffffffffffffffffffff16905090565b610a2861139e565b600073ffffffffffffffffffffffffffffffffffffffff168173ffffffffffffffffffffffffffffffffffffffff1603610a97576040517f08c379a0000000000000000000000000000000000000000000000000000000008152600401610a8e90611f20565b60405180910390fd5b610aa081611162565b610adf576040517f08c379a0000000000000000000000000000000000000000000000000000000008152600401610ad690611dd1565b60405180910390fd5b60001515600160090160008373ffffffffffffffffffffffffffffffffffffffff1673ffffffffffffffffffffffffffffffffffffffff16815260200190815260200160002060000160169054906101000a900460ff16151503610c1f576000600160090160008373ffffffffffffffffffffffffffffffffffffffff1673ffffffffffffffffffffffffffffffffffffffff1681526020019081526020016000209050818160000160006101000a81548173ffffffffffffffffffffffffffffffffffffffff021916908373ffffffffffffffffffffffffffffffffffffffff16021790555060008160000160146101000a81548160ff02191690831515021790555060008160000160156101000a81548160ff02191690831515021790555060018160000160166101000a81548160ff021916908315150217905550505b60005b600160080180549050811015610cf4578173ffffffffffffffffffffffffffffffffffffffff1660016008018281548110610c6057610c5f611f40565b5b9060005260206000200160009054906101000a900473ffffffffffffffffffffffffffffffffffffffff1673ffffffffffffffffffffffffffffffffffffffff1603610ce1576040517f08c379a0000000000000000000000000000000000000000000000000000000008152600401610cd890611fbb565b60405180910390fd5b8080610cec90611e8c565b915050610c22565b506001600801819080600181540180825580915050600190039060005260206000200160009091909190916101000a81548173ffffffffffffffffffffffffffffffffffffffff021916908373ffffffffffffffffffffffffffffffffffffffff16021790555060016005016000815480929190610d7190611e8c565b919050555050565b6000600160050154905090565b610d8e61139e565b60036001600501541015610dd7576040517f08c379a0000000000000000000000000000000000000000000000000000000008152600401610dce90612027565b60405180910390fd5b6000610de9600360016005015461141c565b905060005b8151811015610edb576000600160090160003373ffffffffffffffffffffffffffffffffffffffff1673ffffffffffffffffffffffffffffffffffffffff16815260200190815260200160002060000160009054906101000a900473ffffffffffffffffffffffffffffffffffffffff1690506001600801819080600181540180825580915050600190039060005260206000200160009091909190916101000a81548173ffffffffffffffffffffffffffffffffffffffff021916908373ffffffffffffffffffffffffffffffffffffffff160217905550508080610ed390611e8c565b915050610dee565b5050565b610ee761139e565b610ef16000611572565b565b610efb61139e565b80600160000160006101000a81548173ffffffffffffffffffffffffffffffffffffffff021916908373ffffffffffffffffffffffffffffffffffffffff16021790555050565b60008060009054906101000a900473ffffffffffffffffffffffffffffffffffffffff16905090565b6000600160060160009054906101000a900460ff16905090565b60006001800160009054906101000a900473ffffffffffffffffffffffffffffffffffffffff16905090565b610fb961139e565b806001800160006101000a81548173ffffffffffffffffffffffffffffffffffffffff021916908373ffffffffffffffffffffffffffffffffffffffff16021790555050565b61100761139e565b600073ffffffffffffffffffffffffffffffffffffffff168173ffffffffffffffffffffffffffffffffffffffff1603611076576040517f08c379a000000000000000000000000000000000000000000000000000000000815260040161106d906120b9565b60405180910390fd5b61107f81611572565b50565b600061108c61139e565b6000600160060160006101000a81548160ff0219169083151502179055905090565b600080600090505b600160080180549050811015611157578273ffffffffffffffffffffffffffffffffffffffff16600160080182815481106110f4576110f3611f40565b5b9060005260206000200160009054906101000a900473ffffffffffffffffffffffffffffffffffffffff1673ffffffffffffffffffffffffffffffffffffffff160361114457600191505061115d565b808061114f90611e8c565b9150506110b6565b50600090505b919050565b60008060006001800160009054906101000a900473ffffffffffffffffffffffffffffffffffffffff1673ffffffffffffffffffffffffffffffffffffffff166370a08231856040518263ffffffff1660e01b81526004016111c49190611ba2565b602060405180830381865afa1580156111e1573d6000803e3d6000fd5b505050506040513d601f19601f8201168201806040525081019061120591906120ee565b1190506000600160000160009054906101000a900473ffffffffffffffffffffffffffffffffffffffff1673ffffffffffffffffffffffffffffffffffffffff166370a08231856040518263ffffffff1660e01b81526004016112689190611ba2565b602060405180830381865afa158015611285573d6000803e3d6000fd5b505050506040513d601f19601f820116820180604052508101906112a991906120ee565b90508180156112b85750600081115b92505050919050565b600080600090505b600160080180549050811015611395576000600160080182815481106112f2576112f1611f40565b5b9060005260206000200160009054906101000a900473ffffffffffffffffffffffffffffffffffffffff169050600160090160008273ffffffffffffffffffffffffffffffffffffffff1673ffffffffffffffffffffffffffffffffffffffff16815260200190815260200160002060000160149054906101000a900460ff166113815760009250505061139b565b50808061138d90611e8c565b9150506112c9565b50600190505b90565b6113a6611636565b73ffffffffffffffffffffffffffffffffffffffff166113c4610f42565b73ffffffffffffffffffffffffffffffffffffffff161461141a576040517f08c379a000000000000000000000000000000000000000000000000000000000815260040161141190612167565b60405180910390fd5b565b606081831115611461576040517f08c379a0000000000000000000000000000000000000000000000000000000008152600401611458906121f9565b60405180910390fd5b60008367ffffffffffffffff81111561147d5761147c612219565b5b6040519080825280602002602001820160405280156114ab5781602001602082028036833780820191505090505b50905060006001846114bd9190612248565b905060005b858110156115665760006001836114d9919061227c565b42836040516020016114ec9291906122d1565b6040516020818303038152906040528051906020012060001c61150f919061232c565b90508084838151811061152557611524611f40565b5b602002602001018181525050828061153c9061235d565b9350508281146115525761155184828561163e565b5b50808061155e90611e8c565b9150506114c2565b50819250505092915050565b60008060009054906101000a900473ffffffffffffffffffffffffffffffffffffffff169050816000806101000a81548173ffffffffffffffffffffffffffffffffffffffff021916908373ffffffffffffffffffffffffffffffffffffffff1602179055508173ffffffffffffffffffffffffffffffffffffffff168173ffffffffffffffffffffffffffffffffffffffff167f8be0079c531659141344cd1fd0a4f28419497f9722a3daafe3b4186f6b6457e060405160405180910390a35050565b600033905090565b600083838151811061165357611652611f40565b5b602002602001015190508382815181106116705761166f611f40565b5b602002602001015184848151811061168b5761168a611f40565b5b602002602001018181525050808483815181106116ab576116aa611f40565b5b60200260200101818152505050505050565b604051806101c0016040528060608152602001600073ffffffffffffffffffffffffffffffffffffffff1681526020016000815260200160001515815260200160008152602001600073ffffffffffffffffffffffffffffffffffffffff168152602001606081526020016060815260200160001515815260200160608152602001600081526020016000815260200160008152602001600081525090565b600080fd5b6000819050919050565b61177481611761565b811461177f57600080fd5b50565b6000813590506117918161176b565b92915050565b6000602082840312156117ad576117ac61175c565b5b60006117bb84828501611782565b91505092915050565b600081519050919050565b600082825260208201905092915050565b60005b838110156117fe5780820151818401526020810190506117e3565b60008484015250505050565b6000601f19601f8301169050919050565b6000611826826117c4565b61183081856117cf565b93506118408185602086016117e0565b6118498161180a565b840191505092915050565b600073ffffffffffffffffffffffffffffffffffffffff82169050919050565b600061187f82611854565b9050919050565b61188f81611874565b82525050565b61189e81611761565b82525050565b60008115159050919050565b6118b9816118a4565b82525050565b600081519050919050565b600082825260208201905092915050565b6000819050602082019050919050565b60006118f78383611886565b60208301905092915050565b6000602082019050919050565b600061191b826118bf565b61192581856118ca565b9350611930836118db565b8060005b8381101561196157815161194888826118eb565b975061195383611903565b925050600181019050611934565b5085935050505092915050565b60006101c083016000830151848203600086015261198c828261181b565b91505060208301516119a16020860182611886565b5060408301516119b46040860182611895565b5060608301516119c760608601826118b0565b5060808301516119da6080860182611895565b5060a08301516119ed60a0860182611886565b5060c083015184820360c0860152611a05828261181b565b91505060e083015184820360e0860152611a1f828261181b565b915050610100830151611a366101008601826118b0565b50610120830151848203610120860152611a508282611910565b915050610140830151611a67610140860182611895565b50610160830151611a7c610160860182611895565b50610180830151611a91610180860182611895565b506101a0830151611aa66101a0860182611895565b508091505092915050565b60006020820190508181036000830152611acb818461196e565b905092915050565b611adc81611761565b82525050565b6000602082019050611af76000830184611ad3565b92915050565b611b06816118a4565b8114611b1157600080fd5b50565b600081359050611b2381611afd565b92915050565b60008060408385031215611b4057611b3f61175c565b5b6000611b4e85828601611b14565b9250506020611b5f85828601611782565b9150509250929050565b611b72816118a4565b82525050565b6000602082019050611b8d6000830184611b69565b92915050565b611b9c81611874565b82525050565b6000602082019050611bb76000830184611b93565b92915050565b611bc681611874565b8114611bd157600080fd5b50565b600081359050611be381611bbd565b92915050565b600060208284031215611bff57611bfe61175c565b5b6000611c0d84828501611bd4565b91505092915050565b7f4e487b7100000000000000000000000000000000000000000000000000000000600052602260045260246000fd5b60006002820490506001821680611c5d57607f821691505b602082108103611c7057611c6f611c16565b5b50919050565b600082825260208201905092915050565b7f5761697420666f7220766f74696e672074696d6520706c656173652100000000600082015250565b6000611cbd601c83611c76565b9150611cc882611c87565b602082019050919050565b60006020820190508181036000830152611cec81611cb0565b9050919050565b7f596f7520617265206e6f7420656c696769626c6520746f20766f746500000000600082015250565b6000611d29601c83611c76565b9150611d3482611cf3565b602082019050919050565b60006020820190508181036000830152611d5881611d1c565b9050919050565b7f596f75206d757374206861766520746865207265717569726564204e4654206160008201527f6e6420455243323020746f6b656e20746f20766f746500000000000000000000602082015250565b6000611dbb603683611c76565b9150611dc682611d5f565b604082019050919050565b60006020820190508181036000830152611dea81611dae565b9050919050565b7f596f75206861766520616c726561647920766f74656400000000000000000000600082015250565b6000611e27601683611c76565b9150611e3282611df1565b602082019050919050565b60006020820190508181036000830152611e5681611e1a565b9050919050565b7f4e487b7100000000000000000000000000000000000000000000000000000000600052601160045260246000fd5b6000611e9782611761565b91507fffffffffffffffffffffffffffffffffffffffffffffffffffffffffffffffff8203611ec957611ec8611e5d565b5b600182019050919050565b7f496e76616c696420616464726573730000000000000000000000000000000000600082015250565b6000611f0a600f83611c76565b9150611f1582611ed4565b602082019050919050565b60006020820190508181036000830152611f3981611efd565b9050919050565b7f4e487b7100000000000000000000000000000000000000000000000000000000600052603260045260246000fd5b7f566f74657220697320616c726561647920656c696769626c6500000000000000600082015250565b6000611fa5601983611c76565b9150611fb082611f6f565b602082019050919050565b60006020820190508181036000830152611fd481611f98565b9050919050565b7f4e6f7420656e6f75676820766f7465727320746f2073656c6563742066726f6d600082015250565b6000612011602083611c76565b915061201c82611fdb565b602082019050919050565b6000602082019050818103600083015261204081612004565b9050919050565b7f4f776e61626c653a206e6577206f776e657220697320746865207a65726f206160008201527f6464726573730000000000000000000000000000000000000000000000000000602082015250565b60006120a3602683611c76565b91506120ae82612047565b604082019050919050565b600060208201905081810360008301526120d281612096565b9050919050565b6000815190506120e88161176b565b92915050565b6000602082840312156121045761210361175c565b5b6000612112848285016120d9565b91505092915050565b7f4f776e61626c653a2063616c6c6572206973206e6f7420746865206f776e6572600082015250565b6000612151602083611c76565b915061215c8261211b565b602082019050919050565b6000602082019050818103600083015261218081612144565b9050919050565b7f436f756e74206d757374206265206c657373207468616e206f7220657175616c60008201527f20746f20746865206d6178696d756d0000000000000000000000000000000000602082015250565b60006121e3602f83611c76565b91506121ee82612187565b604082019050919050565b60006020820190508181036000830152612212816121d6565b9050919050565b7f4e487b7100000000000000000000000000000000000000000000000000000000600052604160045260246000fd5b600061225382611761565b915061225e83611761565b925082820390508181111561227657612275611e5d565b5b92915050565b600061228782611761565b915061229283611761565b92508282019050808211156122aa576122a9611e5d565b5b92915050565b6000819050919050565b6122cb6122c682611761565b6122b0565b82525050565b60006122dd82856122ba565b6020820191506122ed82846122ba565b6020820191508190509392505050565b7f4e487b7100000000000000000000000000000000000000000000000000000000600052601260045260246000fd5b600061233782611761565b915061234283611761565b925082612352576123516122fd565b5b828206905092915050565b600061236882611761565b91506000820361237b5761237a611e5d565b5b60018203905091905056fea2646970667358221220bef51b9ff684b9cb4e3a83d8ee44c1355180f9330ebfc8a99a304f619408d88164736f6c63430008110033",
  "linkReferences": {},
  "deployedLinkReferences": {}
}