{
  "_format": "hh-sol-artifact-1",
  "contractName": "VoteContentFacet",
  "sourceName": "contracts/facets/VoteContentFacet.sol",
  "abi": [
    {
      "anonymous": false,
      "inputs": [
        {
          "indexed": true,
          "internalType": "address",
          "name": "voter",
          "type": "address"
        },
        {
          "indexed": false,
          "internalType": "bool",
          "name": "vote",
          "type": "bool"
        }
      ],
      "name": "VoteCast",
      "type": "event"
    },
    {
      "inputs": [],
      "name": "getRandomVoters",
      "outputs": [],
      "stateMutability": "nonpayable",
      "type": "function"
    },
    {
      "inputs": [
        {
          "internalType": "bool",
          "name": "voteValue",
          "type": "bool"
        },
        {
          "internalType": "uint256",
          "name": "contentID",
          "type": "uint256"
        }
      ],
      "name": "vote",
      "outputs": [],
      "stateMutability": "nonpayable",
      "type": "function"
    }
  ],
  "bytecode": "0x608060405234801561001057600080fd5b5061112c806100206000396000f3fe608060405234801561001057600080fd5b50600436106100365760003560e01c806310e6e06c1461003b57806360777e1d14610057575b600080fd5b61005560048036038101906100509190610a73565b610061565b005b61005f6103ba565b005b600060060160009054906101000a900460ff166100b3576040517f08c379a00000000000000000000000000000000000000000000000000000000081526004016100aa90610b10565b60405180910390fd5b4260006004015411156100e9576001600060060160006101000a81548160ff021916908315150217905550426000600401819055505b6100f23361050a565b610131576040517f08c379a000000000000000000000000000000000000000000000000000000000815260040161012890610b7c565b60405180910390fd5b61013a336105be565b610179576040517f08c379a000000000000000000000000000000000000000000000000000000000815260040161017090610c0e565b60405180910390fd5b60008060090160003373ffffffffffffffffffffffffffffffffffffffff1673ffffffffffffffffffffffffffffffffffffffff1681526020019081526020016000206040518060600160405290816000820160009054906101000a900473ffffffffffffffffffffffffffffffffffffffff1673ffffffffffffffffffffffffffffffffffffffff1673ffffffffffffffffffffffffffffffffffffffff1681526020016000820160149054906101000a900460ff161515151581526020016000820160159054906101000a900460ff161515151581525050905080602001511561029a576040517f08c379a000000000000000000000000000000000000000000000000000000000815260040161029190610c7a565b60405180910390fd5b6001816020019015159081151581525050828160400190151590811515815250506000806007016000848152602001908152602001600020905083156102f95780600c0160008154809291906102ef90610cc9565b9190505550610314565b80600d01600081548092919061030e90610cc9565b91905055505b60018160080160006101000a81548160ff02191690831515021790555061033961074f565b156103665760008060060160006101000a81548160ff021916908315150217905550600080600401819055505b3373ffffffffffffffffffffffffffffffffffffffff167fa32151c21b193dcf3d43d553597e960d429ef6cafad3492ee4790e41be1ce520856040516103ac9190610d20565b60405180910390a250505050565b60036000600501541015610403576040517f08c379a00000000000000000000000000000000000000000000000000000000081526004016103fa90610d87565b60405180910390fd5b6000610415600360006005015461082b565b905060005b81518110156105065760008060090160003373ffffffffffffffffffffffffffffffffffffffff1673ffffffffffffffffffffffffffffffffffffffff16815260200190815260200160002060000160009054906101000a900473ffffffffffffffffffffffffffffffffffffffff1690506000600801819080600181540180825580915050600190039060005260206000200160009091909190916101000a81548173ffffffffffffffffffffffffffffffffffffffff021916908373ffffffffffffffffffffffffffffffffffffffff1602179055505080806104fe90610cc9565b91505061041a565b5050565b600080600090505b6000600801805490508110156105b3578273ffffffffffffffffffffffffffffffffffffffff16600060080182815481106105505761054f610da7565b5b9060005260206000200160009054906101000a900473ffffffffffffffffffffffffffffffffffffffff1673ffffffffffffffffffffffffffffffffffffffff16036105a05760019150506105b9565b80806105ab90610cc9565b915050610512565b50600090505b919050565b6000806014905060008373ffffffffffffffffffffffffffffffffffffffff16600060010160009054906101000a900473ffffffffffffffffffffffffffffffffffffffff1673ffffffffffffffffffffffffffffffffffffffff16636352211e846040518263ffffffff1660e01b815260040161063c9190610de5565b602060405180830381865afa158015610659573d6000803e3d6000fd5b505050506040513d601f19601f8201168201806040525081019061067d9190610e5e565b73ffffffffffffffffffffffffffffffffffffffff1614905060008060000160009054906101000a900473ffffffffffffffffffffffffffffffffffffffff1673ffffffffffffffffffffffffffffffffffffffff166370a08231866040518263ffffffff1660e01b81526004016106f59190610e9a565b602060405180830381865afa158015610712573d6000803e3d6000fd5b505050506040513d601f19601f820116820180604052508101906107369190610eca565b90508180156107455750600081115b9350505050919050565b600080600090505b60006008018054905081101561082257600080600801828154811061077f5761077e610da7565b5b9060005260206000200160009054906101000a900473ffffffffffffffffffffffffffffffffffffffff169050600060090160008273ffffffffffffffffffffffffffffffffffffffff1673ffffffffffffffffffffffffffffffffffffffff16815260200190815260200160002060000160149054906101000a900460ff1661080e57600092505050610828565b50808061081a90610cc9565b915050610757565b50600190505b90565b606081831115610870576040517f08c379a000000000000000000000000000000000000000000000000000000000815260040161086790610f69565b60405180910390fd5b60008367ffffffffffffffff81111561088c5761088b610f89565b5b6040519080825280602002602001820160405280156108ba5781602001602082028036833780820191505090505b50905060006001846108cc9190610fb8565b905060005b858110156109755760006001836108e89190610fec565b42836040516020016108fb929190611041565b6040516020818303038152906040528051906020012060001c61091e919061109c565b90508084838151811061093457610933610da7565b5b602002602001018181525050828061094b906110cd565b93505082811461096157610960848285610981565b5b50808061096d90610cc9565b9150506108d1565b50819250505092915050565b600083838151811061099657610995610da7565b5b602002602001015190508382815181106109b3576109b2610da7565b5b60200260200101518484815181106109ce576109cd610da7565b5b602002602001018181525050808483815181106109ee576109ed610da7565b5b60200260200101818152505050505050565b600080fd5b60008115159050919050565b610a1a81610a05565b8114610a2557600080fd5b50565b600081359050610a3781610a11565b92915050565b6000819050919050565b610a5081610a3d565b8114610a5b57600080fd5b50565b600081359050610a6d81610a47565b92915050565b60008060408385031215610a8a57610a89610a00565b5b6000610a9885828601610a28565b9250506020610aa985828601610a5e565b9150509250929050565b600082825260208201905092915050565b7f5761697420666f7220766f74696e672074696d6520706c656173652100000000600082015250565b6000610afa601c83610ab3565b9150610b0582610ac4565b602082019050919050565b60006020820190508181036000830152610b2981610aed565b9050919050565b7f596f7520617265206e6f7420656c696769626c6520746f20766f746500000000600082015250565b6000610b66601c83610ab3565b9150610b7182610b30565b602082019050919050565b60006020820190508181036000830152610b9581610b59565b9050919050565b7f596f75206d757374206861766520746865207265717569726564204e4654206160008201527f6e6420455243323020746f6b656e20746f20766f746500000000000000000000602082015250565b6000610bf8603683610ab3565b9150610c0382610b9c565b604082019050919050565b60006020820190508181036000830152610c2781610beb565b9050919050565b7f596f75206861766520616c726561647920766f74656400000000000000000000600082015250565b6000610c64601683610ab3565b9150610c6f82610c2e565b602082019050919050565b60006020820190508181036000830152610c9381610c57565b9050919050565b7f4e487b7100000000000000000000000000000000000000000000000000000000600052601160045260246000fd5b6000610cd482610a3d565b91507fffffffffffffffffffffffffffffffffffffffffffffffffffffffffffffffff8203610d0657610d05610c9a565b5b600182019050919050565b610d1a81610a05565b82525050565b6000602082019050610d356000830184610d11565b92915050565b7f4e6f7420656e6f75676820766f7465727320746f2073656c6563742066726f6d600082015250565b6000610d71602083610ab3565b9150610d7c82610d3b565b602082019050919050565b60006020820190508181036000830152610da081610d64565b9050919050565b7f4e487b7100000000000000000000000000000000000000000000000000000000600052603260045260246000fd5b610ddf81610a3d565b82525050565b6000602082019050610dfa6000830184610dd6565b92915050565b600073ffffffffffffffffffffffffffffffffffffffff82169050919050565b6000610e2b82610e00565b9050919050565b610e3b81610e20565b8114610e4657600080fd5b50565b600081519050610e5881610e32565b92915050565b600060208284031215610e7457610e73610a00565b5b6000610e8284828501610e49565b91505092915050565b610e9481610e20565b82525050565b6000602082019050610eaf6000830184610e8b565b92915050565b600081519050610ec481610a47565b92915050565b600060208284031215610ee057610edf610a00565b5b6000610eee84828501610eb5565b91505092915050565b7f436f756e74206d757374206265206c657373207468616e206f7220657175616c60008201527f20746f20746865206d6178696d756d0000000000000000000000000000000000602082015250565b6000610f53602f83610ab3565b9150610f5e82610ef7565b604082019050919050565b60006020820190508181036000830152610f8281610f46565b9050919050565b7f4e487b7100000000000000000000000000000000000000000000000000000000600052604160045260246000fd5b6000610fc382610a3d565b9150610fce83610a3d565b9250828203905081811115610fe657610fe5610c9a565b5b92915050565b6000610ff782610a3d565b915061100283610a3d565b925082820190508082111561101a57611019610c9a565b5b92915050565b6000819050919050565b61103b61103682610a3d565b611020565b82525050565b600061104d828561102a565b60208201915061105d828461102a565b6020820191508190509392505050565b7f4e487b7100000000000000000000000000000000000000000000000000000000600052601260045260246000fd5b60006110a782610a3d565b91506110b283610a3d565b9250826110c2576110c161106d565b5b828206905092915050565b60006110d882610a3d565b9150600082036110eb576110ea610c9a565b5b60018203905091905056fea2646970667358221220e23ef5f8aa01e7a950e3f892e93777b8b87923c632d23adf4dd3317ac44f5d3a64736f6c63430008110033",
  "linkReferences": {},
  "deployedLinkReferences": {}
}