{
  "_format": "hh-sol-artifact-1",
  "contractName": "VoteContentFacet",
  "sourceName": "contracts/facets/VoteContentFacet.sol",
  "abi": [
    {
      "anonymous": false,
      "inputs": [
        {
          "indexed": false,
          "internalType": "uint256",
          "name": "contentId",
          "type": "uint256"
        }
      ],
      "name": "ContentFlagged",
      "type": "event"
    },
    {
      "anonymous": false,
      "inputs": [
        {
          "indexed": false,
          "internalType": "uint256",
          "name": "contentId",
          "type": "uint256"
        }
      ],
      "name": "ContentRedFlagged",
      "type": "event"
    },
    {
      "anonymous": false,
      "inputs": [
        {
          "indexed": true,
          "internalType": "address",
          "name": "voter",
          "type": "address"
        },
        {
          "indexed": false,
          "internalType": "uint256",
          "name": "contentId",
          "type": "uint256"
        },
        {
          "indexed": false,
          "internalType": "bool",
          "name": "vote",
          "type": "bool"
        }
      ],
      "name": "MemberVoted",
      "type": "event"
    },
    {
      "anonymous": false,
      "inputs": [
        {
          "indexed": false,
          "internalType": "uint256",
          "name": "contentId",
          "type": "uint256"
        },
        {
          "indexed": false,
          "internalType": "bool",
          "name": "vote",
          "type": "bool"
        }
      ],
      "name": "ValidatorsReviewedContent",
      "type": "event"
    },
    {
      "anonymous": false,
      "inputs": [
        {
          "indexed": false,
          "internalType": "uint256",
          "name": "newDeadline",
          "type": "uint256"
        }
      ],
      "name": "VotingExtended",
      "type": "event"
    },
    {
      "anonymous": false,
      "inputs": [
        {
          "indexed": false,
          "internalType": "uint256",
          "name": "deadline",
          "type": "uint256"
        }
      ],
      "name": "VotingStarted",
      "type": "event"
    },
    {
      "inputs": [
        {
          "internalType": "uint256",
          "name": "contentID",
          "type": "uint256"
        },
        {
          "internalType": "string",
          "name": "_reasonForFlagging",
          "type": "string"
        }
      ],
      "name": "FlagContent",
      "outputs": [],
      "stateMutability": "nonpayable",
      "type": "function"
    },
    {
      "inputs": [],
      "name": "checkJiggyTokenAdress",
      "outputs": [
        {
          "internalType": "address",
          "name": "",
          "type": "address"
        }
      ],
      "stateMutability": "view",
      "type": "function"
    },
    {
      "inputs": [],
      "name": "checkMembershipNFTAdress",
      "outputs": [
        {
          "internalType": "address",
          "name": "",
          "type": "address"
        }
      ],
      "stateMutability": "view",
      "type": "function"
    },
    {
      "inputs": [],
      "name": "checkValidatorsNFTAdress",
      "outputs": [
        {
          "internalType": "address",
          "name": "",
          "type": "address"
        }
      ],
      "stateMutability": "view",
      "type": "function"
    },
    {
      "inputs": [
        {
          "internalType": "uint256",
          "name": "extraTime",
          "type": "uint256"
        }
      ],
      "name": "extendVoting",
      "outputs": [],
      "stateMutability": "nonpayable",
      "type": "function"
    },
    {
      "inputs": [
        {
          "internalType": "uint256",
          "name": "contentID",
          "type": "uint256"
        }
      ],
      "name": "finalizeContentVoting",
      "outputs": [],
      "stateMutability": "nonpayable",
      "type": "function"
    },
    {
      "inputs": [
        {
          "internalType": "uint256",
          "name": "contentID",
          "type": "uint256"
        }
      ],
      "name": "getContent",
      "outputs": [
        {
          "components": [
            {
              "internalType": "uint256",
              "name": "contentID",
              "type": "uint256"
            },
            {
              "internalType": "string",
              "name": "contentName",
              "type": "string"
            },
            {
              "internalType": "address",
              "name": "contentCreator",
              "type": "address"
            },
            {
              "internalType": "string",
              "name": "contentDescription",
              "type": "string"
            },
            {
              "internalType": "bool",
              "name": "flagged",
              "type": "bool"
            },
            {
              "internalType": "uint256",
              "name": "flaggedTimestamp",
              "type": "uint256"
            },
            {
              "internalType": "address",
              "name": "flaggedBy",
              "type": "address"
            },
            {
              "internalType": "string",
              "name": "reasonForFlagging",
              "type": "string"
            },
            {
              "internalType": "uint256",
              "name": "validatorsYesVotes",
              "type": "uint256"
            },
            {
              "internalType": "uint256",
              "name": "validatorsNoVotes",
              "type": "uint256"
            },
            {
              "internalType": "uint256",
              "name": "generalYesVotes",
              "type": "uint256"
            },
            {
              "internalType": "uint256",
              "name": "generalNoVotes",
              "type": "uint256"
            },
            {
              "internalType": "bool",
              "name": "validatorsApprovedForRedFlagging",
              "type": "bool"
            },
            {
              "internalType": "bool",
              "name": "isRedFlagged",
              "type": "bool"
            },
            {
              "internalType": "uint256",
              "name": "totalGeneralVotesCount",
              "type": "uint256"
            },
            {
              "internalType": "uint256",
              "name": "totalValidatorsVotesCount",
              "type": "uint256"
            }
          ],
          "internalType": "struct Content",
          "name": "",
          "type": "tuple"
        }
      ],
      "stateMutability": "view",
      "type": "function"
    },
    {
      "inputs": [],
      "name": "isVotingOn",
      "outputs": [
        {
          "internalType": "bool",
          "name": "",
          "type": "bool"
        }
      ],
      "stateMutability": "view",
      "type": "function"
    },
    {
      "inputs": [
        {
          "internalType": "address",
          "name": "tokenAddress",
          "type": "address"
        }
      ],
      "name": "setJiggyTokenAdress",
      "outputs": [],
      "stateMutability": "nonpayable",
      "type": "function"
    },
    {
      "inputs": [
        {
          "internalType": "address",
          "name": "NFTaddress",
          "type": "address"
        }
      ],
      "name": "setMembershipNFTAdress",
      "outputs": [],
      "stateMutability": "nonpayable",
      "type": "function"
    },
    {
      "inputs": [
        {
          "internalType": "address",
          "name": "NFTaddress",
          "type": "address"
        }
      ],
      "name": "setValidatorsNFTAdress",
      "outputs": [],
      "stateMutability": "nonpayable",
      "type": "function"
    },
    {
      "inputs": [
        {
          "internalType": "uint256",
          "name": "duration",
          "type": "uint256"
        }
      ],
      "name": "startVoting",
      "outputs": [
        {
          "internalType": "bool",
          "name": "",
          "type": "bool"
        }
      ],
      "stateMutability": "nonpayable",
      "type": "function"
    },
    {
      "inputs": [],
      "name": "stopVoting",
      "outputs": [
        {
          "internalType": "bool",
          "name": "",
          "type": "bool"
        }
      ],
      "stateMutability": "nonpayable",
      "type": "function"
    },
    {
      "inputs": [],
      "name": "totalRedFlaggedContent",
      "outputs": [
        {
          "internalType": "uint256",
          "name": "",
          "type": "uint256"
        }
      ],
      "stateMutability": "view",
      "type": "function"
    },
    {
      "inputs": [],
      "name": "totalVoters",
      "outputs": [
        {
          "internalType": "uint256",
          "name": "",
          "type": "uint256"
        }
      ],
      "stateMutability": "view",
      "type": "function"
    },
    {
      "inputs": [
        {
          "internalType": "bool",
          "name": "voteValue",
          "type": "bool"
        },
        {
          "internalType": "uint256",
          "name": "contentID",
          "type": "uint256"
        }
      ],
      "name": "voteWithMembershipNFT",
      "outputs": [],
      "stateMutability": "nonpayable",
      "type": "function"
    },
    {
      "inputs": [
        {
          "internalType": "bool",
          "name": "voteValue",
          "type": "bool"
        },
        {
          "internalType": "uint256",
          "name": "contentID",
          "type": "uint256"
        }
      ],
      "name": "voteWithTokenForMembers",
      "outputs": [],
      "stateMutability": "nonpayable",
      "type": "function"
    },
    {
      "inputs": [
        {
          "internalType": "bool",
          "name": "voteValue",
          "type": "bool"
        },
        {
          "internalType": "uint256",
          "name": "contentID",
          "type": "uint256"
        }
      ],
      "name": "voteWithValidatorNFT",
      "outputs": [],
      "stateMutability": "nonpayable",
      "type": "function"
    }
  ],
  "bytecode": "0x608060405234801561001057600080fd5b50612b58806100206000396000f3fe608060405234801561001057600080fd5b50600436106101165760003560e01c8063641ff3d5116100a2578063ba21b3aa11610071578063ba21b3aa146102b7578063c111c9d0146102d3578063d1817c2c146102f1578063f3e02cf71461030f578063fab2f86b1461032b57610116565b8063641ff3d514610243578063686f0752146102615780636c31a7dc1461027f578063aebbb4341461029b57610116565b80632c0fb247116100e95780632c0fb2471461019f5780633d2f5bda146101bb5780635cfff6c4146101eb5780635f5300ff146102095780636124211e1461022757610116565b8063047ef8811461011b5780630b7ad54c146101375780632964a51e146101675780632acc887014610183575b600080fd5b61013560048036038101906101309190611b25565b610349565b005b610151600480360381019061014c9190611b65565b610605565b60405161015e9190611de7565b60405180910390f35b610181600480360381019061017c9190611e35565b610939565b005b61019d60048036038101906101989190611b65565b6109fb565b005b6101b960048036038101906101b49190611e35565b610bd9565b005b6101d560048036038101906101d09190611b65565b610c9b565b6040516101e29190611e71565b60405180910390f35b6101f3610d8c565b6040516102009190611e9b565b60405180910390f35b610211610db8565b60405161021e9190611ec5565b60405180910390f35b610241600480360381019061023c9190612015565b610dc4565b005b61024b610f2a565b6040516102589190611e9b565b60405180910390f35b610269610f56565b6040516102769190611ec5565b60405180910390f35b61029960048036038101906102949190611e35565b610f62565b005b6102b560048036038101906102b09190611b25565b611023565b005b6102d160048036038101906102cc9190611b25565b6112f4565b005b6102db6115c5565b6040516102e89190611e9b565b60405180910390f35b6102f96115f1565b6040516103069190611e71565b60405180910390f35b61032960048036038101906103249190611b65565b61160a565b005b6103336116e0565b6040516103409190611e71565b60405180910390f35b600080600801600083815260200190815260200160002090506000600601544211156103aa576040517f08c379a00000000000000000000000000000000000000000000000000000000081526004016103a1906120ce565b60405180910390fd5b600060070160009054906101000a900460ff16156103fd576040517f08c379a00000000000000000000000000000000000000000000000000000000081526004016103f49061213a565b60405180910390fd5b61040633611787565b610445576040517f08c379a000000000000000000000000000000000000000000000000000000000815260040161043c906121cc565b60405180910390fd5b6000600b0160003373ffffffffffffffffffffffffffffffffffffffff1673ffffffffffffffffffffffffffffffffffffffff168152602001908152602001600020600083815260200190815260200160002060009054906101000a900460ff16156104e6576040517f08c379a00000000000000000000000000000000000000000000000000000000081526004016104dd9061225e565b60405180910390fd5b60016000600b0160003373ffffffffffffffffffffffffffffffffffffffff1673ffffffffffffffffffffffffffffffffffffffff168152602001908152602001600020600084815260200190815260200160002060006101000a81548160ff02191690831515021790555082156105775780600801600081548092919061056d906122ad565b9190505550610592565b80600901600081548092919061058c906122ad565b91905055505b80600e0160008154809291906105a7906122ad565b9190505550600060050160008154809291906105c2906122ad565b91905055507f8a3cc61ed57cd356c6043a21c919fa84d5ea43b945ea4203c1d6f72d5ed80ef282846040516105f89291906122f5565b60405180910390a1505050565b61060d6119f4565b6000600801600083815260200190815260200160002060405180610200016040529081600082015481526020016001820180546106499061234d565b80601f01602080910402602001604051908101604052809291908181526020018280546106759061234d565b80156106c25780601f10610697576101008083540402835291602001916106c2565b820191906000526020600020905b8154815290600101906020018083116106a557829003601f168201915b505050505081526020016002820160009054906101000a900473ffffffffffffffffffffffffffffffffffffffff1673ffffffffffffffffffffffffffffffffffffffff1673ffffffffffffffffffffffffffffffffffffffff1681526020016003820180546107319061234d565b80601f016020809104026020016040519081016040528092919081815260200182805461075d9061234d565b80156107aa5780601f1061077f576101008083540402835291602001916107aa565b820191906000526020600020905b81548152906001019060200180831161078d57829003601f168201915b505050505081526020016004820160009054906101000a900460ff16151515158152602001600582015481526020016006820160009054906101000a900473ffffffffffffffffffffffffffffffffffffffff1673ffffffffffffffffffffffffffffffffffffffff1673ffffffffffffffffffffffffffffffffffffffff16815260200160078201805461083e9061234d565b80601f016020809104026020016040519081016040528092919081815260200182805461086a9061234d565b80156108b75780601f1061088c576101008083540402835291602001916108b7565b820191906000526020600020905b81548152906001019060200180831161089a57829003601f168201915b505050505081526020016008820154815260200160098201548152602001600a8201548152602001600b8201548152602001600c820160009054906101000a900460ff16151515158152602001600c820160019054906101000a900460ff16151515158152602001600d8201548152602001600e820154815250509050919050565b6000610943611836565b90503373ffffffffffffffffffffffffffffffffffffffff168173ffffffffffffffffffffffffffffffffffffffff16146109b3576040517f08c379a00000000000000000000000000000000000000000000000000000000081526004016109aa906123f0565b60405180910390fd5b81600060010160006101000a81548173ffffffffffffffffffffffffffffffffffffffff021916908373ffffffffffffffffffffffffffffffffffffffff1602179055505050565b6000610a05611836565b90503373ffffffffffffffffffffffffffffffffffffffff168173ffffffffffffffffffffffffffffffffffffffff1614610a75576040517f08c379a0000000000000000000000000000000000000000000000000000000008152600401610a6c906123f0565b60405180910390fd5b6000600601544211610abc576040517f08c379a0000000000000000000000000000000000000000000000000000000008152600401610ab39061245c565b60405180910390fd5b6000806008016000848152602001908152602001600020905080600c0160009054906101000a900460ff16610b26576040517f08c379a0000000000000000000000000000000000000000000000000000000008152600401610b1d906124ee565b60405180910390fd5b806009015481600801541115610b5457600181600c0160006101000a81548160ff0219169083151502179055505b80600b015481600a01541115610bd457600181600c0160016101000a81548160ff02191690831515021790555060006004016000815480929190610b97906122ad565b91905055507f20274a733801df1868ff6433c552a14512dd057a35d99d8b51adb79a03e6cb5c83604051610bcb9190611ec5565b60405180910390a15b505050565b6000610be3611836565b90503373ffffffffffffffffffffffffffffffffffffffff168173ffffffffffffffffffffffffffffffffffffffff1614610c53576040517f08c379a0000000000000000000000000000000000000000000000000000000008152600401610c4a906123f0565b60405180910390fd5b81600060020160006101000a81548173ffffffffffffffffffffffffffffffffffffffff021916908373ffffffffffffffffffffffffffffffffffffffff1602179055505050565b600080610ca6611836565b90503373ffffffffffffffffffffffffffffffffffffffff168173ffffffffffffffffffffffffffffffffffffffff1614610d16576040517f08c379a0000000000000000000000000000000000000000000000000000000008152600401610d0d906123f0565b60405180910390fd5b8242610d22919061250e565b6000600601819055507fcf33babc496bb6dc2942b39cb7b75766bbbadf7da50d176ff8c513e991140239600060060154604051610d5f9190611ec5565b60405180910390a16001600060070160006101000a81548160ff0219169083151502179055915050919050565b60008060010160009054906101000a900473ffffffffffffffffffffffffffffffffffffffff16905090565b60008060050154905090565b60008203610e07576040517f08c379a0000000000000000000000000000000000000000000000000000000008152600401610dfe9061258e565b60405180910390fd5b600073ffffffffffffffffffffffffffffffffffffffff163373ffffffffffffffffffffffffffffffffffffffff1603610e76576040517f08c379a0000000000000000000000000000000000000000000000000000000008152600401610e6d906125fa565b60405180910390fd5b6000806008016000848152602001908152602001600020905060018160040160006101000a81548160ff021916908315150217905550338160060160006101000a81548173ffffffffffffffffffffffffffffffffffffffff021916908373ffffffffffffffffffffffffffffffffffffffff16021790555042816005018190555081816007019081610f0991906127c6565b5060006003016000815480929190610f20906122ad565b9190505550505050565b60008060020160009054906101000a900473ffffffffffffffffffffffffffffffffffffffff16905090565b60008060040154905090565b6000610f6c611836565b90503373ffffffffffffffffffffffffffffffffffffffff168173ffffffffffffffffffffffffffffffffffffffff1614610fdc576040517f08c379a0000000000000000000000000000000000000000000000000000000008152600401610fd3906123f0565b60405180910390fd5b816000800160006101000a81548173ffffffffffffffffffffffffffffffffffffffff021916908373ffffffffffffffffffffffffffffffffffffffff1602179055505050565b60008060080160008381526020019081526020016000209050600060060154421115611084576040517f08c379a000000000000000000000000000000000000000000000000000000000815260040161107b906120ce565b60405180910390fd5b61108d33611869565b6110cc576040517f08c379a00000000000000000000000000000000000000000000000000000000081526004016110c39061290a565b60405180910390fd5b80600c0160009054906101000a900460ff1661111d576040517f08c379a00000000000000000000000000000000000000000000000000000000081526004016111149061299c565b60405180910390fd5b6000600c0160003373ffffffffffffffffffffffffffffffffffffffff1673ffffffffffffffffffffffffffffffffffffffff168152602001908152602001600020600083815260200190815260200160002060009054906101000a900460ff16156111be576040517f08c379a00000000000000000000000000000000000000000000000000000000081526004016111b590612a2e565b60405180910390fd5b60016000600c0160003373ffffffffffffffffffffffffffffffffffffffff1673ffffffffffffffffffffffffffffffffffffffff168152602001908152602001600020600084815260200190815260200160002060006101000a81548160ff021916908315150217905550821561124f5780600a016000815480929190611245906122ad565b919050555061126a565b80600b016000815480929190611264906122ad565b91905055505b80600d01600081548092919061127f906122ad565b91905055506000600501600081548092919061129a906122ad565b91905055503373ffffffffffffffffffffffffffffffffffffffff167f471de799e57f828ede7972486a0a19233d1c4ac0bbc412c9a20cb83fed69060c83856040516112e79291906122f5565b60405180910390a2505050565b60008060080160008381526020019081526020016000209050600060060154421115611355576040517f08c379a000000000000000000000000000000000000000000000000000000000815260040161134c906120ce565b60405180910390fd5b61135e33611918565b61139d576040517f08c379a000000000000000000000000000000000000000000000000000000000815260040161139490612ac0565b60405180910390fd5b80600c0160009054906101000a900460ff166113ee576040517f08c379a00000000000000000000000000000000000000000000000000000000081526004016113e59061299c565b60405180910390fd5b6000600c0160003373ffffffffffffffffffffffffffffffffffffffff1673ffffffffffffffffffffffffffffffffffffffff168152602001908152602001600020600083815260200190815260200160002060009054906101000a900460ff161561148f576040517f08c379a000000000000000000000000000000000000000000000000000000000815260040161148690612a2e565b60405180910390fd5b60016000600c0160003373ffffffffffffffffffffffffffffffffffffffff1673ffffffffffffffffffffffffffffffffffffffff168152602001908152602001600020600084815260200190815260200160002060006101000a81548160ff02191690831515021790555082156115205780600a016000815480929190611516906122ad565b919050555061153b565b80600b016000815480929190611535906122ad565b91905055505b80600d016000815480929190611550906122ad565b91905055506000600501600081548092919061156b906122ad565b91905055503373ffffffffffffffffffffffffffffffffffffffff167f471de799e57f828ede7972486a0a19233d1c4ac0bbc412c9a20cb83fed69060c83856040516115b89291906122f5565b60405180910390a2505050565b60008060000160009054906101000a900473ffffffffffffffffffffffffffffffffffffffff16905090565b60008060070160009054906101000a900460ff16905090565b6000611614611836565b90503373ffffffffffffffffffffffffffffffffffffffff168173ffffffffffffffffffffffffffffffffffffffff1614611684576040517f08c379a000000000000000000000000000000000000000000000000000000000815260040161167b906123f0565b60405180910390fd5b8160006006016000828254611699919061250e565b925050819055507f74f2a28834ec9e0d307e8b68bbca8cc975c7e8549ca5d00072c88da3f120716c6000600601546040516116d49190611ec5565b60405180910390a15050565b6000806116eb611836565b90503373ffffffffffffffffffffffffffffffffffffffff168173ffffffffffffffffffffffffffffffffffffffff161461175b576040517f08c379a0000000000000000000000000000000000000000000000000000000008152600401611752906123f0565b60405180910390fd5b4260006006018190555060008060070160006101000a81548160ff021916908315150217905591505090565b60008060008060020160009054906101000a900473ffffffffffffffffffffffffffffffffffffffff1673ffffffffffffffffffffffffffffffffffffffff166370a08231856040518263ffffffff1660e01b81526004016117e99190611e9b565b602060405180830381865afa158015611806573d6000803e3d6000fd5b505050506040513d601f19601f8201168201806040525081019061182a9190612af5565b11905080915050919050565b60006118406119c7565b60040160009054906101000a900473ffffffffffffffffffffffffffffffffffffffff16905090565b60008060008060010160009054906101000a900473ffffffffffffffffffffffffffffffffffffffff1673ffffffffffffffffffffffffffffffffffffffff166370a08231856040518263ffffffff1660e01b81526004016118cb9190611e9b565b602060405180830381865afa1580156118e8573d6000803e3d6000fd5b505050506040513d601f19601f8201168201806040525081019061190c9190612af5565b11905080915050919050565b6000806000800160009054906101000a900473ffffffffffffffffffffffffffffffffffffffff1673ffffffffffffffffffffffffffffffffffffffff166370a08231846040518263ffffffff1660e01b81526004016119789190611e9b565b602060405180830381865afa158015611995573d6000803e3d6000fd5b505050506040513d601f19601f820116820180604052508101906119b99190612af5565b905060008111915050919050565b6000807fc8fcad8db84d3cc18b4c41d551ea0ee66dd599cde068d998e57d5e09332c131c90508091505090565b6040518061020001604052806000815260200160608152602001600073ffffffffffffffffffffffffffffffffffffffff1681526020016060815260200160001515815260200160008152602001600073ffffffffffffffffffffffffffffffffffffffff168152602001606081526020016000815260200160008152602001600081526020016000815260200160001515815260200160001515815260200160008152602001600081525090565b6000604051905090565b600080fd5b600080fd5b60008115159050919050565b611acc81611ab7565b8114611ad757600080fd5b50565b600081359050611ae981611ac3565b92915050565b6000819050919050565b611b0281611aef565b8114611b0d57600080fd5b50565b600081359050611b1f81611af9565b92915050565b60008060408385031215611b3c57611b3b611aad565b5b6000611b4a85828601611ada565b9250506020611b5b85828601611b10565b9150509250929050565b600060208284031215611b7b57611b7a611aad565b5b6000611b8984828501611b10565b91505092915050565b611b9b81611aef565b82525050565b600081519050919050565b600082825260208201905092915050565b60005b83811015611bdb578082015181840152602081019050611bc0565b60008484015250505050565b6000601f19601f8301169050919050565b6000611c0382611ba1565b611c0d8185611bac565b9350611c1d818560208601611bbd565b611c2681611be7565b840191505092915050565b600073ffffffffffffffffffffffffffffffffffffffff82169050919050565b6000611c5c82611c31565b9050919050565b611c6c81611c51565b82525050565b611c7b81611ab7565b82525050565b600061020083016000830151611c9a6000860182611b92565b5060208301518482036020860152611cb28282611bf8565b9150506040830151611cc76040860182611c63565b5060608301518482036060860152611cdf8282611bf8565b9150506080830151611cf46080860182611c72565b5060a0830151611d0760a0860182611b92565b5060c0830151611d1a60c0860182611c63565b5060e083015184820360e0860152611d328282611bf8565b915050610100830151611d49610100860182611b92565b50610120830151611d5e610120860182611b92565b50610140830151611d73610140860182611b92565b50610160830151611d88610160860182611b92565b50610180830151611d9d610180860182611c72565b506101a0830151611db26101a0860182611c72565b506101c0830151611dc76101c0860182611b92565b506101e0830151611ddc6101e0860182611b92565b508091505092915050565b60006020820190508181036000830152611e018184611c81565b905092915050565b611e1281611c51565b8114611e1d57600080fd5b50565b600081359050611e2f81611e09565b92915050565b600060208284031215611e4b57611e4a611aad565b5b6000611e5984828501611e20565b91505092915050565b611e6b81611ab7565b82525050565b6000602082019050611e866000830184611e62565b92915050565b611e9581611c51565b82525050565b6000602082019050611eb06000830184611e8c565b92915050565b611ebf81611aef565b82525050565b6000602082019050611eda6000830184611eb6565b92915050565b600080fd5b600080fd5b7f4e487b7100000000000000000000000000000000000000000000000000000000600052604160045260246000fd5b611f2282611be7565b810181811067ffffffffffffffff82111715611f4157611f40611eea565b5b80604052505050565b6000611f54611aa3565b9050611f608282611f19565b919050565b600067ffffffffffffffff821115611f8057611f7f611eea565b5b611f8982611be7565b9050602081019050919050565b82818337600083830152505050565b6000611fb8611fb384611f65565b611f4a565b905082815260208101848484011115611fd457611fd3611ee5565b5b611fdf848285611f96565b509392505050565b600082601f830112611ffc57611ffb611ee0565b5b813561200c848260208601611fa5565b91505092915050565b6000806040838503121561202c5761202b611aad565b5b600061203a85828601611b10565b925050602083013567ffffffffffffffff81111561205b5761205a611ab2565b5b61206785828601611fe7565b9150509250929050565b600082825260208201905092915050565b7f566f74696e672068617320656e64656400000000000000000000000000000000600082015250565b60006120b8601083612071565b91506120c382612082565b602082019050919050565b600060208201905081810360008301526120e7816120ab565b9050919050565b7f5761697420666f7220766f74696e672074696d6520706c656173652100000000600082015250565b6000612124601c83612071565b915061212f826120ee565b602082019050919050565b6000602082019050818103600083015261215381612117565b9050919050565b7f596f75206d7573742068617665207468652076616c696461746f7273204e465460008201527f20746f20766f7465000000000000000000000000000000000000000000000000602082015250565b60006121b6602883612071565b91506121c18261215a565b604082019050919050565b600060208201905081810360008301526121e5816121a9565b9050919050565b7f596f75206861766520616c72656164792072657669657765642074686973206360008201527f6f6e74656e740000000000000000000000000000000000000000000000000000602082015250565b6000612248602683612071565b9150612253826121ec565b604082019050919050565b600060208201905081810360008301526122778161223b565b9050919050565b7f4e487b7100000000000000000000000000000000000000000000000000000000600052601160045260246000fd5b60006122b882611aef565b91507fffffffffffffffffffffffffffffffffffffffffffffffffffffffffffffffff82036122ea576122e961227e565b5b600182019050919050565b600060408201905061230a6000830185611eb6565b6123176020830184611e62565b9392505050565b7f4e487b7100000000000000000000000000000000000000000000000000000000600052602260045260246000fd5b6000600282049050600182168061236557607f821691505b6020821081036123785761237761231e565b5b50919050565b7f4f6e6c79204f776e65722063616e2063616c6c20746869732066756e6374696f60008201527f6e00000000000000000000000000000000000000000000000000000000000000602082015250565b60006123da602183612071565b91506123e58261237e565b604082019050919050565b60006020820190508181036000830152612409816123cd565b9050919050565b7f566f74696e67206973207374696c6c206f6e676f696e67000000000000000000600082015250565b6000612446601783612071565b915061245182612410565b602082019050919050565b6000602082019050818103600083015261247581612439565b9050919050565b7f4e6f7420617070726f7665642062792076616c696461746f727320666f72206660008201527f6c616767696e6700000000000000000000000000000000000000000000000000602082015250565b60006124d8602783612071565b91506124e38261247c565b604082019050919050565b60006020820190508181036000830152612507816124cb565b9050919050565b600061251982611aef565b915061252483611aef565b925082820190508082111561253c5761253b61227e565b5b92915050565b7f466c61672076616c696420636f6e74656e742100000000000000000000000000600082015250565b6000612578601383612071565b915061258382612542565b602082019050919050565b600060208201905081810360008301526125a78161256b565b9050919050565b7f4e6f207065726d697373696f6e20746f20666c616720636f6e74656e74000000600082015250565b60006125e4601d83612071565b91506125ef826125ae565b602082019050919050565b60006020820190508181036000830152612613816125d7565b9050919050565b60008190508160005260206000209050919050565b60006020601f8301049050919050565b600082821b905092915050565b60006008830261267c7fffffffffffffffffffffffffffffffffffffffffffffffffffffffffffffffff8261263f565b612686868361263f565b95508019841693508086168417925050509392505050565b6000819050919050565b60006126c36126be6126b984611aef565b61269e565b611aef565b9050919050565b6000819050919050565b6126dd836126a8565b6126f16126e9826126ca565b84845461264c565b825550505050565b600090565b6127066126f9565b6127118184846126d4565b505050565b5b818110156127355761272a6000826126fe565b600181019050612717565b5050565b601f82111561277a5761274b8161261a565b6127548461262f565b81016020851015612763578190505b61277761276f8561262f565b830182612716565b50505b505050565b600082821c905092915050565b600061279d6000198460080261277f565b1980831691505092915050565b60006127b6838361278c565b9150826002028217905092915050565b6127cf82611ba1565b67ffffffffffffffff8111156127e8576127e7611eea565b5b6127f2825461234d565b6127fd828285612739565b600060209050601f831160018114612830576000841561281e578287015190505b61282885826127aa565b865550612890565b601f19841661283e8661261a565b60005b8281101561286657848901518255600182019150602085019450602081019050612841565b86831015612883578489015161287f601f89168261278c565b8355505b6001600288020188555050505b505050505050565b7f596f75206d757374206861766520746865206d656d62657273686970204e465460008201527f20746f20766f7465000000000000000000000000000000000000000000000000602082015250565b60006128f4602883612071565b91506128ff82612898565b604082019050919050565b60006020820190508181036000830152612923816128e7565b9050919050565b7f4e6f7420617070726f76656420666f722072656420666c616767696e6720627960008201527f2076616c696461746f7273000000000000000000000000000000000000000000602082015250565b6000612986602b83612071565b91506129918261292a565b604082019050919050565b600060208201905081810360008301526129b581612979565b9050919050565b7f596f75206861766520616c726561647920766f746564206f6e2074686973206360008201527f6f6e74656e740000000000000000000000000000000000000000000000000000602082015250565b6000612a18602683612071565b9150612a23826129bc565b604082019050919050565b60006020820190508181036000830152612a4781612a0b565b9050919050565b7f596f75206d7573742068617665206174206c65617374206f6e65206a6967677960008201527f20746f6b656e20696e20796f75722077616c6c657420746f20766f7465000000602082015250565b6000612aaa603d83612071565b9150612ab582612a4e565b604082019050919050565b60006020820190508181036000830152612ad981612a9d565b9050919050565b600081519050612aef81611af9565b92915050565b600060208284031215612b0b57612b0a611aad565b5b6000612b1984828501612ae0565b9150509291505056fea264697066735822122026ee4e650943a7091d1d01133d995cfbd5b19674eed0003d44def0a3a8a9402b64736f6c63430008110033",
  "linkReferences": {},
  "deployedLinkReferences": {}
}