{
  "_format": "hh-sol-artifact-1",
  "contractName": "VoteContentFacet",
  "sourceName": "contracts/facets/VoteContentFacet.sol",
  "abi": [
    {
      "anonymous": false,
      "inputs": [
        {
          "indexed": true,
          "internalType": "address",
          "name": "voter",
          "type": "address"
        },
        {
          "indexed": false,
          "internalType": "bool",
          "name": "vote",
          "type": "bool"
        }
      ],
      "name": "VoteCast",
      "type": "event"
    },
    {
      "inputs": [
        {
          "internalType": "address",
          "name": "voterAddress",
          "type": "address"
        }
      ],
      "name": "addVoters",
      "outputs": [],
      "stateMutability": "nonpayable",
      "type": "function"
    },
    {
      "inputs": [],
      "name": "checkNFTAdress",
      "outputs": [
        {
          "internalType": "address",
          "name": "",
          "type": "address"
        }
      ],
      "stateMutability": "view",
      "type": "function"
    },
    {
      "inputs": [],
      "name": "checkTokenAdress",
      "outputs": [
        {
          "internalType": "address",
          "name": "",
          "type": "address"
        }
      ],
      "stateMutability": "view",
      "type": "function"
    },
    {
      "inputs": [
        {
          "internalType": "uint256",
          "name": "contentID",
          "type": "uint256"
        }
      ],
      "name": "getContent",
      "outputs": [
        {
          "components": [
            {
              "internalType": "string",
              "name": "contentName",
              "type": "string"
            },
            {
              "internalType": "address",
              "name": "contentCreator",
              "type": "address"
            },
            {
              "internalType": "uint256",
              "name": "contentID",
              "type": "uint256"
            },
            {
              "internalType": "bool",
              "name": "flagged",
              "type": "bool"
            },
            {
              "internalType": "uint256",
              "name": "flaggedTimestamp",
              "type": "uint256"
            },
            {
              "internalType": "address",
              "name": "flaggedBy",
              "type": "address"
            },
            {
              "internalType": "string",
              "name": "reasonForFlagging",
              "type": "string"
            },
            {
              "internalType": "string",
              "name": "contentDescription",
              "type": "string"
            },
            {
              "internalType": "bool",
              "name": "isVotedOn",
              "type": "bool"
            },
            {
              "internalType": "address[]",
              "name": "voters",
              "type": "address[]"
            },
            {
              "internalType": "uint256",
              "name": "totalVoteCount",
              "type": "uint256"
            },
            {
              "internalType": "uint256",
              "name": "flaggedVotes",
              "type": "uint256"
            },
            {
              "internalType": "uint256",
              "name": "yesVotes",
              "type": "uint256"
            },
            {
              "internalType": "uint256",
              "name": "noVotes",
              "type": "uint256"
            }
          ],
          "internalType": "struct Content",
          "name": "",
          "type": "tuple"
        }
      ],
      "stateMutability": "view",
      "type": "function"
    },
    {
      "inputs": [],
      "name": "getRandomVoters",
      "outputs": [],
      "stateMutability": "nonpayable",
      "type": "function"
    },
    {
      "inputs": [],
      "name": "isVotingOn",
      "outputs": [
        {
          "internalType": "bool",
          "name": "",
          "type": "bool"
        }
      ],
      "stateMutability": "view",
      "type": "function"
    },
    {
      "inputs": [
        {
          "internalType": "address",
          "name": "NFTaddress",
          "type": "address"
        }
      ],
      "name": "setNFTAdress",
      "outputs": [],
      "stateMutability": "nonpayable",
      "type": "function"
    },
    {
      "inputs": [
        {
          "internalType": "address",
          "name": "tokenAddress",
          "type": "address"
        }
      ],
      "name": "setTokenAdress",
      "outputs": [],
      "stateMutability": "nonpayable",
      "type": "function"
    },
    {
      "inputs": [],
      "name": "startVoting",
      "outputs": [
        {
          "internalType": "bool",
          "name": "",
          "type": "bool"
        }
      ],
      "stateMutability": "nonpayable",
      "type": "function"
    },
    {
      "inputs": [],
      "name": "stopVoting",
      "outputs": [
        {
          "internalType": "bool",
          "name": "",
          "type": "bool"
        }
      ],
      "stateMutability": "nonpayable",
      "type": "function"
    },
    {
      "inputs": [],
      "name": "totalFlaggedContent",
      "outputs": [
        {
          "internalType": "uint256",
          "name": "",
          "type": "uint256"
        }
      ],
      "stateMutability": "view",
      "type": "function"
    },
    {
      "inputs": [],
      "name": "totalVoters",
      "outputs": [
        {
          "internalType": "uint256",
          "name": "",
          "type": "uint256"
        }
      ],
      "stateMutability": "view",
      "type": "function"
    },
    {
      "inputs": [
        {
          "internalType": "bool",
          "name": "voteValue",
          "type": "bool"
        },
        {
          "internalType": "uint256",
          "name": "contentID",
          "type": "uint256"
        }
      ],
      "name": "vote",
      "outputs": [],
      "stateMutability": "nonpayable",
      "type": "function"
    }
  ],
  "bytecode": "0x608060405234801561001057600080fd5b50612038806100206000396000f3fe608060405234801561001057600080fd5b50600436106100cf5760003560e01c80635f5300ff1161008c578063d1817c2c11610066578063d1817c2c146101da578063e7a595ca146101f8578063f06459ee14610216578063fab2f86b14610232576100cf565b80635f5300ff1461019657806360777e1d146101b45780638bb0d810146101be576100cf565b80630b7ad54c146100d45780631019b6c21461010457806310e6e06c146101225780631ec6b60a1461013e578063219ea8d31461015c5780634c105d1b1461017a575b600080fd5b6100ee60048036038101906100e99190611511565b610250565b6040516100fb919061182b565b60405180910390f35b61010c6105e3565b604051610119919061185c565b60405180910390f35b61013c600480360381019061013791906118a3565b6105ef565b005b610146610983565b60405161015391906118f2565b60405180910390f35b6101646109a7565b604051610171919061191c565b60405180910390f35b610194600480360381019061018f9190611963565b6109d3565b005b61019e610d23565b6040516101ab919061185c565b60405180910390f35b6101bc610d2f565b005b6101d860048036038101906101d39190611963565b610e7f565b005b6101e2610ec5565b6040516101ef91906118f2565b60405180910390f35b610200610ede565b60405161020d919061191c565b60405180910390f35b610230600480360381019061022b9190611963565b610f0a565b005b61023a610f51565b60405161024791906118f2565b60405180910390f35b610258611437565b60006007016000838152602001908152602001600020604051806101c001604052908160008201805461028a906119bf565b80601f01602080910402602001604051908101604052809291908181526020018280546102b6906119bf565b80156103035780601f106102d857610100808354040283529160200191610303565b820191906000526020600020905b8154815290600101906020018083116102e657829003601f168201915b505050505081526020016001820160009054906101000a900473ffffffffffffffffffffffffffffffffffffffff1673ffffffffffffffffffffffffffffffffffffffff1673ffffffffffffffffffffffffffffffffffffffff168152602001600282015481526020016003820160009054906101000a900460ff16151515158152602001600482015481526020016005820160009054906101000a900473ffffffffffffffffffffffffffffffffffffffff1673ffffffffffffffffffffffffffffffffffffffff1673ffffffffffffffffffffffffffffffffffffffff1681526020016006820180546103f7906119bf565b80601f0160208091040260200160405190810160405280929190818152602001828054610423906119bf565b80156104705780601f1061044557610100808354040283529160200191610470565b820191906000526020600020905b81548152906001019060200180831161045357829003601f168201915b50505050508152602001600782018054610489906119bf565b80601f01602080910402602001604051908101604052809291908181526020018280546104b5906119bf565b80156105025780601f106104d757610100808354040283529160200191610502565b820191906000526020600020905b8154815290600101906020018083116104e557829003601f168201915b505050505081526020016008820160009054906101000a900460ff16151515158152602001600982018054806020026020016040519081016040528092919081815260200182805480156105ab57602002820191906000526020600020905b8160009054906101000a900473ffffffffffffffffffffffffffffffffffffffff1673ffffffffffffffffffffffffffffffffffffffff1681526020019060010190808311610561575b50505050508152602001600a8201548152602001600b8201548152602001600c8201548152602001600d820154815250509050919050565b60008060020154905090565b600060060160009054906101000a900460ff16610641576040517f08c379a000000000000000000000000000000000000000000000000000000000815260040161063890611a4d565b60405180910390fd5b426000600401541115610677576001600060060160006101000a81548160ff021916908315150217905550426000600401819055505b61068033610f74565b6106bf576040517f08c379a00000000000000000000000000000000000000000000000000000000081526004016106b690611ab9565b60405180910390fd5b6106c833611028565b610707576040517f08c379a00000000000000000000000000000000000000000000000000000000081526004016106fe90611b4b565b60405180910390fd5b60008060090160003373ffffffffffffffffffffffffffffffffffffffff1673ffffffffffffffffffffffffffffffffffffffff1681526020019081526020016000206040518060800160405290816000820160009054906101000a900473ffffffffffffffffffffffffffffffffffffffff1673ffffffffffffffffffffffffffffffffffffffff1673ffffffffffffffffffffffffffffffffffffffff1681526020016000820160149054906101000a900460ff161515151581526020016000820160159054906101000a900460ff161515151581526020016000820160169054906101000a900460ff1615151515815250509050600015158160200151151514610849576040517f08c379a000000000000000000000000000000000000000000000000000000000815260040161084090611bb7565b60405180910390fd5b6001816020019015159081151581525050828160400190151590811515815250506000806007016000848152602001908152602001600020905083156108a85780600c01600081548092919061089e90611c06565b91905055506108c3565b80600d0160008154809291906108bd90611c06565b91905055505b60018160080160006101000a81548160ff02191690831515021790555080600a0160008154809291906108f590611c06565b9190505550610902611186565b1561092f5760008060060160006101000a81548160ff021916908315150217905550600080600401819055505b3373ffffffffffffffffffffffffffffffffffffffff167fa32151c21b193dcf3d43d553597e960d429ef6cafad3492ee4790e41be1ce5208560405161097591906118f2565b60405180910390a250505050565b60006001600060060160006101000a81548160ff0219169083151502179055905090565b60008060000160009054906101000a900473ffffffffffffffffffffffffffffffffffffffff16905090565b600073ffffffffffffffffffffffffffffffffffffffff168173ffffffffffffffffffffffffffffffffffffffff1603610a42576040517f08c379a0000000000000000000000000000000000000000000000000000000008152600401610a3990611c9a565b60405180910390fd5b610a4b81611028565b610a8a576040517f08c379a0000000000000000000000000000000000000000000000000000000008152600401610a8190611b4b565b60405180910390fd5b60001515600060090160008373ffffffffffffffffffffffffffffffffffffffff1673ffffffffffffffffffffffffffffffffffffffff16815260200190815260200160002060000160169054906101000a900460ff16151503610bc95760008060090160008373ffffffffffffffffffffffffffffffffffffffff1673ffffffffffffffffffffffffffffffffffffffff1681526020019081526020016000209050818160000160006101000a81548173ffffffffffffffffffffffffffffffffffffffff021916908373ffffffffffffffffffffffffffffffffffffffff16021790555060008160000160146101000a81548160ff02191690831515021790555060008160000160156101000a81548160ff02191690831515021790555060018160000160166101000a81548160ff021916908315150217905550505b60005b600060080180549050811015610c9e578173ffffffffffffffffffffffffffffffffffffffff1660006008018281548110610c0a57610c09611cba565b5b9060005260206000200160009054906101000a900473ffffffffffffffffffffffffffffffffffffffff1673ffffffffffffffffffffffffffffffffffffffff1603610c8b576040517f08c379a0000000000000000000000000000000000000000000000000000000008152600401610c8290611d35565b60405180910390fd5b8080610c9690611c06565b915050610bcc565b506000600801819080600181540180825580915050600190039060005260206000200160009091909190916101000a81548173ffffffffffffffffffffffffffffffffffffffff021916908373ffffffffffffffffffffffffffffffffffffffff16021790555060006005016000815480929190610d1b90611c06565b919050555050565b60008060050154905090565b60036000600501541015610d78576040517f08c379a0000000000000000000000000000000000000000000000000000000008152600401610d6f90611da1565b60405180910390fd5b6000610d8a6003600060050154611262565b905060005b8151811015610e7b5760008060090160003373ffffffffffffffffffffffffffffffffffffffff1673ffffffffffffffffffffffffffffffffffffffff16815260200190815260200160002060000160009054906101000a900473ffffffffffffffffffffffffffffffffffffffff1690506000600801819080600181540180825580915050600190039060005260206000200160009091909190916101000a81548173ffffffffffffffffffffffffffffffffffffffff021916908373ffffffffffffffffffffffffffffffffffffffff160217905550508080610e7390611c06565b915050610d8f565b5050565b806000800160006101000a81548173ffffffffffffffffffffffffffffffffffffffff021916908373ffffffffffffffffffffffffffffffffffffffff16021790555050565b60008060060160009054906101000a900460ff16905090565b60008060010160009054906101000a900473ffffffffffffffffffffffffffffffffffffffff16905090565b80600060010160006101000a81548173ffffffffffffffffffffffffffffffffffffffff021916908373ffffffffffffffffffffffffffffffffffffffff16021790555050565b600080600060060160006101000a81548160ff0219169083151502179055905090565b600080600090505b60006008018054905081101561101d578273ffffffffffffffffffffffffffffffffffffffff1660006008018281548110610fba57610fb9611cba565b5b9060005260206000200160009054906101000a900473ffffffffffffffffffffffffffffffffffffffff1673ffffffffffffffffffffffffffffffffffffffff160361100a576001915050611023565b808061101590611c06565b915050610f7c565b50600090505b919050565b60008060008060010160009054906101000a900473ffffffffffffffffffffffffffffffffffffffff1673ffffffffffffffffffffffffffffffffffffffff166370a08231856040518263ffffffff1660e01b815260040161108a919061191c565b602060405180830381865afa1580156110a7573d6000803e3d6000fd5b505050506040513d601f19601f820116820180604052508101906110cb9190611dd6565b11905060008060000160009054906101000a900473ffffffffffffffffffffffffffffffffffffffff1673ffffffffffffffffffffffffffffffffffffffff166370a08231856040518263ffffffff1660e01b815260040161112d919061191c565b602060405180830381865afa15801561114a573d6000803e3d6000fd5b505050506040513d601f19601f8201168201806040525081019061116e9190611dd6565b905081801561117d5750600081115b92505050919050565b600080600090505b6000600801805490508110156112595760008060080182815481106111b6576111b5611cba565b5b9060005260206000200160009054906101000a900473ffffffffffffffffffffffffffffffffffffffff169050600060090160008273ffffffffffffffffffffffffffffffffffffffff1673ffffffffffffffffffffffffffffffffffffffff16815260200190815260200160002060000160149054906101000a900460ff166112455760009250505061125f565b50808061125190611c06565b91505061118e565b50600190505b90565b6060818311156112a7576040517f08c379a000000000000000000000000000000000000000000000000000000000815260040161129e90611e75565b60405180910390fd5b60008367ffffffffffffffff8111156112c3576112c2611e95565b5b6040519080825280602002602001820160405280156112f15781602001602082028036833780820191505090505b50905060006001846113039190611ec4565b905060005b858110156113ac57600060018361131f9190611ef8565b4283604051602001611332929190611f4d565b6040516020818303038152906040528051906020012060001c6113559190611fa8565b90508084838151811061136b5761136a611cba565b5b602002602001018181525050828061138290611fd9565b935050828114611398576113978482856113b8565b5b5080806113a490611c06565b915050611308565b50819250505092915050565b60008383815181106113cd576113cc611cba565b5b602002602001015190508382815181106113ea576113e9611cba565b5b602002602001015184848151811061140557611404611cba565b5b6020026020010181815250508084838151811061142557611424611cba565b5b60200260200101818152505050505050565b604051806101c0016040528060608152602001600073ffffffffffffffffffffffffffffffffffffffff1681526020016000815260200160001515815260200160008152602001600073ffffffffffffffffffffffffffffffffffffffff168152602001606081526020016060815260200160001515815260200160608152602001600081526020016000815260200160008152602001600081525090565b600080fd5b6000819050919050565b6114ee816114db565b81146114f957600080fd5b50565b60008135905061150b816114e5565b92915050565b600060208284031215611527576115266114d6565b5b6000611535848285016114fc565b91505092915050565b600081519050919050565b600082825260208201905092915050565b60005b8381101561157857808201518184015260208101905061155d565b60008484015250505050565b6000601f19601f8301169050919050565b60006115a08261153e565b6115aa8185611549565b93506115ba81856020860161155a565b6115c381611584565b840191505092915050565b600073ffffffffffffffffffffffffffffffffffffffff82169050919050565b60006115f9826115ce565b9050919050565b611609816115ee565b82525050565b611618816114db565b82525050565b60008115159050919050565b6116338161161e565b82525050565b600081519050919050565b600082825260208201905092915050565b6000819050602082019050919050565b60006116718383611600565b60208301905092915050565b6000602082019050919050565b600061169582611639565b61169f8185611644565b93506116aa83611655565b8060005b838110156116db5781516116c28882611665565b97506116cd8361167d565b9250506001810190506116ae565b5085935050505092915050565b60006101c08301600083015184820360008601526117068282611595565b915050602083015161171b6020860182611600565b50604083015161172e604086018261160f565b506060830151611741606086018261162a565b506080830151611754608086018261160f565b5060a083015161176760a0860182611600565b5060c083015184820360c086015261177f8282611595565b91505060e083015184820360e08601526117998282611595565b9150506101008301516117b061010086018261162a565b506101208301518482036101208601526117ca828261168a565b9150506101408301516117e161014086018261160f565b506101608301516117f661016086018261160f565b5061018083015161180b61018086018261160f565b506101a08301516118206101a086018261160f565b508091505092915050565b6000602082019050818103600083015261184581846116e8565b905092915050565b611856816114db565b82525050565b6000602082019050611871600083018461184d565b92915050565b6118808161161e565b811461188b57600080fd5b50565b60008135905061189d81611877565b92915050565b600080604083850312156118ba576118b96114d6565b5b60006118c88582860161188e565b92505060206118d9858286016114fc565b9150509250929050565b6118ec8161161e565b82525050565b600060208201905061190760008301846118e3565b92915050565b611916816115ee565b82525050565b6000602082019050611931600083018461190d565b92915050565b611940816115ee565b811461194b57600080fd5b50565b60008135905061195d81611937565b92915050565b600060208284031215611979576119786114d6565b5b60006119878482850161194e565b91505092915050565b7f4e487b7100000000000000000000000000000000000000000000000000000000600052602260045260246000fd5b600060028204905060018216806119d757607f821691505b6020821081036119ea576119e9611990565b5b50919050565b600082825260208201905092915050565b7f5761697420666f7220766f74696e672074696d6520706c656173652100000000600082015250565b6000611a37601c836119f0565b9150611a4282611a01565b602082019050919050565b60006020820190508181036000830152611a6681611a2a565b9050919050565b7f596f7520617265206e6f7420656c696769626c6520746f20766f746500000000600082015250565b6000611aa3601c836119f0565b9150611aae82611a6d565b602082019050919050565b60006020820190508181036000830152611ad281611a96565b9050919050565b7f596f75206d757374206861766520746865207265717569726564204e4654206160008201527f6e6420455243323020746f6b656e20746f20766f746500000000000000000000602082015250565b6000611b356036836119f0565b9150611b4082611ad9565b604082019050919050565b60006020820190508181036000830152611b6481611b28565b9050919050565b7f596f75206861766520616c726561647920766f74656400000000000000000000600082015250565b6000611ba16016836119f0565b9150611bac82611b6b565b602082019050919050565b60006020820190508181036000830152611bd081611b94565b9050919050565b7f4e487b7100000000000000000000000000000000000000000000000000000000600052601160045260246000fd5b6000611c11826114db565b91507fffffffffffffffffffffffffffffffffffffffffffffffffffffffffffffffff8203611c4357611c42611bd7565b5b600182019050919050565b7f496e76616c696420616464726573730000000000000000000000000000000000600082015250565b6000611c84600f836119f0565b9150611c8f82611c4e565b602082019050919050565b60006020820190508181036000830152611cb381611c77565b9050919050565b7f4e487b7100000000000000000000000000000000000000000000000000000000600052603260045260246000fd5b7f566f74657220697320616c726561647920656c696769626c6500000000000000600082015250565b6000611d1f6019836119f0565b9150611d2a82611ce9565b602082019050919050565b60006020820190508181036000830152611d4e81611d12565b9050919050565b7f4e6f7420656e6f75676820766f7465727320746f2073656c6563742066726f6d600082015250565b6000611d8b6020836119f0565b9150611d9682611d55565b602082019050919050565b60006020820190508181036000830152611dba81611d7e565b9050919050565b600081519050611dd0816114e5565b92915050565b600060208284031215611dec57611deb6114d6565b5b6000611dfa84828501611dc1565b91505092915050565b7f436f756e74206d757374206265206c657373207468616e206f7220657175616c60008201527f20746f20746865206d6178696d756d0000000000000000000000000000000000602082015250565b6000611e5f602f836119f0565b9150611e6a82611e03565b604082019050919050565b60006020820190508181036000830152611e8e81611e52565b9050919050565b7f4e487b7100000000000000000000000000000000000000000000000000000000600052604160045260246000fd5b6000611ecf826114db565b9150611eda836114db565b9250828203905081811115611ef257611ef1611bd7565b5b92915050565b6000611f03826114db565b9150611f0e836114db565b9250828201905080821115611f2657611f25611bd7565b5b92915050565b6000819050919050565b611f47611f42826114db565b611f2c565b82525050565b6000611f598285611f36565b602082019150611f698284611f36565b6020820191508190509392505050565b7f4e487b7100000000000000000000000000000000000000000000000000000000600052601260045260246000fd5b6000611fb3826114db565b9150611fbe836114db565b925082611fce57611fcd611f79565b5b828206905092915050565b6000611fe4826114db565b915060008203611ff757611ff6611bd7565b5b60018203905091905056fea2646970667358221220d87a71991c51badc4b0e77e2d462dcc929479ddc0e48242dc0effb812fc9f4ec64736f6c63430008110033",
  "linkReferences": {},
  "deployedLinkReferences": {}
}