{
  "_format": "hh-sol-artifact-1",
  "contractName": "VoteContentFacet",
  "sourceName": "contracts/facets/VoteContentFacet.sol",
  "abi": [
    {
      "anonymous": false,
      "inputs": [
        {
          "indexed": true,
          "internalType": "address",
          "name": "voter",
          "type": "address"
        },
        {
          "indexed": false,
          "internalType": "bool",
          "name": "vote",
          "type": "bool"
        }
      ],
      "name": "VoteCast",
      "type": "event"
    },
    {
      "inputs": [
        {
          "internalType": "address",
          "name": "voterAddress",
          "type": "address"
        }
      ],
      "name": "addVoters",
      "outputs": [],
      "stateMutability": "nonpayable",
      "type": "function"
    },
    {
      "inputs": [],
      "name": "getRandomVoters",
      "outputs": [],
      "stateMutability": "nonpayable",
      "type": "function"
    },
    {
      "inputs": [],
      "name": "isVotingOn",
      "outputs": [
        {
          "internalType": "bool",
          "name": "",
          "type": "bool"
        }
      ],
      "stateMutability": "view",
      "type": "function"
    },
    {
      "inputs": [],
      "name": "totalFlaggedContent",
      "outputs": [
        {
          "internalType": "uint256",
          "name": "",
          "type": "uint256"
        }
      ],
      "stateMutability": "view",
      "type": "function"
    },
    {
      "inputs": [],
      "name": "totalVoters",
      "outputs": [
        {
          "internalType": "uint256",
          "name": "",
          "type": "uint256"
        }
      ],
      "stateMutability": "view",
      "type": "function"
    },
    {
      "inputs": [
        {
          "internalType": "bool",
          "name": "voteValue",
          "type": "bool"
        },
        {
          "internalType": "uint256",
          "name": "contentID",
          "type": "uint256"
        }
      ],
      "name": "vote",
      "outputs": [],
      "stateMutability": "nonpayable",
      "type": "function"
    }
  ],
  "bytecode": "0x608060405234801561001057600080fd5b50611494806100206000396000f3fe608060405234801561001057600080fd5b50600436106100625760003560e01c80631019b6c21461006757806310e6e06c146100855780634c105d1b146100a15780635f5300ff146100bd57806360777e1d146100db578063d1817c2c146100e5575b600080fd5b61006f610103565b60405161007c9190610cd3565b60405180910390f35b61009f600480360381019061009a9190610d57565b61010f565b005b6100bb60048036038101906100b69190610df5565b610483565b005b6100c561064f565b6040516100d29190610cd3565b60405180910390f35b6100e361065b565b005b6100ed6107ab565b6040516100fa9190610e31565b60405180910390f35b60008060020154905090565b600060060160009054906101000a900460ff16610161576040517f08c379a000000000000000000000000000000000000000000000000000000000815260040161015890610ea9565b60405180910390fd5b426000600401541115610197576001600060060160006101000a81548160ff021916908315150217905550426000600401819055505b6101a0336107c4565b6101df576040517f08c379a00000000000000000000000000000000000000000000000000000000081526004016101d690610f15565b60405180910390fd5b6101e833610878565b610227576040517f08c379a000000000000000000000000000000000000000000000000000000000815260040161021e90610fa7565b60405180910390fd5b60008060090160003373ffffffffffffffffffffffffffffffffffffffff1673ffffffffffffffffffffffffffffffffffffffff1681526020019081526020016000206040518060800160405290816000820160009054906101000a900473ffffffffffffffffffffffffffffffffffffffff1673ffffffffffffffffffffffffffffffffffffffff1673ffffffffffffffffffffffffffffffffffffffff1681526020016000820160149054906101000a900460ff161515151581526020016000820160159054906101000a900460ff161515151581526020016000820160169054906101000a900460ff1615151515815250509050806020015115610363576040517f08c379a000000000000000000000000000000000000000000000000000000000815260040161035a90611013565b60405180910390fd5b6001816020019015159081151581525050828160400190151590811515815250506000806007016000848152602001908152602001600020905083156103c25780600c0160008154809291906103b890611062565b91905055506103dd565b80600d0160008154809291906103d790611062565b91905055505b60018160080160006101000a81548160ff021916908315150217905550610402610a09565b1561042f5760008060060160006101000a81548160ff021916908315150217905550600080600401819055505b3373ffffffffffffffffffffffffffffffffffffffff167fa32151c21b193dcf3d43d553597e960d429ef6cafad3492ee4790e41be1ce520856040516104759190610e31565b60405180910390a250505050565b600073ffffffffffffffffffffffffffffffffffffffff168173ffffffffffffffffffffffffffffffffffffffff16036104f2576040517f08c379a00000000000000000000000000000000000000000000000000000000081526004016104e9906110f6565b60405180910390fd5b60001515600060090160008373ffffffffffffffffffffffffffffffffffffffff1673ffffffffffffffffffffffffffffffffffffffff16815260200190815260200160002060000160169054906101000a900460ff161515036106315760008060090160008373ffffffffffffffffffffffffffffffffffffffff1673ffffffffffffffffffffffffffffffffffffffff1681526020019081526020016000209050818160000160006101000a81548173ffffffffffffffffffffffffffffffffffffffff021916908373ffffffffffffffffffffffffffffffffffffffff16021790555060008160000160146101000a81548160ff02191690831515021790555060008160000160156101000a81548160ff02191690831515021790555060018160000160166101000a81548160ff021916908315150217905550505b6000600501600081548092919061064790611062565b919050555050565b60008060050154905090565b600360006005015410156106a4576040517f08c379a000000000000000000000000000000000000000000000000000000000815260040161069b90611162565b60405180910390fd5b60006106b66003600060050154610ae5565b905060005b81518110156107a75760008060090160003373ffffffffffffffffffffffffffffffffffffffff1673ffffffffffffffffffffffffffffffffffffffff16815260200190815260200160002060000160009054906101000a900473ffffffffffffffffffffffffffffffffffffffff1690506000600801819080600181540180825580915050600190039060005260206000200160009091909190916101000a81548173ffffffffffffffffffffffffffffffffffffffff021916908373ffffffffffffffffffffffffffffffffffffffff16021790555050808061079f90611062565b9150506106bb565b5050565b60008060060160009054906101000a900460ff16905090565b600080600090505b60006008018054905081101561086d578273ffffffffffffffffffffffffffffffffffffffff166000600801828154811061080a57610809611182565b5b9060005260206000200160009054906101000a900473ffffffffffffffffffffffffffffffffffffffff1673ffffffffffffffffffffffffffffffffffffffff160361085a576001915050610873565b808061086590611062565b9150506107cc565b50600090505b919050565b6000806014905060008373ffffffffffffffffffffffffffffffffffffffff16600060010160009054906101000a900473ffffffffffffffffffffffffffffffffffffffff1673ffffffffffffffffffffffffffffffffffffffff16636352211e846040518263ffffffff1660e01b81526004016108f69190610cd3565b602060405180830381865afa158015610913573d6000803e3d6000fd5b505050506040513d601f19601f8201168201806040525081019061093791906111c6565b73ffffffffffffffffffffffffffffffffffffffff1614905060008060000160009054906101000a900473ffffffffffffffffffffffffffffffffffffffff1673ffffffffffffffffffffffffffffffffffffffff166370a08231866040518263ffffffff1660e01b81526004016109af9190611202565b602060405180830381865afa1580156109cc573d6000803e3d6000fd5b505050506040513d601f19601f820116820180604052508101906109f09190611232565b90508180156109ff5750600081115b9350505050919050565b600080600090505b600060080180549050811015610adc576000806008018281548110610a3957610a38611182565b5b9060005260206000200160009054906101000a900473ffffffffffffffffffffffffffffffffffffffff169050600060090160008273ffffffffffffffffffffffffffffffffffffffff1673ffffffffffffffffffffffffffffffffffffffff16815260200190815260200160002060000160149054906101000a900460ff16610ac857600092505050610ae2565b508080610ad490611062565b915050610a11565b50600190505b90565b606081831115610b2a576040517f08c379a0000000000000000000000000000000000000000000000000000000008152600401610b21906112d1565b60405180910390fd5b60008367ffffffffffffffff811115610b4657610b456112f1565b5b604051908082528060200260200182016040528015610b745781602001602082028036833780820191505090505b5090506000600184610b869190611320565b905060005b85811015610c2f576000600183610ba29190611354565b4283604051602001610bb59291906113a9565b6040516020818303038152906040528051906020012060001c610bd89190611404565b905080848381518110610bee57610bed611182565b5b6020026020010181815250508280610c0590611435565b935050828114610c1b57610c1a848285610c3b565b5b508080610c2790611062565b915050610b8b565b50819250505092915050565b6000838381518110610c5057610c4f611182565b5b60200260200101519050838281518110610c6d57610c6c611182565b5b6020026020010151848481518110610c8857610c87611182565b5b60200260200101818152505080848381518110610ca857610ca7611182565b5b60200260200101818152505050505050565b6000819050919050565b610ccd81610cba565b82525050565b6000602082019050610ce86000830184610cc4565b92915050565b600080fd5b60008115159050919050565b610d0881610cf3565b8114610d1357600080fd5b50565b600081359050610d2581610cff565b92915050565b610d3481610cba565b8114610d3f57600080fd5b50565b600081359050610d5181610d2b565b92915050565b60008060408385031215610d6e57610d6d610cee565b5b6000610d7c85828601610d16565b9250506020610d8d85828601610d42565b9150509250929050565b600073ffffffffffffffffffffffffffffffffffffffff82169050919050565b6000610dc282610d97565b9050919050565b610dd281610db7565b8114610ddd57600080fd5b50565b600081359050610def81610dc9565b92915050565b600060208284031215610e0b57610e0a610cee565b5b6000610e1984828501610de0565b91505092915050565b610e2b81610cf3565b82525050565b6000602082019050610e466000830184610e22565b92915050565b600082825260208201905092915050565b7f5761697420666f7220766f74696e672074696d6520706c656173652100000000600082015250565b6000610e93601c83610e4c565b9150610e9e82610e5d565b602082019050919050565b60006020820190508181036000830152610ec281610e86565b9050919050565b7f596f7520617265206e6f7420656c696769626c6520746f20766f746500000000600082015250565b6000610eff601c83610e4c565b9150610f0a82610ec9565b602082019050919050565b60006020820190508181036000830152610f2e81610ef2565b9050919050565b7f596f75206d757374206861766520746865207265717569726564204e4654206160008201527f6e6420455243323020746f6b656e20746f20766f746500000000000000000000602082015250565b6000610f91603683610e4c565b9150610f9c82610f35565b604082019050919050565b60006020820190508181036000830152610fc081610f84565b9050919050565b7f596f75206861766520616c726561647920766f74656400000000000000000000600082015250565b6000610ffd601683610e4c565b915061100882610fc7565b602082019050919050565b6000602082019050818103600083015261102c81610ff0565b9050919050565b7f4e487b7100000000000000000000000000000000000000000000000000000000600052601160045260246000fd5b600061106d82610cba565b91507fffffffffffffffffffffffffffffffffffffffffffffffffffffffffffffffff820361109f5761109e611033565b5b600182019050919050565b7f496e76616c696420616464726573730000000000000000000000000000000000600082015250565b60006110e0600f83610e4c565b91506110eb826110aa565b602082019050919050565b6000602082019050818103600083015261110f816110d3565b9050919050565b7f4e6f7420656e6f75676820766f7465727320746f2073656c6563742066726f6d600082015250565b600061114c602083610e4c565b915061115782611116565b602082019050919050565b6000602082019050818103600083015261117b8161113f565b9050919050565b7f4e487b7100000000000000000000000000000000000000000000000000000000600052603260045260246000fd5b6000815190506111c081610dc9565b92915050565b6000602082840312156111dc576111db610cee565b5b60006111ea848285016111b1565b91505092915050565b6111fc81610db7565b82525050565b600060208201905061121760008301846111f3565b92915050565b60008151905061122c81610d2b565b92915050565b60006020828403121561124857611247610cee565b5b60006112568482850161121d565b91505092915050565b7f436f756e74206d757374206265206c657373207468616e206f7220657175616c60008201527f20746f20746865206d6178696d756d0000000000000000000000000000000000602082015250565b60006112bb602f83610e4c565b91506112c68261125f565b604082019050919050565b600060208201905081810360008301526112ea816112ae565b9050919050565b7f4e487b7100000000000000000000000000000000000000000000000000000000600052604160045260246000fd5b600061132b82610cba565b915061133683610cba565b925082820390508181111561134e5761134d611033565b5b92915050565b600061135f82610cba565b915061136a83610cba565b925082820190508082111561138257611381611033565b5b92915050565b6000819050919050565b6113a361139e82610cba565b611388565b82525050565b60006113b58285611392565b6020820191506113c58284611392565b6020820191508190509392505050565b7f4e487b7100000000000000000000000000000000000000000000000000000000600052601260045260246000fd5b600061140f82610cba565b915061141a83610cba565b92508261142a576114296113d5565b5b828206905092915050565b600061144082610cba565b91506000820361145357611452611033565b5b60018203905091905056fea2646970667358221220cfa5d343fad6b0c4445c553b6fde17c77885b74a96f2236ad5274c1bc6a5cb0c64736f6c63430008110033",
  "linkReferences": {},
  "deployedLinkReferences": {}
}