{
  "_format": "hh-sol-artifact-1",
  "contractName": "VoteContentFacet",
  "sourceName": "contracts/facets/VoteContentFacet.sol",
  "abi": [
    {
      "anonymous": false,
      "inputs": [
        {
          "indexed": true,
          "internalType": "address",
          "name": "voter",
          "type": "address"
        },
        {
          "indexed": false,
          "internalType": "bool",
          "name": "vote",
          "type": "bool"
        }
      ],
      "name": "VoteCast",
      "type": "event"
    },
    {
      "inputs": [
        {
          "internalType": "address",
          "name": "voterAddress",
          "type": "address"
        }
      ],
      "name": "addVoters",
      "outputs": [],
      "stateMutability": "nonpayable",
      "type": "function"
    },
    {
      "inputs": [],
      "name": "checkNFTAdress",
      "outputs": [
        {
          "internalType": "address",
          "name": "",
          "type": "address"
        }
      ],
      "stateMutability": "view",
      "type": "function"
    },
    {
      "inputs": [],
      "name": "checkTokenAdress",
      "outputs": [
        {
          "internalType": "address",
          "name": "",
          "type": "address"
        }
      ],
      "stateMutability": "view",
      "type": "function"
    },
    {
      "inputs": [
        {
          "internalType": "uint256",
          "name": "contentID",
          "type": "uint256"
        }
      ],
      "name": "getContent",
      "outputs": [
        {
          "components": [
            {
              "internalType": "string",
              "name": "contentName",
              "type": "string"
            },
            {
              "internalType": "address",
              "name": "contentCreator",
              "type": "address"
            },
            {
              "internalType": "uint256",
              "name": "contentID",
              "type": "uint256"
            },
            {
              "internalType": "bool",
              "name": "flagged",
              "type": "bool"
            },
            {
              "internalType": "uint256",
              "name": "flaggedTimestamp",
              "type": "uint256"
            },
            {
              "internalType": "address",
              "name": "flaggedBy",
              "type": "address"
            },
            {
              "internalType": "string",
              "name": "reasonForFlagging",
              "type": "string"
            },
            {
              "internalType": "string",
              "name": "contentDescription",
              "type": "string"
            },
            {
              "internalType": "bool",
              "name": "isVotedOn",
              "type": "bool"
            },
            {
              "internalType": "address[]",
              "name": "voters",
              "type": "address[]"
            },
            {
              "internalType": "uint256",
              "name": "totalVoteCount",
              "type": "uint256"
            },
            {
              "internalType": "uint256",
              "name": "flaggedVotes",
              "type": "uint256"
            },
            {
              "internalType": "uint256",
              "name": "yesVotes",
              "type": "uint256"
            },
            {
              "internalType": "uint256",
              "name": "noVotes",
              "type": "uint256"
            }
          ],
          "internalType": "struct Content",
          "name": "",
          "type": "tuple"
        }
      ],
      "stateMutability": "view",
      "type": "function"
    },
    {
      "inputs": [],
      "name": "getRandomVoters",
      "outputs": [],
      "stateMutability": "nonpayable",
      "type": "function"
    },
    {
      "inputs": [],
      "name": "isVotingOn",
      "outputs": [
        {
          "internalType": "bool",
          "name": "",
          "type": "bool"
        }
      ],
      "stateMutability": "view",
      "type": "function"
    },
    {
      "inputs": [
        {
          "internalType": "address",
          "name": "NFTaddress",
          "type": "address"
        }
      ],
      "name": "setNFTAdress",
      "outputs": [],
      "stateMutability": "nonpayable",
      "type": "function"
    },
    {
      "inputs": [
        {
          "internalType": "address",
          "name": "tokenAddress",
          "type": "address"
        }
      ],
      "name": "setTokenAdress",
      "outputs": [],
      "stateMutability": "nonpayable",
      "type": "function"
    },
    {
      "inputs": [],
      "name": "startVoting",
      "outputs": [
        {
          "internalType": "bool",
          "name": "",
          "type": "bool"
        }
      ],
      "stateMutability": "nonpayable",
      "type": "function"
    },
    {
      "inputs": [],
      "name": "stopVoting",
      "outputs": [
        {
          "internalType": "bool",
          "name": "",
          "type": "bool"
        }
      ],
      "stateMutability": "nonpayable",
      "type": "function"
    },
    {
      "inputs": [],
      "name": "totalFlaggedContent",
      "outputs": [
        {
          "internalType": "uint256",
          "name": "",
          "type": "uint256"
        }
      ],
      "stateMutability": "view",
      "type": "function"
    },
    {
      "inputs": [],
      "name": "totalVoters",
      "outputs": [
        {
          "internalType": "uint256",
          "name": "",
          "type": "uint256"
        }
      ],
      "stateMutability": "view",
      "type": "function"
    },
    {
      "inputs": [
        {
          "internalType": "bool",
          "name": "voteValue",
          "type": "bool"
        },
        {
          "internalType": "uint256",
          "name": "contentID",
          "type": "uint256"
        }
      ],
      "name": "vote",
      "outputs": [],
      "stateMutability": "nonpayable",
      "type": "function"
    }
  ],
  "bytecode": "0x608060405234801561001057600080fd5b506123d5806100206000396000f3fe608060405234801561001057600080fd5b50600436106100cf5760003560e01c80635f5300ff1161008c578063d1817c2c11610066578063d1817c2c146101da578063e7a595ca146101f8578063f06459ee14610216578063fab2f86b14610232576100cf565b80635f5300ff1461019657806360777e1d146101b45780638bb0d810146101be576100cf565b80630b7ad54c146100d45780631019b6c21461010457806310e6e06c146101225780631ec6b60a1461013e578063219ea8d31461015c5780634c105d1b1461017a575b600080fd5b6100ee60048036038101906100e9919061181c565b610250565b6040516100fb9190611b36565b60405180910390f35b61010c6105e3565b6040516101199190611b67565b60405180910390f35b61013c60048036038101906101379190611bae565b6105ef565b005b61014661094e565b6040516101539190611bfd565b60405180910390f35b6101646109ec565b6040516101719190611c27565b60405180910390f35b610194600480360381019061018f9190611c6e565b610a18565b005b61019e610de3565b6040516101ab9190611b67565b60405180910390f35b6101bc610def565b005b6101d860048036038101906101d39190611c6e565b610fba565b005b6101e261107b565b6040516101ef9190611bfd565b60405180910390f35b610200611094565b60405161020d9190611c27565b60405180910390f35b610230600480360381019061022b9190611c6e565b6110c0565b005b61023a611182565b6040516102479190611bfd565b60405180910390f35b610258611742565b60006007016000838152602001908152602001600020604051806101c001604052908160008201805461028a90611cca565b80601f01602080910402602001604051908101604052809291908181526020018280546102b690611cca565b80156103035780601f106102d857610100808354040283529160200191610303565b820191906000526020600020905b8154815290600101906020018083116102e657829003601f168201915b505050505081526020016001820160009054906101000a900473ffffffffffffffffffffffffffffffffffffffff1673ffffffffffffffffffffffffffffffffffffffff1673ffffffffffffffffffffffffffffffffffffffff168152602001600282015481526020016003820160009054906101000a900460ff16151515158152602001600482015481526020016005820160009054906101000a900473ffffffffffffffffffffffffffffffffffffffff1673ffffffffffffffffffffffffffffffffffffffff1673ffffffffffffffffffffffffffffffffffffffff1681526020016006820180546103f790611cca565b80601f016020809104026020016040519081016040528092919081815260200182805461042390611cca565b80156104705780601f1061044557610100808354040283529160200191610470565b820191906000526020600020905b81548152906001019060200180831161045357829003601f168201915b5050505050815260200160078201805461048990611cca565b80601f01602080910402602001604051908101604052809291908181526020018280546104b590611cca565b80156105025780601f106104d757610100808354040283529160200191610502565b820191906000526020600020905b8154815290600101906020018083116104e557829003601f168201915b505050505081526020016008820160009054906101000a900460ff16151515158152602001600982018054806020026020016040519081016040528092919081815260200182805480156105ab57602002820191906000526020600020905b8160009054906101000a900473ffffffffffffffffffffffffffffffffffffffff1673ffffffffffffffffffffffffffffffffffffffff1681526020019060010190808311610561575b50505050508152602001600a8201548152602001600b8201548152602001600c8201548152602001600d820154815250509050919050565b60008060020154905090565b600060060160009054906101000a900460ff1615610642576040517f08c379a000000000000000000000000000000000000000000000000000000000815260040161063990611d58565b60405180910390fd5b61064b3361121f565b61068a576040517f08c379a000000000000000000000000000000000000000000000000000000000815260040161068190611dc4565b60405180910390fd5b610693336112d3565b6106d2576040517f08c379a00000000000000000000000000000000000000000000000000000000081526004016106c990611e56565b60405180910390fd5b60008060090160003373ffffffffffffffffffffffffffffffffffffffff1673ffffffffffffffffffffffffffffffffffffffff1681526020019081526020016000206040518060800160405290816000820160009054906101000a900473ffffffffffffffffffffffffffffffffffffffff1673ffffffffffffffffffffffffffffffffffffffff1673ffffffffffffffffffffffffffffffffffffffff1681526020016000820160149054906101000a900460ff161515151581526020016000820160159054906101000a900460ff161515151581526020016000820160169054906101000a900460ff1615151515815250509050600015158160200151151514610814576040517f08c379a000000000000000000000000000000000000000000000000000000000815260040161080b90611ec2565b60405180910390fd5b6001816020019015159081151581525050828160400190151590811515815250506000806007016000848152602001908152602001600020905083156108735780600c01600081548092919061086990611f11565b919050555061088e565b80600d01600081548092919061088890611f11565b91905055505b60018160080160006101000a81548160ff02191690831515021790555080600a0160008154809291906108c090611f11565b91905055506108cd611431565b156108fa5760008060060160006101000a81548160ff021916908315150217905550600080600401819055505b3373ffffffffffffffffffffffffffffffffffffffff167fa32151c21b193dcf3d43d553597e960d429ef6cafad3492ee4790e41be1ce520856040516109409190611bfd565b60405180910390a250505050565b60008061095961150d565b90503373ffffffffffffffffffffffffffffffffffffffff168173ffffffffffffffffffffffffffffffffffffffff16146109c9576040517f08c379a00000000000000000000000000000000000000000000000000000000081526004016109c090611fcb565b60405180910390fd5b6001600060060160006101000a81548160ff021916908315150217905591505090565b60008060000160009054906101000a900473ffffffffffffffffffffffffffffffffffffffff16905090565b6000610a2261150d565b90503373ffffffffffffffffffffffffffffffffffffffff168173ffffffffffffffffffffffffffffffffffffffff1614610a92576040517f08c379a0000000000000000000000000000000000000000000000000000000008152600401610a8990611fcb565b60405180910390fd5b600073ffffffffffffffffffffffffffffffffffffffff168273ffffffffffffffffffffffffffffffffffffffff1603610b01576040517f08c379a0000000000000000000000000000000000000000000000000000000008152600401610af890612037565b60405180910390fd5b610b0a826112d3565b610b49576040517f08c379a0000000000000000000000000000000000000000000000000000000008152600401610b4090611e56565b60405180910390fd5b60001515600060090160008473ffffffffffffffffffffffffffffffffffffffff1673ffffffffffffffffffffffffffffffffffffffff16815260200190815260200160002060000160169054906101000a900460ff16151503610c885760008060090160008473ffffffffffffffffffffffffffffffffffffffff1673ffffffffffffffffffffffffffffffffffffffff1681526020019081526020016000209050828160000160006101000a81548173ffffffffffffffffffffffffffffffffffffffff021916908373ffffffffffffffffffffffffffffffffffffffff16021790555060008160000160146101000a81548160ff02191690831515021790555060008160000160156101000a81548160ff02191690831515021790555060018160000160166101000a81548160ff021916908315150217905550505b60005b600060080180549050811015610d5d578273ffffffffffffffffffffffffffffffffffffffff1660006008018281548110610cc957610cc8612057565b5b9060005260206000200160009054906101000a900473ffffffffffffffffffffffffffffffffffffffff1673ffffffffffffffffffffffffffffffffffffffff1603610d4a576040517f08c379a0000000000000000000000000000000000000000000000000000000008152600401610d41906120d2565b60405180910390fd5b8080610d5590611f11565b915050610c8b565b506000600801829080600181540180825580915050600190039060005260206000200160009091909190916101000a81548173ffffffffffffffffffffffffffffffffffffffff021916908373ffffffffffffffffffffffffffffffffffffffff16021790555060006005016000815480929190610dda90611f11565b91905055505050565b60008060050154905090565b6000610df961150d565b90503373ffffffffffffffffffffffffffffffffffffffff168173ffffffffffffffffffffffffffffffffffffffff1614610e69576040517f08c379a0000000000000000000000000000000000000000000000000000000008152600401610e6090611fcb565b60405180910390fd5b60036000600501541015610eb2576040517f08c379a0000000000000000000000000000000000000000000000000000000008152600401610ea99061213e565b60405180910390fd5b6000610ec46003600060050154611540565b905060005b8151811015610fb55760008060090160003373ffffffffffffffffffffffffffffffffffffffff1673ffffffffffffffffffffffffffffffffffffffff16815260200190815260200160002060000160009054906101000a900473ffffffffffffffffffffffffffffffffffffffff1690506000600801819080600181540180825580915050600190039060005260206000200160009091909190916101000a81548173ffffffffffffffffffffffffffffffffffffffff021916908373ffffffffffffffffffffffffffffffffffffffff160217905550508080610fad90611f11565b915050610ec9565b505050565b6000610fc461150d565b90503373ffffffffffffffffffffffffffffffffffffffff168173ffffffffffffffffffffffffffffffffffffffff1614611034576040517f08c379a000000000000000000000000000000000000000000000000000000000815260040161102b90611fcb565b60405180910390fd5b816000800160006101000a81548173ffffffffffffffffffffffffffffffffffffffff021916908373ffffffffffffffffffffffffffffffffffffffff1602179055505050565b60008060060160009054906101000a900460ff16905090565b60008060010160009054906101000a900473ffffffffffffffffffffffffffffffffffffffff16905090565b60006110ca61150d565b90503373ffffffffffffffffffffffffffffffffffffffff168173ffffffffffffffffffffffffffffffffffffffff161461113a576040517f08c379a000000000000000000000000000000000000000000000000000000000815260040161113190611fcb565b60405180910390fd5b81600060010160006101000a81548173ffffffffffffffffffffffffffffffffffffffff021916908373ffffffffffffffffffffffffffffffffffffffff1602179055505050565b60008061118d61150d565b90503373ffffffffffffffffffffffffffffffffffffffff168173ffffffffffffffffffffffffffffffffffffffff16146111fd576040517f08c379a00000000000000000000000000000000000000000000000000000000081526004016111f490611fcb565b60405180910390fd5b60008060060160006101000a81548160ff021916908315150217905591505090565b600080600090505b6000600801805490508110156112c8578273ffffffffffffffffffffffffffffffffffffffff166000600801828154811061126557611264612057565b5b9060005260206000200160009054906101000a900473ffffffffffffffffffffffffffffffffffffffff1673ffffffffffffffffffffffffffffffffffffffff16036112b55760019150506112ce565b80806112c090611f11565b915050611227565b50600090505b919050565b60008060008060010160009054906101000a900473ffffffffffffffffffffffffffffffffffffffff1673ffffffffffffffffffffffffffffffffffffffff166370a08231856040518263ffffffff1660e01b81526004016113359190611c27565b602060405180830381865afa158015611352573d6000803e3d6000fd5b505050506040513d601f19601f820116820180604052508101906113769190612173565b11905060008060000160009054906101000a900473ffffffffffffffffffffffffffffffffffffffff1673ffffffffffffffffffffffffffffffffffffffff166370a08231856040518263ffffffff1660e01b81526004016113d89190611c27565b602060405180830381865afa1580156113f5573d6000803e3d6000fd5b505050506040513d601f19601f820116820180604052508101906114199190612173565b90508180156114285750600081115b92505050919050565b600080600090505b60006008018054905081101561150457600080600801828154811061146157611460612057565b5b9060005260206000200160009054906101000a900473ffffffffffffffffffffffffffffffffffffffff169050600060090160008273ffffffffffffffffffffffffffffffffffffffff1673ffffffffffffffffffffffffffffffffffffffff16815260200190815260200160002060000160149054906101000a900460ff166114f05760009250505061150a565b5080806114fc90611f11565b915050611439565b50600190505b90565b6000611517611696565b60040160009054906101000a900473ffffffffffffffffffffffffffffffffffffffff16905090565b606081831115611585576040517f08c379a000000000000000000000000000000000000000000000000000000000815260040161157c90612212565b60405180910390fd5b60008367ffffffffffffffff8111156115a1576115a0612232565b5b6040519080825280602002602001820160405280156115cf5781602001602082028036833780820191505090505b50905060006001846115e19190612261565b905060005b8581101561168a5760006001836115fd9190612295565b42836040516020016116109291906122ea565b6040516020818303038152906040528051906020012060001c6116339190612345565b90508084838151811061164957611648612057565b5b602002602001018181525050828061166090612376565b935050828114611676576116758482856116c3565b5b50808061168290611f11565b9150506115e6565b50819250505092915050565b6000807fc8fcad8db84d3cc18b4c41d551ea0ee66dd599cde068d998e57d5e09332c131c90508091505090565b60008383815181106116d8576116d7612057565b5b602002602001015190508382815181106116f5576116f4612057565b5b60200260200101518484815181106117105761170f612057565b5b602002602001018181525050808483815181106117305761172f612057565b5b60200260200101818152505050505050565b604051806101c0016040528060608152602001600073ffffffffffffffffffffffffffffffffffffffff1681526020016000815260200160001515815260200160008152602001600073ffffffffffffffffffffffffffffffffffffffff168152602001606081526020016060815260200160001515815260200160608152602001600081526020016000815260200160008152602001600081525090565b600080fd5b6000819050919050565b6117f9816117e6565b811461180457600080fd5b50565b600081359050611816816117f0565b92915050565b600060208284031215611832576118316117e1565b5b600061184084828501611807565b91505092915050565b600081519050919050565b600082825260208201905092915050565b60005b83811015611883578082015181840152602081019050611868565b60008484015250505050565b6000601f19601f8301169050919050565b60006118ab82611849565b6118b58185611854565b93506118c5818560208601611865565b6118ce8161188f565b840191505092915050565b600073ffffffffffffffffffffffffffffffffffffffff82169050919050565b6000611904826118d9565b9050919050565b611914816118f9565b82525050565b611923816117e6565b82525050565b60008115159050919050565b61193e81611929565b82525050565b600081519050919050565b600082825260208201905092915050565b6000819050602082019050919050565b600061197c838361190b565b60208301905092915050565b6000602082019050919050565b60006119a082611944565b6119aa818561194f565b93506119b583611960565b8060005b838110156119e65781516119cd8882611970565b97506119d883611988565b9250506001810190506119b9565b5085935050505092915050565b60006101c0830160008301518482036000860152611a1182826118a0565b9150506020830151611a26602086018261190b565b506040830151611a39604086018261191a565b506060830151611a4c6060860182611935565b506080830151611a5f608086018261191a565b5060a0830151611a7260a086018261190b565b5060c083015184820360c0860152611a8a82826118a0565b91505060e083015184820360e0860152611aa482826118a0565b915050610100830151611abb610100860182611935565b50610120830151848203610120860152611ad58282611995565b915050610140830151611aec61014086018261191a565b50610160830151611b0161016086018261191a565b50610180830151611b1661018086018261191a565b506101a0830151611b2b6101a086018261191a565b508091505092915050565b60006020820190508181036000830152611b5081846119f3565b905092915050565b611b61816117e6565b82525050565b6000602082019050611b7c6000830184611b58565b92915050565b611b8b81611929565b8114611b9657600080fd5b50565b600081359050611ba881611b82565b92915050565b60008060408385031215611bc557611bc46117e1565b5b6000611bd385828601611b99565b9250506020611be485828601611807565b9150509250929050565b611bf781611929565b82525050565b6000602082019050611c126000830184611bee565b92915050565b611c21816118f9565b82525050565b6000602082019050611c3c6000830184611c18565b92915050565b611c4b816118f9565b8114611c5657600080fd5b50565b600081359050611c6881611c42565b92915050565b600060208284031215611c8457611c836117e1565b5b6000611c9284828501611c59565b91505092915050565b7f4e487b7100000000000000000000000000000000000000000000000000000000600052602260045260246000fd5b60006002820490506001821680611ce257607f821691505b602082108103611cf557611cf4611c9b565b5b50919050565b600082825260208201905092915050565b7f5761697420666f7220766f74696e672074696d6520706c656173652100000000600082015250565b6000611d42601c83611cfb565b9150611d4d82611d0c565b602082019050919050565b60006020820190508181036000830152611d7181611d35565b9050919050565b7f596f7520617265206e6f7420656c696769626c6520746f20766f746500000000600082015250565b6000611dae601c83611cfb565b9150611db982611d78565b602082019050919050565b60006020820190508181036000830152611ddd81611da1565b9050919050565b7f596f75206d757374206861766520746865207265717569726564204e4654206160008201527f6e6420455243323020746f6b656e20746f20766f746500000000000000000000602082015250565b6000611e40603683611cfb565b9150611e4b82611de4565b604082019050919050565b60006020820190508181036000830152611e6f81611e33565b9050919050565b7f596f75206861766520616c726561647920766f74656400000000000000000000600082015250565b6000611eac601683611cfb565b9150611eb782611e76565b602082019050919050565b60006020820190508181036000830152611edb81611e9f565b9050919050565b7f4e487b7100000000000000000000000000000000000000000000000000000000600052601160045260246000fd5b6000611f1c826117e6565b91507fffffffffffffffffffffffffffffffffffffffffffffffffffffffffffffffff8203611f4e57611f4d611ee2565b5b600182019050919050565b7f4f6e6c79204f776e65722063616e2063616c6c20746869732066756e6374696f60008201527f6e00000000000000000000000000000000000000000000000000000000000000602082015250565b6000611fb5602183611cfb565b9150611fc082611f59565b604082019050919050565b60006020820190508181036000830152611fe481611fa8565b9050919050565b7f496e76616c696420616464726573730000000000000000000000000000000000600082015250565b6000612021600f83611cfb565b915061202c82611feb565b602082019050919050565b6000602082019050818103600083015261205081612014565b9050919050565b7f4e487b7100000000000000000000000000000000000000000000000000000000600052603260045260246000fd5b7f566f74657220697320616c726561647920656c696769626c6500000000000000600082015250565b60006120bc601983611cfb565b91506120c782612086565b602082019050919050565b600060208201905081810360008301526120eb816120af565b9050919050565b7f4e6f7420656e6f75676820766f7465727320746f2073656c6563742066726f6d600082015250565b6000612128602083611cfb565b9150612133826120f2565b602082019050919050565b600060208201905081810360008301526121578161211b565b9050919050565b60008151905061216d816117f0565b92915050565b600060208284031215612189576121886117e1565b5b60006121978482850161215e565b91505092915050565b7f436f756e74206d757374206265206c657373207468616e206f7220657175616c60008201527f20746f20746865206d6178696d756d0000000000000000000000000000000000602082015250565b60006121fc602f83611cfb565b9150612207826121a0565b604082019050919050565b6000602082019050818103600083015261222b816121ef565b9050919050565b7f4e487b7100000000000000000000000000000000000000000000000000000000600052604160045260246000fd5b600061226c826117e6565b9150612277836117e6565b925082820390508181111561228f5761228e611ee2565b5b92915050565b60006122a0826117e6565b91506122ab836117e6565b92508282019050808211156122c3576122c2611ee2565b5b92915050565b6000819050919050565b6122e46122df826117e6565b6122c9565b82525050565b60006122f682856122d3565b60208201915061230682846122d3565b6020820191508190509392505050565b7f4e487b7100000000000000000000000000000000000000000000000000000000600052601260045260246000fd5b6000612350826117e6565b915061235b836117e6565b92508261236b5761236a612316565b5b828206905092915050565b6000612381826117e6565b91506000820361239457612393611ee2565b5b60018203905091905056fea26469706673582212207b8f1648ff0d5ce509a032a7398adf3f30e3fca6ffd3b740428f59fc9b578ce164736f6c63430008110033",
  "linkReferences": {},
  "deployedLinkReferences": {}
}